:100000000C9447020C946F020C946F020C946F02D4
:100010000C946F020C946F020C946F020C946F029C
:100020000C946F020C946F020C946F020C946F028C
:100030000C946F020C946F020C946F020C946F027C
:100040000C943E300C946F020C940C300C94E62F00
:100050000C946F020C946F020C946F020C946F025C
:100060000C946F020C946F023F096970096D7174F2
:10007000740972656C6179097265626F6F74002D25
:100080002D2D2D2D2D2D2D2D2D2D2D2D2D2D0053A7
:10009000797374656D20636F6D6D616E6473006458
:1000A000697361626C6500656E61626C6500002059
:1000B00020476174657761793A20090900002020A2
:1000C0005375626E6574204D61736B3A20090900A7
:1000D0000020204950763420416464726573733A7D
:1000E0000909002020444843503A090909002D2DF0
:1000F0002D2D2D2D2D2D2D2D2D2D2D2D2D2D2D2D30
:100100002D2D2D2D2D2D2D2D2D2D2D2D2D2D2D004C
:100110000A4D616E75616C6C7920636F6E666967FC
:100120007572656420495076342073657474696E05
:10013000677300002020416374697665204950761A
:100140003420676174657761793A090900002020DD
:100150004163746976652049507634207375626E08
:100160006574206D61736B3A09000020204163744F
:1001700069766520495076342061646472657373D2
:100180003A0909002D2D2D2D2D2D2D2D2D2D2D2D07
:100190002D2D2D2D2D2D2D2D000A41637469766591
:1001A00020495076342073657474696E67730069F2
:1001B00070205B2D44203C656E61626C65207C2064
:1001C00064697361626C653E5D205B2D69203C69EA
:1001D00070763420616464726573733E5D205B2DBC
:1001E00073203C7375626E6574206D61736B3E5D48
:1001F000205B2D67203C67617465776179206970A9
:100200003E5D0055736167653A200020205061799A
:100210006C6F61643A2009093C4F4E7C4F46467C26
:10022000544F47474C453E00202052656C61792071
:100230003420746F7069633A200900202052656C85
:100240006179203320746F7069633A20090020209F
:1002500052656C6179203220746F7069633A2009AD
:1002600000202052656C6179203120746F706963C1
:100270003A2009003A0020204D5154542053657211
:100280007665723A0909002020486F73746E616DBB
:10029000653A200909002D2D2D2D2D2D2D2D2D2DCB
:1002A0002D2D2D2D000A4D51545420736574746901
:1002B0006E6773006D717474205B2D73203C6970E0
:1002C000763420616464726573733E5D205B2D70CB
:1002D000203C706F72743E5D205B2D68203C686F1F
:1002E00073746E616D653E5D0055736167653A209C
:1002F00000202052656C617920343A090020205298
:10030000656C617920333A09004F4646004F4E0034
:10031000202052656C617920323A09002020526514
:100320006C617920313A09002D2D2D2D2D2D2D2D8B
:100330002D2D2D2D000A52656C6179207374617426
:1003400075730072656C6179205B3C317C327C3363
:100350007C343E203C4F4E7C4F46467C544F4747B2
:100360004C453E5D0055736167653A20000D0A00FB
:100370000D0A0000000000240027002A00000000F1
:1003800000250028002B0000000000230026002983
:10039000000404040404040404020202020202032E
:1003A0000303030303010204081020408001020438
:1003B00008102001020408102000000008000201BB
:1003C00000000304070000000000000000726562E6
:1003D0006F6F740072656C6179006D71747400697F
:1003E00070003F00537461727420756172742073E1
:1003F00065727665722E2E2E0053746172742074AD
:10040000656C6E657420736572766572206F6E2000
:10041000004E6F206C696E6B2E2E2E006D656D6F19
:1004200072792E2E2E0052657472792E2E2E004473
:10043000484350207365727665722E2E2E004765F4
:100440007474696E672069702066726F6D20005346
:10045000797374656D2073746172742E2E2E003E54
:1004600000436F6D6D616E64204E4F5420666F7552
:100470006E642E00436F6E6E656374656420746FE6
:10048000204D5154542E2E2E0000D330443A1124C6
:100490001FBECFEFD8E0DEBFCDBF11E0A0E0B1E0DE
:1004A000ECEBFCE702C005900D92AE3FB107D9F727
:1004B00027E0AEEFB1E001C01D92A634B207E1F72C
:1004C00012E0C6E4D2E004C02197FE010E94183C6D
:1004D000C534D107C9F70E94AF310C94513E0C943A
:1004E0000000CF93DF93EC01FA013296E60FF71F7D
:1004F000DC019D012C1B3D0BCF01861B970B4D9101
:10050000442311F04193F5CFAC01421B530B640F10
:10051000751FFB013297308361507109FB01208305
:10052000DF91CF9108958091F4069091F5060097A0
:1005300011F480E02FC0DC01ED91FC910688F78971
:10054000E02D0995209117073091180781111FC0E0
:10055000232B79F78DEF9FEF909318078093170760
:100560008091F4069091F506DC01ED91FC910680F6
:10057000F781E02D09958091F4069091F506DC0154
:10058000ED91FC910488F589E02D0995D2CF81E0A9
:10059000232B79F6089520E3FC0120833296862FE1
:1005A00082958F706F706A3030F4605D6293682F4F
:1005B0008111F5CF0895695CF9CFCF93DF93E0EF18
:1005C000F6E0EC018A819B81AC81BD81858F968F9D
:1005D000A78FB0A374A363A312A211A2CF01DF91CE
:1005E000CF910895AF92BF92CF92DF92EF92FF9298
:1005F0000F931F93CF93DF936C017B018B01040F4B
:10060000151FEB015E01AE18BF08C017D10759F0E6
:100610006991D601ED91FC910190F081E02DC60128
:100620000995892B79F7C501DF91CF911F910F9122
:10063000FF90EF90DF90CF90BF90AF900895DC01D6
:1006400090E030E020E08AE0FB014191BF014423CB
:1006500011F150ED540F5A3090F4829FF001839FB6
:10066000F00D11249F0120533109240F311D47FD46
:100670003A952F3F310541F338F380E008954E322B
:10068000E1F79330D1F3FD01E90FF11D22839F5F64
:1006900030E020E0D9CF933081F715962C9381E09C
:1006A0000895FC01538D448D252F30E0842F90E078
:1006B000821B930B541710F0CF960895019708955D
:1006C000FC01918D828D981761F0A28DAE0FBF2F26
:1006D000B11D5D968C91928D9F5F9F73928F90E07C
:1006E00008958FEF9FEF0895FC01918D828D9817EB
:1006F00031F0828DE80FF11D858D90E008958FEF28
:100700009FEF0895FC01918D228D892F90E0805CF0
:100710009F4F821B91098F739927089580ED95E073
:100720000E94820321E0892B09F420E0822F0895A2
:1007300080E090E0892B29F00E948E0381110C94B7
:1007400000000895FC01A48DA80FB92FB11DA35A74
:10075000BF4F2C91848D90E001968F739927848FE1
:10076000A689B7892C93A089B1898C918370806404
:100770008C93938D848D981306C00288F389E02DA5
:1007800080818F7D80830895EF92FF920F931F9356
:10079000CF93DF93EC0181E0888F9B8D8C8D981334
:1007A0001AC0E889F989808185FF15C09FB7F89440
:1007B000EE89FF896083E889F9898081837080648C
:1007C00080839FBF81E090E0DF91CF911F910F91D7
:1007D000FF90EF900895F62E0B8D10E00F5F1F4FE6
:1007E0000F731127E02E8C8D8E110CC00FB607FCF5
:1007F000FACFE889F989808185FFF5CFCE010E9483
:10080000A203F1CFEB8DEC0FFD2FF11DE35AFF4F4B
:10081000F0829FB7F8940B8FEA89FB898081806210
:10082000CFCF0F931F93CF93DF938C01D0E0C0E025
:10083000F801EC0FFD1F6491662341F080ED95E017
:100840000E94C403892B11F02196F2CFCE01DF91D3
:10085000CF911F910F910895CF93DF93EC01888D75
:100860008823B9F0AA89BB89E889F9898C9185FD2B
:1008700003C0808186FD0DC00FB607FCF7CF8C91B9
:1008800085FFF2CF808185FFEDCFCE010E94A203CC
:10089000E9CFDF91CF910895833081F028F4813042
:1008A00099F08230A9F008958730A9F08830C9F016
:1008B0008430B1F4809180008F7D03C080918000EE
:1008C0008F7780938000089584B58F7784BD0895D5
:1008D00084B58F7DFBCF8091B0008F778093B0007F
:1008E00008958091B0008F7DF9CFCF93DF93282FAB
:1008F00030E0F901E754FC4F8491F901EB55FC4FCE
:10090000D491F901EF56FC4FC491CC23A1F0811191
:100910000E944C04EC2FF0E0EE0FFF1FE957FC4F54
:10092000A591B491EC91ED2381E090E009F480E091
:10093000DF91CF91089580E090E0FACF1F93CF939D
:10094000DF93282F30E0F901E754FC4F8491F9013F
:10095000EB55FC4FD491F901EF56FC4FC491CC23D9
:10096000A9F0162F81110E944C04EC2FF0E0EE0F3D
:10097000FF1FE358FC4FA591B4918FB7F894EC9109
:10098000111108C0D095DE23DC938FBFDF91CF918A
:100990001F910895DE2BF8CFCF93DF9390E0FC01F9
:1009A000EB55FC4F24918F569C4FFC01849188237A
:1009B000D1F090E0880F991FFC01ED58FC4FA591F4
:1009C000B491FC01E358FC4FC591D491623071F4AD
:1009D0009FB7F8943C91822F809583238C93E88174
:1009E0002E2B28839FBFDF91CF9108958FB7F89466
:1009F000EC912E2B2C938FBFF6CF3FB7F8948091BC
:100A0000B9029091BA02A091BB02B091BC0226B586
:100A1000A89B05C02F3F19F00196A11DB11D3FBF36
:100A2000BA2FA92F982F8827BC01CD01620F711D05
:100A3000811D911D42E0660F771F881F991F4A95FF
:100A4000D1F708958F929F92AF92BF92CF92DF928B
:100A5000EF92FF924B015C010E94FD046B017C014F
:100A60000E94FD046C197D098E099F09683E734040
:100A700081059105A8F321E0821A9108A108B10827
:100A800088EEC80E83E0D81EE11CF11C811491048D
:100A9000A104B10429F7FF90EF90DF90CF90BF90B1
:100AA000AF909F908F90089562E370E080E090E0B7
:100AB0000E9422050C94000090E080E008952FB77A
:100AC000F8946091B5027091B6028091B70290914E
:100AD000B8022FBF0895EF92FF920F931F93CF9309
:100AE000DF9300D000D0CDB7DEB7FA0120E08E0151
:100AF0000F5F1F4F9E2F9F77EE0FEF2FEE1FFF0B05
:100B0000F195309709F09068D801A20FB11D9C9320
:100B10002F5F309779F730E0FB01E21BF30B848302
:100B2000FB01E21BF30B3596D801CD01801B910B25
:100B3000821793071CF48D918193F7CF2F5F3F4F5E
:100B40008091F4069091F5068901040F151F621B30
:100B5000730B6B5F7F4FDC01ED91FC910280F381A1
:100B6000E02DA80109957C010E945F0560930007B4
:100B700070930107809302079093030781E00E159D
:100B80001F0509F080E00F900F900F900F90DF91FC
:100B9000CF911F910F91FF90EF9008958F929F92A8
:100BA000AF92BF92CF92DF92EF92FF92CF93DF93FB
:100BB000EC010E945F054B015C018091F40690916D
:100BC000F506DC01ED91FC910084F185E02D09959D
:100BD000892BB9F40E945F056B017C01C818D90804
:100BE000EA08FB082091FC063091FD06A8EEB3E070
:100BF0000E94093CC616D706E806F906F0F280E026
:100C00000DC08091F4069091F506DC01ED91FC9108
:100C10000284F385E02D0995888381E0DF91CF91EF
:100C2000FF90EF90DF90CF90BF90AF909F908F900C
:100C300008952F923F924F925F926F927F928F9280
:100C40009F92AF92BF92CF92DF92EF92FF920F935B
:100C50001F93CF93DF93CDB7DEB72A970FB6F894E3
:100C6000DEBF0FBECDBF1C018091F6069091F70646
:100C70000E94CE0581111CC060E070E0CB012A9675
:100C80000FB6F894DEBF0FBECDBFDF91CF911F919D
:100C90000F91FF90EF90DF90CF90BF90AF909F901B
:100CA0008F907F906F905F904F903F902F9008951E
:100CB000E091F606F091F706D0801982EE24E394D5
:100CC000F12C812C912C5401412C512C3201439454
:100CD000CE0101960E94CE05882371F287010F5F35
:100CE0001F4F8981E091F606F091F706EE0DFF1D8A
:100CF0008083E981AE2FAF77B0E0A30192010E941B
:100D00009D3B860E971EA81EB91E37E0440C551C4D
:100D1000661C771C3A95D1F7E7FD3FC0BD2DB07F2B
:100D2000BE838FEF800FF1018083B03309F04CC098
:100D30008091F6069091F706800F911F0E94CE05D4
:100D4000882309F499CF2091F6063091F706C70160
:100D50000296820F931F0E94CE05882309F48CCF40
:100D60000E5F1F4FE091F606F091F706D1018C91CE
:100D7000DF01A80FB11D11968C91119790E0982F6B
:100D8000882712962C91820F911D208121FD0296B9
:100D9000F2E0E0E030E020E01DC078010530110510
:100DA00009F096CF8FEF9FEF909318078093170766
:100DB0008091F4069091F506DC01ED91FC91048898
:100DC000F589E02D099558CFF0E0E0E030E020E033
:100DD00090E080E070E060E0CF2EDE2EE32EF22E79
:100DE00028013B014C185D086E087F084A825B822F
:100DF0006C827D822C01712C612C4F825886698611
:100E00007A864A805B806C807D804C0C5D1C6E1CF9
:100E10007F1CC814D904EA04FB0408F046C0CE01C4
:100E200001960E94CE05882309F426CF80911507EC
:100E300090911607009711F12E812033F9F4D1011A
:100E40002C914EEF5FEF6FEF7FEF421B510961096D
:100E50007109440E551E661E771E2F8138854985FF
:100E60005A85241535054605570540F4DC01ED91FA
:100E7000FC910190F081E02D698109958091F8063F
:100E80009091F9060817190750F48981E091F60648
:100E9000F091F706E00FF11F80830F5F1F4FBFEF48
:100EA000CB1ADB0AEB0AFB0AACCF809115079091B5
:100EB0001607892B69F48091F8069091F906B0E045
:100EC000A0E084159505A605B70510F410E000E034
:100ED000B80190E080E0D3CE8823E9F0A6E9B4E041
:100EE00025E014969C91149789130DC095E0899F75
:100EF000F0011124EA56FB4F848114968C931382DF
:100F0000128214820895992331F0929FD001112406
:100F1000AA56BB4FE6CF08958823A1F09091BD0259
:100F2000992381F08F3F29F48091A3059091A40526
:100F3000089595E0899FF0011124EA56FB4F8281C4
:100F40009381089590E080E008958EBD00000DB477
:100F500007FEFDCF8EB508951F93CF93DF93182F13
:100F6000C62FD42F60E08AE00E949E048C2F8F71E0
:100F7000812B0E94A5078D2F0E94A50761E08AE0C2
:100F8000DF91CF911F910C949E04CF93DF93D82FC4
:100F9000D076909100019D17A1F0C82F43E06FE13A
:100FA00080EA0E94AC074C2F50E085E055954795AC
:100FB0008A95E1F743706FE180E80E94AC07D09317
:100FC0000001DF91CF9108951F93CF93DF93C82F36
:100FD000162FD72F0E94C507412F6C2F80E40E9447
:100FE000AC0761E06C0F4D2F80E4DF91CF911F9132
:100FF0000C94AC07EF92FF920F931F93CF93DF9364
:101000008B017A018F3F59F095E0899FE00111240F
:10101000CA56DB4F68817981600F711F0FC06091E4
:10102000A1057091A205600F711FC1EAD5E061159D
:1010300088E0780778F37850C1EAD5E080E00E9434
:10104000E4078A819B81801B910BE816F90608F45E
:10105000C701DF91CF911F910F91FF90EF900895FD
:10106000EF92FF920F931F93CF93DF93EB0170E00A
:1010700060E00E94FA078C0160E08AE00E949E0412
:101080008AE30E94A5077E01E00EF11EEC16FD0624
:1010900029F080E00E94A5078993F8CF61E08AE0FB
:1010A0000E949E04C801DF91CF911F910F91FF9084
:1010B000EF90089560919F057091A00561157105ED
:1010C00029F0615071098CE00C94E4076FEF77E030
:1010D000FACFCF93DF93C82FD62F0E94C5074D2F8D
:1010E0006C2F80E4DF91CF910C94AC07CF93DF930A
:1010F000D82FC62F60E08AE00E949E048C2F8F714B
:101100008D2B0E94A507C7FF03C080E00E94A507A2
:1011100080E00E94A507C82F61E08AE00E949E043B
:101120008C2FDF91CF910895CF93C82F0E94C507D0
:101130006C2F80E0CF910C947608CF93DF9361E120
:1011400084ED0E94690861E082ED0E946908CFE0A9
:10115000D0E08AEE0E94940880FF0BC06AE070E045
:1011600080E090E00E942205219799F790E080E0CE
:101170000DC060E082ED0E94690888ED0E9494082D
:10118000C82F89ED0E949408982F8C2FDF91CF9162
:101190000895CF93DF93EB01682F84ED0E946908D7
:1011A000BE0186ED0E94E407CFE0D0E08AEE0E9407
:1011B000940880FF08C06AE070E080E090E00E9440
:1011C0002205219799F7DF91CF910895CF938091D0
:1011D000BD02811148C061E08AE00E94CC0461E058
:1011E0008AE00E949E04CFB7F8948091B3028111E7
:1011F00027C0EBE9F3E08491EFEAF3E09491E82F64
:10120000F0E0EE0FFF1FED58FC4FA591B491EC916B
:10121000E92321F461E08AE00E949E0461E08AE013
:101220000E94CC048CB580618CBD8CB580648CBD73
:1012300061E08DE00E94CC0461E08BE00E94CC0470
:101240008091B3028F5F8093B302CFBF8CB58C7F48
:101250008CBD8DB581608DBD82E70E9494088F3F63
:1012600021F08093BD02CF9108951092BD02FBCF73
:10127000CF93C62FBC0182E00E94E40760E08AE0C1
:101280000E949E048AE70E94A5078C2F0E94A50752
:1012900061E08AE0CF910C949E04CF93BC0180E082
:1012A0000E94E40760E08AE00E949E048AE30E94B4
:1012B000A50780E00E94A507C82F61E08AE00E9490
:1012C0009E048C2FCF910895CF92DF92EF92FF92E0
:1012D0000F931F93CF93DF936C018B014130510526
:1012E00079F4CB010E944D09682FC601DF91CF919F
:1012F0001F910F91FF90EF90DF90CF900C943809E1
:10130000EA01C60FD71F7E0181E0E81AF10880E1EB
:101310000E94E407B60184E10E94E4070115184029
:1013200048F4E11488E0F80628F07E0181E0E81A2C
:1013300088E0F80AB70182E10E94E40740E16FE12A
:1013400080EA0E94AC0740E26FE180E80E94AC07AF
:101350006FE180E00E94760885FF07C061E070E0E1
:1013600080E090E00E942205F3CFDF91CF911F91A2
:101370000F91FF90EF90DF90CF900895CF92DF9282
:10138000EF92FF920F931F93CF93DF938C016091A5
:101390009604709197046150784EC12C98E1D92E33
:1013A000E6E9F4E020E0D0E0C0E045E03481CB01A4
:1013B000332341F0439FC00111248A569B4FDC0127
:1013C0008D919C91E080F1808E199F090280F381BC
:1013D000E02D8E1B9F0B8017910799F4B5E02B9F92
:1013E000E0011124CA56DB4FEBE9F4E081E02281F1
:1013F0003381232B09F453C035968F5F8533B9F7BA
:1014000044C00817190748F48C159D0530F4249F33
:10141000E0011124CA56DB4F6C01311121C0209725
:1014200019F7C6E9D4E085E0D82E8C81288139816E
:10143000EA80FB808823D9F0E20EF31E8D9DE00147
:101440001124CA56DB4F68817981E616F70669F3E5
:101450004A815B81C7010E946409F982E882E5CF75
:10146000349FF0011124EA56FB4F232F9FCF809128
:10147000960490919704821B930B8E199F098150BB
:10148000984E8017910708F0AFCF80E0DF91CF91A1
:101490001F910F91FF90EF90DF90CF9008952881DA
:1014A00039814A815B81240F351F31832083138367
:1014B00002839C8194838C83E9CF0F931F93DB017C
:1014C000E42FA80190E0EF3FE1F065E0E69FF00136
:1014D0001124EA56FB4F60817181620F731F01C0B6
:1014E000785025E0289FF001299FF00D1124EA563D
:1014F000FB4F808191818A0F9B1F1F910F910C944C
:1015000064096091A1057091A205620F731F6115B6
:10151000E8E07E0728F7E1EAF5E0DDCFCF92DF9241
:10152000EF92FF920F931F93CF93DF936B018A018A
:10153000790195E0899FE0011124CA56DB4F68814B
:1015400079816C0D7D1D82E00E94E4070A80DB81B9
:10155000C02DCC19DD09EC16FD0608F4E70160E0AA
:101560008AE00E949E048AE70E94A5077801EC0E9B
:10157000FD1EE016F10631F0F80181918F010E9405
:10158000A507F7CF61E08AE00E949E04CE01DF91BB
:10159000CF911F910F91FF90EF90DF90CF90089522
:1015A000DC011C96ED91FC91309731F0868197819A
:1015B000982789279827089590E080E00895CF9391
:1015C000DF93FC01EB01AC85BD851097A9F0129665
:1015D0009C91129713968C9113973C9111962C9194
:1015E0004AE951E051834083328323839483858386
:1015F000CF01DF91CF9108958AE991E091838083B3
:101600001282138214821582F3CFCF93DF931F923D
:10161000CDB7DEB7DC01ED91FC91048CF58DE02DAA
:1016200041E050E0BE016F5F7F4F09951816190623
:1016300034F4898190E00F90DF91CF9108958FEF7E
:101640009FEFF9CFCF93DF93EC018A89882379F05C
:101650009A01AB016E857F850E948E0A2E853F859B
:10166000280F391F3F872E87DF91CF91089590E093
:1016700080E0FACFCF93DF931F92CDB7DEB76983B7
:10168000DC01ED91FC910280F381E02D41E050E01E
:10169000BE016F5F7F4F09950F90DF91CF91089545
:1016A00080E00895CF93DF931F92CDB7DEB76983B3
:1016B000DC01ED91FC910280F381E02D41E050E0EE
:1016C000BE016F5F7F4F09950F90DF91CF91089515
:1016D000762767277627DC0115967C936E931497FF
:1016E000ED91FC910084F185E02D0994FB014150BE
:1016F0005109460F571FE417F50778F4208130E0B1
:10170000322F22276181260F311D820F931F8217EE
:10171000930708F401963296EECFE417F50751F4DB
:10172000208130E0322F2227820F931F82179307E8
:1017300008F401960895CF92DF92EF92FF920F93F3
:101740001F93CF93DF93C82FE0905802F12CFE2C0B
:10175000EE24409159024451550BE40EF51E48E029
:1017600050E062E672E0C7018C0F911D0E94760B7B
:1017700008E0C13129F000917602069506950C73B8
:1017800010E0A8016AE672E00E94760BEC010E15EB
:101790001F0508F049C0A701401B510B8091AF0203
:1017A00062E270E081FF02C063E270E0600F711FCF
:1017B0008091B0020E94FA0701977C0160E08AE004
:1017C0000E949E048AE30E94A507D12CC12CCE144E
:1017D000DF04B8F480E00E94A507082F10E0102F66
:1017E000002780E00E94A507800F912F911DC80F50
:1017F000D91FC817D90708F4219682E0C80ED11C5A
:10180000E6CFEC14FD0461F480E00E94A50790E0AF
:10181000982F8827C80FD91FC817D90708F4219611
:1018200061E08AE00E949E049C2F8D2FCD2B11F445
:101830008FEF9FEFDF91CF911F910F91FF90EF906E
:10184000DF90CF90089544E150E066E572E090E0CB
:1018500080E00E94760B009721F09827892798272F
:1018600008958FEF9FEF0895CF93DF93EC01AC8144
:10187000BD81EEEBF2E08A819B8191838083B3830B
:10188000A283FA0184819581E0E4F2E0DA01129604
:101890004D915C915183408393838283E9018C81D4
:1018A0009D81ECE3F2E02A813B81318320839383A5
:1018B0008283FB0182819381A481B5818093CE06CE
:1018C0009093CF06A093D006B093D106DF91CF912D
:1018D0000895FF920F931F93CF93DF93C091AF02B0
:1018E000C1FF66C02091460230E048E452E061E06A
:1018F00070E08091B0020E948E0ACD7FC093AF024B
:10190000F090B0028091BD02882309F444C085E0C4
:10191000F89EF0011124EA56FB4F00811181C2812B
:10192000D381C00FD11F60E0C8010E943809B801FF
:1019300084E00E94E407BE016850710986E00E94BD
:10194000E4071AE0249740E86FE180E80E94AC07C2
:1019500040E86FE180EA0E94AC074AE06CE180EA6F
:101960000E94AC0748E06FE180E80E94AC078CE180
:101970000E949408082F8A70D1F348E06FE180EA52
:101980000E94AC0701FF2DC0CE010E944D0985FFCA
:1019900002C01150C1F6C0E08F2D0E946C0710925A
:1019A000B0028C2FDF91CF911F910F91FF9008957E
:1019B000C091B102D091B202CE01089621F41092EA
:1019C000B002C0E0EECF0E94BE098093B00288232F
:1019D000C1F39E0148E452E061E070E00E948E0A8B
:1019E0008FCFC1E0D9CF0F931F93CF93DF93EC013B
:1019F0008C010B5F1F4F89910E946C07FE0131978C
:101A00001082C017D107B9F7DF91CF911F910F91C5
:101A10000895CF93DF93EC0188810E946C07FE014B
:101A2000CE01049621812193E817F907D9F71C828A
:101A3000DF91CF910895CF93DF93EC01E881F98195
:101A4000008CF18DE02D0995882339F08C859D85DA
:101A50000296DF91CF910C94F30CDF91CF91089512
:101A60000F931F93CF93DF931F92CDB7DEB78C01F7
:101A7000DC01ED91FC91008CF18DE02D099588231E
:101A8000B1F0D8011C96ED91FC918281882379F008
:101A900041E050E0BE016F5F7F4F0E9430088981B6
:101AA00090E00F90DF91CF911F910F9108958FEFEC
:101AB0009FEFF7CFCF93DF931F92CDB7DEB7DC0157
:101AC000ED91FC910288F389E02D41E050E0BE01E8
:101AD0006F5F7F4F09951816190634F4898190E0DD
:101AE0000F90DF91CF9108958FEF9FEFF9CF6F9215
:101AF0007F928F929F92AF92BF92CF92DF92EF929E
:101B0000FF920F931F93CF93DF938C014B01EA0158
:101B1000DC01ED91FC91008CF18DE02D099588237D
:101B200009F47BC0D8011C96ED91FC918281882339
:101B300009F476C07E018EE1682EBE016E197F0920
:101B4000680D791DD8011C96ED91FC91A701828149
:101B50000E9430086C01F801A484B584D501129666
:101B60007C90872D0E948C07C816D906E9F5EC18E1
:101B7000FD08C50102960E94090DF801A485B585EE
:101B8000EC916E9EF0011124EB5EFB4F818D84FF82
:101B900009C011968C911197982F967019F488604E
:101BA00011968C93D8011C96ED91FC911D97828122
:101BB00081112EC0818182FF05C011821D961C9269
:101BC0001E921C97CE018E199F09DF91CF911F9114
:101BD0000F91FF90EF90DF90CF90BF90AF909F90CC
:101BE0008F907F906F900895B5E07B9EF001112457
:101BF000EA56FB4F808191818C0D9D1D91838083DE
:101C0000828193818C199D0993838283CE01DDCFDC
:101C1000E114F10409F091CFF9CF8FEF9FEFD5CF09
:101C200090E080E0D2CFEF92FF920F931F93CF937B
:101C3000DF93EC01E881F981008CF18DE02D0995AD
:101C40008823E1F00C851D85780182E0E80EF11C07
:101C5000095F1F4FD0E0C0E0F70181917F010E9432
:101C60008C07C80FD91FE016F106B1F7CE01DF913E
:101C7000CF911F910F91FF90EF900895D0E0C0E0B9
:101C8000F5CFFC01448555854115510551F0FB0107
:101C9000248535852115310521F081E04217530750
:101CA00009F080E00895DC011C96ED91FC913097DD
:101CB00031F08281811105C081818170089580E0B9
:101CC000089581E00895DC01ED91FC91028CF38D83
:101CD000E02D099591E089270895DC01ED91FC91B3
:101CE000048CF58DE02D0994EF92FF920F931F93D2
:101CF000CF93DF93EC018B017A010E945F05688B23
:101D0000798B8A8B9B8B8C819D81DC01ED91FC9181
:101D10000280F381E02DA701B801DF91CF911F91DF
:101D20000F91FF90EF9009941F93CF93DF93EC01F5
:101D3000162F0E945F05688B798B8A8B9B8B8C8119
:101D40009D81DC01ED91FC910190F081E02D612FEE
:101D5000DF91CF911F910994089590E080E008955C
:101D600090917E03992339F0E091C202F091C30271
:101D7000309709F009940895CF93DF93EC01FE01A9
:101D800084912196882319F00E94B00EF8CFDF913C
:101D9000CF9108950E94BC0E80E793E00C94BC0E96
:101DA0008FE890E00E94CA0E8FE790E00E94CA0E72
:101DB00088E690E00E94CA0E90E080E00895CF93FC
:101DC000DF93EC018991811103C0DF91CF910895D8
:101DD0000E94B00EF7CF0E94DF0E8DE693E00C94C8
:101DE000BC0EECE0F3E030E020E040815181452B77
:101DF00021F442815381452B41F02F5F3F4F3496B0
:101E00002530310591F780E00895220F331F220F0E
:101E1000331FF901E45FFC4F9183808373836283F6
:101E200081E008950E94E6088091BD02882381F038
:101E30000E949D0892FD0FC082E090E020918C03EB
:101E400030918D032817390711F00C940000089584
:101E500090E080E0F3CF81E090E0F0CF682F80ED5C
:101E600095E00C94C403CF93DF93EC0180ED95E0F3
:101E70000E948203009739F080ED95E00E94600394
:101E8000888381E090E0DF91CF910895CF93DF9335
:101E900000D0CDB7DEB781E190E00E94683B898336
:101EA00082E190E00E94683B8A8389819A81019750
:101EB0008E3F9F4F20F08BE597E09A83898389813D
:101EC0009A810F900F90DF91CF9108950C94683B09
:101ED000FF920F931F93CF93DF93EC018CE090E080
:101EE0000E94660F182F8BE090E00E94660F082F6B
:101EF0008AE090E00E94660FF82E89E090E00E9450
:101F0000660F2AE931E0398328838A83FB820C83B8
:101F10001D83CE01DF91CF911F910F91FF90089506
:101F2000FF920F931F93CF93DF93EC0180E190E03A
:101F30000E94660F182F8FE090E00E94660F082F16
:101F40008EE090E00E94660FF82E8DE090E00E94F7
:101F5000660F2AE931E0398328838A83FB820C8368
:101F60001D83CE01DF91CF911F910F91FF900895B6
:101F70000F931F93CF93DF9300EB15E0C3E1D0E005
:101F8000CE010E94660FC33131F48F3F69F0882380
:101F900059F0843149F0F80181938F01882321F0B1
:101FA0002196C333D10561F78091B005811106C038
:101FB0006CE971E080EB95E00E94363E80EB95E0A5
:101FC000DF91CF911F910F910895CF92DF92EF9201
:101FD000FF920F931F93CF93DF937C01EB016091EE
:101FE000F8067091F906CE010E941E3B8C010E94FA
:101FF0009302882309F440C0C090F806D090F906F7
:10200000B601C7010E941E3B9801295F3F4F820F16
:10201000931FC816D90680F16091F6067091F706F5
:1020200045E050E0C7010E9471027E01E00EF11E02
:10203000FE01EC01CE1BDF0BAE014E0F5F1F609166
:10204000F6067091F706EE15FF0531F02191640F49
:10205000751FDB012C93F0CF05501109A801480F23
:10206000591F80E3DF91CF911F910F91FF90EF9067
:10207000DF90CF900C946B0580E0DF91CF911F91A2
:102080000F91FF90EF90DF90CF9008950F931F93E3
:10209000CF93DF93EC010091F8061091F906B80197
:1020A0000E941E3B209709F441C0099608171907A2
:1020B000E8F10E9493028823C9F18091FE06909175
:1020C000FF06019681F19093FF068093FE06E09152
:1020D000F606F091F7068091FF068583E091F606FB
:1020E000F091F7068091FE0686836091F606709166
:1020F000F70647E050E0CE010E947102E091F6063B
:10210000F091F706E80FF91F1082AC014450510915
:102110006091F6067091F70682E8DF91CF911F91EA
:102120000F910C946B0581E090E0CDCF80E0DF91C2
:10213000CF911F910F9108958F929F92AF92BF926E
:10214000EF92FF920F931F93CF93DF93CDB7DEB73C
:10215000A1970FB6F894DEBF0FBECDBF7C01FA0188
:10216000CB0119A2223008F42AE08E010F5D1F4F27
:10217000822E912CB12CA12CBF01A50194010E94AB
:10218000E73BF901CA016A3074F5605DD8016E93CE
:102190008D01232B242B252B79F790E080E01097DD
:1021A00089F0FD0101900020E9F73197AF014A1B4A
:1021B0005B0BD701ED91FC910280F381E02DB8011A
:1021C000C7010995A1960FB6F894DEBF0FBECDBF2B
:1021D000DF91CF911F910F91FF90EF90BF90AF9043
:1021E0009F908F900895695CD1CF8F929F92AF920C
:1021F000BF92CF92DF92EF92FF920F931F93CF93F4
:10220000DF937C01EB016C0182E0C80ED11C470119
:10221000E5E08E0E911C10E000E0F60141916F01A7
:1022200050E070E060E02AE0CE010E949C105C016A
:10223000E881F9810190F081E02D6EE2CE010995EF
:102240008A0D9B1D080F191FC814D90431F7F70117
:10225000458150E070E060E02AE0CE010E949C10D1
:10226000800F911FDF91CF911F910F91FF90EF9001
:10227000DF90CF90BF90AF909F908F90089542E0F5
:1022800050E067EA71E080ED95E00C94F202CF93A4
:10229000DF930E941104EC010E943F118C0F9D1FDF
:1022A000DF91CF910895CF93DF930E945F05665031
:1022B0007F4F8F4F9F4F6093AC057093AD05809318
:1022C000AE059093AF050E94E6081092A205109209
:1022D000A1051092A4051092A305E6E9F4E089E0B7
:1022E00091E0DF019C011D9221503040E1F781E037
:1022F00098E090939704809396044FEF60E08FEFFF
:102300000E94AC0762E070E080E090E00E9422054D
:1023100062E370E080E090E00E9422051092A00548
:1023200010929F05C0E1D0E06DE180E00E94760848
:10233000811109C0219739F06AE070E080E090E0F7
:102340000E942205F1CF70E060E088E00E94E4077F
:1023500070E060E08CE00E94E4076FEF77E08AE0D5
:102360000E94E40761EB88E30E9469086FE370E371
:1023700088E20E94E40769EF77EF80E30E94E407B8
:102380006DE070E080EC0E94E40742E362EC80E8DC
:102390000E94AC0762E17CE086EC0E94E40762E107
:1023A00084EC0E9469086CED75E08AEC0E94E407F9
:1023B0006091010184EE0E9469086091020185EE3E
:1023C0000E9469086091030182EE0E946908609191
:1023D000040183EE0E9469086091050180EE0E946D
:1023E00069086091060181EE0E94690860E071E071
:1023F00080E10E94C9088FE10E94C50740EC6BE1B3
:1024000080E80E94AC0744E06FE180E80E94AC07DE
:1024100066E774E084E10E94C9088091010180931D
:10242000A605809102018093A70580910301809306
:10243000A805809104018093A905809105018093EE
:10244000AA05809106018093AB0510928E0410922C
:102450008D041092900410928F04109292041092A6
:102460009104109294041092930410922E041092EE
:102470004C0410926A041092880480E094E09093D7
:102480001404809313041092EC031092EB03109247
:10249000F7031092F60310920204109201041092B6
:1024A0000D0410920C0484E0809395041092E603CE
:1024B0009BE024E08091E603883018F0DF91CF9113
:1024C0000895899FF0011124E257FC4FDF01322F5C
:1024D0001D923A95E9F78F5F8093E603EBCFAF92B9
:1024E000BF92CF92DF92EF92FF920F931F93CF9301
:1024F000DF93CDB7DEB768970FB6F894DEBF0FBE97
:10250000CDBF8C017B016A0159010E9453118AE9F8
:1025100091E09A838983F5014281538164817581B9
:102520004B835C836D837E8398878F83F601428122
:1025300053816481758149875A876B877C879E8721
:102540008D87F70142815381648175814F87588B54
:10255000698B7A8B9C8B8B8BF80182819381A48110
:10256000B5818D8B9E8BAF8BB88F9E012F5F3F4FB8
:10257000AE01495F5F4FBE01635F7F4FCE0143965F
:102580000E94340C68960FB6F894DEBF0FBECDBF24
:10259000DF91CF911F910F91FF90EF90DF90CF903F
:1025A000BF90AF900895CF93DF93DC011C96ED911F
:1025B000FC913097B1F0EC011582148212861186DD
:1025C0001D861C8689890E946C0788890E946C0779
:1025D0008A890E946C072E9686E0FE0111928A95E8
:1025E000E9F7DF91CF910895FC011382128288EE02
:1025F00093E0A0E0B0E084839583A683B78382E272
:1026000091E091838083158614863E9686E0DF01F3
:102610001D928A95E9F708950F931F93CF93DF9347
:10262000DC0120911304309114042F5F3F4F2115DA
:102630008DE7380710F020E030E1522F432FE7EE0E
:10264000F3E0EF0180E08430A1F430931404209390
:10265000130430E020E02430310599F484E08093C5
:102660009504F0E0E0E0CF01DF91CF911F910F9151
:1026700008950C811D818F5F2B960417150719F79C
:10268000D4CFC481D581C90101963B96CD2B09F5E4
:10269000209395048BE0829FF001839FF00D11241D
:1026A000E951FC4F5583448377836683109799F4EF
:1026B00084E0DF011D928A95E9F78BE0829FD001CB
:1026C000839FB00D1124A951BC4F80E418968C93C0
:1026D000CACF9C01C0CF8D919C911197918380832B
:1026E00012968D919C9193838283E7CF0F931F93D2
:1026F000CF93DF93EC018B018C859D85892B41F471
:1027000070E060E090E080E00E940C139D878C8771
:10271000EC85FD8580E0309749F0102701271027D0
:10272000158304832E96D287C18781E0DF91CF91F4
:102730001F910F910895CF93DF93EC01EEEFF1E03D
:1027400086E2DF011D928A95E9F70E94B80FBC016D
:102750008EEF91E00E94363E6AEA71E08EEF91E0E2
:102760000E94363EBE018EEF91E00E94363E8EEF13
:1027700091E0DF91CF910895EF92FF920F931F9315
:10278000CF93DF938C01EB017A0181EB91E00E9402
:102790009B13BC01C8010E94413E892B31F183EBA0
:1027A00091E00E949B13BC01C8010E94413E892B0D
:1027B00089F185EB91E00E949B13BC01C8010E9446
:1027C000413E892B49F187EB91E00E949B13BC01AC
:1027D000C8010E94413E16E0892B41F0DF91CF9164
:1027E0001F910F91FF90EF90089519E082E0E81695
:1027F000F104A1F488818F3489F7898161E08E34F6
:1028000069F7812FDF91CF911F910F91FF90EF908A
:102810000C949E0418E0EACF17E0E8CF83E0E816B6
:10282000F10459F488818F34C9F689818634B1F670
:102830008A81863499F660E0E4CF86E0E816F104F8
:1028400069F68881843551F689818F3439F68A8119
:10285000873421F68B81873409F68C818C3409F01A
:10286000BDCF8D81853409F0B9CF812F0E947504C9
:1028700061E0892B31F2DFCFEF92FF920F931F932C
:10288000CF93DF937B01039761F5FB01C281D38175
:1028900061EB71E0CE010E94413E892B09F070C0CE
:1028A00081EB91E00E949B138C01C9E0F701E48069
:1028B000F58069EB71E0C7010E94413E892B09F464
:1028C000A4C06CEB71E0C7010E94413E892B09F462
:1028D00081C060EC71E0C7010E94413E892B09F480
:1028E00085C085E693E00E94BC0E83E493E00E94DD
:1028F000CA0E85E393E00E94CA0E88E293E00E942C
:10290000CA0E8CE193E00E94BC0E89E00E9475041F
:10291000019709F453C089E093E00E94CA0E80E158
:1029200093E00E94BC0E88E00E947504019709F4B0
:1029300048C089E093E00E94CA0E8DEF92E00E94A9
:10294000BC0E87E00E9475040197F1F189E093E0E5
:102950000E94CA0E81EF92E00E94BC0E86E00E94A7
:1029600075040197A1F189E093E00E94CA0E90E0FE
:1029700080E0DF91CF911F910F91FF90EF9008952C
:1029800063EB71E0CE010E94413E892B39F483EB69
:1029900091E00E949B138C01C8E088CF65EB71E049
:1029A000CE010E94413EC0E0892B09F07FCF81EB30
:1029B00091E00E949B138C01C7E078CF8DE093E0FB
:1029C000ACCF8DE093E0B7CF8DE093E0C1CF8DE049
:1029D00093E0CBCFCC2309F484CF8C2F0E947504D5
:1029E000D1E0892B09F4D0E060E01AC0CC2309F4CF
:1029F00078CF8C2F0E94750461E0892B09F060E08C
:102A00008C2F0E949E04D1E00EC0CC2309F469CF24
:102A10008C2F0E947504D1E0019709F4D0E061E0A9
:102A20008C2F0E949E040E949302882309F459CFA0
:102A3000DD2309F456CF8C2F0E9475046CEB71E0F6
:102A4000019711F469EB71E0C8010E94E50F49CFCD
:102A50000F931F93CF93DF9300D000D0CDB7DEB795
:102A60008C01FC0182814AE0BE016F5F7F4F90E0E4
:102A70000E943E3BCE0101960E94DF0E87EC91E062
:102A80000E94DF0EF80183814AE0BE016F5F7F4F35
:102A900090E00E943E3BCE0101960E94DF0E87EC43
:102AA00091E00E94DF0EF80184814AE0BE016F5F71
:102AB0007F4F90E00E943E3BCE0101960E94DF0EC8
:102AC00087EC91E00E94DF0EF80185814AE0BE01AB
:102AD0006F5F7F4F90E00E943E3BCE0101960E94C7
:102AE000DF0E0F900F900F900F90DF91CF911F91FD
:102AF0000F910895DC018AE991E08D939D9384E024
:102B0000FB0101900D928A95E1F70895EF92FF92F3
:102B10000F931F93CF93DF93FC011092E603CEE84F
:102B2000D3E0DE0130E020E02830310569F490E0A8
:102B3000983009F042C01092310210923002109287
:102B4000E6032EE833E044C0CD018E5893400D914A
:102B50001C9111970115110561F112964D915C912F
:102B600013974115510529F1E080F1800E151F05DD
:102B700001F50281138140175107D9F42093E60330
:102B8000DC01AE56BC4F86E0FB0101900D928A95A8
:102B9000E1F78BE0829FF001839FF00D1124E25753
:102BA000FC4F1286DF91CF911F910F91FF90EF9014
:102BB00008952F5F3F4F1B96B7CF9E0148815981E3
:102BC000452BB1F44A815B81452B91F49093E60348
:102BD00084E0D90101900D928A95E1F7D90114960C
:102BE00086E0FB0101900D928A95E1F7F901D9CFBA
:102BF0009F5F2B969DCFEF92FF920F931F93CF93E2
:102C0000DF9300D000D000D0CDB7DEB74091660290
:102C1000509167024F3F540731F4809168029091C0
:102C20006902019619F18091BE029091BF026091F4
:102C30003C0270913D029B0120953095282B392B49
:102C400042175307A9F520913E0230913F0220958B
:102C50003095E091C002F091C1022E2B3F2BE09104
:102C60006802F0916902E217F30711F586E0E8E1E6
:102C7000F1E0A8E4B2E001900D928A95E1F786E0D8
:102C8000E6EAF5E0AEE4B2E001900D928A95E1F754
:102C900088E090E090935502809354028091B102B5
:102CA0009091B2020E969093B2028093B102A5C0A9
:102CB0008427952786239723892B99F420916802EE
:102CC000309169028091C0029091C10282279327BE
:102CD00060913E0270913F0286239723892B09F46D
:102CE00099C0809140029091410290933302809369
:102CF0003202809142029091430290933502809378
:102D00003402E0903202F0903302009134021091CC
:102D10003502EEE8F3E080E0883009F084C080936B
:102D2000E60346E050E06FEF70E088E492E00E9436
:102D30002F3E86E0E8E6F2E0DF01282F1D922A957B
:102D4000E9F7E6EAF5E0AEE4B2E0982F01900D92E3
:102D50009A95E1F7E6EAF5E0AEE5B2E0982F01904A
:102D60000D929A95E1F7F0926F02E0926E02109345
:102D70007102009370022091BE023091BF02309325
:102D80006502209364022091C0023091C102309309
:102D900067022093660220E031E030935D022093C9
:102DA0005C02309357022093560228E030E03093C3
:102DB00059022093580280935A0294E090935B0248
:102DC00028E036E030935502209354022EE732E09B
:102DD00030934502209344022AE230E03093B2025D
:102DE0002093B102BE016F5F7F4FDB011D928A9578
:102DF000E9F782E392E00E94861526960FB6F894D2
:102E0000DEBF0FBECDBFDF91CF911F910F91FF901D
:102E1000EF9008955093330240933202309335027D
:102E2000209334026ECF20813181E216F306E1F463
:102E30002281338102171307B9F49481911103C0E1
:102E40009581992329F08093E603349686E011CF8B
:102E500096819111F8CF97819111F5CF90859111BD
:102E6000F2CF91859111EFCF8F5F3B9655CFCF93E6
:102E7000DF93EC010E94FB158091B1029091B202A8
:102E80008A9759F41092B0028091AF028D7F80939F
:102E9000AF02DF91CF910C94690C0E94690C1D82E6
:102EA0001C82DF91CF9108959C01AB0170932F029A
:102EB00060932E021616170654F480912C029091FE
:102EC0002D028217930719F0B9010C94143E08954E
:102ED000EF92FF920F931F93CF93DF93E091AD0298
:102EE000F091AE02C185D285209709F456C0E090DA
:102EF000AC02E1FE1FC08A8181111CC080916A0270
:102F000090916B0297838683809162029091630215
:102F10009183808380916402909165029383828380
:102F200080916E0290916F029827892798270897C1
:102F300009F51A82E3FE31C08D81882371F18C81FD
:102F40008093B0028091AF0282608093AF028AE2E8
:102F500080934602688179816B52710980914402A5
:102F600090914502DF91CF911F910F91FF90EF90CB
:102F70000C9454170E94BE09F82E8A838823D1F23C
:102F80000E948C078C012AE230E04091470270E0F9
:102F900060E08F2D0E945D0ACDCFDF91CF911F9110
:102FA0000F91FF90EF900895AF92BF92CF92DF9272
:102FB000EF92FF920F931F93CF93DF93E0903A022B
:102FC000F0903B02F701C48DD58DD090AC022097D4
:102FD00081F5D6FC03C0F12CE12CC3C0E4ECF2E097
:102FE00090E080E0218121117EC042E1489F900164
:102FF000499F300D1124E901CC53DD4FC7018551A4
:103000009440959587956FEE7EEE869FA001879FF1
:10301000500D969F500D1124488381E089832A53D7
:103020003D4F81E1F90111928A95E9F7F701D58FBA
:10303000C48FD1FE30C00091B1021091B2020115CF
:10304000110549F18981867031F55E01F2E0AF0E1C
:10305000B11CC12CF50181915F0181114BC0C801E8
:103060000E94BE09F50131978083882309F442C08C
:103070002091440230914502285432404091470249
:1030800070E060E00E945D0AF4E0CF1204C0F70136
:10309000818D8061818F898183FF0AC0877F8983C9
:1030A0008D2D82608093AC02F701818D8F7E818FA0
:1030B0008091AC0284FD04C087FD02C085FF26C05C
:1030C000CE0107960E94F30C8A818823E9F0F7016C
:1030D0008481958198878F83898184608983F701B2
:1030E000158E148E78CF019672968430910509F072
:1030F00079CF71CFC394F5E0CF12ACCF8091AF02FE
:103100008E7F8093AF02C3CF1982E9CF80FF3FC08B
:10311000CE0107960E94090D8F818823D1F19885F1
:10312000911145C0EC84FD84E114F10409F453CFFE
:1031300095E0899FF0011124EA56FB4FF382E28269
:103140000091440210914502085412400093460237
:103150001127C80108968E0D9F1D009779F51092D2
:10316000B002B70180914402909145020E94541729
:10317000F092B202E092B102DF91CF911F910F91D4
:10318000FF90EF90DF90CF90BF90AF9008958C703C
:1031900019F6898181FF1FCF8F81811124C0198287
:1031A000F701158E148E80E18093AC0214CF0E943B
:1031B0008C077C01892B09F40ECFC2CF0E94BE0977
:1031C0008093B002882369F2B8016F5F7F4F870157
:1031D00030E020E04F810E945D0A8091AF02826062
:1031E0008093AF02BECFF701818D8061818FF3CED6
:1031F000AF92BF92CF92DF92EF92FF921F93CF9345
:10320000DF93843009F458C1C0913A02D0913B0257
:103210002EE732E0309345022093440230932D0292
:1032200020932C028330C9F4898D8F70833009F08C
:1032300044C088899989892B09F03FC088E0809330
:10324000AC020E94D4178091AC0285FF13C6109285
:103250002F0210922E02198E51C0823009F005C142
:10326000809139028F5F80933902811113C0809160
:1032700038028F5F8093380281110CC08091370231
:103280008F5F80933702811105C0809136028F5F76
:10329000809336021092B2021092B10210922F0265
:1032A00010922E02898D982F9D7F953059F48A8D2A
:1032B0008F5F8A8F883709F4198E1092B2021092AC
:1032C000B10231C28823C9F328893989232B09F433
:1032D000C7C09A8D2FEF290F2A8F9111EECF9B8DAA
:1032E000983031F02FEF280F223050F4953041F410
:1032F000198E80E88093AC020E94D41784E184C0C8
:10330000392F953008F034E023E001C0220F3A95C0
:10331000EAF72A8F9F5F9B8F8F70833009F47DC0FF
:1033200008F06AC0813009F406C4823031F6109288
:1033300077028091770282608093770282E08093A7
:103340007E0294E090937F0280938002109281022B
:103350008CE290E09093B2028093B10280E6809379
:1033600076028885809372028985809373028A85AC
:10337000809374028B85809375028C8580936E0296
:103380008D8580936F028E85809370028F858093E8
:10339000710286E080935F028C819D8190936B0225
:1033A00080936A028E819F8190936D0280936C025C
:1033B0008091BE029091BF0290936302809362025B
:1033C0008091C0029091C102909365028093640243
:1033D0008881998190936702809366028A819B819C
:1033E0009093690280936802898D84FFC9C5109209
:1033F000790210927802D5C2863029F0883019F00F
:10340000843009F05ACF81E18093770288E290E01E
:103410009093B2028093B10221C084E08093AC0209
:103420000E94D41780912C0290912D029093450216
:103430008093440280912E0290912F02892B09F4EF
:103440004AC588899989009709F445C5889690935B
:10345000B2028093B10288E18093770280E57FCF4A
:103460008F70833009F029CFE9CE853009F0A9C0EB
:10347000E091AD02F091AE0284819581892B09F42F
:103480001CCF10923B0210923A0282E792E0909396
:1034900045028093440290932D0280932C02109257
:1034A0002F0210922E021092B2021092B10288E006
:1034B0008093AC020E94681780912E0290912F0297
:1034C000009709F4FACE9C01245E3F4F3093B2027C
:1034D0002093B1023093580220935902E091AD023B
:1034E000F091AE02208520935E0221E120935F02DD
:1034F000089698278927982790936F0280936E02E9
:1035000010927102109270028481958190936B02E7
:1035100080936A028681978190936D0280936C02FA
:103520008091BE029091BF029093630280936202E9
:103530008091C0029091C1029093650280936402D1
:10354000808191819093670280936602828193814A
:1035500090936902809368028EE792E0909345020F
:103560008093440281E10E949B0B80959095009787
:1035700009F45BC1909371028093700285E480939B
:1035800056021092570210925D0210925C028091D6
:1035900024029091250201969093250280932402A3
:1035A00090935A0280935B02109261021092600223
:1035B0000E94230C80959095909361028093600205
:1035C000B2C080915602853409F077CEC09058027F
:1035D000D12CDC2CCC2480915902C80ED11C8091B6
:1035E000B1029091B2028C159D0508F466CED0927E
:1035F000B202C092B10280915C028F7309F05DCE7D
:1036000010915D02111159CEA090BE02B090BF0280
:10361000A114B10439F48091C0029091C102892BA8
:1036200009F441C0209166023091670280915F02E7
:10363000813149F52F3F320739F48091680290912A
:103640006902019609F47DC080913C0290913D028F
:10365000809590958A299B2982179307A1F48091E0
:103660003E0290913F02809590954091C00250910A
:10367000C102842B952B4091680250916902481732
:10368000590709F45EC0A216B30609F016CE2091C0
:103690006802309169028091C0029091C10228179E
:1036A000390709F00ACE0E94230C019609F005CED5
:1036B00080915F02863009F4BBC0813109F441C0BA
:1036C000813009F0FACD80916A02883009F0F5CD99
:1036D00010926A0280916C0290916D02873F4FEFC9
:1036E000940768F1099690936D0280936C02809123
:1036F00062029091630290936702809366028091C8
:103700006402909165029093690280936802B0927E
:103710006302A09262028091C0029091C1029093D4
:103720006502809364021092AC02DF91CF911F91E9
:10373000FF90EF90DF90CF90BF90AF9008950896E4
:10374000D2CF8CE1C81AD108D092B202C092B10295
:1037500082E792E090934502809344028091700248
:1037600090917102892BE1F440916C0250916D02AD
:1037700060916A0270916B02A0916202B091630243
:10378000C0916402D0916502E7EEF3E023E134E0FA
:103790002E173F0761F43093AE022093AD028DCD1A
:1037A00081E10E949B0B019609F087CDDDCF8481DA
:1037B00095810097C1F184179507A9F586819781B6
:1037C000009719F08617970771F58081918100970E
:1037D000D1F4E280F380EF28F1F4F093AE02E093AD
:1037E000AD0210923B0210923A0282E08093AC024A
:1037F00082E792E090932D0280932C0210922F0288
:1038000010922E0257CE8F3F980729F4E280F38062
:10381000EF20E09411F38A179B0729F482819381AA
:10382000C817D907D1F23B96B3CF8FEF9FEFA2CE47
:1038300086E00E949B0B019609F03FCD40916C02FF
:1038400050916D0260916A0270916B0280916202E8
:1038500090916302E0916402F0916502C5E1D4E0C9
:10386000298D2223A9F0AC81BD814A175B0781F421
:10387000AE81BF816A177B0759F4A881B9818A1785
:103880009B0731F4AA81BB81EA17FB0709F45BC1EE
:103890006E9624E0CF36D20719F310F380917702A9
:1038A0008F73823061F450932B0240932A02EDE82B
:1038B000F4E080E0843009F091C080939504809119
:1038C000770282FDFACC84E18093770288E290E06F
:1038D0009093B2028093B10280E58093760230919A
:1038E0007102809175028093710220917002809123
:1038F0007402809370022093740290916F02809101
:10390000730280936F029093730280916E02809392
:1039100095044091720240936E02809372023F5F61
:103920003093750231110DC02F5F20937402211165
:1039300008C09F5F90937302911103C08F5F8093C3
:10394000720280916A0290916B0290932B02809395
:103950002A0220916C0230916D0230936B02209309
:103960006A0290936D0280936C0280916202909142
:103970006302909367028093660280916402909143
:1039800065029093690280936802B0926302A092EC
:1039900062028091C0029091C1029093650280936F
:1039A000640280E480935E028091B1029091B20241
:1039B000909358028093590210927D0210927C02DB
:1039C00010927B0210927A0286E00E949B0B8095F7
:1039D000909590937B0280937A02D0CD2191319182
:1039E0008F5F4217530709F065CF10929504E5E108
:1039F000F4E090E080E0D0E0C0E08430910531F464
:103A000084E080939504209781F457CC3E2F2F2F8C
:103A1000A18DA11163C0809395042EE1289FE00140
:103A2000299FD00D1124CB5EDB4FD0933B02C09376
:103A30003A0283E08A8F888F1E8A84E08F8B1B8EE8
:103A40005D834C837F836E838091620290916302D9
:103A50009983888380916402909165029B838A8315
:103A600081E0898F809136028C87809137028D8723
:103A7000809138028E87809139028F8781E090E0B3
:103A8000998B888B809171028B87809170028A87D5
:103A900080916F02898780916E02888781E090E033
:103AA0000E94BB3080917602982F907F913508F468
:103AB00042C082958F708550990B880F991F880F8F
:103AC000991FE12FF0E0E817F9072CF4E85BFD4FB0
:103AD00036A9311112C0109395042DC0A73031F4CE
:103AE000209731F0B28DAA8DAB1710F03C2F2D2FFF
:103AF00001967E96C32FD22F80CF313011F41F5FF5
:103B0000E0CF27A93230D9F42430C9F410939504BA
:103B100080AD91AD89279827892790932B028093B8
:103B20002A02813042E0940710F080E092E09B8B03
:103B30008A8B9D8B8C8B80E180937702FACB22233A
:103B400051F2120FBECFD0933B02C0933A021092B3
:103B5000AC029091770292FF07C0198E80E28093A9
:103B6000AC020E94D417A9CB8091760282958F7007
:103B7000880F880F80939504C81AD108760184E1D4
:103B8000E81AF108F092B202E092B1022F702230EE
:103B900021F4892F8F738231D1F0E114F10419F4EB
:103BA000892F8370A1F039852A858B8550916E020B
:103BB00048855413C0C140916F024313BCC130917A
:103BC00070023213B8C1209171022813B4C194FF5E
:103BD00049C0688979896115710509F443C0CE012E
:103BE0000C960E9488303091720280912602381320
:103BF00039C02091730280912702281333C090911D
:103C000074028091280298132DC080917502409112
:103C10002902841327C03C872D879E878F87988D24
:103C20008B8D811118C08E892A8D921B282F269585
:103C300026952695921B890F8E8B97FD91952F893E
:103C4000322F36953695231B920F9F8B869586953E
:103C50008695890F888F81E08093AC02888D8A8F4A
:103C6000198A188A298DE22FEF70E150E83008F0A8
:103C700024CBF0E0E25CF14E0C94183C461E5F1E33
:103C8000C91E7E1FA71FB81F9B1F771F8091AC0204
:103C900080FF13CB83E0898F80E48093AC02198A84
:103CA000188AE114F10431F082E48093AC02C70178
:103CB0000E94BB3010922F0210922E02C2CA809135
:103CC000AC0280FF5FC0809177028F73823109F070
:103CD00059C080917602982F907F913598F1829506
:103CE0008F708550990B880F991F880F991FE12FAE
:103CF000F0E0E817F9072CF4E85BFD4F36A9311125
:103D000003C0109395041EC0313011F41F5FEFCF34
:103D100027A9323099F5243089F51093950480ADA8
:103D200091AD89279827892790932B0280932A02A7
:103D3000813012E0910710F080E092E09B8B8A8B3B
:103D40009D8B8C8B83E0898F80916E028887809118
:103D50006F028987809170028A87809171028B87B8
:103D600081E090E00E94BB3082E48093AC02198A2B
:103D7000188A1092B2021092B1029CCF222309F24B
:103D8000120FB5CF80E28093AC020E94D417198E37
:103D900096CD8091770280FF20C024FD1EC08889C7
:103DA0009989892B09F089CAC60143970E94BB30C3
:103DB0008091AC02982F90619093AC02EF2819F09B
:103DC00082618093AC020E94D41781E090E0998BCD
:103DD000888B88E0898F1B8E16CB85FF14C080915D
:103DE0007C0290917D02982789279827AC01425840
:103DF0005D4F5093450240934402E81AF90AF0924D
:103E0000B202E092B1024091B1025091B20290919F
:103E1000AC024115510541F024FD06C0926090931B
:103E2000AC02CA010E94BB3080917802282F30E09A
:103E3000322F222780917902820F932F911D909328
:103E40002B0280932A022C893D892817390710F00C
:103E5000892B21F430932B0220932A0280912A028D
:103E600090912B029B8B8A8B8091AC02837009F41A
:103E700024CA20CF84FF0AC010922F0210922E0273
:103E800081E090E0998B888B84E0A4CF20912E0272
:103E900030912F0221153105B9F080FF02C0198A37
:103EA000188A88899989009789F48A899B89821759
:103EB000930720F490932F0280932E0280912E027C
:103EC00090912F02998B888B1B8EACCA90932F02F6
:103ED00080932E02F9CF8091AC0281FFEEC988E277
:103EE00090E09093B2028093B10280E1B5CA8091D4
:103EF000AC0280FFE2C9198E80E131CEE114F104F9
:103F000019F0C7010E94BB308091AC028170909182
:103F1000770290FF15C0882381F087E0898F1A8E81
:103F2000198A188A81E090E00E94BB3080E180937A
:103F3000AC020E94D41780E167CA86E0898FF2CF75
:103F4000882399F085E0898F198A188AB6C9E11407
:103F5000F10419F0C7010E94BB308091770280FF05
:103F600004C087E0898F1A8EDDCFEF2821F7A5C91D
:103F70008091AC0280FFA1C987E0898F1A8E9DC90C
:103F800082E080937802109279020BCDCF93DF9379
:103F9000EC012C853D852115310529F490E080E068
:103FA000DF91CF910895EA89EE23C1F381E08B8BF5
:103FB00085E0E89FF0011124EA56FB4F8E859F852E
:103FC0000796938382833093AE022093AD0285E0FF
:103FD0000E94F8188091B1029091B202892BF1F2FF
:103FE000CE010E960E94371781E090E0D9CF8F92D4
:103FF0009F92AF92BF92CF92DF92EF92FF92CF93B8
:10400000DF938091BD02882309F41FC1D09147023C
:10401000D11151C089E30E949408882309F449C052
:1040200060919F057091A0056B0126E0C20ED11C26
:10403000C11438E0D30628F06B014AEFC41A47E0F8
:10404000D40A80E00E94E40760E08AE30E947608D8
:10405000E82E60E08AE30E947608F82EF092A00530
:10406000E0929F0560E08AE30E947608B82E60E047
:104070008AE30E947608C82F60E08AE30E947608EF
:10408000A82E40E46EE180E80E94AC07A7FEE8C0DD
:10409000E11458E0F50608F0E3C0D092A205C09202
:1040A000A1059C2F8B2D04979093A4058093A305C5
:1040B000DFEFD0934702F0904702FF2009F472C06F
:1040C00081E08093AF028F2D0E948C07EC019093CA
:1040D000B2028093B102892B09F4EFC042E650E0AE
:1040E00068E472E08F2D0E943008C0905402D09096
:1040F000550288E0C816D10409F0CDC0F092B00294
:104100002E97D093B202C093B102209162023091F7
:104110006302E091BE02F091BF02C9018E279F2782
:1041200040913C0250913D0284239523892B49F50F
:1041300040916402509165026091C0027091C10289
:10414000CA0186279727A0913E02B0913F028A2399
:104150009B23892BB1F48091660290916702E81746
:10416000F90709F080C08091680290916902681790
:10417000790709F078C06EE472E082E692E00E946E
:10418000861581E00E94F8188091B1029091B202E8
:10419000892B21F00E94FB150E94690C8091AF02CF
:1041A00080FD8BC00E945F056B017C018091AC0596
:1041B0009091AD05A091AE05B091AF0546015701B4
:1041C000881A990AAA0ABB0AC5E1D4E0D0933B0237
:1041D000C0933A02B7FC08C182E00E94F8188091AF
:1041E000B1029091B202892B21F00E94FB150E942E
:1041F000690C6E9634E0CD38D30741F7B7FC25C083
:104200004AEFC40ED11CE11CF11CC092AC05D09247
:10421000AD05E092AE05F092AF05C7EED3E0D093C6
:10422000AE02C093AD0285E00E94F8188091B10201
:104230009091B202892B21F089859A850E943717C7
:104240002B9654E0C331D50751F7DF91CF91FF9002
:10425000EF90DF90CF90BF90AF909F908F90089598
:104260000E945A0826CFEEE8F3E080E0883019F487
:104270008093E60386CF608171812617370741F46A
:10428000628173814617570719F48093E60373CF51
:104290008F5F3B96EBCF28E0C21626E0D20669F48A
:1042A0001092B2021092B102AA9760F48091B1020A
:1042B0009091B202892B09F06FCF0E945A08109298
:1042C000470270CF80915C0290915D02811531E0D0
:1042D000930701F18115924049F720916E023091C8
:1042E0006F028091BE029091BF0228173907F1F644
:1042F00020917002309171028091C0029091C102B0
:104300002817390799F66EE572E084E692E00E947C
:104310008615CCCFE0906E02F0906F028091BE02C5
:104320009091BF02E816F90609F6C0917002D0918B
:1043300071028091C0029091C102C817D90709F09B
:10434000B5CF6EE572E084E692E00E94861580E0CB
:1043500092E090935D0280935C0286E0EEE5F2E0ED
:10436000A8E6B2E001900D928A95E1F786E0E6EAD0
:10437000F5E0AEE5B2E001900D928A95E1F786E0B6
:10438000E6EAF5E0AEE4B2E001900D928A95E1F73D
:1043900086E0E8E6F2E0A8E4B2E001900D928A95AA
:1043A000E1F7809164029091650290936F0280938F
:1043B0006E028091660290916702909371028093E1
:1043C0007002F0926502E0926402D0936702C0939B
:1043D0006602D0925502C09254028AE290E0909315
:1043E000B2028093B10262CFEC8DFD8D309709F45B
:1043F00000CF86859785A089B189A7019601281BE2
:10440000390B4A0B5B0BDA01C901B7FDF2CE83E031
:104410000E94F8180E945F05E0913A02F0913B0279
:10442000048CF58DE02D665F7F4F8F4F9F4F668721
:104430007787808B918BD3CECF93DF93EC010E9453
:10444000F71F89890E946C07198ADF91CF9108951F
:104450000F931F93CF93DF931F92CDB7DEB78C01DD
:104460000E94F71FF8018189882389F041E050E01C
:10447000BE016F5F7F4F0E943008019741F4898130
:1044800090E00F90DF91CF911F910F9108958FEFE2
:104490009FEFF7CFEF92FF920F931F93CF93DF938E
:1044A0007C018B01EA010E94F71FF70181898823B3
:1044B00069F1AE01B8010E9430088C01F701C18991
:1044C0008C2F0E948C078017910769F48C2F0E9413
:1044D0006C07F701118AC801DF91CF911F910F91ED
:1044E000FF90EF90089585E0C89FF0011124EA56EF
:1044F000FB4F80819181800F911F91838083828106
:104500009381801B910B93838283E5CF80E090E0C1
:10451000E3CFCF93DF93EC010E94F71F8989DF91EE
:10452000CF910C948C07CF93DF93EC010E94F71F7F
:10453000898981110E946C078889898B188ADF918B
:10454000CF910C948C07CF92DF92EF92FF920F9352
:104550001F93CF93DF9300D000D0CDB7DEB78C018F
:104560006B017A010E94F71FF60182819381A48179
:10457000B581892B8A2B8B2BE9F0E114F104D1F062
:10458000D8011C96ED91FC91D60112962D913C918B
:1045900013973A83298314968D919C919C838B83E6
:1045A0007E2D6F2D309779F1778366833183208359
:1045B00093838283F80184859585892BB1F1828963
:1045C000811133C08EE096E00E94BE09D801529658
:1045D0008C9352972BE230E01F963C932E931E97BC
:1045E00021E090E0811101C020E0822F0F900F9018
:1045F0000F900F90DF91CF911F910F91FF90EF904F
:10460000DF90CF900895CE0101960E940C13F8011F
:1046100095878487009749F09801225F3F4FDC011E
:104620001A963C932E931997C5CF80E090E0DECF89
:104630004F925F926F927F928F929F92AF92BF92B2
:10464000CF92DF92EF92FF920F931F93CF93DF935E
:10465000CDB7DEB763970FB6F894DEBF0FBECDBF00
:104660006C017B013A01FB01DB018D91882309F488
:1046700044C08E32D1F380538A30B8F3F6014281C0
:104680005381648175818091E0069091E106A0914B
:10469000E206B091E306481759076A077B0709F459
:1046A00055C28601085F1F4F0E945F056F70772714
:1046B0007C5FC8010E947613813009F04CC28AE900
:1046C00091E09A838983F60182819381A481B581E7
:1046D0008B839C83AD83BE8345E350E0BE016F5F57
:1046E0007F4FC8010E94A322892B09F057C0F12CEB
:1046F000E12CC8010E94D31239C030E020E090E0E4
:1047000080E05AE04191442309F1843091050CF096
:10471000B5CF4E3271F42F3F310511F00CF0AECF12
:10472000D301A80FB91F12962C93019630E020E018
:10473000E9CF529FB001539F700D1124242F440FD5
:10474000330B20533109260F371FDCCF2F3F3105A4
:1047500011F00CF093CF843091050CF08FCF680EE0
:10476000791EF3012283EE24E394F12CC7016396B2
:104770000FB6F894DEBF0FBECDBFDF91CF911F9172
:104780000F91FF90EF90DF90CF90BF90AF909F90F0
:104790008F907F906F905F904F9008950E945F057B
:1047A000F6017783668342E050E0B6016A5F7F4F8F
:1047B000C8010E94220B81E090E09A83898342E045
:1047C00050E0BE016F5F7F4FC8010E94220B80E066
:1047D00091E09A83898342E050E0BE016F5F7F4F92
:1047E000C8010E94220B1A82198242E050E0BE01E9
:1047F0006F5F7F4FC8010E94220B42E050E0BE0174
:104800006F5F7F4FC8010E94220B42E050E0BE0163
:104810006F5F7F4FC8010E94220B5701F701808113
:10482000882301F17501F70181912F01882311F08F
:104830008E32B1F447018A189B081814190474F4D5
:104840008D8641E050E0BE01635F7F4FC8010E944A
:10485000220BA401B501C8010E94220B5201DECF38
:104860007201E1CF1D8641E050E0BE01635F7F4FE2
:10487000C8010E94220BE12CFF24F394FA82E98202
:1048800042E050E0BE016F5F7F4FC8010E94220BE3
:10489000FA82E98242E050E0BE016F5F7F4FC801BB
:1048A0000E94220BC8010E94C61F892B09F41FCF4A
:1048B000A3E0AA2EB12C230122E0420E511C26C0F7
:1048C000F6016280738084809580B801CE010196E4
:1048D0000E94DF0A8B819C81AD81BE8168167906BA
:1048E0008A069B0629F4C8010E94D00AC59759F18F
:1048F000FEEFEF2EFF24FA94E1E0AE1AB10809F4BE
:10490000F8CEFFEFEF16FF0609F0F3CE0E945F0529
:104910003B014C01C8010E9493221816190684F22B
:104920000E945F05661977098809990969387341FA
:104930008105910508F001C162E370E080E090E03C
:104940000E942205E7CFC8010E9489220C970CF42F
:10495000F8C04CE050E0BE016F5F7F4FC8010E947D
:104960006D0E8B819C819827892798279A8B898B3C
:10497000F6014681578129813A814217530711F484
:1049800097FD08C0C8010E941C22ECEFEE2EFF2408
:10499000FA94B2CF8F709270892B41F0C8010E94B7
:1049A0001C227BEFE72EFF24FA94A6CF6F80788439
:1049B000762467247624F12CE12C61147104D1F45F
:1049C000C8010E941C226AEFE62EFF24FA9494CFBD
:1049D0008D85811117C0C8010E94050BC8010E9476
:1049E000050BC8010E94050BC8010E94050BFFEFD3
:1049F000EF1AFF0A8D819E81982789279827E8164C
:104A0000F906A8F441E050E0BE01635F7F4FC801A2
:104A10000E946D0E8D858823D9F28D859FEF980FAA
:104A20009D878823A9F2C8010E94050BF6CF912C1F
:104A3000812C41E050E0BE016D5E7F4FC8010E94B5
:104A40006D0E8B89982F907C61F4882389F08B8977
:104A50009FEF980F9B8B882341F0C8010E94050BA4
:104A6000F6CFC8010E94050B1B8A8B898111E1CF0B
:104A700042E050E0BE01615F7F4FC8010E946D0EB1
:104A800042E050E0BE01635F7F4FC8010E946D0E9F
:104A9000C8010E94050BC8010E94050BC8010E94B5
:104AA000050BC8010E94050B42E050E0BE016F5E9D
:104AB0007F4FC8010E946D0E8F85988981159140A6
:104AC000E1F48D859E8581159140B9F489899A8993
:104AD0008115944041F0C8010E941C2257EFE52E39
:104AE000FF24FA9409CF44E050E0B201C8010E94CB
:104AF0006D0EEE24E394F12CFFCEF12CE12C89898C
:104B00009A89982789279827E816F90638F4C80162
:104B10000E94050B2FEFE21AF20AF1CF8FEF881AED
:104B2000980A8614970409F084CFC8010E941C22B9
:104B300036EFE32EFF24FA94DFCEEE24EA94FE2C27
:104B4000DBCE9DEFE92EFF24FA94D6CE8EEFE82E31
:104B5000FF24FA940BCEF12CE12C08CEAF92BF9239
:104B6000CF92DF92EF92FF920F931F93CF93DF9339
:104B7000CDB7DEB7A8970FB6F894DEBF0FBECDBF96
:104B80007C015B016A010AE911E01A8309831B8237
:104B90001C821D821E82CE0109960E94F4121CA363
:104BA0000BA31DA21EA21FA218A68091CE06909153
:104BB000CF06A091D006B091D1068F8F98A3A9A35C
:104BC000BAA38B839C83AD83BE8318861F82AE01FC
:104BD0004D5D5F4FB501CE0101960E9418238130D3
:104BE0009105B1F4D701ED91FC910488F589E02D90
:104BF0001E8F0D8F8DA19EA1AFA1B8A58F8F98A3F9
:104C0000A9A3BAA3A601BE01635E7F4FC7010995A0
:104C1000A8960FB6F894DEBF0FBECDBFDF91CF913F
:104C20001F910F91FF90EF90DF90CF90BF90AF90CA
:104C30000895AF92BF92CF92DF92EF92FF920F93BF
:104C40001F93CF93DF93CDB7DEB7A8970FB6F89435
:104C5000DEBF0FBECDBF7C015B016A010AE911E036
:104C60001A8309831B821C821D821E82CE01099633
:104C70000E94F4121CA30BA31DA21EA21FA218A621
:104C80008091CE069091CF06A091D006B091D1062A
:104C90008B839C83AD83BE8318861F82AE014D5DDE
:104CA0005F4FB501CE0101960E9418238130910516
:104CB000B1F4D701ED91FC910684F785E02D1E8FAC
:104CC0000D8F8DA19EA1AFA1B8A58F8F98A3A9A389
:104CD000BAA3A601BE01635E7F4FC7010995A896DE
:104CE0000FB6F894DEBF0FBECDBFDF91CF911F91FD
:104CF0000F91FF90EF90DF90CF90BF90AF9008950D
:104D0000CF93DF93EC014C815D81ADE8B4E090E09E
:104D100080E0282F8430910521F484E0809395046D
:104D20000EC0FC016D917D910196672B91F7209348
:104D30009504EE0FFF1FE357FB4F518340830E9402
:104D4000F71F81E08E83DF91CF910895CF93DF939A
:104D5000EC010E94F71FEC85FD8587818823D9F03F
:104D6000DF01189621E08D91811110C0215030E0B3
:104D7000322F2227330F84859585280F391F80E035
:104D80009AE0821B930BDF91CF9108952F5F25301E
:104D900051F724E0ECCF80E09AE0F5CFAF92BF92DC
:104DA000CF92DF92EF92FF920F931F93CF938C01DC
:104DB0005B017A016A010E94F71F0115110509F4D0
:104DC0005DC0F8018181882309F458C0867009F01C
:104DD00055C03896C1E08191811133C0C150F801AE
:104DE000EC0FF11D878181110DC080E092E00E94DF
:104DF000BE09F801EC0FF11D87838823E1F2F80169
:104E000015861486A7014C195D094A0D5B1DF80132
:104E1000648575859601EC0FF11D87810E948E0ACD
:104E2000C81AD90AF80124853585820F931F958702
:104E300084871C141D0454F4C43009F4BCCFCF5F24
:104E4000D4CFCF5FC53039F6C4E0C9CF0E945F052B
:104E5000665F7F4F8F4F9F4FF80166877787808B04
:104E6000918BC7018C199D09CF911F910F91FF90D4
:104E7000EF90DF90CF90BF90AF90089590E080E0EA
:104E8000F3CF9F92AF92BF92CF92DF92EF92FF92B9
:104E90000F931F93CF93DF938C017B016A01C4ECC6
:104EA000D2E0B12CA12C8EE1982E898180FF15C013
:104EB000E8819E9EF0011124EB5EFB4F2481358139
:104EC000F801848195812817390739F4A601B701C3
:104ED000CE010E94CE26A80EB91E6296F3E0CC3019
:104EE000DF0718F3C501DF91CF911F910F91FF905C
:104EF000EF90DF90CF90BF90AF909F900895FC010E
:104F0000848595850C94CE26CF93DF931F92CDB7E1
:104F1000DEB7698341E050E0BE016F5F7F4FFC0167
:104F2000848595850E94CE260F90DF91CF910895BC
:104F3000CF93DF93EC010E94F71FEC85FD8530973E
:104F400039F0818182FF08C081E09281911101C016
:104F500080E0DF91CF91089581E0FBCFCF93C82F00
:104F600087E297E00E949827882361F087E297E024
:104F70000E94530E882331F06C2F87E297E0CF9187
:104F80000C948427CF910895CF93DF93EC018C8507
:104F90009D85009769F0FC012181222349F002964A
:104FA0000E94F30CEC85FD85818182FF07C0118290
:104FB0001D861C86DF91CF910C94F71F8260818340
:104FC000F7CFCF93DF93EC0187E297E00E94982719
:104FD0008823A1F087E297E00E94530E882371F0A6
:104FE00087E297E00E94130E009771F087E297E046
:104FF0000E945A0D888381E090E006C087E297E026
:105000000E94C42790E080E0DF91CF910895CF9275
:10501000DF92EF92FF920F931F93CF93DF938C0158
:10502000EB016A01DC01ED91FC910488F589E02D2A
:105030000995EA80FB806C817D815C2D4D2D8091EE
:1050400013049091140401968115BDE79B0710F09D
:1050500080E090E1382F292FE5E1F4E0DF01C0E0A6
:10506000C430D1F4909314048093130410929504E7
:1050700080E0D0E0C0E08430F1F480939504209784
:1050800011F590E080E0DF91CF911F910F91FF909B
:10509000EF90DF90CF9008955996DC915997DD23DA
:1050A00039F01496CD90DC901597C216D30659F2BC
:1050B000CF5F5E96D5CFAE2F9F2FB18DB1113CC083
:1050C00080939504EF0182E0898F809136028C876E
:1050D000809137028D87809138028E8780913902C6
:1050E0008F8780E092E09B8B8A8B9D8B8C8B81E0FD
:1050F00090E0998B888B1B8E8A8F83E0888F1E8A25
:1051000080E18F8B3D832C835F834E83F982E8821D
:105110007B836A83898D8F7009F4B3CF0E94F71F58
:10512000898D8F708330B1F78C8D9D8DF8019587B7
:10513000848781E090E0A7CFB73031F4209731F039
:10514000D28CBA8DBD1510F0AC2F9D2F8F5F7E963F
:10515000CA2FD92F90CF2F923F924F925F926F928A
:105160007F928F929F92AF92BF92DF92EF92FF92C7
:105170000F931F93CF93DF93CDB7DEB7C254D109FE
:105180000FB6F894DEBF0FBECDBF7C015B010E945D
:105190005F052B013C018701015C1F4FC8010E9484
:1051A0009322181619069CF00E945F056419750970
:1051B00086099709613A7F408105910508F0A5C1EC
:1051C00062E370E080E090E00E942205E7CF42E2D7
:1051D00050E0BE016F5F7F4FC8010E946D0E898154
:1051E000823009F08DC1C8010E94D00A8334910534
:1051F00009F086C16D817E818F8198850E941E3C59
:105200002B013C01F501408251826282738246E0AB
:1052100050E0B701685F7F4FCE014D960E94073E78
:10522000892B99F4F70180819181A281B38148167D
:1052300059066A067B0648F084819581A681B7816C
:1052400084159505A605B705F0F4C8010E941C2237
:10525000D12C8D2DCE5BDF4F0FB6F894DEBF0FBE85
:10526000CDBFDF91CF911F910F91FF90EF90DF9015
:10527000BF90AF909F908F907F906F905F904F9076
:105280003F902F90089589899A89AB89BC89868738
:105290009787A08BB18B8EECA82EB12CC8010E94F1
:1052A000050BF1E0AF1AB108C9F7D12CC7018296FE
:1052B0009CAF8BAFF701B696FEAFEDAF0896219687
:1052C0009FAF8EAF219757019AE1A90EB11C749739
:1052D0002396FFAFEEAF23971701F6E12F0E311C97
:1052E00027012EE1420E511CC8010E948922181686
:1052F00019060CF006C1C8010E94050B8333910505
:1053000009F4E4C09CF58130910509F480C074F47F
:10531000892B51F3C8010E94050B982E9A94FFEF38
:105320009F1611F3C8010E94050BF8CF8330910539
:1053300009F47AC0069771F7C8010E94050B882E00
:1053400044E050E0B201C8010E946D0E712C612C46
:10535000E82DE450FF0B4F01681479042CF6C801C6
:105360000E94050BFFEF6F1A7F0AF6CF8A33910573
:1053700009F47EC0DCF58533910509F440C0C69779
:1053800049F6C8010E94050B982E1FAA18AE19AE47
:105390001AAEB501CE018F960E947A154FA958AD6D
:1053A00069AD7AAD89A99AA9ABA9BCA948175907D3
:1053B0006A077B07B9F0B801CE0189960E94DF0A1F
:1053C000B501CE0183960E947A154DA15EA16FA111
:1053D00078A58BA59CA5ADA5BEA5481759076A075A
:1053E0007B07E9F544E050E0B5011AC08B33910525
:1053F00009F454C08F3F910509F476CF8BCFC801D3
:105400000E94050BC8010E94050BD82E6DCFC80164
:105410000E94050B44E050E023966EAD7FAD2397CC
:10542000C8010E946D0E60CFC8010E94050B882E36
:1054300044E050E0B101C8010E946D0E712C612C56
:10544000882D8450990B4C01681479040CF04CCFD2
:10545000C8010E94050B9FEF691A790AF5CF9A944B
:105460002FEF921609F440CFC8010E94050BF7CF29
:10547000C8010E94050B44E050E06DAD7EADC8014F
:105480000E946D0EF70166A177A180A591A50E94EB
:105490001E3C66A377A380A791A726CFC8010E94D0
:1054A000050B44E050E021966EAD7FAD2197C80119
:1054B0000E946D0EF70162A573A584A595A50E94B3
:1054C0001E3C62A773A784A795A70ECFC8010E94B0
:1054D000050B44E050E06BAD7CADC8010E946D0E41
:1054E000F70162A173A184A195A10E941E3C62A351
:1054F00073A384A395A366A777A780AB91ABF4CEE3
:10550000D12CC8010E941C22A4CEDD24DA94A1CEA5
:105510007F928F929F92AF92BF92CF92DF92EF9243
:10552000FF920F931F93CF93DF93CDB7DEB7A6976C
:105530000FB6F894DEBF0FBECDBF8C01762E942E31
:10554000852E20E2A22ECE0101967C01DC01EA2DFF
:105550001D92EA95E9F76801FFE3CF0ED11C8AE9B5
:1055600091E09AA389A38FEF8BA38CA38DA38EA325
:1055700043E450E0BE016F5D7F4FC6010E94A3224D
:10558000019609F4BFC081E089838A8386E0B82E42
:10559000BB821C82D80114966D917D918D919C9156
:1055A00017970E941E3C6D837E838F839887898620
:1055B0009A8680E890E09C878B874CE150E0B701A9
:1055C000C6010E94220BFE0137968AE1DF011D927F
:1055D0008A95E9F74801B8E08B0E911CF401D701D8
:1055E00001900D92BA94E1F740E150E0B701C60195
:1055F0000E94220BF7011192AA94E9F796E0A92ED6
:10560000B12C40E250E0B701C6010E94220BF1E04C
:10561000AF1AB108B1F783E6898392E89A8393E5DC
:105620009B838C8385E38D8381E08E837F829DE3E2
:10563000988797E099878A8786E0F401DE011B96B8
:1056400001900D928A95E1F78CE0898B8A8B69EC49
:1056500071E0CE0143960E944A3ED8011B966C91A0
:10566000CE0149960E94CB02F8016485CE014B968B
:105670000E94CB02D8011D966C91CE014D960E94DE
:10568000CB024EE150E0B701C6010E94220BB3E00D
:105690007B121EC082E3898384E08A83F8019685A9
:1056A0009B8397859C8390899D8391899E8396E3B4
:1056B0009F838887828D8987838D8A87848D8B8756
:1056C000858D8C874CE050E0B701C6010E94220B0B
:1056D00087E3898386E08A8391E09B8393E09C83C0
:1056E0008D838FE08E838AE38F838BE388878FEFB0
:1056F000898749E050E0B701C6010E94220BC6012C
:105700000E94C61FA6960FB6F894DEBF0FBECDBF8F
:10571000DF91CF911F910F91FF90EF90DF90CF908D
:10572000BF90AF909F908F907F9008953F924F923F
:105730005F926F927F928F929F92AF92BF92CF9221
:10574000DF92EF92FF920F931F93CF93DF9300D0DE
:1057500000D000D0CDB7DEB78C010E94963A2FEC76
:1057600037E040E050E00E947E3BDC01CB01019637
:10577000A11DB11DF80184839583A683B78380831F
:105780009183A283B383C801CF969E838D830E94A9
:10579000D31264E470E08D819E810E947613D12C37
:1057A000C12C882309F458C00E945F052B013C01DD
:1057B00043E0342E58EE852E53E0952EA12CB12CCB
:1057C00062E0E62ED12CC12CD801DE968C91DE97BA
:1057D000833091F1811159C014968D919D910D9056
:1057E000BC91A02D0196A11DB11DF8018483958364
:1057F000A683B7830E945F05641975098609970916
:10580000A50194010E94E73BA90161E0C8010E9443
:10581000882A81E0D801DE968C93F1E0CF16D1047E
:1058200099F20E945F05641975098609970961322A
:105830007E448105910530F28D819E810E94D312B4
:10584000F80184819581A681B7810196A11DB11DC2
:1058500084839583A683B783C60126960FB6F894F2
:10586000DEBF0FBECDBFDF91CF911F910F91FF9093
:10587000EF90DF90CF90BF90AF909F908F907F90F0
:105880006F905F904F903F9008958430F9F4F80145
:1058900084819581A681B7810196A11DB11D848364
:1058A0009583A683B7830E945F05641975098609ED
:1058B0009709A50194010E94E73BA90163E0C80193
:1058C0000E94882AD801DE96EC92A7CF813031F56C
:1058D000BE016F5F7F4FC8010E94AB28F82EB2E077
:1058E0008B137FC089819A81AB81BC81F80184834D
:1058F0009583A683B7830E945F056419750986099D
:105900009709A50194010E94E73BA90163E0C80142
:105910000E94882AD801DE96FC927FCF823009F05F
:105920007CCFBE016F5F7F4FC8010E94AB28F82E6D
:10593000B5E08B134FC0F80136AE82A193A1A4A1AC
:10594000B5A1892B8A2B8B2B41F484E893E0A0E04E
:10595000B0E082A393A3A4A3B5A3F80186A197A165
:10596000A0A5B1A5892B8A2B8B2B61F482A193A1D1
:10597000A4A1B5A1B695A7959795879586A397A35A
:10598000A0A7B1A7F80186A197A1A0A5B1A542A59E
:1059900053A564A575A5452B462B472B51F4AC01A7
:1059A000BD01440F551F661F771F42A753A764A769
:1059B00075A7F80186A797A7A0ABB1AB82A593A561
:1059C000A4A5B5A582AB93ABA4ABB5ABCC24C394D3
:1059D000D12C23CFF6E08F1304C0D801DE961C92A1
:1059E0001CCFBFEFFB1219CFF80116AE16CF0C94E7
:1059F000703B7F928F929F92AF92BF92CF92DF9235
:105A0000EF92FF920F931F93CF93DF9300D000D0BC
:105A100000D0CDB7DEB75C014B01712C9AE9C92EDD
:105A200091E0D92E072D10E00A151B050CF0A0C03F
:105A30007720E9F0000F111F080D191DF801E08013
:105A4000F18060ED71E0C7010E94413E892B89F42D
:105A500063ED71E0F801828193810E94413E61E033
:105A6000892B09F060E090E080E00E94F72C7394AD
:105A7000D9CF6AED71E0C7010E94413E892B19F52B
:105A8000DA82C9821B821C821D821E82F801628119
:105A90007381CE0101960E941F03FC800D811E813F
:105AA0006B8181E090E00E94F72C6F2D82E090E006
:105AB0000E94F72C602F83E090E00E94F72C612F6A
:105AC00084E090E0D2CF6DED71E0C7010E94413ECD
:105AD000892B19F5DA82C9821B821C821D821E82E3
