:100000000C945E020C9486020C9486020C94860278
:100010000C9486020C9486020C9486020C94860240
:100020000C9486020C9486020C9486020C94860230
:100030000C9486020C9486020C9486020C94860220
:100040000C94A72F0C9486020C94752F0C944F2FB0
:100050000C9486020C9486020C9486020C94860200
:100060000C9486020C9486023F096970096D7174C4
:10007000740972656C6179097265626F6F74002D25
:100080002D2D2D2D2D2D2D2D2D2D2D2D2D2D0053A7
:10009000797374656D20636F6D6D616E6473006458
:1000A000697361626C6500656E61626C6500002059
:1000B00020476174657761793A20090900002020A2
:1000C0005375626E6574204D61736B3A20090900A7
:1000D0000020204950763420416464726573733A7D
:1000E0000909002020444843503A090909002D2DF0
:1000F0002D2D2D2D2D2D2D2D2D2D2D2D2D2D2D2D30
:100100002D2D2D2D2D2D2D2D2D2D2D2D2D2D2D004C
:100110000A4D616E75616C6C7920636F6E666967FC
:100120007572656420495076342073657474696E05
:10013000677300002020416374697665204950761A
:100140003420676174657761793A090900002020DD
:100150004163746976652049507634207375626E08
:100160006574206D61736B3A09000020204163744F
:1001700069766520495076342061646472657373D2
:100180003A0909002D2D2D2D2D2D2D2D2D2D2D2D07
:100190002D2D2D2D2D2D2D2D000A41637469766591
:1001A00020495076342073657474696E67730069F2
:1001B00070205B2D44203C656E61626C65207C2064
:1001C00064697361626C653E5D205B2D69203C69EA
:1001D00070763420616464726573733E5D205B2DBC
:1001E00073203C7375626E6574206D61736B3E5D48
:1001F000205B2D67203C67617465776179206970A9
:100200003E5D0055736167653A200020205061799A
:100210006C6F61643A2009093C4F4E7C4F46467C26
:10022000544F47474C453E002F72656C617934004E
:10023000202052656C6179203420746F7069633AB4
:10024000200972656C61792F002F72656C617933BA
:1002500000202052656C6179203320746F706963CF
:100260003A200972656C61792F002F72656C617993
:100270003200202052656C6179203220746F7069E1
:10028000633A200972656C61792F002F72656C6189
:10029000793100202052656C6179203120746F70B3
:1002A00069633A200972656C61792F003A00202059
:1002B0004D515454205365727665723A0909002DE8
:1002C0002D2D2D2D2D2D2D2D2D2D2D2D2D000A4D8E
:1002D0005154542073657474696E6773006D717442
:1002E00074205B2D73203C697076342061646472E5
:1002F0006573733E5D205B2D70203C706F72743EA1
:100300005D0055736167653A20004F4646004F4EC9
:10031000004F4646004F4E00202052656C61792008
:10032000343A09004F4646004F4E00202052656C7B
:10033000617920333A09004F4646004F4E00202095
:1003400052656C617920323A0900202052656C6157
:100350007920313A09002D2D2D2D2D2D2D2D2D2DCE
:100360002D2D000A52656C61792073746174757368
:100370000072656C6179205B3C317C327C337C346B
:100380003E203C4F4E7C4F46467C544F47474C45A1
:100390003E5D0055736167653A20000D0A0000005C
:1003A00000002300260029000000000800020100D0
:1003B0000003040700000000000000007265626F87
:1003C0006F740072656C6179006D7174740069708E
:1003D000003F0053746172742075617274207365FC
:1003E000727665722E2E2E005374617274207465BD
:1003F0006C6E657420736572766572206F6E200076
:100400004E6F206C696E6B2E2E2E006D656D6F72B7
:10041000792E2E2E0052657472792E2E2E004448AD
:100420004350207365727665722E2E2E00476574D8
:1004300074696E672069702066726F6D2000537951
:100440007374656D2073746172742E2E2E000D0A04
:10045000003E00436F6D6D616E64204E4F54206608
:100460006F756E642E00436F6E6E656374656420F5
:10047000746F204D5154542E2E2E00000000002584
:100480000028002B0000000000240027002A0004A0
:10049000040404040404040202020202020303032B
:1004A0000303030102040810204080010204081025
:1004B00020010204081020003C30213911241FBE05
:1004C000CFEFD8E0DEBFCDBF11E0A0E0B1E0EAEAB7
:1004D000FAE702C005900D92AC3FB107D9F727E0CB
:1004E000ACEFB1E001C01D92A530B207E1F712E018
:1004F000CDE5D2E004C02197FE010E94F53ACC354B
:10050000D107C9F70E9418310C94483D0C940000A3
:10051000CF93DF93EC01FA013296E60FF71FDC016F
:100520009D012C1B3D0BCF01861B970B4D91442346
:1005300011F04193F5CFAC01421B530B640F751FB3
:10054000FB013297308361507109FB012083DF91F9
:10055000CF9108958091B3069091B406009711F45D
:1005600080E02FC0DC01ED91FC910688F789E02D39
:1005700009952091D6063091D70681111FC0232BF3
:1005800079F78DEF9FEF9093D7068093D6068091F1
:10059000B3069091B406DC01ED91FC910680F781E1
:1005A000E02D09958091B3069091B406DC01ED91A0
:1005B000FC910488F589E02D0995D2CF81E0232BA9
:1005C00079F6089590E0FC01ED55FB4F2491815799
:1005D0009B4FFC018491882399F090E0880F991F2C
:1005E000FC01EB57FB4FA591B491FC01E558FB4F83
:1005F000859194918FB7F894EC91E22BEC938FBF97
:10060000089520E3FC0120833296862F82958F7017
:100610006F706A3030F4605D6293682F8111F5CF9E
:100620000895695CF9CFCF93DF93EFEAF6E0EC0130
:100630008A819B81AC81BD81858F968FA78FB0A366
:1006400074A363A312A211A2CF01DF91CF910895E9
:100650000C94000090E080E00895AF92BF92CF929A
:10066000DF92EF92FF920F931F93CF93DF936C0172
:100670007B018B01040F151FEB015E01AE18BF0853
:10068000C017D10759F06991D601ED91FC91019005
:10069000F081E02DC6010995892B79F7C501DF911D
:1006A000CF911F910F91FF90EF90DF90CF90BF906F
:1006B000AF900895DC0190E030E020E08AE0FB019B
:1006C0004191BF01442311F150ED540F5A3090F481
:1006D000829FF001839FF00D11249F012053310967
:1006E000240F311D47FD3A952F3F310541F338F373
:1006F00080E008954E32E1F79330D1F3FD01E90F28
:10070000F11D22839F5F30E020E0D9CF933081F745
:1007100015962C9381E00895FC01538D448D252F6F
:1007200030E0842F90E0821B930B541710F0CF968B
:10073000089501970895FC01918D828D981761F0BD
:10074000A28DAE0FBF2FB11D5D968C91928D9F5FD4
:100750009F73928F90E008958FEF9FEF0895FC01B3
:10076000918D828D981731F0828DE80FF11D858D66
:1007700090E008958FEF9FEF0895FC01918D228DF9
:10078000892F90E0805C9F4F821B91098F7399277E
:1007900008958FE895E00E94BD0321E0892B09F4BC
:1007A00020E0822F089580E090E0892B29F00E94BC
:1007B000C90381110C9400000895FC01A48DA80FB9
:1007C000B92FB11DA35ABF4F2C91848D90E0019693
:1007D0008F739927848FA689B7892C93A089B189B3
:1007E0008C91837080648C93938D848D981306C054
:1007F0000288F389E02D80818F7D80830895EF92B8
:10080000FF920F931F93CF93DF93EC0181E0888FCA
:100810009B8D8C8D98131AC0E889F989808185FF9A
:1008200015C09FB7F894EE89FF896083E889F9893C
:1008300080818370806480839FBF81E090E0DF913E
:10084000CF911F910F91FF90EF900895F62E0B8D91
:1008500010E00F5F1F4F0F731127E02E8C8D8E114C
:100860000CC00FB607FCFACFE889F989808185FFB3
:10087000F5CFCE010E94DD03F1CFEB8DEC0FFD2F04
:10088000F11DE35AFF4FF0829FB7F8940B8FEA896E
:10089000FB8980818062CFCF0F931F93CF93DF932B
:1008A0008C01D0E0C0E0F801EC0FFD1F64916623DD
:1008B00041F08FE895E00E94FF03892B11F021960B
:1008C000F2CFCE01DF91CF911F910F910895CF9379
:1008D000DF93EC01888D8823B9F0AA89BB89E88968
:1008E000F9898C9185FD03C0808186FD0DC00FB60E
:1008F00007FCF7CF8C9185FFF2CF808185FFEDCF8C
:10090000CE010E94DD03E9CFDF91CF9108958330BE
:1009100081F028F4813099F08230A9F00895873071
:10092000A9F08830C9F08430B1F4809180008F7DC7
:1009300003C0809180008F7780938000089584B5F4
:100940008F7784BD089584B58F7DFBCF8091B000F3
:100950008F778093B00008958091B0008F7DF9CF9C
:10096000CF93DF93282F30E0F901E855FC4F8491B5
:10097000F901ED55FB4FD491F901E157FB4FC491BB
:10098000CC23A1F081110E948704EC2FF0E0EE0F40
:10099000FF1FE256FC4FA591B491EC91ED2381E04D
:1009A00090E009F480E0DF91CF91089580E090E03D
:1009B000FACF1F93CF93DF93282F30E0F901E8554A
:1009C000FC4F8491F901ED55FB4FD491F901E157AA
:1009D000FB4FC491CC23A9F0162F81110E948704EC
:1009E000EC2FF0E0EE0FFF1FE558FB4FA591B491FF
:1009F0008FB7F894EC91111108C0D095DE23DC93E9
:100A00008FBFDF91CF911F910895DE2BF8CF3FB7B5
:100A1000F8948091910290919202A0919302B091EA
:100A2000940226B5A89B05C02F3F19F00196A11D81
:100A3000B11D3FBFBA2FA92F982F8827BC01CD0128
:100A4000620F711D811D911D42E0660F771F881F87
:100A5000991F4A95D1F708958F929F92AF92BF92B6
:100A6000CF92DF92EF92FF924B015C010E9407054B
:100A70006B017C010E9407056C197D098E099F0995
:100A8000683E734081059105A8F321E0821A910820
:100A9000A108B10888EEC80E83E0D81EE11CF11C45
:100AA00081149104A104B10429F7FF90EF90DF9025
:100AB000CF90BF90AF909F908F9008952FB7F894EC
:100AC00060918D0270918E0280918F0290919002C0
:100AD0002FBF0895EF92FF920F931F93CF93DF9351
:100AE00000D000D0CDB7DEB7FA0120E08E010F5F55
:100AF0001F4F9E2F9F77EE0FEF2FEE1FFF0BF195ED
:100B0000309709F09068D801A20FB11D9C932F5F18
:100B1000309779F730E0FB01E21BF30B8483FB0194
:100B2000E21BF30B3596D801CD01801B910B821788
:100B300093071CF48D918193F7CF2F5F3F4F8091E6
:100B4000B3069091B4068901040F151F621B730B45
:100B50006B5F7F4FDC01ED91FC910280F381E02D12
:100B6000A80109957C010E945E056093BF06709301
:100B7000C0068093C1069093C20681E00E151F0542
:100B800009F080E00F900F900F900F90DF91CF91C0
:100B90001F910F91FF90EF9008958F929F92AF92C7
:100BA000BF92CF92DF92EF92FF92CF93DF93EC014F
:100BB0000E945E054B015C018091B3069091B406E2
:100BC000DC01ED91FC910084F185E02D0995892BE4
:100BD000B9F40E945E056B017C01C818D908EA08C7
:100BE000FB082091BB063091BC06A8EEB3E00E9442
:100BF000E63AC616D706E806F906F0F280E00DC020
:100C00008091B3069091B406DC01ED91FC910284D1
:100C1000F385E02D0995888381E0DF91CF91FF90E6
:100C2000EF90DF90CF90BF90AF909F908F900895FE
:100C30002F923F924F925F926F927F928F929F92EC
:100C4000AF92BF92CF92DF92EF92FF920F931F93DA
:100C5000CF93DF93CDB7DEB72A970FB6F894DEBFF8
:100C60000FBECDBF1C018091B5069091B6060E94C3
:100C7000CD0581111CC060E070E0CB012A960FB653
:100C8000F894DEBF0FBECDBFDF91CF911F910F91C2
:100C9000FF90EF90DF90CF90BF90AF909F908F909C
:100CA0007F906F905F904F903F902F900895E091CC
:100CB000B506F091B606D0801982EE24E394F12CAB
:100CC000812C912C5401412C512C32014394CE01A2
:100CD00001960E94CD05882371F287010F5F1F4F97
:100CE0008981E091B506F091B606EE0DFF1D808377
:100CF000E981AE2FAF77B0E0A30192010E947A3A6A
:100D0000860E971EA81EB91E37E0440C551C661CA3
:100D1000771C3A95D1F7E7FD3FC0BD2DB07FBE836C
:100D20008FEF800FF1018083B03309F04CC08091C8
:100D3000B5069091B606800F911F0E94CD058823BD
:100D400009F499CF2091B5063091B606C7010296F5
:100D5000820F931F0E94CD05882309F48CCF0E5F6C
:100D60001F4FE091B506F091B606D1018C91DF01DD
:100D7000A80FB11D11968C91119790E0982F88279C
:100D800012962C91820F911D208121FD0296F2E096
:100D9000E0E030E020E01DC078010530110509F0E9
:100DA00096CF8FEF9FEF9093D7068093D6068091D2
:100DB000B3069091B406DC01ED91FC910488F589AD
:100DC000E02D099558CFF0E0E0E030E020E090E041
:100DD00080E070E060E0CF2EDE2EE32EF22E2801C0
:100DE0003B014C185D086E087F084A825B826C826A
:100DF0007D822C01712C612C4F82588669867A86FF
:100E00004A805B806C807D804C0C5D1C6E1C7F1C5E
:100E1000C814D904EA04FB0408F046C0CE010196C8
:100E20000E94CD05882309F426CF8091D4069091A5
:100E3000D506009711F12E812033F9F4D1012C91C0
:100E40004EEF5FEF6FEF7FEF421B510961097109B0
:100E5000440E551E661E771E2F81388549855A859A
:100E6000241535054605570540F4DC01ED91FC914C
:100E70000190F081E02D698109958091B7069091EC
:100E8000B8060817190750F48981E091B506F0916A
:100E9000B606E00FF11F80830F5F1F4FBFEFCB1A25
:100EA000DB0AEB0AFB0AACCF8091D4069091D50601
:100EB000892B69F48091B7069091B806B0E0A0E064
:100EC00084159505A605B70510F410E000E0B801FB
:100ED00090E080E0D3CEEF92FF920F931F93CF93D9
:100EE000DF93EC018B017A010E945E05688B798BA0
:100EF0008A8B9B8B8C819D81DC01ED91FC91028022
:100F0000F381E02DA701B801DF91CF911F910F91DF
:100F1000FF90EF9009941F93CF93DF93EC01162F6E
:100F20000E945E05688B798B8A8B9B8B8C819D815F
:100F3000DC01ED91FC910190F081E02D612FDF91BA
:100F4000CF911F9109948823E9F0A5E7B4E025E04B
:100F500014969C91149789130DC095E0899FF00118
:100F60001124EB58FB4F848114968C9313821282C8
:100F700014820895992331F0929FD0011124AB5827
:100F8000BB4FE6CF08958823A1F090919502992355
:100F900081F08F3F29F48091820590918305089517
:100FA00095E0899FF0011124EB58FB4F82819381DA
:100FB000089590E080E008958EBD00000DB407FE16
:100FC000FDCF8EB508951F93CF93DF93182FC62FB3
:100FD000D42F60E08AE00E94D9048C2F8F71812B7E
:100FE0000E94DC078D2F0E94DC0761E08AE0DF9120
:100FF000CF911F910C94D904CF93DF93D82FD07643
:10100000909100019D17A1F0C82F43E06FE180EAA5
:101010000E94E3074C2F50E085E0559547958A954F
:10102000E1F743706FE180E80E94E307D09300018D
:10103000DF91CF9108951F93CF93DF93C82F162F81
:10104000D72F0E94FC07412F6C2F80E40E94E307FA
:1010500061E06C0F4D2F80E4DF91CF911F910C94D4
:10106000E307EF92FF920F931F93CF93DF938B01D0
:101070007A018F3F59F095E0899FE0011124CB5808
:10108000DB4F68817981600F711F0FC0609180050F
:1010900070918105600F711FC0E8D5E0611588E08F
:1010A000780778F37850C0E8D5E080E00E941B080C
:1010B0008A819B81801B910BE816F90608F4C70111
:1010C000DF91CF911F910F91FF90EF900895EF92D4
:1010D000FF920F931F93CF93DF93EB0170E060E0DB
:1010E0000E9431088C0160E08AE00E94D9048AE302
:1010F0000E94DC077E01E00EF11EEC16FD0629F0D1
:1011000080E00E94DC078993F8CF61E08AE00E94CA
:10111000D904C801DF91CF911F910F91FF90EF90FB
:10112000089560917E0570917F056115710529F024
:10113000615071098CE00C941B086FEF77E0FACFD7
:10114000CF93DF93C82FD62F0E94FC074D2F6C2F13
:1011500080E4DF91CF910C94E307CF93DF93D82FF6
:10116000C62F60E08AE00E94D9048C2F8F718D2BEE
:101170000E94DC07C7FF03C080E00E94DC0780E01C
:101180000E94DC07C82F61E08AE00E94D9048C2FFE
:10119000DF91CF910895CF93C82F0E94FC076C2F49
:1011A00080E0CF910C94AD08CF93DF9361E184EDA3
:1011B0000E94A00861E082ED0E94A008CFE0D0E08C
:1011C0008AEE0E94CB0880FF0BC06AE070E080E0EE
:1011D00090E00E942C05219799F790E080E00DC0E7
:1011E00060E082ED0E94A00888ED0E94CB08C82F25
:1011F00089ED0E94CB08982F8C2FDF91CF91089515
:10120000CF93DF93EB01682F84ED0E94A008BE010D
:1012100086ED0E941B08CFE0D0E08AEE0E94CB084A
:1012200080FF08C06AE070E080E090E00E942C053A
:10123000219799F7DF91CF910895CF9380919502EF
:10124000811144C08AE00E94E20261E08AE00E94CB
:10125000D904CFB7F89480918B02811124C0E9E9B9
:10126000F4E08491EDEAF4E09491E82FF0E0EE0FE1
:10127000FF1FEB57FB4FA591B491EC91E92321F4AB
:1012800061E08AE00E94D9048AE00E94E2028CB503
:1012900080618CBD8CB580648CBD8DE00E94E202C3
:1012A0008BE00E94E20280918B028F5F80938B0221
:1012B000CFBF8CB58C7F8CBD8DB581608DBD82E735
:1012C0000E94CB088F3F21F080939502CF91089523
:1012D00010929502FBCFCF93C62FBC0182E00E94F3
:1012E0001B0860E08AE00E94D9048AE70E94DC07BC
:1012F0008C2F0E94DC0761E08AE0CF910C94D90426
:10130000CF93BC0180E00E941B0860E08AE00E944D
:10131000D9048AE30E94DC0780E00E94DC07C82F22
:1013200061E08AE00E94D9048C2FCF910895CF927A
:10133000DF92EF92FF920F931F93CF93DF936C0195
:101340008B014130510579F4CB010E948009682F4F
:10135000C601DF91CF911F910F91FF90EF90DF9029
:10136000CF900C946B09EA01C60FD71F7E0181E074
:10137000E81AF10880E10E941B08B60184E10E948E
:101380001B080115184048F4E11488E0F80628F01D
:101390007E0181E0E81A88E0F80AB70182E10E9444
:1013A0001B0840E16FE180EA0E94E30740E26FE141
:1013B00080E80E94E3076FE180E00E94AD0885FFAE
:1013C00007C061E070E080E090E00E942C05F3CF60
:1013D000DF91CF911F910F91FF90EF90DF90CF9011
:1013E0000895CF92DF92EF92FF920F931F93CF93C6
:1013F000DF938C0160917504709176046150784E92
:10140000C12C98E1D92EE5E7F4E020E0D0E0C0E07F
:1014100045E03481CB01332341F0439FC0011124C7
:101420008B589B4FDC018D919C91E080F1808E194F
:101430009F090280F381E02D8E1B9F0B801791077F
:1014400099F4B5E02B9FE0011124CB58DB4FEAE77C
:10145000F4E081E022813381232B09F453C03596D7
:101460008F5F8533B9F744C00817190748F48C1506
:101470009D0530F4249FE0011124CB58DB4F6C0113
:10148000311121C0209719F7C5E7D4E085E0D82EA7
:101490008C8128813981EA80FB808823D9F0E20E93
:1014A000F31E8D9DE0011124CB58DB4F68817981BB
:1014B000E616F70669F34A815B81C7010E94970926
:1014C000F982E882E5CF349FF0011124EB58FB4FFD
:1014D000232F9FCF8091750490917604821B930BEC
:1014E0008E199F098150984E8017910708F0AFCF51
:1014F00080E0DF91CF911F910F91FF90EF90DF90EF
:10150000CF900895288139814A815B81240F351F4E
:1015100031832083138302839C8194838C83E9CF5E
:101520000F931F93DB01E42FA80190E0EF3FE1F060
:1015300065E0E69FF0011124EB58FB4F608171815B
:10154000620F731F01C0785025E0289FF001299F8A
:10155000F00D1124EB58FB4F808191818A0F9B1F66
:101560001F910F910C9497096091800570918105EE
:10157000620F731F6115E8E07E0728F7E0E8F5E0E9
:10158000DDCFCF92DF92EF92FF920F931F93CF9315
:10159000DF936B018A01790195E0899FE0011124B5
:1015A000CB58DB4F688179816C0D7D1D82E00E94F4
:1015B0001B080A80DB81C02DCC19DD09EC16FD0665
:1015C00008F4E70160E08AE00E94D9048AE70E94FB
:1015D000DC077801EC0EFD1EE016F10631F0F80193
:1015E00081918F010E94DC07F7CF61E08AE00E94C1
:1015F000D904CE01DF91CF911F910F91FF90EF9011
:10160000DF90CF900895DC011C96ED91FC9130970E
:1016100031F086819781982789279827089590E04F
:1016200080E00895CF93DF93FC01EB01AC85BD858D
:101630001097A9F012969C91129713968C9113977C
:101640003C9111962C914AE951E0518340833283B9
:10165000238394838583CF01DF91CF9108958AE915
:1016600091E0918380831282138214821582F3CFDA
:10167000CF93DF931F92CDB7DEB7DC01ED91FC91E4
:10168000048CF58DE02D41E050E0BE016F5F7F4F8F
:1016900009951816190634F4898190E00F90DF91AE
:1016A000CF9108958FEF9FEFF9CFCF93DF93EC01A8
:1016B0008A89882379F09A01AB016E857F850E9423
:1016C000C10A2E853F85280F391F3F872E87DF915E
:1016D000CF91089590E080E0FACFCF93DF931F92EF
:1016E000CDB7DEB76983DC01ED91FC910280F38117
:1016F000E02D41E050E0BE016F5F7F4F09950F90F4
:10170000DF91CF91089580E00895CF93DF931F92EA
:10171000CDB7DEB76983DC01ED91FC910280F381E6
:10172000E02D41E050E0BE016F5F7F4F09950F90C3
:10173000DF91CF910895762767277627DC011596EC
:101740007C936E931497ED91FC910084F185E02DCC
:101750000994089590E080E00895FB0141505109FB
:10176000460F571FE417F50778F4208130E0322F39
:1017700022276181260F311D820F931F8217930745
:1017800008F401963296EECFE417F50751F4208164
:1017900030E0322F2227820F931F8217930708F41D
:1017A00001960895CF92DF92EF92FF920F931F93CD
:1017B000CF93DF93C82FE0903702F12CFE2CEE245C
:1017C000409138024451550BE40EF51E48E050E0BC
:1017D00061E472E0C7018C0F911D0E94AD0B08E01F
:1017E000C13129F000915502069506950C7310E061
:1017F000A80169E472E00E94AD0BEC010E151F0513
:1018000008F049C0A701401B510B8091FE0162E224
:1018100070E081FF02C063E270E0600F711F809191
:10182000FF010E94310801977C0160E08AE00E947C
:10183000D9048AE30E94DC07D12CC12CCE14DF042A
:10184000B8F480E00E94DC07082F10E0102F00277A
:1018500080E00E94DC07800F912F911DC80FD91FD7
:10186000C817D90708F4219682E0C80ED11CE6CF2C
:10187000EC14FD0461F480E00E94DC0790E0982FF6
:101880008827C80FD91FC817D90708F4219661E027
:101890008AE00E94D9049C2F8D2FCD2B11F48FEF5D
:1018A0009FEFDF91CF911F910F91FF90EF90DF900D
:1018B000CF90089544E150E065E372E090E080E06D
:1018C0000E94AD0B009721F098278927982708954B
:1018D0008FEF9FEF0895CF93DF93EC01AC81BD8133
:1018E000E6E9F2E08A819B8191838083B383A283BE
:1018F000FA0184819581EFE1F2E0DA0112964D91CF
:101900005C915183408393838283E9018C819D8123
:10191000E3E2F2E02A813B81318320839383828357
:10192000FB0182819381A481B5818093930690937A
:101930009406A0939506B0939606DF91CF910895F3
:10194000FF920F931F93CF93DF93C091FE01C1FFCE
:1019500066C02091FC0130E047E252E061E070E0B7
:101960008091FF010E94C10ACD7FC093FE01F090DB
:10197000FF0180919502882309F444C085E0F89E18
:10198000F0011124EB58FB4F00811181C281D381FA
:10199000C00FD11F60E0C8010E946B09B80184E04C
:1019A0000E941B08BE016850710986E00E941B0856
:1019B0001AE0249740E86FE180E80E94E30740E8DE
:1019C0006FE180EA0E94E3074AE06CE180EA0E944E
:1019D000E30748E06FE180E80E94E3078CE10E94A2
:1019E000CB08082F8A70D1F348E06FE180EA0E94AB
:1019F000E30701FF2DC0CE010E94800985FF02C0D0
:101A00001150C1F6C0E08F2D0E94A3071092FF0174
:101A10008C2FDF91CF911F910F91FF900895C0916E
:101A20001702D0911802CE01089621F41092FF01FE
:101A3000C0E0EECF0E94F1098093FF018823C1F33B
:101A40009E0147E252E061E070E00E94C10A8FCF40
:101A5000C1E0D9CF0F931F93CF93DF93EC018C019B
:101A60000B5F1F4F89910E94A307FE0131971082DF
:101A7000C017D107B9F7DF91CF911F910F9108954A
:101A8000CF93DF93EC0188810E94A307FE01CE0172
:101A9000049621812193E817F907D9F71C82DF9179
:101AA000CF910895CF93DF93EC01E881F981008C09
:101AB000F18DE02D0995882339F08C859D8502965E
:101AC000DF91CF910C942A0DDF91CF9108950F9360
:101AD0001F93CF93DF931F92CDB7DEB78C01DC014C
:101AE000ED91FC91008CF18DE02D09958823B1F0EA
:101AF000D8011C96ED91FC918281882379F041E018
:101B000050E0BE016F5F7F4F0E946708898190E0BF
:101B10000F90DF91CF911F910F9108958FEF9FEF5D
:101B2000F7CFCF93DF931F92CDB7DEB7DC01ED91F6
:101B3000FC910288F389E02D41E050E0BE016F5F27
:101B40007F4F09951816190634F4898190E00F909B
:101B5000DF91CF9108958FEF9FEFF9CF6F927F9232
:101B60008F929F92AF92BF92CF92DF92EF92FF92AD
:101B70000F931F93CF93DF938C014B01EA01DC019C
:101B8000ED91FC91008CF18DE02D0995882309F4ED
:101B90007BC0D8011C96ED91FC918281882309F4C9
:101BA00076C07E018EE1682EBE016E197F09680D38
:101BB000791DD8011C96ED91FC91A70182810E94AC
:101BC00067086C01F801A484B584D50112967C9055
:101BD000872D0E94C307C816D906E9F5EC18FD0841
:101BE000C50102960E94400DF801A485B585EC91CF
:101BF0006E9EF0011124EC50FC4F818D84FF09C0D2
:101C000011968C911197982F967019F488601196FF
:101C10008C93D8011C96ED91FC911D9782818111C6
:101C20002EC0818182FF05C011821D961C921E92DA
:101C30001C97CE018E199F09DF91CF911F910F91B3
:101C4000FF90EF90DF90CF90BF90AF909F908F90DC
:101C50007F906F900895B5E07B9EF0011124EB58C2
:101C6000FB4F808191818C0D9D1D918380838281AA
:101C700093818C199D0993838283CE01DDCFE1147A
:101C8000F10409F091CFF9CF8FEF9FEFD5CF90E01E
:101C900080E0D2CFEF92FF920F931F93CF93DF9309
:101CA000EC01E881F981008CF18DE02D0995882304
:101CB000E1F00C851D85780182E0E80EF11C095FDA
:101CC0001F4FD0E0C0E0F70181917F010E94C30760
:101CD000C80FD91FE016F106B1F7CE01DF91CF9101
:101CE0001F910F91FF90EF900895D0E0C0E0F5CFE5
:101CF000FC01448555854115510551F0FB012485B2
:101D000035852115310521F081E04217530709F08F
:101D100080E00895DC011C96ED91FC91309731F044
:101D20008281811105C081818170089580E00895CC
:101D300081E00895DC01ED91FC91028CF38DE02DA2
:101D4000099591E089270895DC01ED91FC91048CBF
:101D5000F58DE02D099490915603992339F0E09187
:101D60009A02F0919B02309709F009940895CF935D
:101D7000DF93EC01FE0184912196882319F00E94E3
:101D8000AB0EF8CFDF91CF9108950E94B70E8BE98B
:101D900093E00C94B70E8FE890E00E94C50E8FE799
:101DA00090E00E94C50E88E690E00E94C50E90E08B
:101DB00080E00895CF93DF93EC018991811103C0F6
:101DC000DF91CF9108950E94AB0EF7CFE4EEF2E0E1
:101DD00030E020E040815181452B21F44281538144
:101DE000452B41F02F5F3F4F34962530310591F759
:101DF00080E00895220F331F220F331FF901EC51A9
:101E0000FD4F918380837383628381E008950E94F4
:101E10001D0980919502882381F00E94D40892FDCB
:101E20000FC082E090E020916B0330916C03281783
:101E3000390711F00C940000089590E080E0F3CF92
:101E400081E090E0F0CF682F8FE895E00C94FF03DD
:101E5000CF93DF93EC018FE895E00E94BD030097DC
:101E600039F08FE895E00E949B03888381E090E041
:101E7000DF91CF910895CF93DF9300D0CDB7DEB738
:101E800081E190E00E94453A898382E190E00E94DE
:101E9000453A8A8389819A8101978E3F9F4F20F02E
:101EA0008BE597E09A83898389819A810F900F90BF
:101EB000DF91CF9108950C94453AFF920F931F93B1
:101EC000CF93DF93EC018CE090E00E945B0F182F22
:101ED0008BE090E00E945B0F082F8AE090E00E9468
:101EE0005B0FF82E89E090E00E945B0F2AE931E059
:101EF000398328838A83FB820C831D83CE01DF9183
:101F0000CF911F910F91FF900895FF920F931F9310
:101F1000CF93DF93EC0180E190E00E945B0F182FDC
:101F20008FE090E00E945B0F082F8EE090E00E940F
:101F30005B0FF82E8DE090E00E945B0F2AE931E004
:101F4000398328838A83FB820C831D83CE01DF9132
:101F5000CF911F910F91FF9008958F929F92AF9212
:101F6000BF92EF92FF920F931F93CF93DF93CDB762
:101F7000DEB7A1970FB6F894DEBF0FBECDBF7C01D0
:101F8000FA01CB0119A2223008F42AE08E010F5D7C
:101F90001F4F822E912CB12CA12CBF01A5019401C1
:101FA0000E94C43AF901CA016A3074F5605DD80133
:101FB0006E938D01232B242B252B79F790E080E065
:101FC000109789F0FD0101900020E9F73197AF01EA
:101FD0004A1B5B0BD701ED91FC910280F381E02D50
:101FE000B801C7010995A1960FB6F894DEBF0FBEE0
:101FF000CDBFDF91CF911F910F91FF90EF90BF90D8
:10200000AF909F908F900895695CD1CF8F929F92EF
:10201000AF92BF92CF92DF92EF92FF920F931F93F6
:10202000CF93DF937C01EB016C0182E0C80ED11CE1
:102030004701E5E08E0E911C10E000E0F6014191B1
:102040006F0150E070E060E02AE0CE010E94AD0F29
:102050005C01E881F9810190F081E02D6EE2CE0112
:1020600009958A0D9B1D080F191FC814D90431F753
:10207000F701458150E070E060E02AE0CE010E9467
:10208000AD0F800F911FDF91CF911F910F91FF90A6
:10209000EF90DF90CF90BF90AF909F908F9008957A
:1020A00042E050E06CE971E08FE895E00C942D037C
:1020B000CF93DF930E944C04EC010E9450108C0FD0
:1020C0009D1FDF91CF910895CF93DF930E945E050E
:1020D00066507F4F8F4F9F4F60938B0570938C0599
:1020E00080938D0590938E050E941D0910928105A5
:1020F000109280051092830510928205E5E7F4E0C6
:1021000089E091E0DF019C011D9221503040E1F710
:1021100081E098E090937604809375044FEF60E03F
:102120008FEF0E94E30762E070E080E090E00E94A1
:102130002C0562E370E080E090E00E942C05109294
:102140007F0510927E05C0E1D0E06DE180E00E9445
:10215000AD08811109C0219739F06AE070E080E094
:1021600090E00E942C05F1CF70E060E088E00E94D2
:102170001B0870E060E08CE00E941B086FEF77E0C6
:102180008AE00E941B0861EB88E30E94A0086FE3CD
:1021900070E388E20E941B0869EF77EF80E30E94FA
:1021A0001B086DE070E080EC0E941B0842E362ECCB
:1021B00080E80E94E30762E17CE086EC0E941B0855
:1021C00062E184EC0E94A0086CED75E08AEC0E944C
:1021D0001B086091010184EE0E94A0086091020139
:1021E00085EE0E94A0086091030182EE0E94A00883
:1021F0006091040183EE0E94A0086091050180EEC9
:102200000E94A0086091060181EE0E94A00860E093
:1022100071E080E10E9400098FE10E94FC0740EC20
:102220006BE180E80E94E30744E06FE180E80E94F0
:10223000E30766E774E084E10E94000980910101F0
:10224000809385058091020180938605809103012A
:102250008093870580910401809388058091050112
:10226000809389058091060180938A0510926D0400
:1022700010926C0410926F0410926E04109271040C
:1022800010927004109273041092720410920D0454
:1022900010922B04109249041092670480E094E09D
:1022A0009093F3038093F2031092CB031092CA032E
:1022B0001092D6031092D5031092E1031092E0031E
:1022C0001092EC031092EB0384E08093740410925C
:1022D000C5039BE024E08091C503883018F0DF91AE
:1022E000CF910895899FF0011124E359FC4FDF013C
:1022F000322F1D923A95E9F78F5F8093C503EBCF9C
:10230000AF92BF92CF92DF92EF92FF920F931F9303
:10231000CF93DF93CDB7DEB768970FB6F894DEBFE3
:102320000FBECDBF8C017B016A0159010E94641070
:102330008AE991E09A838983F5014281538164811E
:1023400075814B835C836D837E8398878F83F601D1
:10235000428153816481758149875A876B877C8765
:102360009E878D87F70142815381648175814F87F4
:10237000588B698B7A8B9C8B8B8BF8018281938134
:10238000A481B5818D8B9E8BAF8BB88F9E012F5F03
:102390003F4FAE01495F5F4FBE01635F7F4FCE018C
:1023A00043960E946B0C68960FB6F894DEBF0FBE82
:1023B000CDBFDF91CF911F910F91FF90EF90DF90F4
:1023C000CF90BF90AF9008950F931F93CF93DF935B
:1023D000DC012091F2033091F3032F5F3F4F211571
:1023E0008DE7380710F020E030E1522F432FE6EC64
:1023F000F3E0EF0180E08430A1F43093F303209305
:10240000F20330E020E02430310599F484E0809339
:102410007404F0E0E0E0CF01DF91CF911F910F91C4
:1024200008950C811D818F5F2B960417150719F7EE
:10243000D4CFC481D581C90101963B96CD2B09F536
:10244000209374048BE0829FF001839FF00D112490
:10245000EA53FC4F5583448377836683109799F43E
:1024600084E0DF011D928A95E9F78BE0829FD0011D
:10247000839FB00D1124AA53BC4F80E418968C930F
:10248000CACF9C01C0CF8D919C911197918380837D
:1024900012968D919C9193838283E7CF0F931F9324
:1024A000CF93DF93EC018B018C859D85892B41F4C3
:1024B00070E060E090E080E00E94E4119D878C87EE
:1024C000EC85FD8580E0309749F010270127102723
:1024D000158304832E96D287C18781E0DF91CF9147
:1024E0001F910F910895CF93DF93DC011C96ED911E
:1024F000FC913097B1F0EC0115821482128611869E
:102500001D861C8689890E94A30788890E94A307CB
:102510008A890E94A3072E9686E0FE0111928A9571
:10252000E9F7DF91CF910895FC011382128288EEC2
:1025300093E0A0E0B0E084839583A683B7838CE129
:1025400091E091838083158614863E9686E0DF01B4
:102550001D928A95E9F70895EF92FF920F931F93CA
:10256000CF93DF93FC0101900020E9F7EA51E813D3
:102570001FC07A01EB018C016FE971E00E942E3DD2
:10258000892BE9F466EA71E0C8010E942E3D892B8F
:1025900059F56DEA71E0C8010E942E3D892B31F595
:1025A00064EB71E0C8010E942E3D16E0892B41F4D6
:1025B000DF91CF911F910F91FF90EF90089519E057
:1025C00082E0E816F104A1F488818F3489F78981CB
:1025D00061E08E3469F7812FDF91CF911F910F91C8
:1025E000FF90EF900C94D90418E0EACF17E0E8CF01
:1025F00083E0E816F10459F488818F34C9F68981A3
:102600008634B1F68A81863499F660E0E4CF86E0BC
:10261000E816F10469F68881843551F689818F3492
:1026200039F68A81873421F68B81873409F68C81CB
:102630008C3409F0BDCF8D81853409F0B9CF812F5D
:102640000E94B00461E0892B31F2DFCFCF92DF929C
:10265000EF92FF920F931F93CF93DF93CDB7DEB727
:102660006A970FB6F894DEBF0FBECDBF8C017B0119
:1026700062EC71E0CE0101960E94273D69E573E0AE
:10268000CE0101960E94133D69EC71E0CE010196E6
:102690000E94133D0330110569F5F7010281138192
:1026A00064EA71E0C8010E941E3D892B09F07BC0DD
:1026B00064EA71E0CE0101960E94133D19E0F70132
:1026C000E480F5806FEB71E0C7010E941E3D892B0D
:1026D00009F4AEC06BEB71E0C7010E941E3D892B6F
:1026E00009F4FBC060ED71E0C7010E941E3D892B1B
:1026F00009F4F7C083E993E00E94B70E81E793E005
:102700000E94C50E83E693E00E94C50E86E593E025
:102710000E94C50E8AE493E00E94B70E89E00E94F1
:10272000B004019709F078C08BE393E00E94C50ED6
:102730008EE393E00E94B70E88E00E94B0040197F8
:1027400009F06DC088E293E00E94C50E8BE293E031
:102750000E94B70E87E00E94B004019709F062C0A2
:1027600085E193E00E94C50E88E193E00E94B70ED8
:1027700086E00E94B004019709F057C08EE093E014
:102780000E94C50E90E080E06A960FB6F894DEBF16
:102790000FBECDBFDF91CF911F910F91FF90EF90B2
:1027A000DF90CF9008956BEA71E0C8010E941E3D52
:1027B000892B41F46BEA71E0CE0101960E94133D32
:1027C00018E07DCF62EB71E0C8010E941E3D892BAD
:1027D00041F462EB71E0CE0101960E94133D17E0D7
:1027E0006ECF69EB71E0C8010E941E3D10E0892B9D
:1027F00009F065CF69EB71E0CE0101960E94133DAF
:1028000016E05DCFF5E0EF1AF108A701480F591F58
:1028100080E30E946A056ECF87E393E087CF84E26E
:1028200093E092CF81E193E09DCF8AE093E0A8CF3F
:10283000112309F45FCF61E0812F0E94D9040E9427
:10284000AA02882309F456CF812F0E94B0040BEB13
:1028500011E0019711F40FEB11E06091B706709150
:10286000B806C8010E94FB397C010E94AA02882395
:1028700009F440CFC090B706D090B806B601CE019B
:1028800001960E94FB399701295F3F4F820F931FEA
:10289000C816D90608F42ECF6091B5067091B60619
:1028A00045E050E0CE0101960E948802A8014E0D3D
:1028B0005F1DF8018C010E1B1F0BD801AE0FBF1F4F
:1028C0006091B5067091B6064E175F0709F49ACF6E
:1028D0002191A60FB71F2C93F0CF112309F40ACF33
:1028E0000AC0112309F406CF812F0E94B00461E0D1
:1028F000892B09F4A1CF60E09FCF0F931F93CF9353
:10290000DF9300D000D0CDB7DEB78C01FC0182810F
:102910004AE0BE016F5F7F4F90E00E941B3ACE01FC
:1029200001960E94DA0E87ED91E00E94DA0EF8011E
:1029300083814AE0BE016F5F7F4F90E00E941B3AA7
:10294000CE0101960E94DA0E87ED91E00E94DA0E28
:10295000F80184814AE0BE016F5F7F4F90E00E94E2
:102960001B3ACE0101960E94DA0E87ED91E00E949B
:10297000DA0EF80185814AE0BE016F5F7F4F90E07B
:102980000E941B3ACE0101960E94DA0E0F900F9022
:102990000F900F90DF91CF911F910F910895DC015F
:1029A0008AE991E08D939D9384E0FB0101900D9263
:1029B0008A95E1F70895EF92FF920F931F93CF93BB
:1029C000DF93FC011092C503CDE6D3E0DE0130E0D9
:1029D00020E02830310569F490E0983009F042C0D9
:1029E00010921602109215021092C5032DE633E0E4
:1029F00044C0CD018D5693400D911C911197011546
:102A0000110561F112964D915C9113974115510595
:102A100029F1E080F1800E151F0501F50281138177
:102A200040175107D9F42093C503DC01AF58BC4FC0
:102A300086E0FB0101900D928A95E1F78BE0829F81
:102A4000F001839FF00D1124E359FC4F1286DF91B2
:102A5000CF911F910F91FF90EF9008952F5F3F4FFF
:102A60001B96B7CF9E0148815981452BB1F44A810D
:102A70005B81452B91F49093C50384E0D9010190CB
:102A80000D928A95E1F7D901149686E0FB01019039
:102A90000D928A95E1F7F901D9CF9F5F2B969DCFD3
:102AA000EF92FF920F931F93CF93DF9300D000D04C
:102AB00000D0CDB7DEB740914502509146024F3F5E
:102AC000540731F48091470290914802019619F120
:102AD0008091960290919702609123027091240256
:102AE0009B0120953095282B392B42175307A9F5C8
:102AF000209125023091260220953095E091980290
:102B0000F09199022E2B3F2BE0914702F091480261
:102B1000E217F30711F586E0E0E4F1E0A7E2B2E0A6
:102B200001900D928A95E1F786E0E5E8F5E0ADE2E7
:102B3000B2E001900D928A95E1F788E090E09093E1
:102B400034028093330280911702909118020E96FE
:102B50009093180280931702A5C084279527862397
:102B60009723892B99F42091470230914802809154
:102B70009802909199028227932760912502709183
:102B8000260286239723892B09F499C080911F027E
:102B90009091200290931C0280931B02809121024D
:102BA0009091220290931E0280931D02E0901B02DE
:102BB000F0901C0200911D0210911E02EDE6F3E060
:102BC00080E0883009F084C08093C50346E050E07F
:102BD0006FEF70E087E292E00E940C3D86E0E7E450
:102BE000F2E0DF01282F1D922A95E9F7E5E8F5E0EC
:102BF000ADE2B2E0982F01900D929A95E1F7E5E8E9
:102C0000F5E0ADE3B2E0982F01900D929A95E1F7CF
:102C1000F0924E02E0924D021093500200934F0248
:102C20002091960230919702309344022093430200
:102C300020919802309199023093460220934502E8
:102C400020E031E030933C0220933B023093360287
:102C50002093350228E030E0309338022093370289
:102C60008093390294E090933A0228E036E0309362
:102C70003402209333022DE532E030931A02209380
:102C800019022AE230E03093180220931702BE01A5
:102C90006F5F7F4FDB011D928A95E9F78BE192E030
:102CA0000E94DB1426960FB6F894DEBF0FBECDBF90
:102CB000DF91CF911F910F91FF90EF900895509366
:102CC0001C0240931B0230931E0220931D026ECF04
:102CD00020813181E216F306E1F42281338102176B
:102CE0001307B9F49481911103C09581992329F0B8
:102CF0008093C503349686E011CF96819111F8CF69
:102D000097819111F5CF90859111F2CF9185911115
:102D1000EFCF8F5F3B9655CFCF93DF93EC010E94AF
:102D2000501580911702909118028A9759F41092C9
:102D3000FF018091FE018D7F8093FE01DF91CF9195
:102D40000C94A00C0E94A00C1D821C82DF91CF91DC
:102D500008959C01AB017093140260931302161640
:102D6000170654F480911102909112028217930772
:102D700019F0B9010C94F13C0895EF92FF920F9372
:102D80001F93CF93DF93E0910802F0910902C18570
:102D9000D285209709F456C0E0900E02E1FE1FC0D4
:102DA0008A8181111CC08091490290914A029783C7
:102DB0008683809141029091420291838083809129
:102DC0004302909144029383828380914D029091BB
:102DD0004E02982789279827089709F51A82E3FE5B
:102DE00031C08D81882371F18C818093FF018091A6
:102DF000FE0182608093FE018AE28093FC0168817B
:102E000079816B5271098091190290911A02DF91B8
:102E1000CF911F910F91FF90EF900C94A9160E94F3
:102E2000F109F82E8A838823D1F20E94C3078C010E
:102E30002AE230E04091FD0170E060E08F2D0E94B9
:102E4000900ACDCFDF91CF911F910F91FF90EF901E
:102E50000895AF92BF92CF92DF92EF92FF920F93BD
:102E60001F93CF93DF93E0900F02F0901002F701D1
:102E7000C48DD58DD0900E02209781F5D6FC03C06D
:102E8000F12CE12CC3C0ECE9F2E090E080E021817C
:102E900021117EC042E1489F9001499F300D1124CD
:102EA000E901C456DD4FC701845F9340959587952E
:102EB0006FEE7EEE869FA001879F500D969F500D6E
:102EC0001124488381E0898322563D4F81E1F90135
:102ED00011928A95E9F7F701D58FC48FD1FE30C0E2
:102EE00000911702109118020115110549F189810D
:102EF000867031F55E01F2E0AF0EB11CC12CF50118
:102F000081915F0181114BC0C8010E94F109F50157
:102F100031978083882309F442C0209119023091AF
:102F20001A02275232404091FD0170E060E00E9499
:102F3000900AF4E0CF1204C0F701818D8061818F87
:102F4000898183FF0AC0877F89838D2D826080936A
:102F50000E02F701818D8F7E818F80910E0284FD9C
:102F600004C087FD02C085FF26C0CE0107960E94DF
:102F70002A0D8A818823E9F0F70184819581988759
:102F80008F83898184608983F701158E148E78CFB1
:102F9000019672968430910509F079CF71CFC39470
:102FA000F5E0CF12ACCF8091FE018E7F8093FE01C1
:102FB000C3CF1982E9CF80FF3FC0CE0107960E94A0
:102FC000400D8F818823D1F19885911145C0EC8403
:102FD000FD84E114F10409F453CF95E0899FF001D9
:102FE0001124EB58FB4FF382E282009119021091F9
:102FF0001A02075212400093FC011127C8010896DB
:103000008E0D9F1D009779F51092FF01B7018091F9
:10301000190290911A020E94A916F0921802E092E9
:103020001702DF91CF911F910F91FF90EF90DF90EA
:10303000CF90BF90AF9008958C7019F6898181FF71
:103040001FCF8F81811124C01982F701158E148E34
:1030500080E180930E0214CF0E94C3077C01892B6C
:1030600009F40ECFC2CF0E94F1098093FF0188239B
:1030700069F2B8016F5F7F4F870130E020E04F8138
:103080000E94900A8091FE0182608093FE01BECF73
:10309000F701818D8061818FF3CEAF92BF92CF9285
:1030A000DF92EF92FF921F93CF93DF93843009F466
:1030B00058C1C0910F02D09110022DE532E030933B
:1030C0001A022093190230931202209311028330C6
:1030D000C9F4898D8F70833009F044C0888999893B
:1030E000892B09F03FC088E080930E020E942917C7
:1030F00080910E0285FF13C61092140210921302E3
:10310000198E51C0823009F005C180910D028F5F88
:1031100080930D02811113C080910C028F5F809308
:103120000C0281110CC080910B028F5F80930B0207
:10313000811105C080910A028F5F80930A0210926C
:103140001802109217021092140210921302898D25
:10315000982F9D7F953059F48A8D8F5F8A8F88379D
:1031600009F4198E109218021092170231C28823A6
:10317000C9F328893989232B09F4C7C09A8D2FEF09
:10318000290F2A8F9111EECF9B8D983031F02FEFC0
:10319000280F223050F4953041F4198E80E8809346
:1031A0000E020E94291784E184C0392F953008F05F
:1031B00034E023E001C0220F3A95EAF72A8F9F5F9F
:1031C0009B8F8F70833009F47DC008F06AC0813016
:1031D00009F406C4823031F61092560280915602EC
:1031E00082608093560282E080935D0294E0909327
:1031F0005E0280935F02109260028CE290E09093F6
:1032000018028093170280E6809355028885809388
:1032100051028985809352028A85809353028B855F
:10322000809354028C8580934D028D8580934E024D
:103230008E8580934F028F858093500286E0809325
:103240003E028C819D8190934A02809349028E8137
:103250009F8190934C0280934B02809196029091B3
:10326000970290934202809341028091980290913C
:1032700099029093440280934302888199819093AC
:103280004602809345028A819B81909348028093F5
:103290004702898D84FFC9C51092580210925702C7
:1032A000D5C2863029F0883019F0843009F05ACF21
:1032B00081E18093560288E290E090931802809317
:1032C000170221C084E080930E020E94291780918A
:1032D00011029091120290931A0280931902809128
:1032E000130290911402892B09F44AC5888999899F
:1032F000009709F445C588969093180280931702A9
:1033000088E18093560280E57FCF8F70833009F08B
:1033100029CFE9CE853009F0A9C0E0910802F091EB
:10332000090284819581892B09F41CCF1092100227
:1033300010920F0281E592E090931A028093190295
:1033400090931202809311021092140210921302B1
:10335000109218021092170288E080930E020E94C9
:10336000BD168091130290911402009709F4FACED1
:103370009C01245E3F4F3093180220931702309334
:10338000370220933802E0910802F091090220856B
:1033900020933D0221E120933E0208969827892739
:1033A000982790934E0280934D02109250021092F3
:1033B0004F028481958190934A02809349028681CD
:1033C000978190934C0280934B028091960290914A
:1033D00097029093420280934102809198029091CB
:1033E000990290934402809343028081918190934B
:1033F0004602809345028281938190934802809394
:1034000047028DE592E090931A028093190281E1C0
:103410000E94D20B80959095009709F45BC1909320
:10342000500280934F0285E4809335021092360259
:1034300010923C0210923B02809100029091010296
:103440000196909301028093000290933902809339
:103450003A021092400210923F020E945A0C80954C
:1034600090959093400280933F02B2C080913502C4
:10347000853409F077CEC0903702D12CDC2CCC24D7
:1034800080913802C80ED11C8091170290911802C9
:103490008C159D0508F466CED0921802C0921702D2
:1034A00080913B028F7309F05DCE10913C021111A7
:1034B00059CEA0909602B0909702A114B10439F4AD
:1034C0008091980290919902892B09F441C0209132
:1034D00045023091460280913E02813149F52F3FED
:1034E000320739F48091470290914802019609F41D
:1034F0007DC08091230290912402809590958A2925
:103500009B2982179307A1F48091250290912602AE
:10351000809590954091980250919902842B952B1B
:1035200040914702509148024817590709F45EC07C
:10353000A216B30609F016CE209147023091480238
:1035400080919802909199022817390709F00ACEC4
:103550000E945A0C019609F005CE80913E028630F9
:1035600009F4BBC0813109F441C0813009F0FACDC2
:1035700080914902883009F0F5CD1092490280917E
:103580004B0290914C02873F4FEF940768F10996E8
:1035900090934C0280934B028091410290914202A1
:1035A0009093460280934502809143029091440299
:1035B0009093480280934702B0924202A092410247
:1035C00080919802909199029093440280934302D3
:1035D00010920E02DF91CF911F91FF90EF90DF903C
:1035E000CF90BF90AF9008950896D2CF8CE1C81AC3
:1035F000D108D0921802C092170281E592E0909310
:103600001A028093190280914F0290915002892BE7
:10361000E1F440914B0250914C026091490270914B
:103620004A02A0914102B0914202C0914302D0915E
:103630004402E6ECF3E022EF33E02E173F0761F49B
:1036400030930902209308028DCD81E10E94D20BB4
:10365000019609F087CDDDCF848195810097C1F176
:1036600084179507A9F586819781009719F0861729
:10367000970771F5808191810097D1F4E280F38002
:10368000EF28F1F4F0930902E0930802109210027F
:1036900010920F0282E080930E0281E592E09093F7
:1036A000120280931102109214021092130257CE4C
:1036B0008F3F980729F4E280F380EF20E09411F324
:1036C0008A179B0729F482819381C817D907D1F201
:1036D0003B96B3CF8FEF9FEFA2CE86E00E94D20B36
:1036E000019609F03FCD40914B0250914C02609100
:1036F000490270914A028091410290914202E09108
:103700004302F0914402C4EFD3E0298D2223A9F0B3
:10371000AC81BD814A175B0781F4AE81BF816A1716
:103720007B0759F4A881B9818A179B0731F4AA81D4
:10373000BB81EA17FB0709F45BC16E9624E0CE3427
:10374000D20719F310F3809156028F73823061F41F
:103750005093070240930602ECE6F4E080E08430E8
:1037600009F091C0809374048091560282FDFACCD6
:1037700084E18093560288E290E09093180280934F
:10378000170280E5809355023091500280915402D7
:103790008093500220914F028091530280934F02F8
:1037A0002093530290914E028091520280934E02D8
:1037B0009093520280914D02809374044091510283
:1037C00040934D02809351023F5F30935402311178
:1037D0000DC02F5F20935302211108C09F5F90936B
:1037E0005202911103C08F5F809351028091490270
:1037F00090914A02909307028093060220914B0217
:1038000030914C0230934A022093490290934C022B
:1038100080934B0280914102909142029093460224
:103820008093450280914302909144029093480214
:1038300080934702B0924202A09241028091980286
:1038400090919902909344028093430280E4809384
:103850003D02809117029091180290933702809355
:10386000380210925C0210925B0210925A0210927F
:10387000590286E00E94D20B8095909590935A024F
:1038800080935902D0CD219131918F5F4217530718
:1038900009F065CF10927404E4EFF3E090E080E06B
:1038A000D0E0C0E08430910531F484E0809374046A
:1038B000209781F457CC3E2F2F2FA18DA11163C0EB
:1038C000809374042EE1289FE001299FD00D1124DC
:1038D000CC50DC4FD0931002C0930F0283E08A8F4C
:1038E000888F1E8A84E08F8B1B8E5D834C837F8341
:1038F0006E838091410290914202998388838091E6
:103900004302909144029B838A8381E0898F809156
:103910000A028C8780910B028D8780910C028E8722
:1039200080910D028F8781E090E0998B888B809148
:1039300050028B8780914F028A8780914E0289873F
:1039400080914D02888781E090E00E942430809130
:103950005502982F907F913508F442C082958F7060
:103960008550990B880F991F880F991FE12FF0E060
:10397000E817F9072CF4E95DFD4F36A9311112C0A3
:10398000109374042DC0A73031F4209731F0B28D1C
:10399000AA8DAB1710F03C2F2D2F01967E96C32FCA
:1039A000D22F80CF313011F41F5FE0CF27A9323002
:1039B000D9F42430C9F41093740480AD91AD8927F3
:1039C000982789279093070280930602813042E06E
:1039D000940710F080E092E09B8B8A8B9D8B8C8B00
:1039E00080E180935602FACB222351F2120FBECF10
:1039F000D0931002C0930F0210920E0290915602C3
:103A000092FF07C0198E80E280930E020E94291750
:103A1000A9CB8091550282958F70880F880F809373
:103A20007404C81AD108760184E1E81AF108F0920A
:103A30001802E09217022F70223021F4892F8F7321
:103A40008231D1F0E114F10419F4892F8370A1F0CF
:103A500039852A858B8550914D0248855413C0C104
:103A600040914E024313BCC130914F023213B8C192
:103A7000209150022813B4C194FF49C06889798904
:103A80006115710509F443C0CE010C960E94F12F17
:103A90003091510280910202381339C020915202B4
:103AA00080910302281333C0909153028091040245
:103AB00098132DC08091540240910502841327C0B1
:103AC0003C872D879E878F87988D8B8D811118C09D
:103AD0008E892A8D921B282F269526952695921B36
:103AE000890F8E8B97FD91952F89322F36953695BC
:103AF000231B920F9F8B869586958695890F888FBD
:103B000081E080930E02888D8A8F198A188A298D08
:103B1000E22FEF70E150E83008F024CBF0E0ED56F2
:103B2000F24E0C94F53A9B1DB41D1E1ED31EFC1EB6
:103B30000D1FF01ECC1E80910E0280FF13CB83E080
:103B4000898F80E480930E02198A188AE114F104A7
:103B500031F082E480930E02C7010E94243010925B
:103B6000140210921302C2CA80910E0280FF5FC03D
:103B7000809156028F73823109F059C080915502AD
:103B8000982F907F913598F182958F708550990B81
:103B9000880F991F880F991FE12FF0E0E817F907A8
:103BA0002CF4E95DFD4F36A9311103C01093740464
:103BB0001EC0313011F41F5FEFCF27A9323099F5C5
:103BC000243089F51093740480AD91AD892798272E
:103BD00089279093070280930602813012E09107B3
:103BE00010F080E092E09B8B8A8B9D8B8C8B83E026
:103BF000898F80914D02888780914E0289878091BC
:103C00004F028A87809150028B8781E090E00E946A
:103C1000243082E480930E02198A188A10921802C6
:103C2000109217029CCF222309F2120FB5CF80E227
:103C300080930E020E942917198E96CD809156020C
:103C400080FF20C024FD1EC088899989892B09F036
:103C500089CAC60143970E94243080910E02982F92
:103C6000906190930E02EF2819F0826180930E020A
:103C70000E94291781E090E0998B888B88E0898FDA
:103C80001B8E16CB85FF14C080915B0290915C0265
:103C9000982789279827AC01435A5D4F50931A0201
:103CA00040931902E81AF90AF0921802E0921702FA
:103CB000409117025091180290910E024115510542
:103CC00041F024FD06C0926090930E02CA010E944A
:103CD000243080915702282F30E0322F2227809104
:103CE0005802820F932F911D909307028093060232
:103CF0002C893D892817390710F0892B21F430933E
:103D000007022093060280910602909107029B8B86
:103D10008A8B80910E02837009F424CA20CF84FF1D
:103D20000AC0109214021092130281E090E0998B65
:103D3000888B84E0A4CF20911302309114022115C6
:103D40003105B9F080FF02C0198A188A88899989DB
:103D5000009789F48A899B898217930720F49093AE
:103D60001402809313028091130290911402998B94
:103D7000888B1B8EACCA9093140280931302F9CFE8
:103D800080910E0281FFEEC988E290E090931802C4
:103D90008093170280E1B5CA80910E0280FFE2C9CC
:103DA000198E80E131CEE114F10419F0C7010E94AF
:103DB000243080910E0281709091560290FF15C0C0
:103DC000882381F087E0898F1A8E198A188A81E00A
:103DD00090E00E94243080E180930E020E94291717
:103DE00080E167CA86E0898FF2CF882399F085E069
:103DF000898F198A188AB6C9E114F10419F0C7012C
:103E00000E9424308091560280FF04C087E0898F91
:103E10001A8EDDCFEF2821F7A5C980910E0280FF11
:103E2000A1C987E0898F1A8E9DC982E080935702CD
:103E3000109258020BCDCF93DF93EC012C853D857A
:103E40002115310529F490E080E0DF91CF910895AC
:103E5000EA89EE23C1F381E08B8B85E0E89FF001D6
:103E60001124EB58FB4F8E859F85079693838283A1
:103E7000309309022093080285E00E944D1880913A
:103E8000170290911802892BF1F2CE010E960E9432
:103E90008C1681E090E0D9CF8F929F92AF92BF9223
:103EA000CF92DF92EF92FF92CF93DF9380919502B2
:103EB000882309F41FC1D091FD01D11151C089E3BC
:103EC0000E94CB08882309F449C060917E05709157
:103ED0007F056B0126E0C20ED11CC11438E0D30669
:103EE00028F06B014AEFC41A47E0D40A80E00E9430
:103EF0001B0860E08AE30E94AD08E82E60E08AE3D8
:103F00000E94AD08F82EF0927F05E0927E0560E0F9
:103F10008AE30E94AD08B82E60E08AE30E94AD08F3
:103F2000C82F60E08AE30E94AD08A82E40E46EE14D
:103F300080E80E94E307A7FEE8C0E11458E0F50618
:103F400008F0E3C0D0928105C09280059C2F8B2D94
:103F500004979093830580938205DFEFD093FD0152
:103F6000F090FD01FF2009F472C081E08093FE0112
:103F70008F2D0E94C307EC019093180280931702C3
:103F8000892B09F4EFC042E650E067E272E08F2D22
:103F90000E946708C0903302D090340288E0C816AF
:103FA000D10409F0CDC0F092FF012E97D0931802F2
:103FB000C09317022091410230914202E091960293
:103FC000F0919702C9018E279F27409123025091BB
:103FD000240284239523892B49F540914302509173
:103FE00044026091980270919902CA01862797272E
:103FF000A0912502B09126028A239B23892BB1F43C
:104000008091450290914602E817F90709F080C0B7
:1040100080914702909148026817790709F078C0AB
:104020006DE272E081E492E00E94DB1481E00E9484
:104030004D188091170290911802892B21F00E944F
:1040400050150E94A00C8091FE0180FD8BC00E9443
:104050005E056B017C0180918B0590918C05A09190
:104060008D05B0918E0546015701881A990AAA0A52
:10407000BB0AC4EFD3E0D0931002C0930F02B7FC89
:1040800008C182E00E944D18809117029091180299
:10409000892B21F00E9450150E94A00C6E9634E0EE
:1040A000CC36D30741F7B7FC25C04AEFC40ED11C6C
:1040B000E11CF11CC0928B05D0928C05E0928D051D
:1040C000F0928E05C6ECD3E0D0930902C0930802AB
:1040D00085E00E944D188091170290911802892B5B
:1040E00021F089859A850E948C162B9653E0C23F59
:1040F000D50751F7DF91CF91FF90EF90DF90CF90F0
:10410000BF90AF909F908F9008950E94910826CF06
:10411000EDE6F3E080E0883019F48093C50386CFA4
:10412000608171812617370741F4628173814617D8
:10413000570719F48093C50373CF8F5F3B96EBCF7E
:1041400028E0C21626E0D20669F4109218021092F6
:104150001702AA9760F48091170290911802892B98
:1041600009F06FCF0E9491081092FD0170CF8091ED
:104170003B0290913C02811531E0930701F18115DA
:10418000924049F720914D0230914E028091960263
:104190009091970228173907F1F620914F0230913C
:1041A000500280919802909199022817390799F648
:1041B0006DE372E083E492E00E94DB14CCCFE090E8
:1041C0004D02F0904E028091960290919702E8166F
:1041D000F90609F6C0914F02D091500280919802E1
:1041E00090919902C817D90709F0B5CF6DE372E035
:1041F00083E492E00E94DB1480E092E090933C0222
:1042000080933B0286E0EDE3F2E0A7E4B2E00190A8
:104210000D928A95E1F786E0E5E8F5E0ADE3B2E0DE
:1042200001900D928A95E1F786E0E5E8F5E0ADE2D0
:10423000B2E001900D928A95E1F786E0E7E4F2E0C2
:10424000A7E2B2E001900D928A95E1F780914302D6
:104250009091440290934E0280934D0280914502CA
:10426000909146029093500280934F02F092440244
:10427000E0924302D0934602C0934502D0923402AA
:10428000C09233028AE290E0909318028093170262
:1042900062CFEC8DFD8D309709F400CF8685978530
:1042A000A089B189A7019601281B390B4A0B5B0B2A
:1042B000DA01C901B7FDF2CE83E00E944D180E94D9
:1042C0005E05E0910F02F0911002048CF58DE02D57
:1042D000665F7F4F8F4F9F4F66877787808B918B6D
:1042E000D3CECF93DF93EC010E944C1F89890E94AB
:1042F000A307198ADF91CF9108950F931F93CF934E
:10430000DF931F92CDB7DEB78C010E944C1FF801DE
:104310008189882389F041E050E0BE016F5F7F4FC3
:104320000E946708019741F4898190E00F90DF9126
:10433000CF911F910F9108958FEF9FEFF7CFEF92DD
:10434000FF920F931F93CF93DF937C018B01EA01C0
:104350000E944C1FF7018189882369F1AE01B801E1
:104360000E9467088C01F701C1898C2F0E94C30746
:104370008017910769F48C2F0E94A307F701118A17
:10438000C801DF91CF911F910F91FF90EF90089599
:1043900085E0C89FF0011124EB58FB4F808191818B
:1043A000800F911F9183808382819381801B910B69
:1043B00093838283E5CF80E090E0E3CFCF93DF93D8
:1043C000EC010E944C1F8989DF91CF910C94C307A7
:1043D000CF93DF93EC010E944C1F898981110E94C9
:1043E000A3078889898B188ADF91CF910C94C30722
:1043F000CF92DF92EF92FF920F931F93CF93DF93B1
:1044000000D000D0CDB7DEB78C016B017A010E94DD
:104410004C1FF60182819381A481B581892B8A2B5F
:104420008B2BE9F0E114F104D1F0D8011C96ED9149
:10443000FC91D60112962D913C9113973A832983D2
:1044400014968D919C919C838B837E2D6F2D30973C
:1044500079F1778366833183208393838283F801A4
:1044600084859585892BB1F18289811133C08EE0D5
:1044700096E00E94F109D80152968C9352972BE254
:1044800030E01F963C932E931E9721E090E081111F
:1044900001C020E0822F0F900F900F900F90DF91BE
:1044A000CF911F910F91FF90EF90DF90CF900895E3
:1044B000CE0101960E94E411F80195878487009748
:1044C00049F09801225F3F4FDC011A963C932E93EE
:1044D0001997C5CF80E090E0DECF4F925F926F9248
:1044E0007F928F929F92AF92BF92CF92DF92EF9284
:1044F000FF920F931F93CF93DF93CDB7DEB76397F0
:104500000FB6F894DEBF0FBECDBF6C017B013A0140
:10451000FB01DB018D91882309F444C08E32D1F375
:1045200080538A30B8F3F6014281538164817581EA
:104530008091A5069091A606A091A706B091A80625
:10454000481759076A077B0709F455C28601085FB7
:104550001F4F0E945E056F7077277C5FC8010E9425
:104560004E12813009F04CC28AE991E09A83898326
:10457000F60182819381A481B5818B839C83AD8375
:10458000BE8345E350E0BE016F5F7F4FC8010E94CC
:10459000F821892B09F057C0F12CE12CC8010E94A9
:1045A000731239C030E020E090E080E05AE04191A1
:1045B000442309F1843091050CF0B5CF4E3271F4EB
:1045C0002F3F310511F00CF0AECFD301A80FB91F6A
:1045D00012962C93019630E020E0E9CF529FB00173
:1045E000539F700D1124242F440F330B2053310996
:1045F000260F371FDCCF2F3F310511F00CF093CF82
:10460000843091050CF08FCF680E791EF301228360
:10461000EE24E394F12CC70163960FB6F894DEBF45
:104620000FBECDBFDF91CF911F910F91FF90EF9003
:10463000DF90CF90BF90AF909F908F907F906F90C2
:104640005F904F9008950E945E05F6017783668320
:1046500042E050E0B6016A5F7F4FC8010E94550BEF
:1046600081E090E09A83898342E050E0BE016F5F71
:104670007F4FC8010E94550B80E091E09A838983A7
:1046800042E050E0BE016F5F7F4FC8010E94550BB2
:104690001A82198242E050E0BE016F5F7F4FC8016D
:1046A0000E94550B42E050E0BE016F5F7F4FC80192
:1046B0000E94550B42E050E0BE016F5F7F4FC80182
:1046C0000E94550B5701F7018081882301F1750184
:1046D000F70181912F01882311F08E32B1F4470147
:1046E0008A189B081814190474F48D8641E050E070
:1046F000BE01635F7F4FC8010E94550BA401B50145
:10470000C8010E94550B5201DECF7201E1CF1D8618
:1047100041E050E0BE01635F7F4FC8010E94550B2E
:10472000E12CFF24F394FA82E98242E050E0BE01DA
:104730006F5F7F4FC8010E94550BFA82E98242E009
:1047400050E0BE016F5F7F4FC8010E94550BC8014A
:104750000E941B1F892B09F41FCFA3E0AA2EB12CA6
:10476000230122E0420E511C26C0F60162807380B4
:1047700084809580B801CE0101960E94120B8B8136
:104780009C81AD81BE81681679068A069B0629F454
:10479000C8010E94030BC59759F1FEEFEF2EFF24CD
:1047A000FA94E1E0AE1AB10809F4F8CEFFEFEF1683
:1047B000FF0609F0F3CE0E945E053B014C01C801E3
:1047C0000E94E8211816190684F20E945E056619F7
:1047D000770988099909693873418105910508F0BD
:1047E00001C162E370E080E090E00E942C05E7CF19
:1047F000C8010E94DE210C970CF4F8C04CE050E098
:10480000BE016F5F7F4FC8010E94A40E8B819C8107
:104810009827892798279A8B898BF601468157819B
:1048200029813A814217530711F497FD08C0C80146
:104830000E947121ECEFEE2EFF24FA94B2CF8F701C
:104840009270892B41F0C8010E9471217BEFE72E05
:10485000FF24FA94A6CF6F80788476246724762488
:10486000F12CE12C61147104D1F4C8010E94712172
:104870006AEFE62EFF24FA9494CF8D85811117C03C
:10488000C8010E94380BC8010E94380BC8010E9461
:10489000380BC8010E94380BFFEFEF1AFF0A8D8119
:1048A0009E81982789279827E816F906A8F441E001
:1048B00050E0BE01635F7F4FC8010E94A40E8D854A
:1048C0008823D9F28D859FEF980F9D878823A9F2C1
:1048D000C8010E94380BF6CF912C812C41E050E0AA
:1048E000BE016D5E7F4FC8010E94A40E8B89982F78
:1048F000907C61F4882389F08B899FEF980F9B8BC4
:10490000882341F0C8010E94380BF6CFC8010E94ED
:10491000380B1B8A8B898111E1CF42E050E0BE0148
:10492000615F7F4FC8010E94A40E42E050E0BE01CB
:10493000635F7F4FC8010E94A40EC8010E94380B1C
:10494000C8010E94380BC8010E94380BC8010E94A0
:10495000380B42E050E0BE016F5E7F4FC8010E94FD
:10496000A40E8F85988981159140E1F48D859E85EF
:1049700081159140B9F489899A898115944041F053
:10498000C8010E94712157EFE52EFF24FA9409CF48
:1049900044E050E0B201C8010E94A40EEE24E3946A
:1049A000F12CFFCEF12CE12C89899A89982789274F
:1049B0009827E816F90638F4C8010E94380B2FEF43
:1049C000E21AF20AF1CF8FEF881A980A8614970438
:1049D00009F084CFC8010E94712136EFE32EFF2435
:1049E000FA94DFCEEE24EA94FE2CDBCE9DEFE92E86
:1049F000FF24FA94D6CE8EEFE82EFF24FA940BCE45
:104A0000F12CE12C08CEAF92BF92CF92DF92EF92C1
:104A1000FF920F931F93CF93DF93CDB7DEB7A89785
:104A20000FB6F894DEBF0FBECDBF7C015B016A01FB
:104A30000AE911E01A8309831B821C821D821E82EF
:104A4000CE0109960E9494121CA30BA31DA21EA2C4
:104A50001FA218A68091930690919406A0919506A6
:104A6000B09196068F8F98A3A9A3BAA38B839C833A
:104A7000AD83BE8318861F82AE014D5D5F4FB501C9
:104A8000CE0101960E946D2281309105B1F4D701CB
:104A9000ED91FC910488F589E02D1E8F0D8F8DA17D
:104AA0009EA1AFA1B8A58F8F98A3A9A3BAA3A60171
:104AB000BE01635E7F4FC7010995A8960FB6F894B3
:104AC000DEBF0FBECDBFDF91CF911F910F91FF9041
:104AD000EF90DF90CF90BF90AF900895AF92BF92CC
:104AE000CF92DF92EF92FF920F931F93CF93DF93BA
:104AF000CDB7DEB7A8970FB6F894DEBF0FBECDBF17
:104B00007C015B016A010AE911E01A8309831B82B7
:104B10001C821D821E82CE0109960E9494121CA343
:104B20000BA31DA21EA21FA218A68091930690910E
:104B30009406A0919506B09196068B839C83AD83D5
:104B4000BE8318861F82AE014D5D5F4FB501CE0159
:104B500001960E946D2281309105B1F4D701ED914B
:104B6000FC910684F785E02D1E8F0D8F8DA19EA1EF
:104B7000AFA1B8A58F8F98A3A9A3BAA3A601BE0120
:104B8000635E7F4FC7010995A8960FB6F894DEBF04
:104B90000FBECDBFDF91CF911F910F91FF90EF908E
:104BA000DF90CF90BF90AF900895CF93DF93EC014B
:104BB0004C815D81ACE6B4E090E080E0282F843049
:104BC000910521F484E0809374040EC0FC016D9182
:104BD0007D910196672B91F720937404EE0FFF1FD0
:104BE000E459FB4F518340830E944C1F81E08E8328
:104BF000DF91CF910895CF93DF93EC010E944C1F7A
:104C0000EC85FD8587818823D9F0DF01189621E0A6
:104C10008D91811110C0215030E0322F2227330FA7
:104C200084859585280F391F80E09AE0821B930BBD
:104C3000DF91CF9108952F5F253051F724E0ECCF1D
:104C400080E09AE0F5CFAF92BF92CF92DF92EF92E1
:104C5000FF920F931F93CF938C015B017A016A013E
:104C60000E944C1F0115110509F45DC0F8018181F6
:104C7000882309F458C0867009F055C03896C1E001
:104C80008191811133C0C150F801EC0FF11D878172
:104C900081110DC080E092E00E94F109F801EC0F53
:104CA000F11D87838823E1F2F80115861486A70198
:104CB0004C195D094A0D5B1DF801648575859601E7
:104CC000EC0FF11D87810E94C10AC81AD90AF801A8
:104CD00024853585820F931F958784871C141D04B6
:104CE00054F4C43009F4BCCFCF5FD4CFCF5FC5300C
:104CF00039F6C4E0C9CF0E945E05665F7F4F8F4FD3
:104D00009F4FF80166877787808B918BC7018C193D
:104D10009D09CF911F910F91FF90EF90DF90CF9061
:104D2000BF90AF90089590E080E0F3CF9F92AF9254
:104D3000BF92CF92DF92EF92FF920F931F93CF9388
:104D4000DF938C017B016A01CCE9D2E0B12CA12C6C
:104D50008EE1982E898180FF15C0E8819E9EF0012A
:104D60001124EC50FC4F24813581F8018481958118
:104D70002817390739F4A601B701CE010E9423266E
:104D8000A80EB91E6296F2E0C43EDF0718F3C50113
:104D9000DF91CF911F910F91FF90EF90DF90CF9017
:104DA000BF90AF909F900895FC01848595850C94E9
:104DB0002326CF93DF931F92CDB7DEB7698341E0FF
:104DC00050E0BE016F5F7F4FFC01848595850E9496
:104DD00023260F90DF91CF910895CF93DF93EC01BD
:104DE0000E944C1FEC85FD85309739F0818182FF50
:104DF00008C081E09281911101C080E0DF91CF91E4
:104E0000089581E0FBCFCF93C82F86EE96E00E94F5
:104E1000ED26882361F086EE96E00E948A0E8823B4
:104E200031F06C2F86EE96E0CF910C94D926CF917D
:104E30000895CF93DF93EC018C859D85009769F0F1
:104E4000FC012181222349F002960E942A0DEC8563
:104E5000FD85818182FF07C011821D861C86DF913E
:104E6000CF910C944C1F82608183F7CFCF93DF9357
:104E7000EC0186EE96E00E94ED268823A1F086EEF6
:104E800096E00E948A0E882371F086EE96E00E94DA
:104E90004A0E009771F086EE96E00E94910D88838D
:104EA00081E090E006C086EE96E00E94192790E02F
:104EB00080E0DF91CF910895CF92DF92EF92FF9241
:104EC0000F931F93CF93DF938C01EB016A01DC01F9
:104ED000ED91FC910488F589E02D0995EA80FB802D
:104EE0006C817D815C2D4D2D8091F2039091F303B7
:104EF00001968115BDE79B0710F080E090E1382F07
:104F0000292FE4EFF3E0DF01C0E0C430D1F4909347
:104F1000F3038093F2031092740480E0D0E0C0E0C9
:104F20008430F1F480937404209711F590E080E0D0
:104F3000DF91CF911F910F91FF90EF90DF90CF9075
:104F400008955996DC915997DD2339F01496CD9048
:104F5000DC901597C216D30659F2CF5F5E96D5CF77
:104F6000AE2F9F2FB18DB1113CC080937404EF011F
:104F700082E0898F80910A028C8780910B028D8755
:104F800080910C028E8780910D028F8780E092E0E5
:104F90009B8B8A8B9D8B8C8B81E090E0998B888B8F
:104FA0001B8E8A8F83E0888F1E8A80E18F8B3D83E2
:104FB0002C835F834E83F982E8827B836A83898DA9
:104FC0008F7009F4B3CF0E944C1F898D8F7083308E
:104FD000B1F78C8D9D8DF8019587848781E090E0F5
:104FE000A7CFB73031F4209731F0D28CBA8DBD15F0
:104FF00010F0AC2F9D2F8F5F7E96CA2FD92F90CFA8
:105000007F928F929F92AF92BF92CF92DF92EF9258
:10501000FF920F931F93CF93DF93CDB7DEB7A69781
:105020000FB6F894DEBF0FBECDBF8C01762E942E46
:10503000852E20E2A22ECE0101967C01DC01EA2D14
:105040001D92EA95E9F76801FFE3CF0ED11C8AE9CA
:1050500091E09AA389A38FEF8BA38CA38DA38EA33A
:1050600043E450E0BE016F5D7F4FC6010E94F8210E
:10507000019609F4BFC081E089838A8386E0B82E57
:10508000BB821C82D80114966D917D918D919C916B
:1050900017970E94FB3A6D837E838F83988789865A
:1050A0009A8680E890E09C878B874CE150E0B701BE
:1050B000C6010E94550BFE0137968AE1DF011D9261
:1050C0008A95E9F74801B8E08B0E911CF401D701ED
:1050D00001900D92BA94E1F740E150E0B701C601AA
:1050E0000E94550BF7011192AA94E9F796E0A92EB8
:1050F000B12C40E250E0B701C6010E94550BF1E02F
:10510000AF1AB108B1F783E6898392E89A8393E5F1
:105110009B838C8385E38D8381E08E837F829DE3F7
:10512000988797E099878A8786E0F401DE011B96CD
:1051300001900D928A95E1F78CE0898B8A8B69ED5D
:1051400071E0CE0143960E94273DD8011B966C91D9
:10515000CE0149960E940103F8016485CE014B9669
:105160000E940103D8011D966C91CE014D960E94BC
:1051700001034EE150E0B701C6010E94550BB3E0B8
:105180007B121EC082E3898384E08A83F8019685BE
:105190009B8397859C8390899D8391899E8396E3C9
:1051A0009F838887828D8987838D8A87848D8B876B
:1051B000858D8C874CE050E0B701C6010E94550BED
:1051C00087E3898386E08A8391E09B8393E09C83D5
:1051D0008D838FE08E838AE38F838BE388878FEFC5
:1051E000898749E050E0B701C6010E94550BC6010E
:1051F0000E941B1FA6960FB6F894DEBF0FBECDBF50
:10520000DF91CF911F910F91FF90EF90DF90CF90A2
:10521000BF90AF909F908F907F900895EF92FF92F4
:105220000F931F93CF93DF93EC017B018A01888159
:105230009981009729F02A813B812417350788F44A
:10524000B8016F5F7F4F0E94273C009791F09983D0
:1052500088831B830A832C813D81232B11F4FC015D
:1052600010821D830C83B701888199810E94273D9C
:105270000CC088819981009711F00E949E3B198291
:1052800018821D821C821B821A82CE01DF91CF916F
:105290001F910F91FF90EF9008952F923F924F92A0
:1052A0005F926F927F928F929F92AF92BF92DF92A6
:1052B000EF92FF920F931F93CF93DF93CDB7DEB79B
:1052C000C254D1090FB6F894DEBF0FBECDBF7C012A
:1052D0005B010E945E052B013C018701015C1F4FB1
:1052E000C8010E94E821181619069CF00E945E056C
:1052F0006419750986099709613A7F40810591050E
:1053000008F0A5C162E370E080E090E00E942C0507
:10531000E7CF42E250E0BE016F5F7F4FC8010E94BD
:10532000A40E8981823009F08DC1C8010E94030B4F
:105330008334910509F086C16D817E818F819885C6
:105340000E94FB3A2B013C01F501408251826282AE
:10535000738246E050E0B701685F7F4FCE014D9603
:105360000E94E43C892B99F4F70180819181A2810C
:10537000B381481659066A067B0648F084819581F8
:10538000A681B78184159505A605B705F0F4C80177
:105390000E947121D12C8D2DCE5BDF4F0FB6F8947A
:1053A000DEBF0FBECDBFDF91CF911F910F91FF9058
:1053B000EF90DF90BF90AF909F908F907F906F9015
:1053C0005F904F903F902F90089589899A89AB897B
:1053D000BC8986879787A08BB18B8EECA82EB12CC9
:1053E000C8010E94380BF1E0AF1AB108C9F7D12CFF
:1053F000C70182969CAF8BAFF701B696FEAFEDAFBB
:10540000089621969FAF8EAF219757019AE1A90E7A
:10541000B11C74972396FFAFEEAF23971701F6E107
:105420002F0E311C27012EE1420E511CC8010E9493
:10543000DE21181619060CF006C1C8010E94380BAF
:105440008333910509F4E4C09CF58130910509F49A
:1054500080C074F4892B51F3C8010E94380B982E38
:105460009A94FFEF9F1611F3C8010E94380BF8CFF2
:105470008330910509F47AC0069771F7C8010E943C
:10548000380B882E44E050E0B201C8010E94A40EFF
:10549000712C612CE82DE450FF0B4F016814790446
:1054A0002CF6C8010E94380BFFEF6F1A7F0AF6CF67
:1054B0008A33910509F47EC0DCF58533910509F442
:1054C00040C0C69749F6C8010E94380B982E1FAA03
:1054D00018AE19AE1AAEB501CE018F960E94CF1448
:1054E0004FA958AD69AD7AAD89A99AA9ABA9BCA954
:1054F000481759076A077B07B9F0B801CE018996AA
:105500000E94120BB501CE0183960E94CF144DA1CB
:105510005EA16FA178A58BA59CA5ADA5BEA54817DA
:1055200059076A077B07E9F544E050E0B5011AC066
:105530008B33910509F454C08F3F910509F476CF60
:105540008BCFC8010E94380BC8010E94380BD82E9F
:105550006DCFC8010E94380B44E050E023966EAD39
:105560007FAD2397C8010E94A40E60CFC8010E949E
:10557000380B882E44E050E0B101C8010E94A40E0F
:10558000712C612C882D8450990B4C01681479047E
:105590000CF04CCFC8010E94380B9FEF691A790AB2
:1055A000F5CF9A942FEF921609F440CFC8010E94CC
:1055B000380BF7CFC8010E94380B44E050E06DADC6
:1055C0007EADC8010E94A40EF70166A177A180A557
:1055D00091A50E94FB3A66A377A380A791A726CF47
:1055E000C8010E94380B44E050E021966EAD7FADBB
:1055F0002197C8010E94A40EF70162A573A584A596
:1056000095A50E94FB3A62A773A784A795A70ECF22
:10561000C8010E94380B44E050E06BAD7CADC8017E
:105620000E94A40EF70162A173A184A195A10E941A
:10563000FB3A62A373A384A395A366A777A780AB65
:1056400091ABF4CED12CC8010E947121A4CEDD24EF
:10565000DA94A1CE3F924F925F926F927F928F9297
:105660009F92AF92BF92CF92DF92EF92FF920F93F1
:105670001F93CF93DF9300D000D000D0CDB7DEB71B
:105680008C010E9473392FEC37E040E050E00E941B
:105690005B3ADC01CB010196A11DB11DF8018483A9
:1056A0009583A683B78380839183A283B383C80144
:1056B000CF969E838D830E94731264E470E08D8187
:1056C0009E810E944E12D12CC12C882309F458C00F
:1056D0000E945E052B013C0143E0342E58EE852EDE
:1056E00053E0952EA12CB12C62E0E62ED12CC12CDA
:1056F000D801DE968C91DE97833091F1811159C0EB
:1057000014968D919D910D90BC91A02D0196A11D97
:10571000B11DF80184839583A683B7830E945E053B
:105720006419750986099709A50194010E94C43A74
:10573000A90161E0C8010E94002881E0D801DE963D
:105740008C93F1E0CF16D10499F20E945E056419A2
:1057500075098609970961327E448105910530F209
:105760008D819E810E947312F80184819581A681AA
:10577000B7810196A11DB11D84839583A683B7834C
:10578000C60126960FB6F894DEBF0FBECDBFDF91DF
:10579000CF911F910F91FF90EF90DF90CF90BF902E
:1057A000AF909F908F907F906F905F904F903F90C1
:1057B00008958430F9F4F80184819581A681B78138
:1057C0000196A11DB11D84839583A683B7830E9492
:1057D0005E056419750986099709A50194010E945F
:1057E000C43AA90163E0C8010E940028D801DE96EE
:1057F000EC92A7CF813031F5BE016F5F7F4FC801BA
:105800000E944D29F82EB2E08B137FC089819A81C6
:10581000AB81BC81F80184839583A683B7830E9402
:105820005E056419750986099709A50194010E940E
:10583000C43AA90163E0C8010E940028D801DE969D
:10584000FC927FCF823009F07CCFBE016F5F7F4F2B
:10585000C8010E944D29F82EB5E08B134FC0F80106
:1058600036AE82A193A1A4A1B5A1892B8A2B8B2B43
:1058700041F484E893E0A0E0B0E082A393A3A4A362
:10588000B5A3F80186A197A1A0A5B1A5892B8A2B64
:105890008B2B61F482A193A1A4A1B5A1B695A79584
:1058A0009795879586A397A3A0A7B1A7F80186A18E
:1058B00097A1A0A5B1A542A553A564A575A5452BA3
:1058C000462B472B51F4AC01BD01440F551F661FF9
:1058D000771F42A753A764A775A7F80186A797A7C4
:1058E000A0ABB1AB82A593A5A4A5B5A582AB93ABA4
:1058F000A4ABB5ABCC24C394D12C23CFF6E08F134B
:1059000004C0D801DE961C921CCFBFEFFB1219CF4A
:10591000F80116AE16CF0C944D3A7F928F929F925B
:10592000AF92BF92CF92DF92EF92FF920F931F93AD
:10593000CF93DF9300D000D000D0CDB7DEB75C01AD
:105940004B01712C9AE9C92E91E0D92E072D10E058
:105950000A151B050CF0A0C07720E9F0000F111FFD
:10596000080D191DF801E080F18060EE71E0C701BB
:105970000E941E3D892B89F463EE71E0F80182815B
:1059800093810E941E3D61E0892B09F060E090E068
:1059900080E00E948B2C7394D9CF6AEE71E0C7012E
:1059A0000E941E3D892B19F5DA82C9821B821C8256
:1059B0001D821E82F80162817381CE0101960E94D0
:1059C0005A03FC800D811E816B8181E090E00E9472
:1059D0008B2C6F2D82E090E00E948B2C602F83E057
:1059E00090E00E948B2C612F84E090E0D2CF6DEE8E
:1059F00071E0C7010E941E3D892B19F5DA82C98228
:105A00001B821C821D821E82F80162817381CE017D
:105A100001960E945A03FC800D811E816B8185E0F6
:105A200090E00E948B2C6F2D86E090E00E948B2CE2
:105A3000602F87E090E00E948B2C612F88E090E03F
:105A4000A8CF60EF71E0C7010E941E3D892B09F0CD
:105A5000A2CFDA82C9821B821C821D821E82F801BB
:105A600062817381CE0101960E945A03FC800D81F0
:105A70001E816B8189E090E00E948B2C6F2D8AE063
:105A800090E00E948B2C602F8BE090E00E948B2C8A
:105A9000612F8CE090E07DCF83E092E00E94B70E12
:105AA0008FEA91E00E94C50E89E991E00E94C50E3F
:105AB00084E891E00E94C50E8BE691E00E94B70E4B
:105AC00030919602209197029091980280919902CC
:105AD0000AE911E01A8309833B832C839D838E831B
