:100000000C943F020C9467020C9467020C946702F4
:100010000C9467020C9467020C9467020C946702BC
:100020000C9467020C9467020C9467020C946702AC
:100030000C9467020C9467020C9467020C9467029C
:100040000C943E300C9467020C940C300C94E62F08
:100050000C9467020C9467020C9467020C9467027C
:100060000C9467020C9467023F096970096D717402
:100070007409737461747573097265626F6F7400CB
:100080002D2D2D2D2D2D2D2D2D2D2D2D2D2D2D00CD
:1000900053797374656D20636F6D6D616E64730069
:1000A00064697361626C6500656E61626C65000015
:1000B0002020476174657761793A200909000020A2
:1000C000205375626E6574204D61736B3A20090987
:1000D00000002020495076342041646472657373B7
:1000E0003A0909002020444843503A090909002DE3
:1000F0002D2D2D2D2D2D2D2D2D2D2D2D2D2D2D2D30
:100100002D2D2D2D2D2D2D2D2D2D2D2D2D2D2D2D1F
:10011000000A4D616E75616C6C7920636F6E666963
:10012000677572656420495076342073657474690C
:100130006E67730000202041637469766520495022
:10014000763420676174657761793A090900002087
:100150002041637469766520495076342073756256
:100160006E6574206D61736B3A0900002020416355
:1001700074697665204950763420616464726573D1
:10018000733A0909002D2D2D2D2D2D2D2D2D2D2DC1
:100190002D2D2D2D2D2D2D2D2D000A4163746976C9
:1001A0006520495076342073657474696E677300F6
:1001B0006970205B2D44203C656E61626C65207C1B
:1001C0002064697361626C653E5D205B2D69203C33
:1001D0006970763420616464726573733E5D205B80
:1001E0002D73203C7375626E6574206D61736B3E78
:1001F0005D205B2D67203C676174657761792069BC
:10020000703E5D0055736167653A200020205061A3
:10021000796C6F61643A2009093C4F4E7C4F464629
:100220007C544F47474C453E00202052656C617915
:10023000203420746F7069633A20090020205265D1
:100240006C6179203320746F7069633A2009002053
:100250002052656C6179203220746F7069633A2096
:100260000900202052656C6179203120746F70691B
:10027000633A2009003A0020204D51545420536520
:10028000727665723A0909002D2D2D2D2D2D2D2DFB
:100290002D2D2D2D2D2D000A4D5154542073657494
:1002A00074696E6773006D717474205B2D73203CEC
:1002B0006970763420616464726573733E5D205B9F
:1002C0002D70203C706F72743E5D205B2D74203C5D
:1002D000746F7069633E5D0055736167653A200015
:1002E000202052656C617920343A09002020526543
:1002F0006C617920333A09004F4646004F4E00208A
:100300002052656C617920323A0900202052656CD8
:10031000617920313A09002D2D2D2D2D2D2D2D2DDA
:100320002D2D2D000A52656C6179207374617475EE
:100330007300737461747573205B3C317C327C3361
:100340007C343E203C4F4E7C4F46467C544F4747C2
:100350004C453E5D0055736167653A20000D0A000B
:100360000D0A0000000000240027002A0000000001
:1003700000250028002B0000000000230026002993
:10038000000404040404040404020202020202033E
:100390000303030303010204081020408001020448
:1003A00008102001020408102000000008000201CB
:1003B00000000304070000000000000000726562F6
:1003C0006F6F7400737461747573006D7174740071
:1003D0006970003F005374617274207561727420FB
:1003E0007365727665722E2E2E00537461727420BE
:1003F00074656C6E657420736572766572206F6EBD
:1004000020004E6F206C696E6B2E2E2E006D656D78
:100410006F72792E2E2E0052657472792E2E2E0058
:1004200044484350207365727665722E2E2E004725
:10043000657474696E672069702066726F6D200044
:1004400053797374656D2073746172742E2E2E004F
:100450003E00436F6D6D616E64204E4F5420666F99
:10046000756E642E00436F6E6E65637465642074F0
:100470006F204D5154542E2E2E00D330443A112467
:100480001FBECFEFD8E0DEBFCDBF11E0A0E0B1E0EE
:10049000ECEBFCE702C005900D92AE3FB107D9F737
:1004A00027E0AEEFB1E001C01D92A435B207E1F73D
:1004B00012E0CEE3D2E004C02197FE010E94183C76
:1004C000CD33D107C9F70E94AF310C94513E0C9443
:1004D0000000CF93DF93EC01FA013296E60FF71F8D
:1004E000DC019D012C1B3D0BCF01861B970B4D9111
:1004F000442311F04193F5CFAC01421B530B640F21
:10050000751FFB013297308361507109FB01208315
:10051000DF91CF9108958091020790910307009792
:1005200011F480E02FC0DC01ED91FC910688F78981
:10053000E02D0995209125073091260781111FC0D4
:10054000232B79F78DEF9FEF909326078093250754
:100550008091020790910307DC01ED91FC910680E8
:10056000F781E02D09958091020790910307DC0146
:10057000ED91FC910488F589E02D0995D2CF81E0B9
:10058000232B79F6089520E3FC0120833296862FF1
:1005900082958F706F706A3030F4605D6293682F5F
:1005A0008111F5CF0895695CF9CFCF93DF93EEEF1A
:1005B000F6E0EC018A819B81AC81BD81858F968FAD
:1005C000A78FB0A374A363A312A211A2CF01DF91DE
:1005D000CF910895AF92BF92CF92DF92EF92FF92A8
:1005E0000F931F93CF93DF936C017B018B01040F5B
:1005F000151FEB015E01AE18BF08C017D10759F0F7
:100600006991D601ED91FC910190F081E02DC60138
:100610000995892B79F7C501DF91CF911F910F9132
:10062000FF90EF90DF90CF90BF90AF900895DC01E6
:1006300090E030E020E08AE0FB014191BF014423DB
:1006400011F150ED540F5A3090F4829FF001839FC6
:10065000F00D11249F0120533109240F311D47FD56
:100660003A952F3F310541F338F380E008954E323B
:10067000E1F79330D1F3FD01E90FF11D22839F5F74
:1006800030E020E0D9CF933081F715962C9381E0AC
:100690000895FC01538D448D252F30E0842F90E088
:1006A000821B930B541710F0CF960895019708956D
:1006B000FC01918D828D981761F0A28DAE0FBF2F36
:1006C000B11D5D968C91928D9F5F9F73928F90E08C
:1006D00008958FEF9FEF0895FC01918D828D9817FB
:1006E00031F0828DE80FF11D858D90E008958FEF38
:1006F0009FEF0895FC01918D228D892F90E0805C01
:100700009F4F821B91098F73992708958EED95E075
:100710000E947A0321E0892B09F420E0822F0895BA
:1007200080E090E0892B29F00E94860381110C94CF
:1007300000000895FC01A48DA80FB92FB11DA35A84
:10074000BF4F2C91848D90E001968F739927848FF1
:10075000A689B7892C93A089B1898C918370806414
:100760008C93938D848D981306C00288F389E02DB5
:1007700080818F7D80830895EF92FF920F931F9366
:10078000CF93DF93EC0181E0888F9B8D8C8D981344
:100790001AC0E889F989808185FF15C09FB7F89450
:1007A000EE89FF896083E889F9898081837080649C
:1007B00080839FBF81E090E0DF91CF911F910F91E7
:1007C000FF90EF900895F62E0B8D10E00F5F1F4FF6
:1007D0000F731127E02E8C8D8E110CC00FB607FC05
:1007E000FACFE889F989808185FFF5CFCE010E9493
:1007F0009A03F1CFEB8DEC0FFD2FF11DE35AFF4F64
:10080000F0829FB7F8940B8FEA89FB898081806220
:10081000CFCF0F931F93CF93DF938C01D0E0C0E035
:10082000F801EC0FFD1F6491662341F08EED95E019
:100830000E94BC03892B11F02196F2CFCE01DF91EB
:10084000CF911F910F910895CF93DF93EC01888D85
:100850008823B9F0AA89BB89E889F9898C9185FD3B
:1008600003C0808186FD0DC00FB607FCF7CF8C91C9
:1008700085FFF2CF808185FFEDCFCE010E949A03E4
:10088000E9CFDF91CF910895833081F028F4813052
:1008900099F08230A9F008958730A9F08830C9F026
:1008A0008430B1F4809180008F7D03C080918000FE
:1008B0008F7780938000089584B58F7784BD0895E5
:1008C00084B58F7DFBCF8091B0008F778093B0008F
:1008D00008958091B0008F7DF9CFCF93DF93282FBB
:1008E00030E0F901E755FC4F8491F901EB56FC4FDC
:1008F000D491F901EF57FC4FC491CC23A1F08111A1
:100900000E944404EC2FF0E0EE0FFF1FE958FC4F6B
:10091000A591B491EC91ED2381E090E009F480E0A1
:10092000DF91CF91089580E090E0FACF1F93CF93AD
:10093000DF93282F30E0F901E755FC4F8491F9014E
:10094000EB56FC4FD491F901EF57FC4FC491CC23E7
:10095000A9F0162F81110E944404EC2FF0E0EE0F55
:10096000FF1FE359FC4FA591B4918FB7F894EC9118
:10097000111108C0D095DE23DC938FBFDF91CF919A
:100980001F910895DE2BF8CFCF93DF9390E0FC0109
:10099000EB56FC4F24918F579C4FFC018491882388
:1009A000D1F090E0880F991FFC01ED59FC4FA59103
:1009B000B491FC01E359FC4FC591D491623071F4BC
:1009C0009FB7F8943C91822F809583238C93E88184
:1009D0002E2B28839FBFDF91CF9108958FB7F89476
:1009E000EC912E2B2C938FBFF6CF3FB7F8948091CC
:1009F000B9029091BA02A091BB02B091BC0226B597
:100A0000A89B05C02F3F19F00196A11DB11D3FBF46
:100A1000BA2FA92F982F8827BC01CD01620F711D15
:100A2000811D911D42E0660F771F881F991F4A950F
:100A3000D1F708958F929F92AF92BF92CF92DF929B
:100A4000EF92FF924B015C010E94F5046B017C0167
:100A50000E94F5046C197D098E099F09683E734058
:100A600081059105A8F321E0821A9108A108B10837
:100A700088EEC80E83E0D81EE11CF11C811491049D
:100A8000A104B10429F7FF90EF90DF90CF90BF90C1
:100A9000AF909F908F90089562E370E080E090E0C7
:100AA0000E941A050C94000090E080E008952FB792
:100AB000F8946091B5027091B6028091B70290915E
:100AC000B8022FBF0895EF92FF920F931F93CF9319
:100AD000DF9300D000D0CDB7DEB7FA0120E08E0161
:100AE0000F5F1F4F9E2F9F77EE0FEF2FEE1FFF0B15
:100AF000F195309709F09068D801A20FB11D9C9331
:100B00002F5F309779F730E0FB01E21BF30B848312
:100B1000FB01E21BF30B3596D801CD01801B910B35
:100B2000821793071CF48D918193F7CF2F5F3F4F6E
:100B300080910207909103078901040F151F621B22
:100B4000730B6B5F7F4FDC01ED91FC910280F381B1
:100B5000E02DA80109957C010E94570560930E07BE
:100B600070930F07809310079093110781E00E1583
:100B70001F0509F080E00F900F900F900F90DF910C
:100B8000CF911F910F91FF90EF9008958F929F92B8
:100B9000AF92BF92CF92DF92EF92FF92CF93DF930B
:100BA000EC010E9457054B015C0180910207909176
:100BB0000307DC01ED91FC910084F185E02D09959E
:100BC000892BB9F40E9457056B017C01C818D9081C
:100BD000EA08FB0820910A0730910B07A8EEB3E062
:100BE0000E94093CC616D706E806F906F0F280E036
:100BF0000DC08091020790910307DC01ED91FC91FB
:100C00000284F385E02D0995888381E0DF91CF91FF
:100C1000FF90EF90DF90CF90BF90AF909F908F901C
:100C200008952F923F924F925F926F927F928F9290
:100C30009F92AF92BF92CF92DF92EF92FF920F936B
:100C40001F93CF93DF93CDB7DEB72A970FB6F894F3
:100C5000DEBF0FBECDBF1C01809104079091050738
:100C60000E94C60581111CC060E070E0CB012A968D
:100C70000FB6F894DEBF0FBECDBFDF91CF911F91AD
:100C80000F91FF90EF90DF90CF90BF90AF909F902B
:100C90008F907F906F905F904F903F902F9008952E
:100CA000E0910407F0910507D0801982EE24E394C7
:100CB000F12C812C912C5401412C512C3201439464
:100CC000CE0101960E94C605882371F287010F5F4D
:100CD0001F4F8981E0910407F0910507EE0DFF1D7C
:100CE0008083E981AE2FAF77B0E0A30192010E942B
:100CF0009D3B860E971EA81EB91E37E0440C551C5E
:100D0000661C771C3A95D1F7E7FD3FC0BD2DB07F3B
:100D1000BE838FEF800FF1018083B03309F04CC0A8
:100D20008091040790910507800F911F0E94C605CE
:100D3000882309F499CF2091040730910507C70152
:100D40000296820F931F0E94C605882309F48CCF58
:100D50000E5F1F4FE0910407F0910507D1018C91C0
:100D6000DF01A80FB11D11968C91119790E0982F7B
:100D7000882712962C91820F911D208121FD0296C9
:100D8000F2E0E0E030E020E01DC078010530110520
:100D900009F096CF8FEF9FEF90932607809325075A
:100DA0008091020790910307DC01ED91FC9104888A
:100DB000F589E02D099558CFF0E0E0E030E020E043
:100DC00090E080E070E060E0CF2EDE2EE32EF22E89
:100DD00028013B014C185D086E087F084A825B823F
:100DE0006C827D822C01712C612C4F825886698621
:100DF0007A864A805B806C807D804C0C5D1C6E1C0A
:100E00007F1CC814D904EA04FB0408F046C0CE01D4
:100E100001960E94C605882309F426CF80912307F6
:100E200090912407009711F12E812033F9F4D1011C
:100E30002C914EEF5FEF6FEF7FEF421B510961097D
:100E40007109440E551E661E771E2F81388549850F
:100E50005A85241535054605570540F4DC01ED910A
:100E6000FC910190F081E02D698109958091060740
:100E7000909107070817190750F48981E09104073A
:100E8000F0910507E00FF11F80830F5F1F4FBFEF49
:100E9000CB1ADB0AEB0AFB0AACCF809123079091B7
:100EA0002407892B69F48091060790910707B0E029
:100EB000A0E084159505A605B70510F410E000E044
:100EC000B80190E080E0D3CE8823E9F0A4EAB4E052
:100ED00025E014969C91149789130DC095E0899F85
:100EE000F0011124EC55FB4F848114968C931382EE
:100EF000128214820895992331F0929FD001112417
:100F0000AC55BB4FE6CF08958823A1F09091BD0268
:100F1000992381F08F3F29F48091B1059091B2051A
:100F2000089595E0899FF0011124EC55FB4F8281D3
:100F30009381089590E080E008958EBD00000DB487
:100F400007FEFDCF8EB508951F93CF93DF93182F23
:100F5000C62FD42F60E08AE00E9496048C2F8F71F8
:100F6000812B0E949D078D2F0E949D0761E08AE0E2
:100F7000DF91CF911F910C949604CF93DF93D82FDC
:100F8000D076909100019D17A1F0C82F43E06FE14A
:100F900080EA0E94A4074C2F50E085E055954795C4
:100FA0008A95E1F743706FE180E80E94A407D0932F
:100FB0000001DF91CF9108951F93CF93DF93C82F46
:100FC000162FD72F0E94BD07412F6C2F80E40E945F
:100FD000A40761E06C0F4D2F80E4DF91CF911F914A
:100FE0000C94A407EF92FF920F931F93CF93DF937C
:100FF0008B017A018F3F59F095E0899FE001112420
:10100000CC55DB4F68817981600F711F0FC06091F3
:10101000AF057091B005600F711FCFEAD5E0611583
:1010200088E0780778F37850CFEAD5E080E00E9436
:10103000DC078A819B81801B910BE816F90608F476
:10104000C701DF91CF911F910F91FF90EF9008950D
:10105000EF92FF920F931F93CF93DF93EB0170E01A
:1010600060E00E94F2078C0160E08AE00E94960432
:101070008AE30E949D077E01E00EF11EEC16FD063C
:1010800029F080E00E949D078993F8CF61E08AE013
:101090000E949604C801DF91CF911F910F91FF909C
:1010A000EF9008956091AD057091AE0561157105E1
:1010B00029F0615071098CE00C94DC076FEF77E048
:1010C000FACFCF93DF93C82FD62F0E94BD074D2FA5
:1010D0006C2F80E4DF91CF910C94A407CF93DF9322
:1010E000D82FC62F60E08AE00E9496048C2F8F7163
:1010F0008D2B0E949D07C7FF03C080E00E949D07C3
:1011000080E00E949D07C82F61E08AE00E9496045B
:101110008C2FDF91CF910895CF93C82F0E94BD07E8
:101120006C2F80E0CF910C946E08CF93DF9361E138
:1011300084ED0E94610861E082ED0E946108CFE0C9
:10114000D0E08AEE0E948C0880FF0BC06AE070E05D
:1011500080E090E00E941A05219799F790E080E0E6
:101160000DC060E082ED0E94610888ED0E948C084D
:10117000C82F89ED0E948C08982F8C2FDF91CF917A
:101180000895CF93DF93EB01682F84ED0E946108EF
:10119000BE0186ED0E94DC07CFE0D0E08AEE0E941F
:1011A0008C0880FF08C06AE070E080E090E00E9458
:1011B0001A05219799F7DF91CF910895CF938091E8
:1011C000BD02811148C061E08AE00E94C40461E070
:1011D0008AE00E949604CFB7F8948091B3028111FF
:1011E00027C0EBE8F3E08491EFE9F3E09491E82F76
:1011F000F0E0EE0FFF1FED59FC4FA591B491EC917B
:10120000E92321F461E08AE00E94960461E08AE02B
:101210000E94C4048CB580618CBD8CB580648CBD8B
:1012200061E08DE00E94C40461E08BE00E94C40490
:101230008091B3028F5F8093B302CFBF8CB58C7F58
:101240008CBD8DB581608DBD82E70E948C088F3F7B
:1012500021F08093BD02CF9108951092BD02FBCF83
:10126000CF93C62FBC0182E00E94DC0760E08AE0D9
:101270000E9496048AE70E949D078C2F0E949D077A
:1012800061E08AE0CF910C949604CF93BC0180E09A
:101290000E94DC0760E08AE00E9496048AE30E94D4
:1012A0009D0780E00E949D07C82F61E08AE00E94B0
:1012B00096048C2FCF910895CF92DF92EF92FF92F8
:1012C0000F931F93CF93DF936C018B014130510536
:1012D00079F4CB010E944509682FC601DF91CF91B7
:1012E0001F910F91FF90EF90DF90CF900C943009F9
:1012F000EA01C60FD71F7E0181E0E81AF10880E1FC
:101300000E94DC07B60184E10E94DC070115184049
:1013100048F4E11488E0F80628F07E0181E0E81A3C
:1013200088E0F80AB70182E10E94DC0740E16FE142
:1013300080EA0E94A40740E26FE180E80E94A407CF
:101340006FE180E00E946E0885FF07C061E070E0F9
:1013500080E090E00E941A05F3CFDF91CF911F91BA
:101360000F91FF90EF90DF90CF900895CF92DF9292
:10137000EF92FF920F931F93CF93DF938C016091B5
:10138000A4047091A5046150784EC12C98E1D92E27
:10139000E4EAF4E020E0D0E0C0E045E03481CB01B5
:1013A000332341F0439FC00111248C559B4FDC0136
:1013B0008D919C91E080F1808E199F090280F381CC
:1013C000E02D8E1B9F0B8017910799F4B5E02B9FA2
:1013D000E0011124CC55DB4FE9EAF4E081E0228101
:1013E0003381232B09F453C035968F5F8533B9F7CA
:1013F00044C00817190748F48C159D0530F4249F44
:10140000E0011124CC55DB4F6C01311121C0209734
:1014100019F7C4EAD4E085E0D82E8C81288139817F
:10142000EA80FB808823D9F0E20EF31E8D9DE00157
:101430001124CC55DB4F68817981E616F70669F3F4
:101440004A815B81C7010E945C09F982E882E5CF8D
:10145000349FF0011124EC55FB4F232F9FCF809137
:10146000A4049091A504821B930B8E199F098150AF
:10147000984E8017910708F0AFCF80E0DF91CF91B1
:101480001F910F91FF90EF90DF90CF9008952881EA
:1014900039814A815B81240F351F31832083138377
:1014A00002839C8194838C83E9CF0F931F93DB018C
:1014B000E42FA80190E0EF3FE1F065E0E69FF00146
:1014C0001124EC55FB4F60817181620F731F01C0C5
:1014D000785025E0289FF001299FF00D1124EC554C
:1014E000FB4F808191818A0F9B1F1F910F910C945C
:1014F0005C096091AF057091B005620F731F6115B3
:10150000E8E07E0728F7EFEAF5E0DDCFCF92DF9243
:10151000EF92FF920F931F93CF93DF936B018A019A
:10152000790195E0899FE0011124CC55DB4F68815A
:1015300079816C0D7D1D82E00E94DC070A80DB81D1
:10154000C02DCC19DD09EC16FD0608F4E70160E0BA
:101550008AE00E9496048AE70E949D077801EC0EBB
:10156000FD1EE016F10631F0F80181918F010E9415
:101570009D07F7CF61E08AE00E949604CE01DF91DB
:10158000CF911F910F91FF90EF90DF90CF90089532
:10159000DC011C96ED91FC91309731F086819781AA
:1015A000982789279827089590E080E00895CF93A1
:1015B000DF93FC01EB01AC85BD851097A9F0129675
:1015C0009C91129713968C9113973C9111962C91A4
:1015D0004AE951E051834083328323839483858396
:1015E000CF01DF91CF9108958AE991E091838083C3
:1015F0001282138214821582F3CFCF93DF931F924E
:10160000CDB7DEB7DC01ED91FC91048CF58DE02DBA
:1016100041E050E0BE016F5F7F4F09951816190633
:1016200034F4898190E00F90DF91CF9108958FEF8E
:101630009FEFF9CFCF93DF93EC018A89882379F06C
:101640009A01AB016E857F850E94860A2E853F85B3
:10165000280F391F3F872E87DF91CF91089590E0A3
:1016600080E0FACFCF93DF931F92CDB7DEB76983C7
:10167000DC01ED91FC910280F381E02D41E050E02E
:10168000BE016F5F7F4F09950F90DF91CF91089555
:1016900080E00895CF93DF931F92CDB7DEB76983C3
:1016A000DC01ED91FC910280F381E02D41E050E0FE
:1016B000BE016F5F7F4F09950F90DF91CF91089525
:1016C000762767277627DC0115967C936E9314970F
:1016D000ED91FC910084F185E02D0994FB014150CE
:1016E0005109460F571FE417F50778F4208130E0C1
:1016F000322F22276181260F311D820F931F8217FF
:10170000930708F401963296EECFE417F50751F4EB
:10171000208130E0322F2227820F931F82179307F8
:1017200008F401960895CF92DF92EF92FF920F9303
:101730001F93CF93DF93C82FE0905802F12CFE2C1B
:10174000EE24409159024451550BE40EF51E48E039
:1017500050E062E672E0C7018C0F911D0E946E0B93
:1017600008E0C13129F000917602069506950C73C8
:1017700010E0A8016AE672E00E946E0BEC010E1503
:101780001F0508F049C0A701401B510B8091AF0213
:1017900062E270E081FF02C063E270E0600F711FDF
:1017A0008091B0020E94F20701977C0160E08AE01C
:1017B0000E9496048AE30E949D07D12CC12CCE146E
:1017C000DF04B8F480E00E949D07082F10E0102F7E
:1017D000002780E00E949D07800F912F911DC80F68
:1017E000D91FC817D90708F4219682E0C80ED11C6A
:1017F000E6CFEC14FD0461F480E00E949D0790E0C8
:10180000982F8827C80FD91FC817D90708F4219621
:1018100061E08AE00E9496049C2F8D2FCD2B11F45D
:101820008FEF9FEFDF91CF911F910F91FF90EF907E
:10183000DF90CF90089544E150E066E572E090E0DB
:1018400080E00E946E0B009721F098278927982747
:1018500008958FEF9FEF0895CF93DF93EC01AC8154
:10186000BD81EEEBF2E08A819B8191838083B3831B
:10187000A283FA0184819581E0E4F2E0DA01129614
:101880004D915C915183408393838283E9018C81E4
:101890009D81ECE3F2E02A813B81318320839383B5
:1018A0008283FB0182819381A481B5818093DC06D0
:1018B0009093DD06A093DE06B093DF06DF91CF9113
:1018C0000895FF920F931F93CF93DF93C091AF02C0
:1018D000C1FF66C02091460230E048E452E061E07A
:1018E00070E08091B0020E94860ACD7FC093AF0263
:1018F000F090B0028091BD02882309F444C085E0D5
:10190000F89EF0011124EC55FB4F00811181C2813A
:10191000D381C00FD11F60E0C8010E943009B80117
:1019200084E00E94DC07BE016850710986E00E94D5
:10193000DC071AE0249740E86FE180E80E94A407E2
:1019400040E86FE180EA0E94A4074AE06CE180EA87
:101950000E94A40748E06FE180E80E94A4078CE1A0
:101960000E948C08082F8A70D1F348E06FE180EA6A
:101970000E94A40701FF2DC0CE010E94450985FFEA
:1019800002C01150C1F6C0E08F2D0E946407109272
:10199000B0028C2FDF91CF911F910F91FF9008958E
:1019A000C091B102D091B202CE01089621F41092FA
:1019B000B002C0E0EECF0E94B6098093B002882347
:1019C000C1F39E0148E452E061E070E00E94860AA3
:1019D0008FCFC1E0D9CF0F931F93CF93DF93EC014B
:1019E0008C010B5F1F4F89910E946407FE013197A4
:1019F0001082C017D107B9F7DF91CF911F910F91D6
:101A00000895CF93DF93EC0188810E946407FE0163
:101A1000CE01049621812193E817F907D9F71C829A
:101A2000DF91CF910895CF93DF93EC01E881F981A5
:101A3000008CF18DE02D0995882339F08C859D85EA
:101A40000296DF91CF910C94EB0CDF91CF9108952A
:101A50000F931F93CF93DF931F92CDB7DEB78C0107
:101A6000DC01ED91FC91008CF18DE02D099588232E
:101A7000B1F0D8011C96ED91FC918281882379F018
:101A800041E050E0BE016F5F7F4F0E9428088981CE
:101A900090E00F90DF91CF911F910F9108958FEFFC
:101AA0009FEFF7CFCF93DF931F92CDB7DEB7DC0167
:101AB000ED91FC910288F389E02D41E050E0BE01F8
:101AC0006F5F7F4F09951816190634F4898190E0ED
:101AD0000F90DF91CF9108958FEF9FEFF9CF6F9225
:101AE0007F928F929F92AF92BF92CF92DF92EF92AE
:101AF000FF920F931F93CF93DF938C014B01EA0169
:101B0000DC01ED91FC91008CF18DE02D099588238D
:101B100009F47BC0D8011C96ED91FC918281882349
:101B200009F476C07E018EE1682EBE016E197F0930
:101B3000680D791DD8011C96ED91FC91A701828159
:101B40000E9428086C01F801A484B584D50112967E
:101B50007C90872D0E948407C816D906E9F5EC18F9
:101B6000FD08C50102960E94010DF801A485B58506
:101B7000EC916E9EF0011124ED5DFB4F818D84FF91
:101B800009C011968C911197982F967019F488605E
:101B900011968C93D8011C96ED91FC911D97828132
:101BA00081112EC0818182FF05C011821D961C9279
:101BB0001E921C97CE018E199F09DF91CF911F9124
:101BC0000F91FF90EF90DF90CF90BF90AF909F90DC
:101BD0008F907F906F900895B5E07B9EF001112467
:101BE000EC55FB4F808191818C0D9D1D91838083ED
:101BF000828193818C199D0993838283CE01DDCFED
:101C0000E114F10409F091CFF9CF8FEF9FEFD5CF19
:101C100090E080E0D2CFEF92FF920F931F93CF938B
:101C2000DF93EC01E881F981008CF18DE02D0995BD
:101C30008823E1F00C851D85780182E0E80EF11C17
:101C4000095F1F4FD0E0C0E0F70181917F010E9442
:101C50008407C80FD91FE016F106B1F7CE01DF9156
:101C6000CF911F910F91FF90EF900895D0E0C0E0C9
:101C7000F5CFFC01448555854115510551F0FB0117
:101C8000248535852115310521F081E04217530760
:101C900009F080E00895DC011C96ED91FC913097ED
:101CA00031F08281811105C081818170089580E0C9
:101CB000089581E00895DC01ED91FC91028CF38D93
:101CC000E02D099591E089270895DC01ED91FC91C3
:101CD000048CF58DE02D0994EF92FF920F931F93E2
:101CE000CF93DF93EC018B017A010E945705688B3B
:101CF000798B8A8B9B8B8C819D81DC01ED91FC9192
:101D00000280F381E02DA701B801DF91CF911F91EF
:101D10000F91FF90EF9009941F93CF93DF93EC0105
:101D2000162F0E945705688B798B8A8B9B8B8C8131
:101D30009D81DC01ED91FC910190F081E02D612FFE
:101D4000DF91CF911F910994089590E080E008956C
:101D500090918C03992339F0E091C202F091C30273
:101D6000309709F009940895CF93DF93EC01FE01B9
:101D700084912196882319F00E94A80EF8CFDF9154
:101D8000CF9108950E94B40E80E693E00C94B40EB7
:101D900080E990E00E94C20E80E890E00E94C20EAE
:101DA00088E690E00E94C20E90E080E00895CF9314
:101DB000DF93EC018991811103C0DF91CF910895E8
:101DC0000E94A80EF7CF0E94D70E8DE593E00C94E9
:101DD000B40EECE0F3E030E020E040815181452B8F
:101DE00021F442815381452B41F02F5F3F4F3496C0
:101DF0002630310591F780E00895220F331F220F1E
:101E0000331FF901E45FFC4F918380837383628306
:101E100081E008950E94DE088091BD02882381F050
:101E20000E94950892FD0FC082E090E020919A03F5
:101E300030919B032817390711F00C940000089586
:101E400090E080E0F3CF81E090E0F0CF682F8EED5E
:101E500095E00C94BC03CF93DF93EC018EED95E0FD
:101E60000E947A03009739F08EED95E00E945803A6
:101E7000888381E090E0DF91CF910895CF93DF9345
:101E800000D0CDB7DEB781E190E00E94683B898346
:101E900082E190E00E94683B8A8389819A81019760
:101EA0008E3F9F4F20F08BE597E09A83898389814D
:101EB0009A810F900F90DF91CF9108950C94683B19
:101EC000FF920F931F93CF93DF93EC018CE090E090
:101ED0000E945E0F182F8BE090E00E945E0F082F8B
:101EE0008AE090E00E945E0FF82E89E090E00E9468
:101EF0005E0F2AE931E0398328838A83FB820C83D1
:101F00001D83CE01DF91CF911F910F91FF90089516
:101F1000FF920F931F93CF93DF93EC0180E190E04A
:101F20000E945E0F182F8FE090E00E945E0F082F36
:101F30008EE090E00E945E0FF82E8DE090E00E940F
:101F40005E0F2AE931E0398328838A83FB820C8380
:101F50001D83CE01DF91CF911F910F91FF900895C6
:101F60000F931F93CF93DF930EEB15E0C3E1D0E007
:101F7000CE010E945E0FC33131F48F3F69F0882398
:101F800059F0843149F0F80181938F01882321F0C1
:101F90002196C333D10561F78091BE05811106C03A
:101FA0006CE971E08EEB95E00E94363E8EEB95E099
:101FB000DF91CF911F910F910895CF92DF92EF9211
:101FC000FF920F931F93CF93DF937C01EB016091FE
:101FD000060770910707CE010E941E3B8C010E94EC
:101FE0008B02882309F440C0C0900607D0900707F1
:101FF000B601C7010E941E3B9801295F3F4F820F27
:10200000931FC816D90680F16091040770910507E7
:1020100045E050E0C7010E9469027E01E00EF11E1A
:10202000FE01EC01CE1BDF0BAE014E0F5F1F609176
:10203000040770910507EE15FF0531F02191640F3B
:10204000751FDB012C93F0CF05501109A801480F33
:10205000591F80E3DF91CF911F910F91FF90EF9077
:10206000DF90CF900C94630580E0DF91CF911F91BA
:102070000F91FF90EF90DF90CF9008950F931F93F3
:10208000CF93DF93EC010091060710910707B80189
:102090000E941E3B209709F441C0099608171907B2
:1020A000E8F10E948B028823C9F180910C0790917E
:1020B0000D07019681F190930D0780930C07E09135
:1020C0000407F091050780910D078583E0910407CF
:1020D000F091050780910C07868360910407709149
:1020E000050747E050E0CE010E946902E091040735
:1020F000F0910507E80FF91F1082AC014450510917
:10210000609104077091050782E8DF91CF911F91DC
:102110000F910C94630581E090E0CDCF80E0DF91DA
:10212000CF911F910F9108958F929F92AF92BF927E
:10213000EF92FF920F931F93CF93DF93CDB7DEB74C
:10214000A1970FB6F894DEBF0FBECDBF7C01FA0198
:10215000CB0119A2223008F42AE08E010F5D1F4F37
:10216000822E912CB12CA12CBF01A50194010E94BB
:10217000E73BF901CA016A3074F5605DD8016E93DE
:102180008D01232B242B252B79F790E080E01097ED
:1021900089F0FD0101900020E9F73197AF014A1B5A
:1021A0005B0BD701ED91FC910280F381E02DB8012A
:1021B000C7010995A1960FB6F894DEBF0FBECDBF3B
:1021C000DF91CF911F910F91FF90EF90BF90AF9053
:1021D0009F908F900895695CD1CF8F929F92AF921C
:1021E000BF92CF92DF92EF92FF920F931F93CF9304
:1021F000DF937C01EB016C0182E0C80ED11C47012A
:10220000E5E08E0E911C10E000E0F60141916F01B7
:1022100050E070E060E02AE0CE010E9494105C0182
:10222000E881F9810190F081E02D6EE2CE010995FF
:102230008A0D9B1D080F191FC814D90431F7F70127
:10224000458150E070E060E02AE0CE010E949410E9
:10225000800F911FDF91CF911F910F91FF90EF9011
:10226000DF90CF90BF90AF909F908F90089542E005
:1022700050E067EA71E08EED95E00C94EA02CF93AE
:10228000DF930E940904EC010E9437118C0F9D1FFF
:10229000DF91CF910895CF93DF930E945705665049
:1022A0007F4F8F4F9F4F6093BA057093BB0580930C
:1022B000BC059093BD050E94DE081092B0051092F7
:1022C000AF051092B2051092B105E4EAF4E089E09E
:1022D00091E0DF019C011D9221503040E1F781E047
:1022E00098E09093A5048093A4044FEF60E08FEFF3
:1022F0000E94A40762E070E080E090E00E941A056E
:1023000062E370E080E090E00E941A051092AE0552
:102310001092AD05C0E1D0E06DE180E00E946E0852
:10232000811109C0219739F06AE070E080E090E007
:102330000E941A05F1CF70E060E088E00E94DC079F
:1023400070E060E08CE00E94DC076FEF77E08AE0ED
:102350000E94DC0761EB88E30E9461086FE370E391
:1023600088E20E94DC0769EF77EF80E30E94DC07D8
:102370006DE070E080EC0E94DC0742E362EC80E8F4
:102380000E94A40762E17CE086EC0E94DC0762E127
:1023900084EC0E9461086CED75E08AEC0E94DC0719
:1023A0006091010184EE0E9461086091020185EE56
:1023B0000E9461086091030182EE0E9461086091B1
:1023C000040183EE0E9461086091050180EE0E9485
:1023D00061086091060181EE0E94610860E071E091
:1023E00080E10E94C1088FE10E94BD0740EC6BE1D3
:1023F00080E80E94A40744E06FE180E80E94A407FF
:1024000066E774E084E10E94C10880910101809335
:10241000B405809102018093B505809103018093FA
:10242000B605809104018093B705809105018093E2
:10243000B805809106018093B90510929C04109212
:102440009B0410929E0410929D041092A00410927E
:102450009F041092A2041092A10410923C041092C6
:102460005A04109278041092960480E094E09093BD
:102470002204809321041092FA031092F90310921F
:102480000504109204041092100410920F0410928C
:102490001B0410921A0484E08093A3041092F403A6
:1024A0009BE024E08091F403883018F0DF91CF9115
:1024B0000895899FF0011124E456FC4FDF01322F6B
:1024C0001D923A95E9F78F5F8093F403EBCFAF92BB
:1024D000BF92CF92DF92EF92FF920F931F93CF9311
:1024E000DF93CDB7DEB768970FB6F894DEBF0FBEA7
:1024F000CDBF8C017B016A0159010E944B118AE911
:1025000091E09A838983F5014281538164817581C9
:102510004B835C836D837E8398878F83F601428132
:1025200053816481758149875A876B877C879E8731
:102530008D87F70142815381648175814F87588B64
:10254000698B7A8B9C8B8B8BF80182819381A48120
:10255000B5818D8B9E8BAF8BB88F9E012F5F3F4FC8
:10256000AE01495F5F4FBE01635F7F4FCE0143966F
:102570000E942C0C68960FB6F894DEBF0FBECDBF3C
:10258000DF91CF911F910F91FF90EF90DF90CF904F
:10259000BF90AF900895CF93DF93DC011C96ED912F
:1025A000FC913097B1F0EC011582148212861186ED
:1025B0001D861C8689890E94640788890E94640799
:1025C0008A890E9464072E9686E0FE0111928A9500
:1025D000E9F7DF91CF910895FC011382128288EE12
:1025E00093E0A0E0B0E084839583A683B78382E282
:1025F00091E091838083158614863E9686E0DF0104
:102600001D928A95E9F708950F931F93CF93DF9357
:10261000DC0120912104309122042F5F3F4F2115CE
:102620008DE7380710F020E030E1522F432FE5EF1F
:10263000F3E0EF0180E08430A1F430932204209392
:10264000210430E020E02430310599F484E08093C7
:10265000A304F0E0E0E0CF01DF91CF911F910F9153
:1026600008950C811D818F5F2B960417150719F7AC
:10267000D4CFC481D581C90101963B96CD2B09F5F4
:102680002093A3048BE0829FF001839FF00D11241F
:10269000EB50FC4F5583448377836683109799F4FE
:1026A00084E0DF011D928A95E9F78BE0829FD001DB
:1026B000839FB00D1124AB50BC4F80E418968C93CF
:1026C000CACF9C01C0CF8D919C911197918380833B
:1026D00012968D919C9193838283E7CF0F931F93E2
:1026E000CF93DF93EC018B018C859D85892B41F481
:1026F00070E060E090E080E00E9404139D878C878A
:10270000EC85FD8580E0309749F0102701271027E0
:10271000158304832E96D287C18781E0DF91CF9104
:102720001F910F910895CF93DF93EC01EEEFF1E04D
:1027300086E2DF011D928A95E9F70E94B00FBC0185
:102740008EEF91E00E94363E6AEA71E08EEF91E0F2
:102750000E94363EBE018EEF91E00E94363E8EEF23
:1027600091E0DF91CF910895EF92FF920F931F9325
:10277000CF93DF938C01EB017A0181EB91E00E9412
:102780009313BC01C8010E94413E892B31F183EBB8
:1027900091E00E949313BC01C8010E94413E892B25
:1027A00089F185EB91E00E949313BC01C8010E945E
:1027B000413E892B49F187EB91E00E949313BC01C4
:1027C000C8010E94413E16E0892B41F0DF91CF9174
:1027D0001F910F91FF90EF90089519E082E0E816A5
:1027E000F104A1F488818F3489F7898161E08E3406
:1027F00069F7812FDF91CF911F910F91FF90EF909B
:102800000C94960418E0EACF17E0E8CF83E0E816CE
:10281000F10459F488818F34C9F689818634B1F680
:102820008A81863499F660E0E4CF86E0E816F10408
:1028300069F68881843551F689818F3439F68A8129
:10284000873421F68B81873409F68C818C3409F02A
:10285000BDCF8D81853409F0B9CF812F0E946D04E1
:1028600061E0892B31F2DFCFEF92FF920F931F933C
:10287000CF93DF937B01039761F5FB01C281D38185
:1028800061EB71E0CE010E94413E892B09F072C0DC
:1028900081EB91E00E9493138C01C9E0F701E48081
:1028A000F58069EB71E0C7010E94413E892B09F474
:1028B00099C06CEB71E0C7010E94413E892B09F47D
:1028C000B4C060EC71E0C7010E94413E892B09F45D
:1028D000B8C085E593E00E94B40E82E393E00E94C5
:1028E000C20E84E293E00E94C20E87E193E00E9450
:1028F000C20E8BE093E00E94B40E89E00E946D044A
:10290000019709F463C088EF92E00E94C20E8FEF36
:1029100092E00E94B40E88E00E946D04019709F4D1
:1029200058C088EF92E00E94C20E8CEE92E00E94A6
:10293000B40E87E00E946D04019709F44DC088EF42
:1029400092E00E94C20E80EE92E00E94B40E86E0F9
:102950000E946D04019709F442C088EF92E00E9442
:10296000C20E90E080E0DF91CF911F910F91FF9018
:10297000EF90089563EB71E0CE010E94413E892BF8
:1029800039F483EB91E00E9493138C01C8E086CF69
:1029900065EB71E0CE010E94413E892B39F485EB55
:1029A00091E00E9493138C01C7E078CF67EB71E050
:1029B000CE010E94413EC0E0892B09F06FCF87EB2A
:1029C00091E00E9493138C01C6E068CF8CEF92E0F7
:1029D0009CCF8CEF92E0A7CF8CEF92E0B2CF8CEF40
:1029E00092E0BDCFCC2309F474CF8C2F0E946D04EC
:1029F000D1E0019709F4D0E061E08C2F0E949604A9
:102A00000E948B02882309F464CFDD2309F461CF8F
:102A10008C2F0E946D046CEB71E0019711F469EB4F
:102A200071E0C8010E94DD0F54CFCC2309F451CFCF
:102A30008C2F0E946D04D1E0892B09F4D0E060E076
:102A4000DCCFCC2309F445CF8C2F0E946D0461E0CC
:102A5000892B09F060E08C2F0E949604D1E0D0CF42
:102A60000F931F93CF93DF9300D000D0CDB7DEB785
:102A70008C01FC0182814AE0BE016F5F7F4F90E0D4
:102A80000E943E3BCE0101960E94D70E87EC91E05A
:102A90000E94D70EF80183814AE0BE016F5F7F4F2D
:102AA00090E00E943E3BCE0101960E94D70E87EC3B
:102AB00091E00E94D70EF80184814AE0BE016F5F69
:102AC0007F4F90E00E943E3BCE0101960E94D70EC0
:102AD00087EC91E00E94D70EF80185814AE0BE01A3
:102AE0006F5F7F4F90E00E943E3BCE0101960E94B7
:102AF000D70E0F900F900F900F90DF91CF911F91F5
:102B00000F910895DC018AE991E08D939D9384E013
:102B1000FB0101900D928A95E1F70895EF92FF92E3
:102B20000F931F93CF93DF93FC011092F403CCE932
:102B3000D3E0DE0130E020E02830310569F490E098
:102B4000983009F042C01092310210923002109277
:102B5000F4032CE933E044C0CD018C5993400D912E
:102B60001C9111970115110561F112964D915C911F
:102B700013974115510529F1E080F1800E151F05CD
:102B800001F50281138140175107D9F42093F40312
:102B9000DC01A056BC4F86E0FB0101900D928A95A6
:102BA000E1F78BE0829FF001839FF00D1124E45642
:102BB000FC4F1286DF91CF911F910F91FF90EF9004
:102BC00008952F5F3F4F1B96B7CF9E0148815981D3
:102BD000452BB1F44A815B81452B91F49093F4032A
:102BE00084E0D90101900D928A95E1F7D9011496FC
:102BF00086E0FB0101900D928A95E1F7F901D9CFAA
:102C00009F5F2B969DCFEF92FF920F931F93CF93D1
:102C1000DF9300D000D000D0CDB7DEB74091660280
:102C2000509167024F3F540731F4809168029091B0
:102C30006902019619F18091BE029091BF026091E4
:102C40003C0270913D029B0120953095282B392B39
:102C500042175307A9F520913E0230913F0220957B
:102C60003095E091C002F091C1022E2B3F2BE091F4
:102C70006802F0916902E217F30711F586E0E8E1D6
:102C8000F1E0A8E4B2E001900D928A95E1F786E0C8
:102C9000E4EBF5E0AEE4B2E001900D928A95E1F745
:102CA00088E090E090935502809354028091B102A5
:102CB0009091B2020E969093B2028093B102A5C099
:102CC0008427952786239723892B99F420916802DE
:102CD000309169028091C0029091C10282279327AE
:102CE00060913E0270913F0286239723892B09F45D
:102CF00099C0809140029091410290933302809359
:102D00003202809142029091430290933502809367
:102D10003402E0903202F0903302009134021091BC
:102D20003502ECE9F3E080E0883009F084C080935C
:102D3000F40346E050E06FEF70E088E492E00E9418
:102D40002F3E86E0E8E6F2E0DF01282F1D922A956B
:102D5000E9F7E4EBF5E0AEE4B2E0982F01900D92D4
:102D60009A95E1F7E4EBF5E0AEE5B2E0982F01903B
:102D70000D929A95E1F7F0926F02E0926E02109335
:102D80007102009370022091BE023091BF02309315
:102D90006502209364022091C0023091C1023093F9
:102DA00067022093660220E031E030935D022093B9
:102DB0005C02309357022093560228E030E03093B3
:102DC00059022093580280935A0294E090935B0238
:102DD00028E036E030935502209354022EE732E08B
:102DE00030934502209344022AE230E03093B2024D
:102DF0002093B102BE016F5F7F4FDB011D928A9568
:102E0000E9F782E392E00E948E1526960FB6F894B9
:102E1000DEBF0FBECDBFDF91CF911F910F91FF900D
:102E2000EF9008955093330240933202309335026D
:102E3000209334026ECF20813181E216F306E1F453
:102E40002281338102171307B9F49481911103C0D1
:102E50009581992329F08093F403349686E011CF6D
:102E600096819111F8CF97819111F5CF90859111AD
:102E7000F2CF91859111EFCF8F5F3B9655CFCF93D6
:102E8000DF93EC010E9403168091B1029091B2028F
:102E90008A9759F41092B0028091AF028D7F80938F
:102EA000AF02DF91CF910C94610C0E94610C1D82E6
:102EB0001C82DF91CF9108959C01AB0170932F028A
:102EC00060932E021616170654F480912C029091EE
:102ED0002D028217930719F0B9010C94143E08953E
:102EE000EF92FF920F931F93CF93DF93E091AD0288
:102EF000F091AE02C185D285209709F456C0E090CA
:102F0000AC02E1FE1FC08A8181111CC080916A025F
:102F100090916B0297838683809162029091630205
:102F20009183808380916402909165029383828370
:102F300080916E0290916F029827892798270897B1
:102F400009F51A82E3FE31C08D81882371F18C81ED
:102F50008093B0028091AF0282608093AF028AE2D8
:102F600080934602688179816B5271098091440295
:102F700090914502DF91CF911F910F91FF90EF90BB
:102F80000C945C170E94B609F82E8A838823D1F22C
:102F90000E9484078C012AE230E04091470270E0F1
:102FA00060E08F2D0E94550ACDCFDF91CF911F9108
:102FB0000F91FF90EF900895AF92BF92CF92DF9262
:102FC000EF92FF920F931F93CF93DF93E0903A021B
:102FD000F0903B02F701C48DD58DD090AC022097C4
:102FE00081F5D6FC03C0F12CE12CC3C0E4ECF2E087
:102FF00090E080E0218121117EC042E1489F900154
:10300000499F300D1124E901CC53DD4FC701835294
:103010009440959587956FEE7EEE869FA001879FE1
:10302000500D969F500D1124488381E089832A53C7
:103030003D4F81E1F90111928A95E9F7F701D58FAA
:10304000C48FD1FE30C00091B1021091B2020115BF
:10305000110549F18981867031F55E01F2E0AF0E0C
:10306000B11CC12CF50181915F0181114BC0C801D8
:103070000E94B609F50131978083882309F442C084
:103080002091440230914502285432404091470239
:1030900070E060E00E94550AF4E0CF1204C0F7012E
:1030A000818D8061818F898183FF0AC0877F8983B9
:1030B0008D2D82608093AC02F701818D8F7E818F90
:1030C0008091AC0284FD04C087FD02C085FF26C04C
:1030D000CE0107960E94EB0C8A818823E9F0F70164
:1030E0008481958198878F83898184608983F701A2
:1030F000158E148E78CF019672968430910509F062
:1031000079CF71CFC394F5E0CF12ACCF8091AF02ED
:103110008E7F8093AF02C3CF1982E9CF80FF3FC07B
:10312000CE0107960E94010D8F818823D1F19885E9
:10313000911145C0EC84FD84E114F10409F453CFEE
:1031400095E0899FF0011124EC55FB4FF382E28258
:103150000091440210914502085412400093460227
:103160001127C80108968E0D9F1D009779F51092C2
:10317000B002B70180914402909145020E945C1711
:10318000F092B202E092B102DF91CF911F910F91C4
:10319000FF90EF90DF90CF90BF90AF9008958C702C
:1031A00019F6898181FF1FCF8F81811124C0198277
:1031B000F701158E148E80E18093AC0214CF0E942B
:1031C00084077C01892B09F40ECFC2CF0E94B60977
:1031D0008093B002882369F2B8016F5F7F4F870147
:1031E00030E020E04F810E94550A8091AF0282605A
:1031F0008093AF02BECFF701818D8061818FF3CEC6
:10320000AF92BF92CF92DF92EF92FF921F93CF9334
:10321000DF93843009F458C1C0913A02D0913B0247
:103220002EE732E0309345022093440230932D0282
:1032300020932C028330C9F4898D8F70833009F07C
:1032400044C088899989892B09F03FC088E0809320
:10325000AC020E94DC178091AC0285FF13C610926D
:103260002F0210922E02198E51C0823009F005C132
:10327000809139028F5F80933902811113C0809150
:1032800038028F5F8093380281110CC08091370221
:103290008F5F80933702811105C0809136028F5F66
:1032A000809336021092B2021092B10210922F0255
:1032B00010922E02898D982F9D7F953059F48A8D1A
:1032C0008F5F8A8F883709F4198E1092B20210929C
:1032D000B10231C28823C9F328893989232B09F423
:1032E000C7C09A8D2FEF290F2A8F9111EECF9B8D9A
:1032F000983031F02FEF280F223050F4953041F400
:10330000198E80E88093AC020E94DC1784E184C0AF
:10331000392F953008F034E023E001C0220F3A95B0
:10332000EAF72A8F9F5F9B8F8F70833009F47DC0EF
:1033300008F06AC0813009F406C4823031F6109278
:1033400077028091770282608093770282E0809397
:103350007E0294E090937F0280938002109281021B
:103360008CE290E09093B2028093B10280E6809369
:1033700076028885809372028985809373028A859C
:10338000809374028B85809375028C8580936E0286
:103390008D8580936F028E85809370028F858093D8
:1033A000710286E080935F028C819D8190936B0215
:1033B00080936A028E819F8190936D0280936C024C
:1033C0008091BE029091BF0290936302809362024B
:1033D0008091C0029091C102909365028093640233
:1033E0008881998190936702809366028A819B818C
:1033F0009093690280936802898D84FFC9C51092F9
:10340000790210927802D5C2863029F0883019F0FE
:10341000843009F05ACF81E18093770288E290E00E
:103420009093B2028093B10221C084E08093AC02F9
:103430000E94DC1780912C0290912D0290934502FE
:103440008093440280912E0290912F02892B09F4DF
:103450004AC588899989009709F445C5889690934B
:10346000B2028093B10288E18093770280E57FCF3A
:103470008F70833009F029CFE9CE853009F0A9C0DB
:10348000E091AD02F091AE0284819581892B09F41F
:103490001CCF10923B0210923A0282E792E0909386
:1034A00045028093440290932D0280932C02109247
:1034B0002F0210922E021092B2021092B10288E0F6
:1034C0008093AC020E94701780912E0290912F027F
:1034D000009709F4FACE9C01245E3F4F3093B2026C
:1034E0002093B1023093580220935902E091AD022B
:1034F000F091AE02208520935E0221E120935F02CD
:10350000089698278927982790936F0280936E02D8
:1035100010927102109270028481958190936B02D7
:1035200080936A028681978190936D0280936C02EA
:103530008091BE029091BF029093630280936202D9
:103540008091C0029091C1029093650280936402C1
:10355000808191819093670280936602828193813A
:1035600090936902809368028EE792E090934502FF
:103570008093440281E10E94930B8095909500977F
:1035800009F45BC1909371028093700285E480938B
:1035900056021092570210925D0210925C028091C6
:1035A0002402909125020196909325028093240293
:1035B00090935A0280935B02109261021092600213
:1035C0000E941B0C809590959093610280936002FD
:1035D000B2C080915602853409F077CEC09058026F
:1035E000D12CDC2CCC2480915902C80ED11C8091A6
:1035F000B1029091B2028C159D0508F466CED0926E
:10360000B202C092B10280915C028F7309F05DCE6C
:1036100010915D02111159CEA090BE02B090BF0270
:10362000A114B10439F48091C0029091C102892B98
:1036300009F441C0209166023091670280915F02D7
:10364000813149F52F3F320739F48091680290911A
:103650006902019609F47DC080913C0290913D027F
:10366000809590958A299B2982179307A1F48091D0
:103670003E0290913F02809590954091C0025091FA
:10368000C102842B952B4091680250916902481722
:10369000590709F45EC0A216B30609F016CE2091B0
:1036A0006802309169028091C0029091C10228178E
:1036B000390709F00ACE0E941B0C019609F005CECD
:1036C00080915F02863009F4BBC0813109F441C0AA
:1036D000813009F0FACD80916A02883009F0F5CD89
:1036E00010926A0280916C0290916D02873F4FEFB9
:1036F000940768F1099690936D0280936C02809113
:1037000062029091630290936702809366028091B7
:103710006402909165029093690280936802B0926E
:103720006302A09262028091C0029091C1029093C4
:103730006502809364021092AC02DF91CF911F91D9
:10374000FF90EF90DF90CF90BF90AF9008950896D4
:10375000D2CF8CE1C81AD108D092B202C092B10285
:1037600082E792E090934502809344028091700238
:1037700090917102892BE1F440916C0250916D029D
:1037800060916A0270916B02A0916202B091630233
:10379000C0916402D0916502E5EFF3E021E234E0EC
:1037A0002E173F0761F43093AE022093AD028DCD0A
:1037B00081E10E94930B019609F087CDDDCF8481D2
:1037C00095810097C1F184179507A9F586819781A6
:1037D000009719F08617970771F5808191810097FE
:1037E000D1F4E280F380EF28F1F4F093AE02E0939D
:1037F000AD0210923B0210923A0282E08093AC023A
:1038000082E792E090932D0280932C0210922F0277
:1038100010922E0257CE8F3F980729F4E280F38052
:10382000EF20E09411F38A179B0729F4828193819A
:10383000C817D907D1F23B96B3CF8FEF9FEFA2CE37
:1038400086E00E94930B019609F03FCD40916C02F7
:1038500050916D0260916A0270916B0280916202D8
:1038600090916302E0916402F0916502C3E2D4E0BA
:10387000298D2223A9F0AC81BD814A175B0781F411
:10388000AE81BF816A177B0759F4A881B9818A1775
:103890009B0731F4AA81BB81EA17FB0709F45BC1DE
:1038A0006E9624E0CD37D20719F310F3809177029A
:1038B0008F73823061F450932B0240932A02EBE91C
:1038C000F4E080E0843009F091C08093A3048091FB
:1038D000770282FDFACC84E18093770288E290E05F
:1038E0009093B2028093B10280E58093760230918A
:1038F0007102809175028093710220917002809113
:103900007402809370022093740290916F028091F0
:10391000730280936F029093730280916E02809382
:10392000A3044091720240936E02809372023F5F43
:103930003093750231110DC02F5F20937402211155
:1039400008C09F5F90937302911103C08F5F8093B3
:10395000720280916A0290916B0290932B02809385
:103960002A0220916C0230916D0230936B022093F9
:103970006A0290936D0280936C0280916202909132
:103980006302909367028093660280916402909133
:1039900065029093690280936802B0926302A092DC
:1039A00062028091C0029091C1029093650280935F
:1039B000640280E480935E028091B1029091B20231
:1039C000909358028093590210927D0210927C02CB
:1039D00010927B0210927A0286E00E94930B8095EF
:1039E000909590937B0280937A02D0CD2191319172
:1039F0008F5F4217530709F065CF1092A304E3E2EB
:103A0000F4E090E080E0D0E0C0E08430910531F453
:103A100084E08093A304209781F457CC3E2F2F2F6E
:103A2000A18DA11163C08093A3042EE1289FE00122
:103A3000299FD00D1124CD5DDB4FD0933B02C09365
:103A40003A0283E08A8F888F1E8A84E08F8B1B8ED8
:103A50005D834C837F836E838091620290916302C9
:103A60009983888380916402909165029B838A8305
:103A700081E0898F809136028C87809137028D8713
:103A8000809138028E87809139028F8781E090E0A3
:103A9000998B888B809171028B87809170028A87C5
:103AA00080916F02898780916E02888781E090E023
:103AB0000E94BB3080917602982F907F913508F458
:103AC00042C082958F708550990B880F991F880F7F
:103AD000991FE12FF0E0E817F9072CF4E85BFD4FA0
:103AE00036A9311112C01093A3042DC0A73031F4B0
:103AF000209731F0B28DAA8DAB1710F03C2F2D2FEF
:103B000001967E96C32FD22F80CF313011F41F5FE4
:103B1000E0CF27A93230D9F42430C9F41093A3049C
:103B200080AD91AD89279827892790932B028093A8
:103B30002A02813042E0940710F080E092E09B8BF3
:103B40008A8B9D8B8C8B80E180937702FACB22232A
:103B500051F2120FBECFD0933B02C0933A021092A3
:103B6000AC029091770292FF07C0198E80E2809399
:103B7000AC020E94DC17A9CB8091760282958F70EF
:103B8000880F880F8093A304C81AD108760184E1B6
:103B9000E81AF108F092B202E092B1022F702230DE
:103BA00021F4892F8F738231D1F0E114F10419F4DB
:103BB000892F8370A1F039852A858B8550916E02FB
:103BC00048855413C0C140916F024313BCC130916A
:103BD00070023213B8C1209171022813B4C194FF4E
:103BE00049C0688979896115710509F443C0CE011E
:103BF0000C960E9488303091720280912602381310
:103C000039C02091730280912702281333C090910C
:103C100074028091280298132DC080917502409102
:103C20002902841327C03C872D879E878F87988D14
:103C30008B8D811118C08E892A8D921B282F269575
:103C400026952695921B890F8E8B97FD91952F892E
:103C5000322F36953695231B920F9F8B869586952E
:103C60008695890F888F81E08093AC02888D8A8F3A
:103C7000198A188A298DE22FEF70E150E83008F098
:103C800024CBF0E0EA5BF14E0C94183C4E1E671E0C
:103C9000D11E861FAF1FC01FA31F7F1F8091AC02C4
:103CA00080FF13CB83E0898F80E48093AC02198A74
:103CB000188AE114F10431F082E48093AC02C70168
:103CC0000E94BB3010922F0210922E02C2CA809125
:103CD000AC0280FF5FC0809177028F73823109F060
:103CE00059C080917602982F907F913598F18295F6
:103CF0008F708550990B880F991F880F991FE12F9E
:103D0000F0E0E817F9072CF4E85BFD4F36A9311114
:103D100003C01093A3041EC0313011F41F5FEFCF16
:103D200027A9323099F5243089F51093A30480AD8A
:103D300091AD89279827892790932B0280932A0297
:103D4000813012E0910710F080E092E09B8B8A8B2B
:103D50009D8B8C8B83E0898F80916E028887809108
:103D60006F028987809170028A87809171028B87A8
:103D700081E090E00E94BB3082E48093AC02198A1B
:103D8000188A1092B2021092B1029CCF222309F23B
:103D9000120FB5CF80E28093AC020E94DC17198E1F
:103DA00096CD8091770280FF20C024FD1EC08889B7
:103DB0009989892B09F089CAC60143970E94BB30B3
:103DC0008091AC02982F90619093AC02EF2819F08B
:103DD00082618093AC020E94DC1781E090E0998BB5
:103DE000888B88E0898F1B8E16CB85FF14C080914D
:103DF0007C0290917D02982789279827AC01425830
:103E00005D4F5093450240934402E81AF90AF0923C
:103E1000B202E092B1024091B1025091B20290918F
:103E2000AC024115510541F024FD06C0926090930B
:103E3000AC02CA010E94BB3080917802282F30E08A
:103E4000322F222780917902820F932F911D909318
:103E50002B0280932A022C893D892817390710F0FC
:103E6000892B21F430932B0220932A0280912A027D
:103E700090912B029B8B8A8B8091AC02837009F40A
:103E800024CA20CF84FF0AC010922F0210922E0263
:103E900081E090E0998B888B84E0A4CF20912E0262
:103EA00030912F0221153105B9F080FF02C0198A27
:103EB000188A88899989009789F48A899B89821749
:103EC000930720F490932F0280932E0280912E026C
:103ED00090912F02998B888B1B8EACCA90932F02E6
:103EE00080932E02F9CF8091AC0281FFEEC988E267
:103EF00090E09093B2028093B10280E1B5CA8091C4
:103F0000AC0280FFE2C9198E80E131CEE114F104E8
:103F100019F0C7010E94BB308091AC028170909172
:103F2000770290FF15C0882381F087E0898F1A8E71
:103F3000198A188A81E090E00E94BB3080E180936A
:103F4000AC020E94DC1780E167CA86E0898FF2CF5D
:103F5000882399F085E0898F198A188AB6C9E114F7
:103F6000F10419F0C7010E94BB308091770280FFF5
:103F700004C087E0898F1A8EDDCFEF2821F7A5C90D
:103F80008091AC0280FFA1C987E0898F1A8E9DC9FC
:103F900082E080937802109279020BCDCF93DF9369
:103FA000EC012C853D852115310529F490E080E058
:103FB000DF91CF910895EA89EE23C1F381E08B8BE5
:103FC00085E0E89FF0011124EC55FB4F8E859F851D
:103FD0000796938382833093AE022093AD0285E0EF
:103FE0000E9400198091B1029091B202892BF1F2E6
:103FF000CE010E960E943F1781E090E0D9CF8F92BC
:104000009F92AF92BF92CF92DF92EF92FF92CF93A7
:10401000DF938091BD02882309F41FC1D09147022C
:10402000D11151C089E30E948C08882309F449C04A
:104030006091AD057091AE056B0126E0C20ED11CFA
:10404000C11438E0D30628F06B014AEFC41A47E0E8
:10405000D40A80E00E94DC0760E08AE30E946E08D8
:10406000E82E60E08AE30E946E08F82EF092AE051A
:10407000E092AD0560E08AE30E946E08B82E60E031
:104080008AE30E946E08C82F60E08AE30E946E08EF
:10409000A82E40E46EE180E80E94A407A7FEE8C0D5
:1040A000E11458E0F50608F0E3C0D092B005C092E4
:1040B000AF059C2F8B2D04979093B2058093B1058B
:1040C000DFEFD0934702F0904702FF2009F472C05F
:1040D00081E08093AF028F2D0E948407EC019093C2
:1040E000B2028093B102892B09F4EFC042E650E09E
:1040F00068E472E08F2D0E942808C0905402D0908E
:10410000550288E0C816D10409F0CDC0F092B00283
:104110002E97D093B202C093B102209162023091E7
:104120006302E091BE02F091BF02C9018E279F2772
:1041300040913C0250913D0284239523892B49F5FF
:1041400040916402509165026091C0027091C10279
:10415000CA0186279727A0913E02B0913F028A2389
:104160009B23892BB1F48091660290916702E81736
:10417000F90709F080C08091680290916902681780
:10418000790709F078C06EE472E082E692E00E945E
:104190008E1581E00E9400198091B1029091B202C7
:1041A000892B21F00E9403160E94610C8091AF02BE
:1041B00080FD8BC00E9457056B017C018091BA0580
:1041C0009091BB05A091BC05B091BD05460157017A
:1041D000881A990AAA0ABB0AC3E2D4E0D0933B0228
:1041E000C0933A02B7FC08C182E00E940019809196
:1041F000B1029091B202892B21F00E9403160E9415
:10420000610C6E9634E0CB39D30741F7B7FC25C07B
:104210004AEFC40ED11CE11CF11CC092BA05D09229
:10422000BB05E092BC05F092BD05C5EFD3E0D0938D
:10423000AE02C093AD0285E00E9400198091B102E8
:104240009091B202892B21F089859A850E943F17AF
:104250002B9654E0C132D50751F7DF91CF91FF90F3
:10426000EF90DF90CF90BF90AF909F908F90089588
:104270000E94520826CFECE9F3E080E0883019F480
:104280008093F40386CF608171812617370741F44C
:10429000628173814617570719F48093F40373CF33
:1042A0008F5F3B96EBCF28E0C21626E0D20669F47A
:1042B0001092B2021092B102AA9760F48091B102FA
:1042C0009091B202892B09F06FCF0E945208109290
:1042D000470270CF80915C0290915D02811531E0C0
:1042E000930701F18115924049F720916E023091B8
:1042F0006F028091BE029091BF0228173907F1F634
:1043000020917002309171028091C0029091C1029F
:104310002817390799F66EE572E084E692E00E946C
:104320008E15CCCFE0906E02F0906F028091BE02AD
:104330009091BF02E816F90609F6C0917002D0917B
:1043400071028091C0029091C102C817D90709F08B
:10435000B5CF6EE572E084E692E00E948E1580E0B3
:1043600092E090935D0280935C0286E0EEE5F2E0DD
:10437000A8E6B2E001900D928A95E1F786E0E4EBC1
:10438000F5E0AEE5B2E001900D928A95E1F786E0A6
:10439000E4EBF5E0AEE4B2E001900D928A95E1F72E
:1043A00086E0E8E6F2E0A8E4B2E001900D928A959A
:1043B000E1F7809164029091650290936F0280937F
:1043C0006E028091660290916702909371028093D1
:1043D0007002F0926502E0926402D0936702C0938B
:1043E0006602D0925502C09254028AE290E0909305
:1043F000B2028093B10262CFEC8DFD8D309709F44B
:1044000000CF86859785A089B189A7019601281BD1
:10441000390B4A0B5B0BDA01C901B7FDF2CE83E021
:104420000E9400190E945705E0913A02F0913B0268
:10443000048CF58DE02D665F7F4F8F4F9F4F668711
:104440007787808B918BD3CECF93DF93EC010E9443
:10445000FF1F89890E946407198ADF91CF9108950F
:104460000F931F93CF93DF931F92CDB7DEB78C01CD
:104470000E94FF1FF8018189882389F041E050E004
:10448000BE016F5F7F4F0E942808019741F4898128
:1044900090E00F90DF91CF911F910F9108958FEFD2
:1044A0009FEFF7CFEF92FF920F931F93CF93DF937E
:1044B0007C018B01EA010E94FF1FF701818988239B
:1044C00069F1AE01B8010E9428088C01F701C18989
:1044D0008C2F0E9484078017910769F48C2F0E940B
:1044E0006407F701118AC801DF91CF911F910F91E5
:1044F000FF90EF90089585E0C89FF0011124EC55DE
:10450000FB4F80819181800F911F918380838281F5
:104510009381801B910B93838283E5CF80E090E0B1
:10452000E3CFCF93DF93EC010E94FF1F8989DF91D6
:10453000CF910C948407CF93DF93EC010E94FF1F6F
:10454000898981110E9464078889898B188ADF9183
:10455000CF910C948407CF92DF92EF92FF920F934A
:104560001F93CF93DF9300D000D0CDB7DEB78C017F
:104570006B017A010E94FF1FF60182819381A48161
:10458000B581892B8A2B8B2BE9F0E114F104D1F052
:10459000D8011C96ED91FC91D60112962D913C917B
:1045A00013973A83298314968D919C919C838B83D6
:1045B0007E2D6F2D309779F1778366833183208349
:1045C00093838283F80184859585892BB1F1828953
:1045D000811133C08EE096E00E94B609D801529650
:1045E0008C9352972BE230E01F963C932E931E97AC
:1045F00021E090E0811101C020E0822F0F900F9008
:104600000F900F90DF91CF911F910F91FF90EF903E
:10461000DF90CF900895CE0101960E940413F80117
:1046200095878487009749F09801225F3F4FDC010E
:104630001A963C932E931997C5CF80E090E0DECF79
:104640004F925F926F927F928F929F92AF92BF92A2
:10465000CF92DF92EF92FF920F931F93CF93DF934E
:10466000CDB7DEB763970FB6F894DEBF0FBECDBFF0
:104670006C017B013A01FB01DB018D91882309F478
:1046800044C08E32D1F380538A30B8F3F6014281B0
:104690005381648175818091EE069091EF06A0911F
:1046A000F006B091F106481759076A077B0709F42D
:1046B00055C28601085F1F4F0E9457056F7077270C
:1046C0007C5FC8010E946E13813009F04CC28AE9F8
:1046D00091E09A838983F60182819381A481B581D7
:1046E0008B839C83AD83BE8345E350E0BE016F5F47
:1046F0007F4FC8010E94AB22892B09F057C0F12CD3
:10470000E12CC8010E94CB1239C030E020E090E0DB
:1047100080E05AE04191442309F1843091050CF086
:10472000B5CF4E3271F42F3F310511F00CF0AECF02
:10473000D301A80FB91F12962C93019630E020E008
:10474000E9CF529FB001539F700D1124242F440FC5
:10475000330B20533109260F371FDCCF2F3F310594
:1047600011F00CF093CF843091050CF08FCF680ED0
:10477000791EF3012283EE24E394F12CC7016396A2
:104780000FB6F894DEBF0FBECDBFDF91CF911F9162
:104790000F91FF90EF90DF90CF90BF90AF909F90E0
:1047A0008F907F906F905F904F9008950E94570573
:1047B000F6017783668342E050E0B6016A5F7F4F7F
:1047C000C8010E941A0B81E090E09A83898342E03D
:1047D00050E0BE016F5F7F4FC8010E941A0B80E05E
:1047E00091E09A83898342E050E0BE016F5F7F4F82
:1047F000C8010E941A0B1A82198242E050E0BE01E1
:104800006F5F7F4FC8010E941A0B42E050E0BE016B
:104810006F5F7F4FC8010E941A0B42E050E0BE015B
:104820006F5F7F4FC8010E941A0B5701F70180810B
:10483000882301F17501F70181912F01882311F07F
:104840008E32B1F447018A189B081814190474F4C5
:104850008D8641E050E0BE01635F7F4FC8010E943A
:104860001A0BA401B501C8010E941A0B5201DECF38
:104870007201E1CF1D8641E050E0BE01635F7F4FD2
:10488000C8010E941A0BE12CFF24F394FA82E982FA
:1048900042E050E0BE016F5F7F4FC8010E941A0BDB
:1048A000FA82E98242E050E0BE016F5F7F4FC801AB
:1048B0000E941A0BC8010E94CE1F892B09F41FCF3A
:1048C000A3E0AA2EB12C230122E0420E511C26C0E7
:1048D000F6016280738084809580B801CE010196D4
:1048E0000E94D70A8B819C81AD81BE8168167906B2
:1048F0008A069B0629F4C8010E94C80AC59759F187
:10490000FEEFEF2EFF24FA94E1E0AE1AB10809F4AD
:10491000F8CEFFEFEF16FF0609F0F3CE0E94570521
:104920003B014C01C8010E949B221816190684F213
:104930000E945705661977098809990969387341F2
:104940008105910508F001C162E370E080E090E02C
:104950000E941A05E7CFC8010E9491220C970CF41F
:10496000F8C04CE050E0BE016F5F7F4FC8010E946D
:10497000650E8B819C819827892798279A8B898B34
:10498000F6014681578129813A814217530711F474
:1049900097FD08C0C8010E942422ECEFEE2EFF24F0
:1049A000FA94B2CF8F709270892B41F0C8010E94A7
:1049B00024227BEFE72EFF24FA94A6CF6F80788421
:1049C000762467247624F12CE12C61147104D1F44F
:1049D000C8010E9424226AEFE62EFF24FA9494CFA5
:1049E0008D85811117C0C8010E94FD0AC8010E946F
:1049F000FD0AC8010E94FD0AC8010E94FD0AFFEFDE
:104A0000EF1AFF0A8D819E81982789279827E8163B
:104A1000F906A8F441E050E0BE01635F7F4FC80192
:104A20000E94650E8D858823D9F28D859FEF980FA2
:104A30009D878823A9F2C8010E94FD0AF6CF912C18
:104A4000812C41E050E0BE016D5E7F4FC8010E94A5
:104A5000650E8B89982F907C61F4882389F08B896F
:104A60009FEF980F9B8B882341F0C8010E94FD0A9D
:104A7000F6CFC8010E94FD0A1B8A8B898111E1CF04
:104A800042E050E0BE01615F7F4FC8010E94650EA9
:104A900042E050E0BE01635F7F4FC8010E94650E97
:104AA000C8010E94FD0AC8010E94FD0AC8010E94B7
:104AB000FD0AC8010E94FD0A42E050E0BE016F5E9F
:104AC0007F4FC8010E94650E8F859889811591409E
:104AD000E1F48D859E8581159140B9F489899A8983
:104AE0008115944041F0C8010E94242257EFE52E21
:104AF000FF24FA9409CF44E050E0B201C8010E94BB
:104B0000650EEE24E394F12CFFCEF12CE12C898983
:104B10009A89982789279827E816F90638F4C80152
:104B20000E94FD0A2FEFE21AF20AF1CF8FEF881AE6
:104B3000980A8614970409F084CFC8010E942422A1
:104B400036EFE32EFF24FA94DFCEEE24EA94FE2C17
:104B5000DBCE9DEFE92EFF24FA94D6CE8EEFE82E21
:104B6000FF24FA940BCEF12CE12C08CEAF92BF9229
:104B7000CF92DF92EF92FF920F931F93CF93DF9329
:104B8000CDB7DEB7A8970FB6F894DEBF0FBECDBF86
:104B90007C015B016A010AE911E01A8309831B8227
:104BA0001C821D821E82CE0109960E94EC121CA35B
:104BB0000BA31DA21EA21FA218A68091DC06909135
:104BC000DD06A091DE06B091DF068F8F98A3A9A322
:104BD000BAA38B839C83AD83BE8318861F82AE01EC
:104BE0004D5D5F4FB501CE0101960E9420238130BB
:104BF0009105B1F4D701ED91FC910488F589E02D80
:104C00001E8F0D8F8DA19EA1AFA1B8A58F8F98A3E8
:104C1000A9A3BAA3A601BE01635E7F4FC701099590
:104C2000A8960FB6F894DEBF0FBECDBFDF91CF912F
:104C30001F910F91FF90EF90DF90CF90BF90AF90BA
:104C40000895AF92BF92CF92DF92EF92FF920F93AF
:104C50001F93CF93DF93CDB7DEB7A8970FB6F89425
:104C6000DEBF0FBECDBF7C015B016A010AE911E026
:104C70001A8309831B821C821D821E82CE01099623
:104C80000E94EC121CA30BA31DA21EA21FA218A619
:104C90008091DC069091DD06A091DE06B091DF06E2
:104CA0008B839C83AD83BE8318861F82AE014D5DCE
:104CB0005F4FB501CE0101960E94202381309105FE
:104CC000B1F4D701ED91FC910684F785E02D1E8F9C
:104CD0000D8F8DA19EA1AFA1B8A58F8F98A3A9A379
:104CE000BAA3A601BE01635E7F4FC7010995A896CE
:104CF0000FB6F894DEBF0FBECDBFDF91CF911F91ED
:104D00000F91FF90EF90DF90CF90BF90AF900895FC
:104D1000CF93DF93EC014C815D81ABE9B4E090E08F
:104D200080E0282F8430910521F484E08093A3044F
:104D30000EC0FC016D917D910196672B91F7209338
:104D4000A304EE0FFF1FE556FB4F518340830E94E3
:104D5000FF1F81E08E83DF91CF910895CF93DF9382
:104D6000EC010E94FF1FEC85FD8587818823D9F027
:104D7000DF01189621E08D91811110C0215030E0A3
:104D8000322F2227330F84859585280F391F80E025
:104D90009AE0821B930BDF91CF9108952F5F25300E
:104DA00051F724E0ECCF80E09AE0F5CFAF92BF92CC
:104DB000CF92DF92EF92FF920F931F93CF938C01CC
:104DC0005B017A016A010E94FF1F0115110509F4B8
:104DD0005DC0F8018181882309F458C0867009F00C
:104DE00055C03896C1E08191811133C0C150F8019E
:104DF000EC0FF11D878181110DC080E092E00E94CF
:104E0000B609F801EC0FF11D87838823E1F2F80160
:104E100015861486A7014C195D094A0D5B1DF80122
:104E2000648575859601EC0FF11D87810E94860AC5
:104E3000C81AD90AF80124853585820F931F9587F2
:104E400084871C141D0454F4C43009F4BCCFCF5F14
:104E5000D4CFCF5FC53039F6C4E0C9CF0E94570523
:104E6000665F7F4F8F4F9F4FF80166877787808BF4
:104E7000918BC7018C199D09CF911F910F91FF90C4
:104E8000EF90DF90CF90BF90AF90089590E080E0DA
:104E9000F3CF9F92AF92BF92CF92DF92EF92FF92A9
:104EA0000F931F93CF93DF938C017B016A01C4ECB6
:104EB000D2E0B12CA12C8EE1982E898180FF15C003
:104EC000E8819E9EF0011124ED5DFB4F2481358128
:104ED000F801848195812817390739F4A601B701B3
:104EE000CE010E94D626A80EB91E6296F3E0CC3001
:104EF000DF0718F3C501DF91CF911F910F91FF904C
:104F0000EF90DF90CF90BF90AF909F900895FC01FD
:104F1000848595850C94D626CF93DF931F92CDB7C9
:104F2000DEB7698341E050E0BE016F5F7F4FFC0157
:104F3000848595850E94D6260F90DF91CF910895A4
:104F4000CF93DF93EC010E94FF1FEC85FD85309726
:104F500039F0818182FF08C081E09281911101C006
:104F600080E0DF91CF91089581E0FBCFCF93C82FF0
:104F700085E397E00E94A027882361F085E397E00E
:104F80000E944B0E882331F06C2F85E397E0CF9180
:104F90000C948C27CF910895CF93DF93EC018C85EF
:104FA0009D85009769F0FC012181222349F002963A
:104FB0000E94EB0CEC85FD85818182FF07C0118288
:104FC0001D861C86DF91CF910C94FF1F8260818328
:104FD000F7CFCF93DF93EC0185E397E00E94A02702
:104FE0008823A1F085E397E00E944B0E882371F09F
:104FF00085E397E00E940B0E009771F085E397E040
:105000000E94520D888381E090E006C085E397E01E
:105010000E94CC2790E080E0DF91CF910895CF925D
:10502000DF92EF92FF920F931F93CF93DF938C0148
:10503000EB016A01DC01ED91FC910488F589E02D1A
:105040000995EA80FB806C817D815C2D4D2D8091DE
:1050500021049091220401968115BDE79B0710F071
:1050600080E090E1382F292FE3E2F4E0DF01C0E097
:10507000C430D1F490932204809321041092A304AD
:1050800080E0D0E0C0E08430F1F48093A304209766
:1050900011F590E080E0DF91CF911F910F91FF908B
:1050A000EF90DF90CF9008955996DC915997DD23CA
:1050B00039F01496CD90DC901597C216D30659F2AC
:1050C000CF5F5E96D5CFAE2F9F2FB18DB1113CC073
:1050D0008093A304EF0182E0898F809136028C8750
:1050E000809137028D87809138028E8780913902B6
:1050F0008F8780E092E09B8B8A8B9D8B8C8B81E0ED
:1051000090E0998B888B1B8E8A8F83E0888F1E8A14
:1051100080E18F8B3D832C835F834E83F982E8820D
:105120007B836A83898D8F7009F4B3CF0E94FF1F40
:10513000898D8F708330B1F78C8D9D8DF8019587A7
:10514000848781E090E0A7CFB73031F4209731F029
:10515000D28CBA8DBD1510F0AC2F9D2F8F5F7E962F
:10516000CA2FD92F90CF2F923F924F925F926F927A
:105170007F928F929F92AF92BF92DF92EF92FF92B7
:105180000F931F93CF93DF93CDB7DEB7C254D109EE
:105190000FB6F894DEBF0FBECDBF7C015B010E944D
:1051A00057052B013C018701015C1F4FC8010E947C
:1051B0009B22181619069CF00E9457056419750960
:1051C00086099709613A7F408105910508F0A5C1DC
:1051D00062E370E080E090E00E941A05E7CF42E2CF
:1051E00050E0BE016F5F7F4FC8010E94650E89814C
:1051F000823009F08DC1C8010E94C80A833491052C
:1052000009F086C16D817E818F8198850E941E3C48
:105210002B013C01F501408251826282738246E09B
:1052200050E0B701685F7F4FCE014D960E94073E68
:10523000892B99F4F70180819181A281B38148166D
:1052400059066A067B0648F084819581A681B7815C
:1052500084159505A605B705F0F4C8010E9424221F
:10526000D12C8D2DCE5BDF4F0FB6F894DEBF0FBE75
:10527000CDBFDF91CF911F910F91FF90EF90DF9005
:10528000BF90AF909F908F907F906F905F904F9066
:105290003F902F90089589899A89AB89BC89868728
:1052A0009787A08BB18B8EECA82EB12CC8010E94E1
:1052B000FD0AF1E0AF1AB108C9F7D12CC7018296F7
:1052C0009CAF8BAFF701B696FEAFEDAF0896219677
:1052D0009FAF8EAF219757019AE1A90EB11C749729
:1052E0002396FFAFEEAF23971701F6E12F0E311C87
:1052F00027012EE1420E511CC8010E94912218166E
:1053000019060CF006C1C8010E94FD0A83339105FD
:1053100009F4E4C09CF58130910509F480C074F46F
:10532000892B51F3C8010E94FD0A982E9A94FFEF31
:105330009F1611F3C8010E94FD0AF8CF8330910532
:1053400009F47AC0069771F7C8010E94FD0A882EF9
:1053500044E050E0B201C8010E94650E712C612C3E
:10536000E82DE450FF0B4F01681479042CF6C801B6
:105370000E94FD0AFFEF6F1A7F0AF6CF8A3391056C
:1053800009F47EC0DCF58533910509F440C0C69769
:1053900049F6C8010E94FD0A982E1FAA18AE19AE40
:1053A0001AAEB501CE018F960E9482154FA958AD55
:1053B00069AD7AAD89A99AA9ABA9BCA948175907C3
:1053C0006A077B07B9F0B801CE0189960E94D70A17
:1053D000B501CE0183960E9482154DA15EA16FA1F9
:1053E00078A58BA59CA5ADA5BEA5481759076A074A
:1053F0007B07E9F544E050E0B5011AC08B33910515
:1054000009F454C08F3F910509F476CF8BCFC801C2
:105410000E94FD0AC8010E94FD0AD82E6DCFC80166
:105420000E94FD0A44E050E023966EAD7FAD2397C5
:10543000C8010E94650E60CFC8010E94FD0A882E37
:1054400044E050E0B101C8010E94650E712C612C4E
:10545000882D8450990B4C01681479040CF04CCFC2
:10546000C8010E94FD0A9FEF691A790AF5CF9A9444
:105470002FEF921609F440CFC8010E94FD0AF7CF22
:10548000C8010E94FD0A44E050E06DAD7EADC80148
:105490000E94650EF70166A177A180A591A50E94E3
:1054A0001E3C66A377A380A791A726CFC8010E94C0
:1054B000FD0A44E050E021966EAD7FAD2197C80112
:1054C0000E94650EF70162A573A584A595A50E94AB
:1054D0001E3C62A773A784A795A70ECFC8010E94A0
:1054E000FD0A44E050E06BAD7CADC8010E94650E42
:1054F000F70162A173A184A195A10E941E3C62A341
:1055000073A384A395A366A777A780AB91ABF4CED2
:10551000D12CC8010E942422A4CEDD24DA94A1CE8D
:105520007F928F929F92AF92BF92CF92DF92EF9233
:10553000FF920F931F93CF93DF93CDB7DEB7A6975C
:105540000FB6F894DEBF0FBECDBF8C01762E942E21
:10555000852E20E2A22ECE0101967C01DC01EA2DEF
:105560001D92EA95E9F76801FFE3CF0ED11C8AE9A5
:1055700091E09AA389A38FEF8BA38CA38DA38EA315
:1055800043E450E0BE016F5D7F4FC6010E94AB2235
:10559000019609F4BFC081E089838A8386E0B82E32
:1055A000BB821C82D80114966D917D918D919C9146
:1055B00017970E941E3C6D837E838F839887898610
:1055C0009A8680E890E09C878B874CE150E0B70199
:1055D000C6010E941A0BFE0137968AE1DF011D9277
:1055E0008A95E9F74801B8E08B0E911CF401D701C8
:1055F00001900D92BA94E1F740E150E0B701C60185
:105600000E941A0BF7011192AA94E9F796E0A92ECD
:10561000B12C40E250E0B701C6010E941A0BF1E044
:10562000AF1AB108B1F783E6898392E89A8393E5CC
:105630009B838C8385E38D8381E08E837F829DE3D2
:10564000988797E099878A8786E0F401DE011B96A8
:1056500001900D928A95E1F78CE0898B8A8B69EC39
:1056600071E0CE0143960E944A3ED8011B966C9190
:10567000CE0149960E94C302F8016485CE014B9683
:105680000E94C302D8011D966C91CE014D960E94D6
:10569000C3024EE150E0B701C6010E941A0BB3E00D
:1056A0007B121EC082E3898384E08A83F801968599
:1056B0009B8397859C8390899D8391899E8396E3A4
:1056C0009F838887828D8987838D8A87848D8B8746
:1056D000858D8C874CE050E0B701C6010E941A0B03
:1056E00087E3898386E08A8391E09B8393E09C83B0
:1056F0008D838FE08E838AE38F838BE388878FEFA0
:10570000898749E050E0B701C6010E941A0BC60123
:105710000E94CE1FA6960FB6F894DEBF0FBECDBF77
:10572000DF91CF911F910F91FF90EF90DF90CF907D
:10573000BF90AF909F908F907F9008953F924F922F
:105740005F926F927F928F929F92AF92BF92CF9211
:10575000DF92EF92FF920F931F93CF93DF9300D0CE
:1057600000D000D0CDB7DEB78C010E94963A2FEC66
:1057700037E040E050E00E947E3BDC01CB01019627
:10578000A11DB11DF80184839583A683B78380830F
:105790009183A283B383C801CF969E838D830E9499
:1057A000CB1264E470E08D819E810E946E13D12C37
:1057B000C12C882309F458C00E9457052B013C01D5
:1057C00043E0342E58EE852E53E0952EA12CB12CBB
:1057D00062E0E62ED12CC12CD801DE968C91DE97AA
:1057E000833091F1811159C014968D919D910D9046
:1057F000BC91A02D0196A11DB11DF8018483958354
:10580000A683B7830E94570564197509860997090D
:10581000A50194010E94E73BA90161E0C8010E9433
:10582000902A81E0D801DE968C93F1E0CF16D10466
:1058300099F20E9457056419750986099709613222
:105840007E448105910530F28D819E810E94CB12AC
:10585000F80184819581A681B7810196A11DB11DB2
:1058600084839583A683B783C60126960FB6F894E2
:10587000DEBF0FBECDBFDF91CF911F910F91FF9083
:10588000EF90DF90CF90BF90AF909F908F907F90E0
:105890006F905F904F903F9008958430F9F4F80135
:1058A00084819581A681B7810196A11DB11D848354
:1058B0009583A683B7830E945705641975098609E5
:1058C0009709A50194010E94E73BA90163E0C80183
:1058D0000E94902AD801DE96EC92A7CF813031F554
:1058E000BE016F5F7F4FC8010E94B328F82EB2E05F
:1058F0008B137FC089819A81AB81BC81F80184833D
:105900009583A683B7830E94570564197509860994
:105910009709A50194010E94E73BA90163E0C80132
:105920000E94902AD801DE96FC927FCF823009F047
:105930007CCFBE016F5F7F4FC8010E94B328F82E55
:10594000B5E08B134FC0F80136AE82A193A1A4A19C
:10595000B5A1892B8A2B8B2B41F484E893E0A0E03E
:10596000B0E082A393A3A4A3B5A3F80186A197A155
:10597000A0A5B1A5892B8A2B8B2B61F482A193A1C1
:10598000A4A1B5A1B695A7959795879586A397A34A
:10599000A0A7B1A7F80186A197A1A0A5B1A542A58E
:1059A00053A564A575A5452B462B472B51F4AC0197
:1059B000BD01440F551F661F771F42A753A764A759
:1059C00075A7F80186A797A7A0ABB1AB82A593A551
:1059D000A4A5B5A582AB93ABA4ABB5ABCC24C394C3
:1059E000D12C23CFF6E08F1304C0D801DE961C9291
:1059F0001CCFBFEFFB1219CFF80116AE16CF0C94D7
:105A0000703B7F928F929F92AF92BF92CF92DF9224
:105A1000EF92FF920F931F93CF93DF9300D000D0AC
:105A200000D0CDB7DEB75C014B01712C9AE9C92ECD
:105A300091E0D92E072D10E00A151B050CF0A0C02F
:105A40007720E9F0000F111F080D191DF801E08003
:105A5000F18060ED71E0C7010E94413E892B89F41D
:105A600063ED71E0F801828193810E94413E61E023
:105A7000892B09F060E090E080E00E94FF2C739495
:105A8000D9CF6AED71E0C7010E94413E892B19F51B
:105A9000DA82C9821B821C821D821E82F801628109
:105AA0007381CE0101960E941703FC800D811E8137
:105AB0006B8181E090E00E94FF2C6F2D82E090E0EE
:105AC0000E94FF2C602F83E090E00E94FF2C612F4A
:105AD00084E090E0D2CF6DED71E0C7010E94413EBD
