:100000000C9447020C946F020C946F020C946F02D4
:100010000C946F020C946F020C946F020C946F029C
:100020000C946F020C946F020C946F020C946F028C
:100030000C946F020C946F020C946F020C946F027C
:100040000C943E300C946F020C940C300C94E62F00
:100050000C946F020C946F020C946F020C946F025C
:100060000C946F020C946F023F096970096D7174F2
:10007000740972656C6179097265626F6F74002D25
:100080002D2D2D2D2D2D2D2D2D2D2D2D2D2D0053A7
:10009000797374656D20636F6D6D616E6473006458
:1000A000697361626C6500656E61626C6500002059
:1000B00020476174657761793A20090900002020A2
:1000C0005375626E6574204D61736B3A20090900A7
:1000D0000020204950763420416464726573733A7D
:1000E0000909002020444843503A090909002D2DF0
:1000F0002D2D2D2D2D2D2D2D2D2D2D2D2D2D2D2D30
:100100002D2D2D2D2D2D2D2D2D2D2D2D2D2D2D004C
:100110000A4D616E75616C6C7920636F6E666967FC
:100120007572656420495076342073657474696E05
:10013000677300002020416374697665204950761A
:100140003420676174657761793A090900002020DD
:100150004163746976652049507634207375626E08
:100160006574206D61736B3A09000020204163744F
:1001700069766520495076342061646472657373D2
:100180003A0909002D2D2D2D2D2D2D2D2D2D2D2D07
:100190002D2D2D2D2D2D2D2D000A41637469766591
:1001A00020495076342073657474696E67730069F2
:1001B00070205B2D44203C656E61626C65207C2064
:1001C00064697361626C653E5D205B2D69203C69EA
:1001D00070763420616464726573733E5D205B2DBC
:1001E00073203C7375626E6574206D61736B3E5D48
:1001F000205B2D67203C67617465776179206970A9
:100200003E5D0055736167653A200020205061799A
:100210006C6F61643A2009093C4F4E7C4F46467C26
:10022000544F47474C453E00202052656C61792071
:100230003420746F7069633A200900202052656C85
:100240006179203320746F7069633A20090020209F
:1002500052656C6179203220746F7069633A2009AD
:1002600000202052656C6179203120746F706963C1
:100270003A2009003A0020204D5154542053657211
:100280007665723A0909002020486F73746E616DBB
:10029000653A200909002D2D2D2D2D2D2D2D2D2DCB
:1002A0002D2D2D2D000A4D51545420736574746901
:1002B0006E6773006D717474205B2D73203C6970E0
:1002C000763420616464726573733E5D205B2D70CB
:1002D000203C706F72743E5D205B2D68203C686F1F
:1002E00073746E616D653E5D0055736167653A209C
:1002F00000202052656C617920343A090020205298
:10030000656C617920333A09004F4646004F4E0034
:10031000202052656C617920323A09002020526514
:100320006C617920313A09002D2D2D2D2D2D2D2D8B
:100330002D2D2D2D000A52656C6179207374617426
:1003400075730072656C6179205B3C317C327C3363
:100350007C343E203C4F4E7C4F46467C544F4747B2
:100360004C453E5D0055736167653A20000D0A00FB
:100370000D0A0000000000240027002A00000000F1
:1003800000250028002B0000000000230026002983
:10039000000404040404040404020202020202032E
:1003A0000303030303010204081020408001020438
:1003B00008102001020408102000000008000201BB
:1003C00000000304070000000000000000726562E6
:1003D0006F6F740072656C6179006D71747400697F
:1003E00070003F00537461727420756172742073E1
:1003F00065727665722E2E2E0053746172742074AD
:10040000656C6E657420736572766572206F6E2000
:10041000004E6F206C696E6B2E2E2E006D656D6F19
:1004200072792E2E2E0052657472792E2E2E004473
:10043000484350207365727665722E2E2E004765F4
:100440007474696E672069702066726F6D20005346
:10045000797374656D2073746172742E2E2E003E54
:1004600000436F6D6D616E64204E4F5420666F7552
:100470006E642E00436F6E6E656374656420746FE6
:10048000204D5154542E2E2E0000D330443A1124C6
:100490001FBECFEFD8E0DEBFCDBF11E0A0E0B1E0DE
:1004A000ECEBFCE702C005900D92AE3FB107D9F727
:1004B00027E0AEEFB1E001C01D92A634B207E1F72C
:1004C00012E0C6E4D2E004C02197FE010E94183C6D
:1004D000C534D107C9F70E94AF310C94513E0C943A
:1004E0000000CF93DF93EC01FA013296E60FF71F7D
:1004F000DC019D012C1B3D0BCF01861B970B4D9101
:10050000442311F04193F5CFAC01421B530B640F10
:10051000751FFB013297308361507109FB01208305
:10052000DF91CF9108958091F4069091F5060097A0
:1005300011F480E02FC0DC01ED91FC910688F78971
:10054000E02D0995209117073091180781111FC0E0
:10055000232B79F78DEF9FEF909318078093170760
:100560008091F4069091F506DC01ED91FC910680F6
:10057000F781E02D09958091F4069091F506DC0154
:10058000ED91FC910488F589E02D0995D2CF81E0A9
:10059000232B79F6089520E3FC0120833296862FE1
:1005A00082958F706F706A3030F4605D6293682F4F
:1005B0008111F5CF0895695CF9CFCF93DF93E0EF18
:1005C000F6E0EC018A819B81AC81BD81858F968F9D
:1005D000A78FB0A374A363A312A211A2CF01DF91CE
:1005E000CF910895AF92BF92CF92DF92EF92FF9298
:1005F0000F931F93CF93DF936C017B018B01040F4B
:10060000151FEB015E01AE18BF08C017D10759F0E6
:100610006991D601ED91FC910190F081E02DC60128
:100620000995892B79F7C501DF91CF911F910F9122
:10063000FF90EF90DF90CF90BF90AF900895DC01D6
:1006400090E030E020E08AE0FB014191BF014423CB
:1006500011F150ED540F5A3090F4829FF001839FB6
:10066000F00D11249F0120533109240F311D47FD46
:100670003A952F3F310541F338F380E008954E322B
:10068000E1F79330D1F3FD01E90FF11D22839F5F64
:1006900030E020E0D9CF933081F715962C9381E09C
:1006A0000895FC01538D448D252F30E0842F90E078
:1006B000821B930B541710F0CF960895019708955D
:1006C000FC01918D828D981761F0A28DAE0FBF2F26
:1006D000B11D5D968C91928D9F5F9F73928F90E07C
:1006E00008958FEF9FEF0895FC01918D828D9817EB
:1006F00031F0828DE80FF11D858D90E008958FEF28
:100700009FEF0895FC01918D228D892F90E0805CF0
:100710009F4F821B91098F739927089580ED95E073
:100720000E94820321E0892B09F420E0822F0895A2
:1007300080E090E0892B29F00E948E0381110C94B7
:1007400000000895FC01A48DA80FB92FB11DA35A74
:10075000BF4F2C91848D90E001968F739927848FE1
:10076000A689B7892C93A089B1898C918370806404
:100770008C93938D848D981306C00288F389E02DA5
:1007800080818F7D80830895EF92FF920F931F9356
:10079000CF93DF93EC0181E0888F9B8D8C8D981334
:1007A0001AC0E889F989808185FF15C09FB7F89440
:1007B000EE89FF896083E889F9898081837080648C
:1007C00080839FBF81E090E0DF91CF911F910F91D7
:1007D000FF90EF900895F62E0B8D10E00F5F1F4FE6
:1007E0000F731127E02E8C8D8E110CC00FB607FCF5
:1007F000FACFE889F989808185FFF5CFCE010E9483
:10080000A203F1CFEB8DEC0FFD2FF11DE35AFF4F4B
:10081000F0829FB7F8940B8FEA89FB898081806210
:10082000CFCF0F931F93CF93DF938C01D0E0C0E025
:10083000F801EC0FFD1F6491662341F080ED95E017
:100840000E94C403892B11F02196F2CFCE01DF91D3
:10085000CF911F910F910895CF93DF93EC01888D75
:100860008823B9F0AA89BB89E889F9898C9185FD2B
:1008700003C0808186FD0DC00FB607FCF7CF8C91B9
:1008800085FFF2CF808185FFEDCFCE010E94A203CC
:10089000E9CFDF91CF910895833081F028F4813042
:1008A00099F08230A9F008958730A9F08830C9F016
:1008B0008430B1F4809180008F7D03C080918000EE
:1008C0008F7780938000089584B58F7784BD0895D5
:1008D00084B58F7DFBCF8091B0008F778093B0007F
:1008E00008958091B0008F7DF9CFCF93DF93282FAB
:1008F00030E0F901E754FC4F8491F901EB55FC4FCE
:10090000D491F901EF56FC4FC491CC23A1F0811191
:100910000E944C04EC2FF0E0EE0FFF1FE957FC4F54
:10092000A591B491EC91ED2381E090E009F480E091
:10093000DF91CF91089580E090E0FACF1F93CF939D
:10094000DF93282F30E0F901E754FC4F8491F9013F
:10095000EB55FC4FD491F901EF56FC4FC491CC23D9
:10096000A9F0162F81110E944C04EC2FF0E0EE0F3D
:10097000FF1FE358FC4FA591B4918FB7F894EC9109
:10098000111108C0D095DE23DC938FBFDF91CF918A
:100990001F910895DE2BF8CFCF93DF9390E0FC01F9
:1009A000EB55FC4F24918F569C4FFC01849188237A
:1009B000D1F090E0880F991FFC01ED58FC4FA591F4
:1009C000B491FC01E358FC4FC591D491623071F4AD
:1009D0009FB7F8943C91822F809583238C93E88174
:1009E0002E2B28839FBFDF91CF9108958FB7F89466
:1009F000EC912E2B2C938FBFF6CF3FB7F8948091BC
:100A0000B9029091BA02A091BB02B091BC0226B586
:100A1000A89B05C02F3F19F00196A11DB11D3FBF36
:100A2000BA2FA92F982F8827BC01CD01620F711D05
:100A3000811D911D42E0660F771F881F991F4A95FF
:100A4000D1F708958F929F92AF92BF92CF92DF928B
:100A5000EF92FF924B015C010E94FD046B017C014F
:100A60000E94FD046C197D098E099F09683E734040
:100A700081059105A8F321E0821A9108A108B10827
:100A800088EEC80E83E0D81EE11CF11C811491048D
:100A9000A104B10429F7FF90EF90DF90CF90BF90B1
:100AA000AF909F908F90089562E370E080E090E0B7
:100AB0000E9422050C94000090E080E008952FB77A
:100AC000F8946091B5027091B6028091B70290914E
:100AD000B8022FBF0895EF92FF920F931F93CF9309
:100AE000DF9300D000D0CDB7DEB7FA0120E08E0151
:100AF0000F5F1F4F9E2F9F77EE0FEF2FEE1FFF0B05
:100B0000F195309709F09068D801A20FB11D9C9320
:100B10002F5F309779F730E0FB01E21BF30B848302
:100B2000FB01E21BF30B3596D801CD01801B910B25
:100B3000821793071CF48D918193F7CF2F5F3F4F5E
:100B40008091F4069091F5068901040F151F621B30
:100B5000730B6B5F7F4FDC01ED91FC910280F381A1
:100B6000E02DA80109957C010E945F0560930007B4
:100B700070930107809302079093030781E00E159D
:100B80001F0509F080E00F900F900F900F90DF91FC
:100B9000CF911F910F91FF90EF9008958F929F92A8
:100BA000AF92BF92CF92DF92EF92FF92CF93DF93FB
:100BB000EC010E945F054B015C018091F40690916D
:100BC000F506DC01ED91FC910084F185E02D09959D
:100BD000892BB9F40E945F056B017C01C818D90804
:100BE000EA08FB082091FC063091FD06A8EEB3E070
:100BF0000E94093CC616D706E806F906F0F280E026
:100C00000DC08091F4069091F506DC01ED91FC9108
:100C10000284F385E02D0995888381E0DF91CF91EF
:100C2000FF90EF90DF90CF90BF90AF909F908F900C
:100C300008952F923F924F925F926F927F928F9280
:100C40009F92AF92BF92CF92DF92EF92FF920F935B
:100C50001F93CF93DF93CDB7DEB72A970FB6F894E3
:100C6000DEBF0FBECDBF1C018091F6069091F70646
:100C70000E94CE0581111CC060E070E0CB012A9675
:100C80000FB6F894DEBF0FBECDBFDF91CF911F919D
:100C90000F91FF90EF90DF90CF90BF90AF909F901B
:100CA0008F907F906F905F904F903F902F9008951E
:100CB000E091F606F091F706D0801982EE24E394D5
:100CC000F12C812C912C5401412C512C3201439454
:100CD000CE0101960E94CE05882371F287010F5F35
:100CE0001F4F8981E091F606F091F706EE0DFF1D8A
:100CF0008083E981AE2FAF77B0E0A30192010E941B
:100D00009D3B860E971EA81EB91E37E0440C551C4D
:100D1000661C771C3A95D1F7E7FD3FC0BD2DB07F2B
:100D2000BE838FEF800FF1018083B03309F04CC098
:100D30008091F6069091F706800F911F0E94CE05D4
:100D4000882309F499CF2091F6063091F706C70160
:100D50000296820F931F0E94CE05882309F48CCF40
:100D60000E5F1F4FE091F606F091F706D1018C91CE
:100D7000DF01A80FB11D11968C91119790E0982F6B
:100D8000882712962C91820F911D208121FD0296B9
:100D9000F2E0E0E030E020E01DC078010530110510
:100DA00009F096CF8FEF9FEF909318078093170766
:100DB0008091F4069091F506DC01ED91FC91048898
:100DC000F589E02D099558CFF0E0E0E030E020E033
:100DD00090E080E070E060E0CF2EDE2EE32EF22E79
:100DE00028013B014C185D086E087F084A825B822F
:100DF0006C827D822C01712C612C4F825886698611
:100E00007A864A805B806C807D804C0C5D1C6E1CF9
:100E10007F1CC814D904EA04FB0408F046C0CE01C4
:100E200001960E94CE05882309F426CF80911507EC
:100E300090911607009711F12E812033F9F4D1011A
:100E40002C914EEF5FEF6FEF7FEF421B510961096D
:100E50007109440E551E661E771E2F8138854985FF
:100E60005A85241535054605570540F4DC01ED91FA
:100E7000FC910190F081E02D698109958091F8063F
:100E80009091F9060817190750F48981E091F60648
:100E9000F091F706E00FF11F80830F5F1F4FBFEF48
:100EA000CB1ADB0AEB0AFB0AACCF809115079091B5
:100EB0001607892B69F48091F8069091F906B0E045
:100EC000A0E084159505A605B70510F410E000E034
:100ED000B80190E080E0D3CEEF92FF920F931F9382
:100EE000CF93DF93EC018B017A010E945F05688B41
:100EF000798B8A8B9B8B8C819D81DC01ED91FC91A0
:100F00000280F381E02DA701B801DF91CF911F91FD
:100F10000F91FF90EF9009941F93CF93DF93EC0113
:100F2000162F0E945F05688B798B8A8B9B8B8C8137
:100F30009D81DC01ED91FC910190F081E02D612F0C
:100F4000DF91CF911F9109948823E9F0A6E9B4E0DD
:100F500025E014969C91149789130DC095E0899F04
:100F6000F0011124EA56FB4F848114968C9313826E
:100F7000128214820895992331F0929FD001112496
:100F8000AA56BB4FE6CF08958823A1F09091BD02E9
:100F9000992381F08F3F29F48091A3059091A405B6
:100FA000089595E0899FF0011124EA56FB4F828154
:100FB0009381089590E080E008958EBD00000DB407
:100FC00007FEFDCF8EB508951F93CF93DF93182FA3
:100FD000C62FD42F60E08AE00E949E048C2F8F7170
:100FE000812B0E94DD078D2F0E94DD0761E08AE0E2
:100FF000DF91CF911F910C949E04CF93DF93D82F54
:10100000D076909100019D17A1F0C82F43E06FE1C9
:1010100080EA0E94E4074C2F50E085E05595479503
:101020008A95E1F743706FE180E80E94E407D0936E
:101030000001DF91CF9108951F93CF93DF93C82FC5
:10104000162FD72F0E94FD07412F6C2F80E40E949E
:10105000E40761E06C0F4D2F80E4DF91CF911F9189
:101060000C94E407EF92FF920F931F93CF93DF93BB
:101070008B017A018F3F59F095E0899FE00111249F
:10108000CA56DB4F68817981600F711F0FC0609174
:10109000A1057091A205600F711FC1EAD5E061152D
:1010A00088E0780778F37850C1EAD5E080E00E94C4
:1010B0001C088A819B81801B910BE816F90608F4B5
:1010C000C701DF91CF911F910F91FF90EF9008958D
:1010D000EF92FF920F931F93CF93DF93EB0170E09A
:1010E00060E00E9432088C0160E08AE00E949E0469
:1010F0008AE30E94DD077E01E00EF11EEC16FD067C
:1011000029F080E00E94DD078993F8CF61E08AE052
:101110000E949E04C801DF91CF911F910F91FF9013
:10112000EF90089560919F057091A005611571057C
:1011300029F0615071098CE00C941C086FEF77E086
:10114000FACFCF93DF93C82FD62F0E94FD074D2FE4
:101150006C2F80E4DF91CF910C94E407CF93DF9361
:10116000D82FC62F60E08AE00E949E048C2F8F71DA
:101170008D2B0E94DD07C7FF03C080E00E94DD07C2
:1011800080E00E94DD07C82F61E08AE00E949E0493
:101190008C2FDF91CF910895CF93C82F0E94FD0728
:1011A0006C2F80E0CF910C94AE08CF93DF9361E178
:1011B00084ED0E94A10861E082ED0E94A108CFE0C9
:1011C000D0E08AEE0E94CC0880FF0BC06AE070E09D
:1011D00080E090E00E942205219799F790E080E05E
:1011E0000DC060E082ED0E94A10888ED0E94CC084D
:1011F000C82F89ED0E94CC08982F8C2FDF91CF91BA
:101200000895CF93DF93EB01682F84ED0E94A1082E
:10121000BE0186ED0E941C08CFE0D0E08AEE0E945D
:10122000CC0880FF08C06AE070E080E090E00E9497
:101230002205219799F7DF91CF910895CF9380915F
:10124000BD02811148C061E08AE00E94CC0461E0E7
:101250008AE00E949E04CFB7F8948091B302811176
:1012600027C0EBE9F3E08491EFEAF3E09491E82FF3
:10127000F0E0EE0FFF1FED58FC4FA591B491EC91FB
:10128000E92321F461E08AE00E949E0461E08AE0A3
:101290000E94CC048CB580618CBD8CB580648CBD03
:1012A00061E08DE00E94CC0461E08BE00E94CC0400
:1012B0008091B3028F5F8093B302CFBF8CB58C7FD8
:1012C0008CBD8DB581608DBD82E70E94CC088F3FBB
:1012D00021F08093BD02CF9108951092BD02FBCF03
:1012E000CF93C62FBC0182E00E941C0860E08AE018
:1012F0000E949E048AE70E94DD078C2F0E94DD0772
:1013000061E08AE0CF910C949E04CF93BC0180E011
:101310000E941C0860E08AE00E949E048AE30E940A
:10132000DD0780E00E94DD07C82F61E08AE00E94AF
:101330009E048C2FCF910895CF92DF92EF92FF926F
:101340000F931F93CF93DF936C018B0141305105B5
:1013500079F4CB010E948509682FC601DF91CF91F6
:101360001F910F91FF90EF90DF90CF900C94700938
:10137000EA01C60FD71F7E0181E0E81AF10880E17B
:101380000E941C08B60184E10E941C080115184047
:1013900048F4E11488E0F80628F07E0181E0E81ABC
:1013A00088E0F80AB70182E10E941C0840E16FE181
:1013B00080EA0E94E40740E26FE180E80E94E407CF
:1013C0006FE180E00E94AE0885FF07C061E070E039
:1013D00080E090E00E942205F3CFDF91CF911F9132
:1013E0000F91FF90EF90DF90CF900895CF92DF9212
:1013F000EF92FF920F931F93CF93DF938C01609135
:101400009604709197046150784EC12C98E1D92EC2
:10141000E6E9F4E020E0D0E0C0E045E03481CB0133
:10142000332341F0439FC00111248A569B4FDC01B6
:101430008D919C91E080F1808E199F090280F3814B
:10144000E02D8E1B9F0B8017910799F4B5E02B9F21
:10145000E0011124CA56DB4FEBE9F4E081E0228180
:101460003381232B09F453C035968F5F8533B9F749
:1014700044C00817190748F48C159D0530F4249FC3
:10148000E0011124CA56DB4F6C01311121C02097B5
:1014900019F7C6E9D4E085E0D82E8C8128813981FE
:1014A000EA80FB808823D9F0E20EF31E8D9DE001D7
:1014B0001124CA56DB4F68817981E616F70669F375
:1014C0004A815B81C7010E949C09F982E882E5CFCD
:1014D000349FF0011124EA56FB4F232F9FCF8091B8
:1014E000960490919704821B930B8E199F0981504B
:1014F000984E8017910708F0AFCF80E0DF91CF9131
:101500001F910F91FF90EF90DF90CF900895288169
:1015100039814A815B81240F351F318320831383F6
:1015200002839C8194838C83E9CF0F931F93DB010B
:10153000E42FA80190E0EF3FE1F065E0E69FF001C5
:101540001124EA56FB4F60817181620F731F01C045
:10155000785025E0289FF001299FF00D1124EA56CC
:10156000FB4F808191818A0F9B1F1F910F910C94DB
:101570009C096091A1057091A205620F731F61150E
:10158000E8E07E0728F7E1EAF5E0DDCFCF92DF92D1
:10159000EF92FF920F931F93CF93DF936B018A011A
:1015A000790195E0899FE0011124CA56DB4F6881DB
:1015B00079816C0D7D1D82E00E941C080A80DB8110
:1015C000C02DCC19DD09EC16FD0608F4E70160E03A
:1015D0008AE00E949E048AE70E94DD077801EC0EF3
:1015E000FD1EE016F10631F0F80181918F010E9495
:1015F000DD07F7CF61E08AE00E949E04CE01DF9113
:10160000CF911F910F91FF90EF90DF90CF900895B1
:10161000DC011C96ED91FC91309731F08681978129
:10162000982789279827089590E080E00895CF9320
:10163000DF93FC01EB01AC85BD851097A9F01296F4
:101640009C91129713968C9113973C9111962C9123
:101650004AE951E051834083328323839483858315
:10166000CF01DF91CF9108958AE991E09183808342
:101670001282138214821582F3CFCF93DF931F92CD
:10168000CDB7DEB7DC01ED91FC91048CF58DE02D3A
:1016900041E050E0BE016F5F7F4F099518161906B3
:1016A00034F4898190E00F90DF91CF9108958FEF0E
:1016B0009FEFF9CFCF93DF93EC018A89882379F0EC
:1016C0009A01AB016E857F850E94C60A2E853F85F3
:1016D000280F391F3F872E87DF91CF91089590E023
:1016E00080E0FACFCF93DF931F92CDB7DEB7698347
:1016F000DC01ED91FC910280F381E02D41E050E0AE
:10170000BE016F5F7F4F09950F90DF91CF910895D4
:1017100080E00895CF93DF931F92CDB7DEB7698342
:10172000DC01ED91FC910280F381E02D41E050E07D
:10173000BE016F5F7F4F09950F90DF91CF910895A4
:10174000762767277627DC0115967C936E9314978E
:10175000ED91FC910084F185E02D0994089590E0CD
:1017600080E00895FB0141505109460F571FE417CF
:10177000F50778F4208130E0322F22276181260F8F
:10178000311D820F931F8217930708F4019632963A
:10179000EECFE417F50751F4208130E0322F2227F5
:1017A000820F931F8217930708F401960895CF9232
:1017B000DF92EF92FF920F931F93CF93DF93C82F87
:1017C000E0905F02F12CFE2CEE2440916002445127
:1017D000550BE40EF51E48E050E069E672E0C701E3
:1017E0008C0F911D0E94B20B08E0C13129F00091CD
:1017F0007D02069506950C7310E0A80161E772E082
:101800000E94B20BEC010E151F0508F049C0A7019C
:10181000401B510B8091260262E270E081FF02C002
:1018200063E270E0600F711F809127020E9432080E
:1018300001977C0160E08AE00E949E048AE30E9496
:10184000DD07D12CC12CCE14DF04B8F480E00E9457
:10185000DD07082F10E0102F002780E00E94DD0731
:10186000800F912F911DC80FD91FC817D90708F4F1
:10187000219682E0C80ED11CE6CFEC14FD0461F481
:1018800080E00E94DD0790E0982F8827C80FD91FBD
:10189000C817D90708F4219661E08AE00E949E04E7
:1018A0009C2F8D2FCD2B11F48FEF9FEFDF91CF91D8
:1018B0001F910F91FF90EF90DF90CF90089544E13A
:1018C00050E06DE572E090E080E00E94B20B00977E
:1018D00021F098278927982708958FEF9FEF089583
:1018E000CF93DF93EC01AC81BD81EEEBF2E08A8116
:1018F0009B8191838083B383A283FA018481958144
:10190000E7E4F2E0DA0112964D915C915183408355
:1019100093838283E9018C819D81EBE4F2E02A814B
:101920003B813183208393838283FB018281938176
:10193000A481B5818093D4069093D506A093D60652
:10194000B093D706DF91CF910895FF920F931F9325
:10195000CF93DF93C0912602C1FF66C0209124027D
:1019600030E04FE452E061E070E0809127020E9495
:10197000C60ACD7FC0932602F09027028091BD0257
:10198000882309F444C085E0F89EF0011124EA564A
:10199000FB4F00811181C281D381C00FD11F60E054
:1019A000C8010E947009B80184E00E941C08BE01B1
:1019B0006850710986E00E941C081AE0249740E8EC
:1019C0006FE180E80E94E40740E86FE180EA0E944E
:1019D000E4074AE06CE180EA0E94E40748E06FE136
:1019E00080E80E94E4078CE10E94CC08082F8A70EE
:1019F000D1F348E06FE180EA0E94E40701FF2DC0C7
:101A0000CE010E94850985FF02C01150C1F6C0E0D9
:101A10008F2D0E94A407109227028C2FDF91CF9167
:101A20001F910F91FF900895C0913F02D091400205
:101A3000CE01089621F410922702C0E0EECF0E945A
:101A4000F609809327028823C1F39E014FE452E0F8
:101A500061E070E00E94C60A8FCFC1E0D9CF0F933A
:101A60001F93CF93DF93EC018C010B5F1F4F899184
:101A70000E94A407FE0131971082C017D107B9F761
:101A8000DF91CF911F910F910895CF93DF93EC01D8
:101A900088810E94A407FE01CE0104962181219332
:101AA000E817F907D9F71C82DF91CF910895CF93FA
:101AB000DF93EC01E881F981008CF18DE02D09952F
:101AC000882339F08C859D850296DF91CF910C9407
:101AD0002F0DDF91CF9108950F931F93CF93DF9335
:101AE0001F92CDB7DEB78C01DC01ED91FC91008C2B
:101AF000F18DE02D09958823B1F0D8011C96ED9168
:101B0000FC918281882379F041E050E0BE016F5F53
:101B10007F4F0E946808898190E00F90DF91CF91FC
:101B20001F910F9108958FEF9FEFF7CFCF93DF9322
:101B30001F92CDB7DEB7DC01ED91FC910288F389ED
:101B4000E02D41E050E0BE016F5F7F4F0995181610
:101B5000190634F4898190E00F90DF91CF910895B8
:101B60008FEF9FEFF9CF6F927F928F929F92AF92FC
:101B7000BF92CF92DF92EF92FF920F931F93CF937A
:101B8000DF938C014B01EA01DC01ED91FC91008CAB
:101B9000F18DE02D0995882309F47BC0D8011C96AE
:101BA000ED91FC918281882309F476C07E018EE15B
:101BB000682EBE016E197F09680D791DD8011C962B
:101BC000ED91FC91A70182810E9468086C01F801E7
:101BD000A484B584D50112967C90872D0E94C407F9
:101BE000C816D906E9F5EC18FD08C50102960E9451
:101BF000450DF801A485B585EC916E9EF001112488
:101C0000EB5EFB4F818D84FF09C011968C9111977B
:101C1000982F967019F4886011968C93D8011C96B1
:101C2000ED91FC911D97828181112EC0818182FFEF
:101C300005C011821D961C921E921C97CE018E1912
:101C40009F09DF91CF911F910F91FF90EF90DF904F
:101C5000CF90BF90AF909F908F907F906F9008959E
:101C6000B5E07B9EF0011124EA56FB4F8081918103
:101C70008C0D9D1D91838083828193818C199D0998
:101C800093838283CE01DDCFE114F10409F091CF7B
:101C9000F9CF8FEF9FEFD5CF90E080E0D2CFEF92DA
:101CA000FF920F931F93CF93DF93EC01E881F981AB
:101CB000008CF18DE02D09958823E1F00C851D85C0
:101CC000780182E0E80EF11C095F1F4FD0E0C0E010
:101CD000F70181917F010E94C407C80FD91FE01648
:101CE000F106B1F7CE01DF91CF911F910F91FF90D7
:101CF000EF900895D0E0C0E0F5CFFC014485558514
:101D00004115510551F0FB0124853585211531051B
:101D100021F081E04217530709F080E00895DC01CB
:101D20001C96ED91FC91309731F08281811105C0B4
:101D300081818170089580E0089581E00895DC013B
:101D4000ED91FC91028CF38DE02D099591E08927AE
:101D50000895DC01ED91FC91048CF58DE02D099442
:101D600090917E03992339F0E091C202F091C30271
:101D7000309709F009940895CF93DF93EC01FE01A9
:101D800084912196882319F00E94B00EF8CFDF913C
:101D9000CF9108950E94BC0E80E793E00C94BC0E96
:101DA0008FE890E00E94CA0E8FE790E00E94CA0E72
:101DB00088E690E00E94CA0E90E080E00895CF93FC
:101DC000DF93EC018991811103C0DF91CF910895D8
:101DD0000E94B00EF7CF0E94DF0E8DE693E00C94C8
:101DE000BC0EECE0F3E030E020E040815181452B77
:101DF00021F442815381452B41F02F5F3F4F3496B0
:101E00002530310591F780E00895220F331F220F0E
:101E1000331FF901E45FFC4F9183808373836283F6
:101E200081E008950E941E098091BD02882381F0FF
:101E30000E94D50892FD0FC082E090E020918C03B3
:101E400030918D032817390711F00C940000089584
:101E500090E080E0F3CF81E090E0F0CF682F80ED5C
:101E600095E00C94C403CF93DF93EC0180ED95E0F3
:101E70000E948203009739F080ED95E00E94600394
:101E8000888381E090E0DF91CF910895CF93DF9335
:101E900000D0CDB7DEB781E190E00E94683B898336
:101EA00082E190E00E94683B8A8389819A81019750
:101EB0008E3F9F4F20F08BE597E09A83898389813D
:101EC0009A810F900F90DF91CF9108950C94683B09
:101ED000FF920F931F93CF93DF93EC018CE090E080
:101EE0000E94660F182F8BE090E00E94660F082F6B
:101EF0008AE090E00E94660FF82E89E090E00E9450
:101F0000660F2AE931E0398328838A83FB820C83B8
:101F10001D83CE01DF91CF911F910F91FF90089506
:101F2000FF920F931F93CF93DF93EC0180E190E03A
:101F30000E94660F182F8FE090E00E94660F082F16
:101F40008EE090E00E94660FF82E8DE090E00E94F7
:101F5000660F2AE931E0398328838A83FB820C8368
:101F60001D83CE01DF91CF911F910F91FF900895B6
:101F70000F931F93CF93DF9300EB15E0C3E1D0E005
:101F8000CE010E94660FC33131F48F3F69F0882380
:101F900059F0843149F0F80181938F01882321F0B1
:101FA0002196C333D10561F78091B005811106C038
:101FB0006CE971E080EB95E00E94363E80EB95E0A5
:101FC000DF91CF911F910F910895CF92DF92EF9201
:101FD000FF920F931F93CF93DF937C01EB016091EE
:101FE000F8067091F906CE010E941E3B8C010E94FA
:101FF0009302882309F440C0C090F806D090F906F7
:10200000B601C7010E941E3B9801295F3F4F820F16
:10201000931FC816D90680F16091F6067091F706F5
:1020200045E050E0C7010E9471027E01E00EF11E02
:10203000FE01EC01CE1BDF0BAE014E0F5F1F609166
:10204000F6067091F706EE15FF0531F02191640F49
:10205000751FDB012C93F0CF05501109A801480F23
:10206000591F80E3DF91CF911F910F91FF90EF9067
:10207000DF90CF900C946B0580E0DF91CF911F91A2
:102080000F91FF90EF90DF90CF9008950F931F93E3
:10209000CF93DF93EC010091F8061091F906B80197
:1020A0000E941E3B209709F441C0099608171907A2
:1020B000E8F10E9493028823C9F18091FE06909175
:1020C000FF06019681F19093FF068093FE06E09152
:1020D000F606F091F7068091FF068583E091F606FB
:1020E000F091F7068091FE0686836091F606709166
:1020F000F70647E050E0CE010E947102E091F6063B
:10210000F091F706E80FF91F1082AC014450510915
:102110006091F6067091F70682E8DF91CF911F91EA
:102120000F910C946B0581E090E0CDCF80E0DF91C2
:10213000CF911F910F9108958F929F92AF92BF926E
:10214000EF92FF920F931F93CF93DF93CDB7DEB73C
:10215000A1970FB6F894DEBF0FBECDBF7C01FA0188
:10216000CB0119A2223008F42AE08E010F5D1F4F27
:10217000822E912CB12CA12CBF01A50194010E94AB
:10218000E73BF901CA016A3074F5605DD8016E93CE
:102190008D01232B242B252B79F790E080E01097DD
:1021A00089F0FD0101900020E9F73197AF014A1B4A
:1021B0005B0BD701ED91FC910280F381E02DB8011A
:1021C000C7010995A1960FB6F894DEBF0FBECDBF2B
:1021D000DF91CF911F910F91FF90EF90BF90AF9043
:1021E0009F908F900895695CD1CF8F929F92AF920C
:1021F000BF92CF92DF92EF92FF920F931F93CF93F4
:10220000DF937C01EB016C0182E0C80ED11C470119
:10221000E5E08E0E911C10E000E0F60141916F01A7
:1022200050E070E060E02AE0CE010E949C105C016A
:10223000E881F9810190F081E02D6EE2CE010995EF
:102240008A0D9B1D080F191FC814D90431F7F70117
:10225000458150E070E060E02AE0CE010E949C10D1
:10226000800F911FDF91CF911F910F91FF90EF9001
:10227000DF90CF90BF90AF909F908F90089542E0F5
:1022800050E067EA71E080ED95E00C94F202CF93A4
:10229000DF930E941104EC010E943F118C0F9D1FDF
:1022A000DF91CF910895CF93DF930E945F05665031
:1022B0007F4F8F4F9F4F6093AC057093AD05809318
:1022C000AE059093AF050E941E091092A2051092D0
:1022D000A1051092A4051092A305E6E9F4E089E0B7
:1022E00091E0DF019C011D9221503040E1F781E037
:1022F00098E090939704809396044FEF60E08FEFFF
:102300000E94E40762E070E080E090E00E94220515
:1023100062E370E080E090E00E9422051092A00548
:1023200010929F05C0E1D0E06DE180E00E94AE0810
:10233000811109C0219739F06AE070E080E090E0F7
:102340000E942205F1CF70E060E088E00E941C0846
:1023500070E060E08CE00E941C086FEF77E08AE09C
:102360000E941C0861EB88E30E94A1086FE370E300
:1023700088E20E941C0869EF77EF80E30E941C0846
:102380006DE070E080EC0E941C0842E362EC80E8A3
:102390000E94E40762E17CE086EC0E941C0862E196
:1023A00084EC0E94A1086CED75E08AEC0E941C0888
:1023B0006091010184EE0E94A1086091020185EE06
:1023C0000E94A1086091030182EE0E94A108609121
:1023D000040183EE0E94A1086091050180EE0E9435
:1023E000A1086091060181EE0E94A10860E071E001
:1023F00080E10E9401098FE10E94FD0740EC6BE142
:1024000080E80E94E40744E06FE180E80E94E4076E
:1024100066E774E084E10E940109809101018093E4
:10242000A605809102018093A70580910301809306
:10243000A805809104018093A905809105018093EE
:10244000AA05809106018093AB0510928E0410922C
:102450008D041092900410928F04109292041092A6
:102460009104109294041092930410922E041092EE
:102470004C0410926A041092880480E094E09093D7
:102480001404809313041092EC031092EB03109247
:10249000F7031092F60310920204109201041092B6
:1024A0000D0410920C0484E0809395041092E603CE
:1024B0009BE024E08091E603883018F0DF91CF9113
:1024C0000895899FF0011124E257FC4FDF01322F5C
:1024D0001D923A95E9F78F5F8093E603EBCFAF92B9
:1024E000BF92CF92DF92EF92FF920F931F93CF9301
:1024F000DF93CDB7DEB768970FB6F894DEBF0FBE97
:10250000CDBF8C017B016A0159010E9453118AE9F8
:1025100091E09A838983F5014281538164817581B9
:102520004B835C836D837E8398878F83F601428122
:1025300053816481758149875A876B877C879E8721
:102540008D87F70142815381648175814F87588B54
:10255000698B7A8B9C8B8B8BF80182819381A48110
:10256000B5818D8B9E8BAF8BB88F9E012F5F3F4FB8
:10257000AE01495F5F4FBE01635F7F4FCE0143965F
:102580000E94700C68960FB6F894DEBF0FBECDBFE8
:10259000DF91CF911F910F91FF90EF90DF90CF903F
:1025A000BF90AF9008950F931F93CF93DF93DC01FB
:1025B00020911304309114042F5F3F4F21158DE7B4
:1025C000380710F020E030E1522F432FE7EEF3E020
:1025D000EF0180E08430A1F43093140420931304BD
:1025E00030E020E02430310599F484E080939504B4
:1025F000F0E0E0E0CF01DF91CF911F910F910895BE
:102600000C811D818F5F2B960417150719F7D4CF06
:10261000C481D581C90101963B96CD2B09F5209344
:1026200095048BE0829FF001839FF00D1124E95106
:10263000FC4F5583448377836683109799F484E035
:10264000DF011D928A95E9F78BE0829FD001839F7D
:10265000B00D1124A951BC4F80E418968C93CACFB9
:102660009C01C0CF8D919C9111979183808312968C
:102670008D919C9193838283E7CF0F931F93CF9388
:10268000DF93EC018B018C859D85892B41F470E0F3
:1026900060E090E080E00E94D3129D878C87EC85FB
:1026A000FD8580E0309749F010270127102715831A
:1026B00004832E96D287C18781E0DF91CF911F914D
:1026C0000F910895CF93DF93DC011C96ED91FC915F
:1026D0003097B1F0EC0115821482128611861D86A6
:1026E0001C8689890E94A40788890E94A4078A8978
:1026F0000E94A4072E9686E0FE0111928A95E9F7C2
:10270000DF91CF910895FC011382128288EE93E04D
:10271000A0E0B0E084839583A683B7838CE191E049
:1027200091838083158614863E9686E0DF011D9294
:102730008A95E9F70895CF93DF93EC01EEEFF1E08E
:1027400086E2DF011D928A95E9F70E94B80FBC016D
:102750008EEF91E00E94363E6AEA71E08EEF91E0E2
:102760000E94363EBE018EEF91E00E94363E8EEF13
:1027700091E0DF91CF910895EF92FF920F931F9315
:10278000CF93DF938C01EB017A0181EB91E00E9402
:102790009B13BC01C8010E94413E892B31F183EBA0
:1027A00091E00E949B13BC01C8010E94413E892B0D
:1027B00089F185EB91E00E949B13BC01C8010E9446
:1027C000413E892B49F187EB91E00E949B13BC01AC
:1027D000C8010E94413E16E0892B41F0DF91CF9164
:1027E0001F910F91FF90EF90089519E082E0E81695
:1027F000F104A1F488818F3489F7898161E08E34F6
:1028000069F7812FDF91CF911F910F91FF90EF908A
:102810000C949E0418E0EACF17E0E8CF83E0E816B6
:10282000F10459F488818F34C9F689818634B1F670
:102830008A81863499F660E0E4CF86E0E816F104F8
:1028400069F68881843551F689818F3439F68A8119
:10285000873421F68B81873409F68C818C3409F01A
:10286000BDCF8D81853409F0B9CF812F0E947504C9
:1028700061E0892B31F2DFCFEF92FF920F931F932C
:10288000CF93DF937B01039761F5FB01C281D38175
:1028900061EB71E0CE010E94413E892B09F070C0CE
:1028A00081EB91E00E949B138C01C9E0F701E48069
:1028B000F58069EB71E0C7010E94413E892B09F464
:1028C000A4C06CEB71E0C7010E94413E892B09F462
:1028D00081C060EC71E0C7010E94413E892B09F480
:1028E00085C085E693E00E94BC0E83E493E00E94DD
:1028F000CA0E85E393E00E94CA0E88E293E00E942C
:10290000CA0E8CE193E00E94BC0E89E00E9475041F
:10291000019709F453C089E093E00E94CA0E80E158
:1029200093E00E94BC0E88E00E947504019709F4B0
:1029300048C089E093E00E94CA0E8DEF92E00E94A9
:10294000BC0E87E00E9475040197F1F189E093E0E5
:102950000E94CA0E81EF92E00E94BC0E86E00E94A7
:1029600075040197A1F189E093E00E94CA0E90E0FE
:1029700080E0DF91CF911F910F91FF90EF9008952C
:1029800063EB71E0CE010E94413E892B39F483EB69
:1029900091E00E949B138C01C8E088CF65EB71E049
:1029A000CE010E94413EC0E0892B09F07FCF81EB30
:1029B00091E00E949B138C01C7E078CF8DE093E0FB
:1029C000ACCF8DE093E0B7CF8DE093E0C1CF8DE049
:1029D00093E0CBCFCC2309F484CF8C2F0E947504D5
:1029E000D1E0892B09F4D0E060E01AC0CC2309F4CF
:1029F00078CF8C2F0E94750461E0892B09F060E08C
:102A00008C2F0E949E04D1E00EC0CC2309F469CF24
:102A10008C2F0E947504D1E0019709F4D0E061E0A9
:102A20008C2F0E949E040E949302882309F459CFA0
:102A3000DD2309F456CF8C2F0E9475046CEB71E0F6
:102A4000019711F469EB71E0C8010E94E50F49CFCD
:102A50000F931F93CF93DF9300D000D0CDB7DEB795
:102A60008C01FC0182814AE0BE016F5F7F4F90E0E4
:102A70000E943E3BCE0101960E94DF0E87EC91E062
:102A80000E94DF0EF80183814AE0BE016F5F7F4F35
:102A900090E00E943E3BCE0101960E94DF0E87EC43
:102AA00091E00E94DF0EF80184814AE0BE016F5F71
:102AB0007F4F90E00E943E3BCE0101960E94DF0EC8
:102AC00087EC91E00E94DF0EF80185814AE0BE01AB
:102AD0006F5F7F4F90E00E943E3BCE0101960E94C7
:102AE000DF0E0F900F900F900F90DF91CF911F91FD
:102AF0000F910895DC018AE991E08D939D9384E024
:102B0000FB0101900D928A95E1F70895EF92FF92F3
:102B10000F931F93CF93DF93FC011092E603CEE84F
:102B2000D3E0DE0130E020E02830310569F490E0A8
:102B3000983009F042C010923E0210923D0210926D
:102B4000E6032EE833E044C0CD018E5893400D914A
:102B50001C9111970115110561F112964D915C912F
:102B600013974115510529F1E080F1800E151F05DD
:102B700001F50281138140175107D9F42093E60330
:102B8000DC01AE56BC4F86E0FB0101900D928A95A8
:102B9000E1F78BE0829FF001839FF00D1124E25753
:102BA000FC4F1286DF91CF911F910F91FF90EF9014
:102BB00008952F5F3F4F1B96B7CF9E0148815981E3
:102BC000452BB1F44A815B81452B91F49093E60348
:102BD00084E0D90101900D928A95E1F7D90114960C
:102BE00086E0FB0101900D928A95E1F7F901D9CFBA
:102BF0009F5F2B969DCFEF92FF920F931F93CF93E2
:102C0000DF9300D000D000D0CDB7DEB740916D0289
:102C100050916E024F3F540731F480916F029091B2
:102C20007002019619F18091BE029091BF026091ED
:102C30004B0270914C029B0120953095282B392B2B
:102C400042175307A9F520914D0230914E0220956D
:102C50003095E091C002F091C1022E2B3F2BE09104
:102C60006F02F0917002E217F30711F586E0E0E4DD
:102C7000F1E0AFE4B2E001900D928A95E1F786E0D1
:102C8000E6EAF5E0A5E5B2E001900D928A95E1F75C
:102C900088E090E090935C0280935B0280913F0219
:102CA000909140020E969093400280933F02A5C0FF
:102CB0008427952786239723892B99F420916F02E7
:102CC000309170028091C0029091C10282279327B7
:102CD00060914D0270914E0286239723892B09F44F
:102CE00099C080914702909148029093440280934A
:102CF00043028091490290914A0290934602809348
:102D00004502E0904302F090440200914502109188
:102D10004602EEE8F3E080E0883009F084C080935A
:102D2000E60346E050E06FEF70E08FE492E00E942F
:102D30002F3E86E0EFE6F2E0DF01282F1D922A9574
:102D4000E9F7E6EAF5E0A5E5B2E0982F01900D92EB
:102D50009A95E1F7E6EAF5E0A5E6B2E0982F019052
:102D60000D929A95E1F7F0927602E0927502109337
:102D70007802009377022091BE023091BF02309317
:102D80006C0220936B022091C0023091C1023093FB
:102D90006E0220936D0220E031E0309364022093B4
:102DA000630230935E0220935D0228E030E03093AE
:102DB000600220935F028093610294E0909362022C
:102DC00028E036E030935C0220935B0225E832E095
:102DD00030934202209341022AE230E030934002D5
:102DE00020933F02BE016F5F7F4FDB011D928A95EA
:102DF000E9F783E492E00E94861526960FB6F894D0
:102E0000DEBF0FBECDBFDF91CF911F910F91FF901D
:102E1000EF9008955093440240934302309346024A
:102E2000209345026ECF20813181E216F306E1F452
:102E30002281338102171307B9F49481911103C0E1
:102E40009581992329F08093E603349686E011CF8B
:102E500096819111F8CF97819111F5CF90859111BD
:102E6000F2CF91859111EFCF8F5F3B9655CFCF93E6
:102E7000DF93EC010E94FB1580913F02909140028C
:102E80008A9759F410922702809126028D7F8093B1
:102E90002602DF91CF910C94A50C0E94A50C1D82F7
:102EA0001C82DF91CF9108959C01AB0170933C028D
:102EB00060933B021616170654F4809139029091E4
:102EC0003A028217930719F0B9010C94143E089541
:102ED000EF92FF920F931F93CF93DF93E091300215
:102EE000F0913102C185D285209709F456C0E09057
:102EF0003602E1FE1FC08A8181111CC080917102DF
:102F000090917202978386838091690290916A0200
:102F10009183808380916B0290916C029383828372
:102F200080917502909176029827892798270897B3
:102F300009F51A82E3FE31C08D81882371F18C81FD
:102F400080932702809126028260809326028AE283
:102F500080932402688179816B52710980914102CA
:102F600090914202DF91CF911F910F91FF90EF90CE
:102F70000C9454170E94F609F82E8A838823D1F204
:102F80000E94C4078C012AE230E04091250270E0E3
:102F900060E08F2D0E94950ACDCFDF91CF911F91D8
:102FA0000F91FF90EF900895AF92BF92CF92DF9272
:102FB000EF92FF920F931F93CF93DF93E09037022E
:102FC000F0903802F701C48DD58DD090360220974D
:102FD00081F5D6FC03C0F12CE12CC3C0E4ECF2E097
:102FE00090E080E0218121117EC042E1489F900164
:102FF000499F300D1124E901CC53DD4FC7018551A4
:103000009440959587956FEE7EEE869FA001879FF1
:10301000500D969F500D1124488381E089832A53D7
:103020003D4F81E1F90111928A95E9F7F701D58FBA
:10303000C48FD1FE30C000913F02109140020115B3
:10304000110549F18981867031F55E01F2E0AF0E1C
:10305000B11CC12CF50181915F0181114BC0C801E8
:103060000E94F609F50131978083882309F442C054
:1030700020914102309142022F543240409125026A
:1030800070E060E00E94950AF4E0CF1204C0F701FE
:10309000818D8061818F898183FF0AC0877F8983C9
:1030A0008D2D826080933602F701818D8F7E818F16
:1030B0008091360284FD04C087FD02C085FF26C0D2
:1030C000CE0107960E942F0D8A818823E9F0F7012F
:1030D0008481958198878F83898184608983F701B2
:1030E000158E148E78CF019672968430910509F072
:1030F00079CF71CFC394F5E0CF12ACCF8091260287
:103100008E7F80932602C3CF1982E9CF80FF3FC014
:10311000CE0107960E94450D8F818823D1F19885B5
:10312000911145C0EC84FD84E114F10409F453CFFE
:1031300095E0899FF0011124EA56FB4FF382E28269
:1031400000914102109142020F5412400093240258
:103150001127C80108968E0D9F1D009779F51092D2
:103160002702B70180914102909142020E945417B8
:10317000F0924002E0923F02DF91CF911F910F91B8
:10318000FF90EF90DF90CF90BF90AF9008958C703C
:1031900019F6898181FF1FCF8F81811124C0198287
:1031A000F701158E148E80E18093360214CF0E94B1
:1031B000C4077C01892B09F40ECFC2CF0E94F60907
:1031C00080932702882369F2B8016F5F7F4F8701E0
:1031D00030E020E04F810E94950A809126028260B3
:1031E00080932602BECFF701818D8061818FF3CE5F
:1031F000AF92BF92CF92DF92EF92FF921F93CF9345
:10320000DF93843009F458C1C0913702D09138025D
:1032100025E832E0309342022093410230933A0293
:10322000209339028330C9F4898D8F70833009F07F
:1032300044C088899989892B09F03FC088E0809330
:1032400036020E94D4178091360285FF13C6109271
:103250003C0210923B02198E51C0823009F005C128
:10326000809135028F5F80933502811113C0809168
:1032700034028F5F8093340281110CC0809133023D
:103280008F5F80933302811105C0809132028F5F7E
:10329000809332021092400210923F0210923C0240
:1032A00010923B02898D982F9D7F953059F48A8D1D
:1032B0008F5F8A8F883709F4198E1092400210921E
:1032C0003F0231C28823C9F328893989232B09F4A5
:1032D000C7C09A8D2FEF290F2A8F9111EECF9B8DAA
:1032E000983031F02FEF280F223050F4953041F410
:1032F000198E80E8809336020E94D41784E184C03E
:10330000392F953008F034E023E001C0220F3A95C0
:10331000EAF72A8F9F5F9B8F8F70833009F47DC0FF
:1033200008F06AC0813009F406C4823031F6109288
:103330007E0280917E02826080937E0282E0809392
:10334000850294E09093860280938702109288020F
:103350008CE290E09093400280933F0280E680935D
:103360007D02888580937902898580937A028A8597
:1033700080937B028B8580937C028C858093750281
:103380008D85809376028E85809377028F858093DA
:10339000780286E0809366028C819D819093720210
:1033A000809371028E819F81909374028093730247
:1033B0008091BE029091BF0290936A02809369024D
:1033C0008091C0029091C10290936C0280936B0235
:1033D0008881998190936E0280936D028A819B818E
:1033E0009093700280936F02898D84FFC9C51092FB
:1033F000800210927F02D5C2863029F0883019F001
:10340000843009F05ACF81E180937E0288E290E017
:103410009093400280933F0221C084E08093360263
:103420000E94D4178091390290913A0290934202FF
:103430008093410280913B0290913C02892B09F4D8
:103440004AC588899989009709F445C5889690935B
:10345000400280933F0288E180937E0280E57FCF27
:103460008F70833009F029CFE9CE853009F0A9C0EB
:10347000E0913002F091310284819581892B09F429
:103480001CCF109238021092370289E792E0909395
:1034900042028093410290933A0280933902109243
:1034A0003C0210923B021092400210923F0288E0D0
:1034B000809336020E94681780913B0290913C02F3
:1034C000009709F4FACE9C01245E3F4F30934002EE
:1034D00020933F0230935F0220936002E09130021C
:1034E000F091310220852093650221E1209366024C
:1034F00008969827892798279093760280937502DB
:1035000010927802109277028481958190937202D2
:1035100080937102868197819093740280937302E5
:103520008091BE029091BF0290936A0280936902DB
:103530008091C0029091C10290936C0280936B02C3
:103540008081918190936E0280936D02828193813C
:103550009093700280936F0285E892E0909342020C
:103560008093410281E10E94D70B8095909500974E
:1035700009F45BC1909378028093770285E480938D
:103580005D0210925E0210926402109263028091BA
:103590002802909129020196909329028093280293
:1035A0009093610280936202109268021092670207
:1035B0000E945F0C809590959093680280936702BB
:1035C000B2C080915D02853409F077CEC0905F0271
:1035D000D12CDC2CCC2480916002C80ED11C8091AF
:1035E0003F02909140028C159D0508F466CED09262
:1035F0004002C0923F02809163028F7309F05DCE5A
:1036000010916402111159CEA090BE02B090BF0279
:10361000A114B10439F48091C0029091C102892BA8
:1036200009F441C020916D0230916E0280916602D2
:10363000813149F52F3F320739F480916F02909123
:103640007002019609F47DC080914B0290914C026A
:10365000809590958A299B2982179307A1F48091E0
:103660004D0290914E02809590954091C0025091EC
:10367000C102842B952B40916F0250917002481724
:10368000590709F45EC0A216B30609F016CE2091C0
:103690006F02309170028091C0029091C102281790
:1036A000390709F00ACE0E945F0C019609F005CE99
:1036B00080916602863009F4BBC0813109F441C0B3
:1036C000813009F0FACD80917102883009F0F5CD92
:1036D000109271028091730290917402873F4FEFB4
:1036E000940768F109969093740280937302809115
:1036F000690290916A0290936E0280936D028091AC
:103700006B0290916C029093700280936F02B09262
:103710006A02A09269028091C0029091C1029093C6
:103720006C0280936B0210923602DF91CF911F9151
:10373000FF90EF90DF90CF90BF90AF9008950896E4
:10374000D2CF8CE1C81AD108D0924002C0923F0279
:1037500089E792E090934202809341028091770240
:1037600090917802892BE1F4409173025091740298
:103770006091710270917202A0916902B0916A0227
:10378000C0916B02D0916C02E7EEF3E023E134E0EC
:103790002E173F0761F430933102209330028DCD14
:1037A00081E10E94D70B019609F087CDDDCF84819E
:1037B00095810097C1F184179507A9F586819781B6
:1037C000009719F08617970771F58081918100970E
:1037D000D1F4E280F380EF28F1F4F0933102E0932A
:1037E0003002109238021092370282E08093360243
:1037F00089E792E090933A028093390210923C025A
:1038000010923B0257CE8F3F980729F4E280F38055
:10381000EF20E09411F38A179B0729F482819381AA
:10382000C817D907D1F23B96B3CF8FEF9FEFA2CE47
:1038300086E00E94D70B019609F03FCD40917302BC
:1038400050917402609171027091720280916902CC
:1038500090916A02E0916B02F0916C02C5E1D4E0B4
:10386000298D2223A9F0AC81BD814A175B0781F421
:10387000AE81BF816A177B0759F4A881B9818A1785
:103880009B0731F4AA81BB81EA17FB0709F45BC1EE
:103890006E9624E0CF36D20719F310F380917E02A2
:1038A0008F73823061F450932F0240932E02EDE823
:1038B000F4E080E0843009F091C080939504809119
:1038C0007E0282FDFACC84E180937E0288E290E061
:1038D0009093400280933F0280E580937D02309177
:1038E000780280917C028093780220917702809107
:1038F0007B028093770220937B02909176028091E5
:103900007A028093760290937A0280917502809376
:1039100095044091790240937502809379023F5F4C
:1039200030937C0231110DC02F5F20937B02211157
:1039300008C09F5F90937A02911103C08F5F8093BC
:103940007902809171029091720290932F0280937C
:103950002E022091730230917402309372022093F0
:103960007102909374028093730280916902909126
:103970006A0290936E0280936D0280916B02909127
:103980006C029093700280936F02B0926A02A092D0
:1039900069028091C0029091C10290936C02809361
:1039A0006B0280E48093650280913F029091400217
:1039B00090935F02809360021092840210928302BF
:1039C000109282021092810286E00E94D70B8095AD
:1039D00090959093820280938102D0CD2191319174
:1039E0008F5F4217530709F065CF10929504E5E108
:1039F000F4E090E080E0D0E0C0E08430910531F464
:103A000084E080939504209781F457CC3E2F2F2F8C
:103A1000A18DA11163C0809395042EE1289FE00140
:103A2000299FD00D1124CB5EDB4FD0933802C09379
:103A3000370283E08A8F888F1E8A84E08F8B1B8EEB
:103A40005D834C837F836E838091690290916A02CB
:103A50009983888380916B0290916C029B838A8307
:103A600081E0898F809132028C87809133028D872B
:103A7000809134028E87809135028F8781E090E0BB
:103A8000998B888B809178028B87809177028A87C7
:103A900080917602898780917502888781E090E025
:103AA0000E94BB3080917D02982F907F913508F461
:103AB00042C082958F708550990B880F991F880F8F
:103AC000991FE12FF0E0E817F9072CF4E15BFD4FB7
:103AD00036A9311112C0109395042DC0A73031F4CE
:103AE000209731F0B28DAA8DAB1710F03C2F2D2FFF
:103AF00001967E96C32FD22F80CF313011F41F5FF5
:103B0000E0CF27A93230D9F42430C9F410939504BA
:103B100080AD91AD89279827892790932F028093B4
:103B20002E02813042E0940710F080E092E09B8BFF
:103B30008A8B9D8B8C8B80E180937E02FACB222333
:103B400051F2120FBECFD0933802C09337021092B9
:103B5000360290917E0292FF07C0198E80E2809318
:103B600036020E94D417A9CB80917D0282958F7076
:103B7000880F880F80939504C81AD108760184E1D4
:103B8000E81AF108F0924002E0923F022F702230D2
:103B900021F4892F8F738231D1F0E114F10419F4EB
:103BA000892F8370A1F039852A858B855091750204
:103BB00048855413C0C1409176024313BCC1309173
:103BC00077023213B8C1209178022813B4C194FF50
:103BD00049C0688979896115710509F443C0CE012E
:103BE0000C960E9488303091790280912A02381315
:103BF00039C020917A0280912B02281333C0909112
:103C00007B0280912C0298132DC080917C02409100
:103C10002D02841327C03C872D879E878F87988D20
:103C20008B8D811118C08E892A8D921B282F269585
:103C300026952695921B890F8E8B97FD91952F893E
:103C4000322F36953695231B920F9F8B869586953E
:103C50008695890F888F81E080933602888D8A8FC0
:103C6000198A188A298DE22FEF70E150E83008F0A8
:103C700024CBF0E0E25CF14E0C94183C461E5F1E33
:103C8000C91E7E1FA71FB81F9B1F771F809136027A
:103C900080FF13CB83E0898F80E480933602198AFA
:103CA000188AE114F10431F082E480933602C701EE
:103CB0000E94BB3010923C0210923B02C2CA80911B
:103CC000360280FF5FC080917E028F73823109F0DF
:103CD00059C080917D02982F907F913598F18295FF
:103CE0008F708550990B880F991F880F991FE12FAE
:103CF000F0E0E817F9072CF4E15BFD4F36A931112C
:103D000003C0109395041EC0313011F41F5FEFCF34
:103D100027A9323099F5243089F51093950480ADA8
:103D200091AD89279827892790932F0280932E029F
:103D3000813012E0910710F080E092E09B8B8A8B3B
:103D40009D8B8C8B83E0898F809175028887809111
:103D500076028987809177028A87809178028B87A3
:103D600081E090E00E94BB3082E480933602198AA1
:103D7000188A1092400210923F029CCF222309F22F
:103D8000120FB5CF80E2809336020E94D417198EAD
:103D900096CD80917E0280FF20C024FD1EC08889C0
:103DA0009989892B09F089CAC60143970E94BB30C3
:103DB00080913602982F906190933602EF2819F087
:103DC0008261809336020E94D41781E090E0998B43
:103DD000888B88E0898F1B8E16CB85FF14C080915D
:103DE000830290918402982789279827AC014B572A
:103DF0005D4F5093420240934102E81AF90AF09253
:103E00004002E0923F0240913F0250914002909167
:103E100036024115510541F024FD06C09260909391
:103E20003602CA010E94BB3080917F02282F30E009
:103E3000322F222780918002820F932F911D909321
:103E40002F0280932E022C893D892817390710F004
:103E5000892B21F430932F0220932E0280912E0281
:103E600090912F029B8B8A8B80913602837009F48C
:103E700024CA20CF84FF0AC010923C0210923B0259
:103E800081E090E0998B888B84E0A4CF20913B0265
:103E900030913C0221153105B9F080FF02C0198A2A
:103EA000188A88899989009789F48A899B89821759
:103EB000930720F490933C0280933B0280913B0255
:103EC00090913C02998B888B1B8EACCA90933C02DC
:103ED00080933B02F9CF8091360281FFEEC988E2E0
:103EE00090E09093400280933F0280E1B5CA8091B8
:103EF000360280FFE2C9198E80E131CEE114F1046F
:103F000019F0C7010E94BB308091360281709091F8
:103F10007E0290FF15C0882381F087E0898F1A8E7A
:103F2000198A188A81E090E00E94BB3080E180937A
:103F300036020E94D41780E167CA86E0898FF2CFEB
:103F4000882399F085E0898F198A188AB6C9E11407
:103F5000F10419F0C7010E94BB3080917E0280FFFE
:103F600004C087E0898F1A8EDDCFEF2821F7A5C91D
:103F70008091360280FFA1C987E0898F1A8E9DC982
:103F800082E080937F02109280020BCDCF93DF936B
:103F9000EC012C853D852115310529F490E080E068
:103FA000DF91CF910895EA89EE23C1F381E08B8BF5
:103FB00085E0E89FF0011124EA56FB4F8E859F852E
:103FC000079693838283309331022093300285E0F9
:103FD0000E94F81880913F0290914002892BF1F2E3
:103FE000CE010E960E94371781E090E0D9CF8F92D4
:103FF0009F92AF92BF92CF92DF92EF92FF92CF93B8
:10400000DF938091BD02882309F41FC1D09125025E
:10401000D11151C089E30E94CC08882309F449C01A
:1040200060919F057091A0056B0126E0C20ED11C26
:10403000C11438E0D30628F06B014AEFC41A47E0F8
:10404000D40A80E00E941C0860E08AE30E94AE0867
:10405000E82E60E08AE30E94AE08F82EF092A005F8
:10406000E0929F0560E08AE30E94AE08B82E60E00F
:104070008AE30E94AE08C82F60E08AE30E94AE087F
:10408000A82E40E46EE180E80E94E407A7FEE8C0A5
:10409000E11458E0F50608F0E3C0D092A205C09202
:1040A000A1059C2F8B2D04979093A4058093A305C5
:1040B000DFEFD0932502F0902502FF2009F472C0B3
:1040C00081E0809326028F2D0E94C407EC0190931B
:1040D000400280933F02892B09F4EFC042E650E092
:1040E0006FE472E08F2D0E946808C0905B02D09050
:1040F0005C0288E0C816D10409F0CDC0F092270216
:104100002E97D0934002C0933F02209169023091D4
:104110006A02E091BE02F091BF02C9018E279F277B
:1041200040914B0250914C0284239523892B49F5F1
:1041300040916B0250916C026091C0027091C1027B
:10414000CA0186279727A0914D02B0914E028A237B
:104150009B23892BB1F480916D0290916E02E81738
:10416000F90709F080C080916F0290917002681782
:10417000790709F078C065E572E089E692E00E946F
:10418000861581E00E94F81880913F0290914002CC
:10419000892B21F00E94FB150E94A50C809126021C
:1041A00080FD8BC00E945F056B017C018091AC0596
:1041B0009091AD05A091AE05B091AF0546015701B4
:1041C000881A990AAA0ABB0AC5E1D4E0D09338023A
:1041D000C0933702B7FC08C182E00E94F8188091B2
:1041E0003F0290914002892B21F00E94FB150E9412
:1041F000A50C6E9634E0CD38D30741F7B7FC25C047
:104200004AEFC40ED11CE11CF11CC092AC05D09247
:10421000AD05E092AE05F092AF05C7EED3E0D093C6
:104220003102C093300285E00E94F81880913F026D
:1042300090914002892B21F089859A850E94371739
:104240002B9654E0C331D50751F7DF91CF91FF9002
:10425000EF90DF90CF90BF90AF909F908F90089598
:104260000E94920826CFEEE8F3E080E0883019F44F
:104270008093E60386CF608171812617370741F46A
:10428000628173814617570719F48093E60373CF51
:104290008F5F3B96EBCF28E0C21626E0D20669F48A
:1042A0001092400210923F02AA9760F480913F0260
:1042B00090914002892B09F06FCF0E9492081092D2
:1042C000250270CF8091630290916402811531E0E4
:1042D000930701F18115924049F7209175023091C1
:1042E00076028091BE029091BF0228173907F1F63D
:1042F00020917702309178028091C0029091C102A2
:104300002817390799F665E672E08BE692E00E947D
:104310008615CCCFE0907502F09076028091BE02B7
:104320009091BF02E816F90609F6C0917702D09184
:1043300078028091C0029091C102C817D90709F094
:10434000B5CF65E672E08BE692E00E94861580E0CC
:1043500092E0909364028093630286E0E5E6F2E0E7
:10436000AFE6B2E001900D928A95E1F786E0E6EAC9
:10437000F5E0A5E6B2E001900D928A95E1F786E0BE
:10438000E6EAF5E0A5E5B2E001900D928A95E1F745
:1043900086E0EFE6F2E0AFE4B2E001900D928A959C
:1043A000E1F780916B0290916C029093760280937A
:1043B000750280916D0290916E02909378028093C5
:1043C0007702F0926C02E0926B02D0936E02C0937F
:1043D0006D02D0925C02C0925B028AE290E0909300
:1043E000400280933F0262CFEC8DFD8D309709F43F
:1043F00000CF86859785A089B189A7019601281BE2
:10440000390B4A0B5B0BDA01C901B7FDF2CE83E031
:104410000E94F8180E945F05E0913702F09138027F
:10442000048CF58DE02D665F7F4F8F4F9F4F668721
:104430007787808B918BD3CECF93DF93EC010E9453
:10444000F71F89890E94A407198ADF91CF910895E7
:104450000F931F93CF93DF931F92CDB7DEB78C01DD
:104460000E94F71FF8018189882389F041E050E01C
:10447000BE016F5F7F4F0E946808019741F48981F8
:1044800090E00F90DF91CF911F910F9108958FEFE2
:104490009FEFF7CFEF92FF920F931F93CF93DF938E
:1044A0007C018B01EA010E94F71FF70181898823B3
:1044B00069F1AE01B8010E9468088C01F701C18959
:1044C0008C2F0E94C4078017910769F48C2F0E94DB
:1044D000A407F701118AC801DF91CF911F910F91B5
:1044E000FF90EF90089585E0C89FF0011124EA56EF
:1044F000FB4F80819181800F911F91838083828106
:104500009381801B910B93838283E5CF80E090E0C1
:10451000E3CFCF93DF93EC010E94F71F8989DF91EE
:10452000CF910C94C407CF93DF93EC010E94F71F47
:10453000898981110E94A4078889898B188ADF9153
:10454000CF910C94C407CF92DF92EF92FF920F931A
:104550001F93CF93DF9300D000D0CDB7DEB78C018F
:104560006B017A010E94F71FF60182819381A48179
:10457000B581892B8A2B8B2BE9F0E114F104D1F062
:10458000D8011C96ED91FC91D60112962D913C918B
:1045900013973A83298314968D919C919C838B83E6
:1045A0007E2D6F2D309779F1778366833183208359
:1045B00093838283F80184859585892BB1F1828963
:1045C000811133C08EE096E00E94F609D801529620
:1045D0008C9352972BE230E01F963C932E931E97BC
:1045E00021E090E0811101C020E0822F0F900F9018
:1045F0000F900F90DF91CF911F910F91FF90EF904F
:10460000DF90CF900895CE0101960E94D312F80159
:1046100095878487009749F09801225F3F4FDC011E
:104620001A963C932E931997C5CF80E090E0DECF89
:104630004F925F926F927F928F929F92AF92BF92B2
:10464000CF92DF92EF92FF920F931F93CF93DF935E
:10465000CDB7DEB763970FB6F894DEBF0FBECDBF00
:104660006C017B013A01FB01DB018D91882309F488
:1046700044C08E32D1F380538A30B8F3F6014281C0
:104680005381648175818091E6069091E706A0913F
:10469000E806B091E906481759076A077B0709F44D
:1046A00055C28601085F1F4F0E945F056F70772714
:1046B0007C5FC8010E943D13813009F04CC28AE939
:1046C00091E09A838983F60182819381A481B581E7
:1046D0008B839C83AD83BE8345E350E0BE016F5F57
:1046E0007F4FC8010E94A322892B09F057C0F12CEB
:1046F000E12CC8010E94621339C030E020E090E054
:1047000080E05AE04191442309F1843091050CF096
:10471000B5CF4E3271F42F3F310511F00CF0AECF12
:10472000D301A80FB91F12962C93019630E020E018
:10473000E9CF529FB001539F700D1124242F440FD5
:10474000330B20533109260F371FDCCF2F3F3105A4
:1047500011F00CF093CF843091050CF08FCF680EE0
:10476000791EF3012283EE24E394F12CC7016396B2
:104770000FB6F894DEBF0FBECDBFDF91CF911F9172
:104780000F91FF90EF90DF90CF90BF90AF909F90F0
:104790008F907F906F905F904F9008950E945F057B
:1047A000F6017783668342E050E0B6016A5F7F4F8F
:1047B000C8010E945A0B81E090E09A83898342E00D
:1047C00050E0BE016F5F7F4FC8010E945A0B80E02E
:1047D00091E09A83898342E050E0BE016F5F7F4F92
:1047E000C8010E945A0B1A82198242E050E0BE01B1
:1047F0006F5F7F4FC8010E945A0B42E050E0BE013C
:104800006F5F7F4FC8010E945A0B42E050E0BE012B
:104810006F5F7F4FC8010E945A0B5701F7018081DB
:10482000882301F17501F70181912F01882311F08F
:104830008E32B1F447018A189B081814190474F4D5
:104840008D8641E050E0BE01635F7F4FC8010E944A
:104850005A0BA401B501C8010E945A0B5201DECFC8
:104860007201E1CF1D8641E050E0BE01635F7F4FE2
:10487000C8010E945A0BE12CFF24F394FA82E982CA
:1048800042E050E0BE016F5F7F4FC8010E945A0BAB
:10489000FA82E98242E050E0BE016F5F7F4FC801BB
:1048A0000E945A0BC8010E94C61F892B09F41FCF12
:1048B000A3E0AA2EB12C230122E0420E511C26C0F7
:1048C000F6016280738084809580B801CE010196E4
:1048D0000E94170B8B819C81AD81BE816816790681
:1048E0008A069B0629F4C8010E94080BC59759F156
:1048F000FEEFEF2EFF24FA94E1E0AE1AB10809F4BE
:10490000F8CEFFEFEF16FF0609F0F3CE0E945F0529
:104910003B014C01C8010E9493221816190684F22B
:104920000E945F05661977098809990969387341FA
:104930008105910508F001C162E370E080E090E03C
:104940000E942205E7CFC8010E9489220C970CF42F
:10495000F8C04CE050E0BE016F5F7F4FC8010E947D
:10496000A90E8B819C819827892798279A8B898B00
:10497000F6014681578129813A814217530711F484
:1049800097FD08C0C8010E941C22ECEFEE2EFF2408
:10499000FA94B2CF8F709270892B41F0C8010E94B7
:1049A0001C227BEFE72EFF24FA94A6CF6F80788439
:1049B000762467247624F12CE12C61147104D1F45F
:1049C000C8010E941C226AEFE62EFF24FA9494CFBD
:1049D0008D85811117C0C8010E943D0BC8010E943E
:1049E0003D0BC8010E943D0BC8010E943D0BFFEF2B
:1049F000EF1AFF0A8D819E81982789279827E8164C
:104A0000F906A8F441E050E0BE01635F7F4FC801A2
:104A10000E94A90E8D858823D9F28D859FEF980F6E
:104A20009D878823A9F2C8010E943D0BF6CF912CE7
:104A3000812C41E050E0BE016D5E7F4FC8010E94B5
:104A4000A90E8B89982F907C61F4882389F08B893B
:104A50009FEF980F9B8B882341F0C8010E943D0B6C
:104A6000F6CFC8010E943D0B1B8A8B898111E1CFD3
:104A700042E050E0BE01615F7F4FC8010E94A90E75
:104A800042E050E0BE01635F7F4FC8010E94A90E63
:104A9000C8010E943D0BC8010E943D0BC8010E9445
:104AA0003D0BC8010E943D0B42E050E0BE016F5E2D
:104AB0007F4FC8010E94A90E8F859889811591406A
:104AC000E1F48D859E8581159140B9F489899A8993
:104AD0008115944041F0C8010E941C2257EFE52E39
:104AE000FF24FA9409CF44E050E0B201C8010E94CB
:104AF000A90EEE24E394F12CFFCEF12CE12C898950
:104B00009A89982789279827E816F90638F4C80162
:104B10000E943D0B2FEFE21AF20AF1CF8FEF881AB5
:104B2000980A8614970409F084CFC8010E941C22B9
:104B300036EFE32EFF24FA94DFCEEE24EA94FE2C27
:104B4000DBCE9DEFE92EFF24FA94D6CE8EEFE82E31
:104B5000FF24FA940BCEF12CE12C08CEAF92BF9239
:104B6000CF92DF92EF92FF920F931F93CF93DF9339
:104B7000CDB7DEB7A8970FB6F894DEBF0FBECDBF96
:104B80007C015B016A010AE911E01A8309831B8237
:104B90001C821D821E82CE0109960E9483131CA3D3
:104BA0000BA31DA21EA21FA218A68091D40690914D
:104BB000D506A091D606B091D7068F8F98A3A9A34A
:104BC000BAA38B839C83AD83BE8318861F82AE01FC
:104BD0004D5D5F4FB501CE0101960E9418238130D3
:104BE0009105B1F4D701ED91FC910488F589E02D90
:104BF0001E8F0D8F8DA19EA1AFA1B8A58F8F98A3F9
:104C0000A9A3BAA3A601BE01635E7F4FC7010995A0
:104C1000A8960FB6F894DEBF0FBECDBFDF91CF913F
:104C20001F910F91FF90EF90DF90CF90BF90AF90CA
:104C30000895AF92BF92CF92DF92EF92FF920F93BF
:104C40001F93CF93DF93CDB7DEB7A8970FB6F89435
:104C5000DEBF0FBECDBF7C015B016A010AE911E036
:104C60001A8309831B821C821D821E82CE01099633
:104C70000E9483131CA30BA31DA21EA21FA218A691
:104C80008091D4069091D506A091D606B091D70612
:104C90008B839C83AD83BE8318861F82AE014D5DDE
:104CA0005F4FB501CE0101960E9418238130910516
:104CB000B1F4D701ED91FC910684F785E02D1E8FAC
:104CC0000D8F8DA19EA1AFA1B8A58F8F98A3A9A389
:104CD000BAA3A601BE01635E7F4FC7010995A896DE
:104CE0000FB6F894DEBF0FBECDBFDF91CF911F91FD
:104CF0000F91FF90EF90DF90CF90BF90AF9008950D
:104D0000CF93DF93EC014C815D81ADE8B4E090E09E
:104D100080E0282F8430910521F484E0809395046D
:104D20000EC0FC016D917D910196672B91F7209348
:104D30009504EE0FFF1FE357FB4F518340830E9402
:104D4000F71F81E08E83DF91CF910895CF93DF939A
:104D5000EC010E94F71FEC85FD8587818823D9F03F
:104D6000DF01189621E08D91811110C0215030E0B3
:104D7000322F2227330F84859585280F391F80E035
:104D80009AE0821B930BDF91CF9108952F5F25301E
:104D900051F724E0ECCF80E09AE0F5CFAF92BF92DC
:104DA000CF92DF92EF92FF920F931F93CF938C01DC
:104DB0005B017A016A010E94F71F0115110509F4D0
:104DC0005DC0F8018181882309F458C0867009F01C
:104DD00055C03896C1E08191811133C0C150F801AE
:104DE000EC0FF11D878181110DC080E092E00E94DF
:104DF000F609F801EC0FF11D87838823E1F2F80131
:104E000015861486A7014C195D094A0D5B1DF80132
:104E1000648575859601EC0FF11D87810E94C60A95
:104E2000C81AD90AF80124853585820F931F958702
:104E300084871C141D0454F4C43009F4BCCFCF5F24
:104E4000D4CFCF5FC53039F6C4E0C9CF0E945F052B
:104E5000665F7F4F8F4F9F4FF80166877787808B04
:104E6000918BC7018C199D09CF911F910F91FF90D4
:104E7000EF90DF90CF90BF90AF90089590E080E0EA
:104E8000F3CF9F92AF92BF92CF92DF92EF92FF92B9
:104E90000F931F93CF93DF938C017B016A01C4ECC6
:104EA000D2E0B12CA12C8EE1982E898180FF15C013
:104EB000E8819E9EF0011124EB5EFB4F2481358139
:104EC000F801848195812817390739F4A601B701C3
:104ED000CE010E94CE26A80EB91E6296F3E0CC3019
:104EE000DF0718F3C501DF91CF911F910F91FF905C
:104EF000EF90DF90CF90BF90AF909F900895FC010E
:104F0000848595850C94CE26CF93DF931F92CDB7E1
:104F1000DEB7698341E050E0BE016F5F7F4FFC0167
:104F2000848595850E94CE260F90DF91CF910895BC
:104F3000CF93DF93EC010E94F71FEC85FD8530973E
:104F400039F0818182FF08C081E09281911101C016
:104F500080E0DF91CF91089581E0FBCFCF93C82F00
:104F600087E297E00E949827882361F087E297E024
:104F70000E948F0E882331F06C2F87E297E0CF914B
:104F80000C948427CF910895CF93DF93EC018C8507
:104F90009D85009769F0FC012181222349F002964A
:104FA0000E942F0DEC85FD85818182FF07C0118253
:104FB0001D861C86DF91CF910C94F71F8260818340
:104FC000F7CFCF93DF93EC0187E297E00E94982719
:104FD0008823A1F087E297E00E948F0E882371F06A
:104FE00087E297E00E944F0E009771F087E297E00A
:104FF0000E94960D888381E090E006C087E297E0EA
:105000000E94C42790E080E0DF91CF910895CF9275
:10501000DF92EF92FF920F931F93CF93DF938C0158
:10502000EB016A01DC01ED91FC910488F589E02D2A
:105030000995EA80FB806C817D815C2D4D2D8091EE
:1050400013049091140401968115BDE79B0710F09D
:1050500080E090E1382F292FE5E1F4E0DF01C0E0A6
:10506000C430D1F4909314048093130410929504E7
:1050700080E0D0E0C0E08430F1F480939504209784
:1050800011F590E080E0DF91CF911F910F91FF909B
:10509000EF90DF90CF9008955996DC915997DD23DA
:1050A00039F01496CD90DC901597C216D30659F2BC
:1050B000CF5F5E96D5CFAE2F9F2FB18DB1113CC083
:1050C00080939504EF0182E0898F809132028C8772
:1050D000809133028D87809134028E8780913502D2
:1050E0008F8780E092E09B8B8A8B9D8B8C8B81E0FD
:1050F00090E0998B888B1B8E8A8F83E0888F1E8A25
:1051000080E18F8B3D832C835F834E83F982E8821D
:105110007B836A83898D8F7009F4B3CF0E94F71F58
:10512000898D8F708330B1F78C8D9D8DF8019587B7
:10513000848781E090E0A7CFB73031F4209731F039
:10514000D28CBA8DBD1510F0AC2F9D2F8F5F7E963F
:10515000CA2FD92F90CF2F923F924F925F926F928A
:105160007F928F929F92AF92BF92DF92EF92FF92C7
:105170000F931F93CF93DF93CDB7DEB7C254D109FE
:105180000FB6F894DEBF0FBECDBF7C015B010E945D
:105190005F052B013C018701015C1F4FC8010E9484
:1051A0009322181619069CF00E945F056419750970
:1051B00086099709613A7F408105910508F0A5C1EC
:1051C00062E370E080E090E00E942205E7CF42E2D7
:1051D00050E0BE016F5F7F4FC8010E94A90E898118
:1051E000823009F08DC1C8010E94080B83349105FB
:1051F00009F086C16D817E818F8198850E941E3C59
:105200002B013C01F501408251826282738246E0AB
:1052100050E0B701685F7F4FCE014D960E94073E78
:10522000892B99F4F70180819181A281B38148167D
:1052300059066A067B0648F084819581A681B7816C
:1052400084159505A605B705F0F4C8010E941C2237
:10525000D12C8D2DCE5BDF4F0FB6F894DEBF0FBE85
:10526000CDBFDF91CF911F910F91FF90EF90DF9015
:10527000BF90AF909F908F907F906F905F904F9076
:105280003F902F90089589899A89AB89BC89868738
:105290009787A08BB18B8EECA82EB12CC8010E94F1
:1052A0003D0BF1E0AF1AB108C9F7D12CC7018296C6
:1052B0009CAF8BAFF701B696FEAFEDAF0896219687
:1052C0009FAF8EAF219757019AE1A90EB11C749739
:1052D0002396FFAFEEAF23971701F6E12F0E311C97
:1052E00027012EE1420E511CC8010E948922181686
:1052F00019060CF006C1C8010E943D0B83339105CD
:1053000009F4E4C09CF58130910509F480C074F47F
:10531000892B51F3C8010E943D0B982E9A94FFEF00
:105320009F1611F3C8010E943D0BF8CF8330910501
:1053300009F47AC0069771F7C8010E943D0B882EC8
:1053400044E050E0B201C8010E94A90E712C612C0A
:10535000E82DE450FF0B4F01681479042CF6C801C6
:105360000E943D0BFFEF6F1A7F0AF6CF8A3391053B
:1053700009F47EC0DCF58533910509F440C0C69779
:1053800049F6C8010E943D0B982E1FAA18AE19AE0F
:105390001AAEB501CE018F960E947A154FA958AD6D
:1053A00069AD7AAD89A99AA9ABA9BCA948175907D3
:1053B0006A077B07B9F0B801CE0189960E94170BE6
:1053C000B501CE0183960E947A154DA15EA16FA111
:1053D00078A58BA59CA5ADA5BEA5481759076A075A
:1053E0007B07E9F544E050E0B5011AC08B33910525
:1053F00009F454C08F3F910509F476CF8BCFC801D3
:105400000E943D0BC8010E943D0BD82E6DCFC801F4
:105410000E943D0B44E050E023966EAD7FAD239794
:10542000C8010E94A90E60CFC8010E943D0B882EC2
:1054300044E050E0B101C8010E94A90E712C612C1A
:10544000882D8450990B4C01681479040CF04CCFD2
:10545000C8010E943D0B9FEF691A790AF5CF9A9413
:105460002FEF921609F440CFC8010E943D0BF7CFF1
:10547000C8010E943D0B44E050E06DAD7EADC80117
:105480000E94A90EF70166A177A180A591A50E94AF
:105490001E3C66A377A380A791A726CFC8010E94D0
:1054A0003D0B44E050E021966EAD7FAD2197C801E1
:1054B0000E94A90EF70162A573A584A595A50E9477
:1054C0001E3C62A773A784A795A70ECFC8010E94B0
:1054D0003D0B44E050E06BAD7CADC8010E94A90ECD
:1054E000F70162A173A184A195A10E941E3C62A351
:1054F00073A384A395A366A777A780AB91ABF4CEE3
:10550000D12CC8010E941C22A4CEDD24DA94A1CEA5
:105510007F928F929F92AF92BF92CF92DF92EF9243
:10552000FF920F931F93CF93DF93CDB7DEB7A6976C
:105530000FB6F894DEBF0FBECDBF8C01762E942E31
:10554000852E20E2A22ECE0101967C01DC01EA2DFF
:105550001D92EA95E9F76801FFE3CF0ED11C8AE9B5
:1055600091E09AA389A38FEF8BA38CA38DA38EA325
:1055700043E450E0BE016F5D7F4FC6010E94A3224D
:10558000019609F4BFC081E089838A8386E0B82E42
:10559000BB821C82D80114966D917D918D919C9156
:1055A00017970E941E3C6D837E838F839887898620
:1055B0009A8680E890E09C878B874CE150E0B701A9
:1055C000C6010E945A0BFE0137968AE1DF011D9247
:1055D0008A95E9F74801B8E08B0E911CF401D701D8
:1055E00001900D92BA94E1F740E150E0B701C60195
:1055F0000E945A0BF7011192AA94E9F796E0A92E9E
:10560000B12C40E250E0B701C6010E945A0BF1E014
:10561000AF1AB108B1F783E6898392E89A8393E5DC
:105620009B838C8385E38D8381E08E837F829DE3E2
:10563000988797E099878A8786E0F401DE011B96B8
:1056400001900D928A95E1F78CE0898B8A8B69EC49
:1056500071E0CE0143960E944A3ED8011B966C91A0
:10566000CE0149960E94CB02F8016485CE014B968B
:105670000E94CB02D8011D966C91CE014D960E94DE
:10568000CB024EE150E0B701C6010E945A0BB3E0D5
:105690007B121EC082E3898384E08A83F8019685A9
:1056A0009B8397859C8390899D8391899E8396E3B4
:1056B0009F838887828D8987838D8A87848D8B8756
:1056C000858D8C874CE050E0B701C6010E945A0BD3
:1056D00087E3898386E08A8391E09B8393E09C83C0
:1056E0008D838FE08E838AE38F838BE388878FEFB0
:1056F000898749E050E0B701C6010E945A0BC601F4
:105700000E94C61FA6960FB6F894DEBF0FBECDBF8F
:10571000DF91CF911F910F91FF90EF90DF90CF908D
:10572000BF90AF909F908F907F9008953F924F923F
:105730005F926F927F928F929F92AF92BF92CF9221
:10574000DF92EF92FF920F931F93CF93DF9300D0DE
:1057500000D000D0CDB7DEB78C010E94963A2FEC76
:1057600037E040E050E00E947E3BDC01CB01019637
:10577000A11DB11DF80184839583A683B78380831F
:105780009183A283B383C801CF969E838D830E94A9
:10579000621364E470E08D819E810E943D13D12CE0
:1057A000C12C882309F458C00E945F052B013C01DD
:1057B00043E0342E58EE852E53E0952EA12CB12CCB
:1057C00062E0E62ED12CC12CD801DE968C91DE97BA
:1057D000833091F1811159C014968D919D910D9056
:1057E000BC91A02D0196A11DB11DF8018483958364
:1057F000A683B7830E945F05641975098609970916
:10580000A50194010E94E73BA90161E0C8010E9443
:10581000882A81E0D801DE968C93F1E0CF16D1047E
:1058200099F20E945F05641975098609970961322A
:105830007E448105910530F28D819E810E94621324
:10584000F80184819581A681B7810196A11DB11DC2
:1058500084839583A683B783C60126960FB6F894F2
:10586000DEBF0FBECDBFDF91CF911F910F91FF9093
:10587000EF90DF90CF90BF90AF909F908F907F90F0
:105880006F905F904F903F9008958430F9F4F80145
:1058900084819581A681B7810196A11DB11D848364
:1058A0009583A683B7830E945F05641975098609ED
:1058B0009709A50194010E94E73BA90163E0C80193
:1058C0000E94882AD801DE96EC92A7CF813031F56C
:1058D000BE016F5F7F4FC8010E94AB28F82EB2E077
:1058E0008B137FC089819A81AB81BC81F80184834D
:1058F0009583A683B7830E945F056419750986099D
:105900009709A50194010E94E73BA90163E0C80142
:105910000E94882AD801DE96FC927FCF823009F05F
:105920007CCFBE016F5F7F4FC8010E94AB28F82E6D
:10593000B5E08B134FC0F80136AE82A193A1A4A1AC
:10594000B5A1892B8A2B8B2B41F484E893E0A0E04E
:10595000B0E082A393A3A4A3B5A3F80186A197A165
:10596000A0A5B1A5892B8A2B8B2B61F482A193A1D1
:10597000A4A1B5A1B695A7959795879586A397A35A
:10598000A0A7B1A7F80186A197A1A0A5B1A542A59E
:1059900053A564A575A5452B462B472B51F4AC01A7
:1059A000BD01440F551F661F771F42A753A764A769
:1059B00075A7F80186A797A7A0ABB1AB82A593A561
:1059C000A4A5B5A582AB93ABA4ABB5ABCC24C394D3
:1059D000D12C23CFF6E08F1304C0D801DE961C92A1
:1059E0001CCFBFEFFB1219CFF80116AE16CF0C94E7
:1059F000703B7F928F929F92AF92BF92CF92DF9235
:105A0000EF92FF920F931F93CF93DF9300D000D0BC
:105A100000D0CDB7DEB75C014B01712C9AE9C92EDD
:105A200091E0D92E072D10E00A151B050CF0A0C03F
:105A30007720E9F0000F111F080D191DF801E08013
:105A4000F18060ED71E0C7010E94413E892B89F42D
:105A500063ED71E0F801828193810E94413E61E033
:105A6000892B09F060E090E080E00E94F72C7394AD
:105A7000D9CF6AED71E0C7010E94413E892B19F52B
:105A8000DA82C9821B821C821D821E82F801628119
:105A90007381CE0101960E941F03FC800D811E813F
:105AA0006B8181E090E00E94F72C6F2D82E090E006
:105AB0000E94F72C602F83E090E00E94F72C612F6A
:105AC00084E090E0D2CF6DED71E0C7010E94413ECD
:105AD000892B19F5DA82C9821B821C821D821E82E3
