:100000000C9417020C943F020C943F020C943F0294
:100010000C943F020C943F020C943F020C943F025C
:100020000C943F020C943F020C943F020C943F024C
:100030000C943F020C943F020C943F020C943F023C
:100040000C94F62F0C943F020C94C42F0C949E2F0A
:100050000C943F020C943F020C943F020C943F021C
:100060000C943F020C943F023F096970096D717452
:100070007409737461747573097265626F6F7400CB
:100080002D2D2D2D2D2D2D2D2D2D2D2D2D2D2D00CD
:1000900053797374656D20636F6D6D616E64730069
:1000A00064697361626C6500656E61626C65000015
:1000B0002020476174657761793A200909000020A2
:1000C000205375626E6574204D61736B3A20090987
:1000D00000002020495076342041646472657373B7
:1000E0003A0909002020444843503A090909002DE3
:1000F0002D2D2D2D2D2D2D2D2D2D2D2D2D2D2D2D30
:100100002D2D2D2D2D2D2D2D2D2D2D2D2D2D2D2D1F
:10011000000A4D616E75616C6C7920636F6E666963
:10012000677572656420495076342073657474690C
:100130006E67730000202041637469766520495022
:10014000763420676174657761793A090900002087
:100150002041637469766520495076342073756256
:100160006E6574206D61736B3A0900002020416355
:1001700074697665204950763420616464726573D1
:10018000733A0909002D2D2D2D2D2D2D2D2D2D2DC1
:100190002D2D2D2D2D2D2D2D2D000A4163746976C9
:1001A0006520495076342073657474696E677300F6
:1001B0006970205B2D44203C656E61626C65207C1B
:1001C0002064697361626C653E5D205B2D69203C33
:1001D0006970763420616464726573733E5D205B80
:1001E0002D73203C7375626E6574206D61736B3E78
:1001F0005D205B2D67203C676174657761792069BC
:10020000703E5D0055736167653A20002020546F91
:10021000706963207072656669783A2009003A0057
:1002200020204D515454205365727665723A090965
:10023000002D2D2D2D2D2D2D2D2D2D2D2D2D2D0048
:100240000A4D5154542073657474696E6773006D60
:10025000717474205B2D73203C6970763420616466
:1002600064726573733E5D205B2D70203C706F720D
:10027000743E5D205B2D74203C746F706963207048
:1002800072656669783E5D0055736167653A200066
:10029000202052656C617920343A09002020526593
:1002A0006C617920333A09004F4646004F4E0020DA
:1002B0002052656C617920323A0900202052656C29
:1002C000617920313A09002D2D2D2D2D2D2D2D2D2B
:1002D0002D2D2D000A52656C61792073746174753F
:1002E0007300737461747573205B3C317C327C33B2
:1002F0007C343E203C4F4E7C4F46467C544F474713
:100300004C453E5D0055736167653A20000D0A005B
:1003100000000000240027002A0000000000250043
:1003200028002B0000000000230026002900040400
:10033000040404040404020202020202030303038D
:100340000303010204081020408001020408102069
:100350000102040810200000000800020100000350
:10036000040700000000000000007265626F6F74F7
:1003700000737461747573006D717474006970003A
:100380003F005374617274207561727420736572DA
:100390007665722E2E2E0053746172742074656C13
:1003A0006E657420736572766572206F6E20004EE4
:1003B0006F206C696E6B2E2E2E006D656D6F7279DD
:1003C0002E2E2E0052657472792E2E2E0044484334
:1003D00050207365727665722E2E2E0047657474F8
:1003E000696E672069702066726F6D2000537973A3
:1003F00074656D2073746172742E2E2E000D0A00C8
:100400003E00436F6D6D616E64204E4F5420666FE9
:10041000756E642E00436F6E6E6563746564207440
:100420006F204D5154542E2E2E008B30CE39112476
:100430001FBECFEFD8E0DEBFCDBF12E0A0E0B1E03D
:10044000E0EDFBE702C005900D92A830B107D9F7A7
:1004500027E0A8E0B2E001C01D92A336B207E1F7A1
:1004600012E0C6E1D2E004C02197FE010E94A23B47
:10047000C531D107C9F70E9467310C94DB3D0C945C
:100480000000CF93DF93EC01FA013296E60FF71FDD
:10049000DC019D012C1B3D0BCF01861B970B4D9161
:1004A000442311F04193F5CFAC01421B530B640F71
:1004B000751FFB013297308361507109FB01208366
:1004C000DF91CF91089580911107909112070097C5
:1004D00011F480E02FC0DC01ED91FC910688F789D2
:1004E000E02D0995209134073091350781111FC007
:1004F000232B79F78DEF9FEF909335078093340787
:100500008091110790911207DC01ED91FC9106801A
:10051000F781E02D09958091110790911207DC0178
:10052000ED91FC910488F589E02D0995D2CF81E009
:10053000232B79F6089520E3FC0120833296862F41
:1005400082958F706F706A3030F4605D6293682FAF
:100550008111F5CF0895695CF9CFCF93DF93EDE07A
:10056000F7E0EC018A819B81AC81BD81858F968FFC
:10057000A78FB0A374A363A312A211A2CF01DF912E
:10058000CF910895AF92BF92CF92DF92EF92FF92F8
:100590000F931F93CF93DF936C017B018B01040FAB
:1005A000151FEB015E01AE18BF08C017D10759F047
:1005B0006991D601ED91FC910190F081E02DC60189
:1005C0000995892B79F7C501DF91CF911F910F9183
:1005D000FF90EF90DF90CF90BF90AF900895DC0137
:1005E00090E030E020E08AE0FB014191BF0144232C
:1005F00011F150ED540F5A3090F4829FF001839F17
:10060000F00D11249F0120533109240F311D47FDA6
:100610003A952F3F310541F338F380E008954E328B
:10062000E1F79330D1F3FD01E90FF11D22839F5FC4
:1006300030E020E0D9CF933081F715962C9381E0FC
:100640000895FC01538D448D252F30E0842F90E0D8
:10065000821B930B541710F0CF96089501970895BD
:10066000FC01918D828D981761F0A28DAE0FBF2F86
:10067000B11D5D968C91928D9F5F9F73928F90E0DC
:1006800008958FEF9FEF0895FC01918D828D98174B
:1006900031F0828DE80FF11D858D90E008958FEF88
:1006A0009FEF0895FC01918D228D892F90E0805C51
:1006B0009F4F821B91098F73992708958DEE95E0C6
:1006C0000E94520321E0892B09F420E0822F089533
:1006D00080E090E0892B29F00E945E0381110C9448
:1006E00000000895FC01A48DA80FB92FB11DA35AD5
:1006F000BF4F2C91848D90E001968F739927848F42
:10070000A689B7892C93A089B1898C918370806464
:100710008C93938D848D981306C00288F389E02D05
:1007200080818F7D80830895EF92FF920F931F93B6
:10073000CF93DF93EC0181E0888F9B8D8C8D981394
:100740001AC0E889F989808185FF15C09FB7F894A0
:10075000EE89FF896083E889F989808183708064EC
:1007600080839FBF81E090E0DF91CF911F910F9137
:10077000FF90EF900895F62E0B8D10E00F5F1F4F46
:100780000F731127E02E8C8D8E110CC00FB607FC55
:10079000FACFE889F989808185FFF5CFCE010E94E3
:1007A0007203F1CFEB8DEC0FFD2FF11DE35AFF4FDC
:1007B000F0829FB7F8940B8FEA89FB898081806271
:1007C000CFCF0F931F93CF93DF938C01D0E0C0E086
:1007D000F801EC0FFD1F6491662341F08DEE95E06A
:1007E0000E949403892B11F02196F2CFCE01DF9164
:1007F000CF911F910F910895CF93DF93EC01888DD6
:100800008823B9F0AA89BB89E889F9898C9185FD8B
:1008100003C0808186FD0DC00FB607FCF7CF8C9119
:1008200085FFF2CF808185FFEDCFCE010E9472035C
:10083000E9CFDF91CF910895833081F028F48130A2
:1008400099F08230A9F008958730A9F08830C9F076
:100850008430B1F4809180008F7D03C0809180004E
:100860008F7780938000089584B58F7784BD089535
:1008700084B58F7DFBCF8091B0008F778093B000DF
:1008800008958091B0008F7DF9CFCF93DF93282F0B
:1008900030E0F901EA5AFC4F8491F901EE5BFC4F1C
:1008A000D491F901E25DFC4FC491CC23A1F08111F8
:1008B0000E941C04EC2FF0E0EE0FFF1FEC5DFC4FDC
:1008C000A591B491EC91ED2381E090E009F480E0F2
:1008D000DF91CF91089580E090E0FACF1F93CF93FE
:1008E000DF93282F30E0F901EA5AFC4F8491F90197
:1008F000EE5BFC4FD491F901E25DFC4FC491CC2337
:10090000A9F0162F81110E941C04EC2FF0E0EE0FCD
:10091000FF1FE65EFC4FA591B4918FB7F894EC9160
:10092000111108C0D095DE23DC938FBFDF91CF91EA
:100930001F910895DE2BF8CFCF93DF9390E0FC0159
:10094000EE5BFC4F2491825D9C4FFC0184918823D7
:10095000D1F090E0880F991FFC01E05FFC4FA5915A
:10096000B491FC01E65EFC4FC591D491623071F404
:100970009FB7F8943C91822F809583238C93E881D4
:100980002E2B28839FBFDF91CF9108958FB7F894C6
:10099000EC912E2B2C938FBFF6CF3FB7F89480911C
:1009A000C8029091C902A091CA02B091CB0226B5AB
:1009B000A89B05C02F3F19F00196A11DB11D3FBF97
:1009C000BA2FA92F982F8827BC01CD01620F711D66
:1009D000811D911D42E0660F771F881F991F4A9560
:1009E000D1F708958F929F92AF92BF92CF92DF92EC
:1009F000EF92FF924B015C010E94CD046B017C01E0
:100A00000E94CD046C197D098E099F09683E7340D0
:100A100081059105A8F321E0821A9108A108B10887
:100A200088EEC80E83E0D81EE11CF11C81149104ED
:100A3000A104B10429F7FF90EF90DF90CF90BF9011
:100A4000AF909F908F90089562E370E080E090E017
:100A50000E94F2040C94000090E080E008952FB70B
:100A6000F8946091C4027091C5028091C602909181
:100A7000C7022FBF0895EF92FF920F931F93CF935A
:100A8000DF9300D000D0CDB7DEB7FA0120E08E01B1
:100A90000F5F1F4F9E2F9F77EE0FEF2FEE1FFF0B65
:100AA000F195309709F09068D801A20FB11D9C9381
:100AB0002F5F309779F730E0FB01E21BF30B848363
:100AC000FB01E21BF30B3596D801CD01801B910B86
:100AD000821793071CF48D918193F7CF2F5F3F4FBF
:100AE00080911107909112078901040F151F621B55
:100AF000730B6B5F7F4FDC01ED91FC910280F38102
:100B0000E02DA80109957C010E942F0560931D0727
:100B100070931E0780931F079093200781E00E15A6
:100B20001F0509F080E00F900F900F900F90DF915C
:100B3000CF911F910F91FF90EF9008958F929F9208
:100B4000AF92BF92CF92DF92EF92FF92CF93DF935B
:100B5000EC010E942F054B015C01809111079091DF
:100B60001207DC01ED91FC910084F185E02D0995DF
:100B7000892BB9F40E942F056B017C01C818D90894
:100B8000EA08FB082091190730911A07A8EEB3E094
:100B90000E94933BC616D706E806F906F0F280E0FD
:100BA0000DC08091110790911207DC01ED91FC912D
:100BB0000284F385E02D0995888381E0DF91CF9150
:100BC000FF90EF90DF90CF90BF90AF909F908F906D
:100BD00008952F923F924F925F926F927F928F92E1
:100BE0009F92AF92BF92CF92DF92EF92FF920F93BC
:100BF0001F93CF93DF93CDB7DEB72A970FB6F89444
:100C0000DEBF0FBECDBF1C0180911307909114076A
:100C10000E949E0581111CC060E070E0CB012A9605
:100C20000FB6F894DEBF0FBECDBFDF91CF911F91FD
:100C30000F91FF90EF90DF90CF90BF90AF909F907B
:100C40008F907F906F905F904F903F902F9008957E
:100C5000E0911307F0911407D0801982EE24E394F9
:100C6000F12C812C912C5401412C512C32014394B4
:100C7000CE0101960E949E05882371F287010F5FC5
:100C80001F4F8981E0911307F0911407EE0DFF1DAE
:100C90008083E981AE2FAF77B0E0A30192010E947B
:100CA000273B860E971EA81EB91E37E0440C551C24
:100CB000661C771C3A95D1F7E7FD3FC0BD2DB07F8C
:100CC000BE838FEF800FF1018083B03309F04CC0F9
:100CD0008091130790911407800F911F0E949E0529
:100CE000882309F499CF2091130730911407C70185
:100CF0000296820F931F0E949E05882309F48CCFD1
:100D00000E5F1F4FE0911307F0911407D1018C91F2
:100D1000DF01A80FB11D11968C91119790E0982FCB
:100D2000882712962C91820F911D208121FD029619
:100D3000F2E0E0E030E020E01DC078010530110570
:100D400009F096CF8FEF9FEF90933507809334078C
:100D50008091110790911207DC01ED91FC910488BC
:100D6000F589E02D099558CFF0E0E0E030E020E093
:100D700090E080E070E060E0CF2EDE2EE32EF22ED9
:100D800028013B014C185D086E087F084A825B828F
:100D90006C827D822C01712C612C4F825886698671
:100DA0007A864A805B806C807D804C0C5D1C6E1C5A
:100DB0007F1CC814D904EA04FB0408F046C0CE0125
:100DC00001960E949E05882309F426CF8091320760
:100DD00090913307009711F12E812033F9F4D1015E
:100DE0002C914EEF5FEF6FEF7FEF421B51096109CE
:100DF0007109440E551E661E771E2F813885498560
:100E00005A85241535054605570540F4DC01ED915A
:100E1000FC910190F081E02D698109958091150781
:100E2000909116070817190750F48981E09113076C
:100E3000F0911407E00FF11F80830F5F1F4FBFEF8A
:100E4000CB1ADB0AEB0AFB0AACCF809132079091F8
:100E50003307892B69F48091150790911607B0E04C
:100E6000A0E084159505A605B70510F410E000E094
:100E7000B80190E080E0D3CE8823E9F0A3EBB4E0A2
:100E800025E014969C91149789130DC095E0899FD5
:100E9000F0011124ED54FB4F848114968C9313823E
:100EA000128214820895992331F0929FD001112467
:100EB000AD54BB4FE6CF08958823A1F09091CC02AA
:100EC000992381F08F3F29F48091C0059091C1054D
:100ED000089595E0899FF0011124ED54FB4F828124
:100EE0009381089590E080E008958EBD00000DB4D8
:100EF00007FEFDCF8EB508951F93CF93DF93182F74
:100F0000C62FD42F60E08AE00E946E048C2F8F7170
:100F1000812B0E9475078D2F0E94750761E08AE082
:100F2000DF91CF911F910C946E04CF93DF93D82F54
:100F3000D076909100019D17A1F0C82F43E06FE19A
:100F400080EA0E947C074C2F50E085E0559547953C
:100F50008A95E1F743706FE180E80E947C07D093A7
:100F60000001DF91CF9108951F93CF93DF93C82F96
:100F7000162FD72F0E949507412F6C2F80E40E94D7
:100F80007C0761E06C0F4D2F80E4DF91CF911F91C2
:100F90000C947C07EF92FF920F931F93CF93DF93F4
:100FA0008B017A018F3F59F095E0899FE001112470
:100FB000CD54DB4F68817981600F711F0FC0609144
:100FC000BE057091BF05600F711FCEEBD5E06115B6
:100FD00088E0780778F37850CEEBD5E080E00E9487
:100FE000B4078A819B81801B910BE816F90608F4EF
:100FF000C701DF91CF911F910F91FF90EF9008955E
:10100000EF92FF920F931F93CF93DF93EB0170E06A
:1010100060E00E94CA078C0160E08AE00E946E04D2
:101020008AE30E9475077E01E00EF11EEC16FD06B4
:1010300029F080E00E9475078993F8CF61E08AE08B
:101040000E946E04C801DF91CF911F910F91FF9014
:10105000EF9008956091BC057091BD056115710513
:1010600029F0615071098CE00C94B4076FEF77E0C0
:10107000FACFCF93DF93C82FD62F0E9495074D2F1D
:101080006C2F80E4DF91CF910C947C07CF93DF939A
:10109000D82FC62F60E08AE00E946E048C2F8F71DB
:1010A0008D2B0E947507C7FF03C080E00E94750763
:1010B00080E00E947507C82F61E08AE00E946E04FC
:1010C0008C2FDF91CF910895CF93C82F0E94950761
:1010D0006C2F80E0CF910C944608CF93DF9361E1B1
:1010E00084ED0E94390861E082ED0E943908CFE06A
:1010F000D0E08AEE0E94640880FF0BC06AE070E0D6
:1011000080E090E00E94F204219799F790E080E05F
:101110000DC060E082ED0E94390888ED0E946408ED
:10112000C82F89ED0E946408982F8C2FDF91CF91F2
:101130000895CF93DF93EB01682F84ED0E94390867
:10114000BE0186ED0E94B407CFE0D0E08AEE0E9497
:10115000640880FF08C06AE070E080E090E00E94D0
:10116000F204219799F7DF91CF910895CF93809161
:10117000CC02811148C061E08AE00E949C0461E0D9
:101180008AE00E946E04CFB7F8948091C202811168
:1011900027C0E8E3F3E08491ECE4F3E09491E82FD6
:1011A000F0E0EE0FFF1FE05FFC4FA591B491EC91D2
:1011B000E92321F461E08AE00E946E0461E08AE0A4
:1011C0000E949C048CB580618CBD8CB580648CBD04
:1011D00061E08DE00E949C0461E08BE00E949C0431
:1011E0008091C2028F5F8093C202CFBF8CB58C7F8B
:1011F0008CBD8DB581608DBD82E70E9464088F3FF4
:1012000021F08093CC02CF9108951092CC02FBCFB5
:10121000CF93C62FBC0182E00E94B40760E08AE051
:101220000E946E048AE70E9475078C2F0E94750742
:1012300061E08AE0CF910C946E04CF93BC0180E012
:101240000E94B40760E08AE00E946E048AE30E9474
:10125000750780E00E947507C82F61E08AE00E9450
:101260006E048C2FCF910895CF92DF92EF92FF9270
:101270000F931F93CF93DF936C018B014130510586
:1012800079F4CB010E941D09682FC601DF91CF912F
:101290001F910F91FF90EF90DF90CF900C94080971
:1012A000EA01C60FD71F7E0181E0E81AF10880E14C
:1012B0000E94B407B60184E10E94B40701151840EA
:1012C00048F4E11488E0F80628F07E0181E0E81A8D
:1012D00088E0F80AB70182E10E94B40740E16FE1BB
:1012E00080EA0E947C0740E26FE180E80E947C0770
:1012F0006FE180E00E94460885FF07C061E070E072
:1013000080E090E00E94F204F3CFDF91CF911F9133
:101310000F91FF90EF90DF90CF900895CF92DF92E2
:10132000EF92FF920F931F93CF93DF938C01609105
:10133000B3047091B4046150784EC12C98E1D92E59
:10134000E3EBF4E020E0D0E0C0E045E03481CB0105
:10135000332341F0439FC00111248D549B4FDC0186
:101360008D919C91E080F1808E199F090280F3811C
:10137000E02D8E1B9F0B8017910799F4B5E02B9FF2
:10138000E0011124CD54DB4FE8EBF4E081E0228151
:101390003381232B09F453C035968F5F8533B9F71A
:1013A00044C00817190748F48C159D0530F4249F94
:1013B000E0011124CD54DB4F6C01311121C0209785
:1013C00019F7C3EBD4E085E0D82E8C8128813981D0
:1013D000EA80FB808823D9F0E20EF31E8D9DE001A8
:1013E0001124CD54DB4F68817981E616F70669F345
:1013F0004A815B81C7010E943409F982E882E5CF06
:10140000349FF0011124ED54FB4F232F9FCF809187
:10141000B3049091B404821B930B8E199F098150E1
:10142000984E8017910708F0AFCF80E0DF91CF9101
:101430001F910F91FF90EF90DF90CF90089528813A
:1014400039814A815B81240F351F318320831383C7
:1014500002839C8194838C83E9CF0F931F93DB01DC
:10146000E42FA80190E0EF3FE1F065E0E69FF00196
:101470001124ED54FB4F60817181620F731F01C015
:10148000785025E0289FF001299FF00D1124ED549C
:10149000FB4F808191818A0F9B1F1F910F910C94AC
:1014A00034096091BE057091BF05620F731F61150D
:1014B000E8E07E0728F7EEEBF5E0DDCFCF92DF9294
:1014C000EF92FF920F931F93CF93DF936B018A01EB
:1014D000790195E0899FE0011124CD54DB4F6881AB
:1014E00079816C0D7D1D82E00E94B4070A80DB814A
:1014F000C02DCC19DD09EC16FD0608F4E70160E00B
:101500008AE00E946E048AE70E9475077801EC0E5B
:10151000FD1EE016F10631F0F80181918F010E9465
:101520007507F7CF61E08AE00E946E04CE01DF917B
:10153000CF911F910F91FF90EF90DF90CF90089582
:10154000DC011C96ED91FC91309731F086819781FA
:10155000982789279827089590E080E00895CF93F1
:10156000DF93FC01EB01AC85BD851097A9F01296C5
:101570009C91129713968C9113973C9111962C91F4
:101580004AE951E0518340833283238394838583E6
:10159000CF01DF91CF9108958AE991E09183808313
:1015A0001282138214821582F3CFCF93DF931F929E
:1015B000CDB7DEB7DC01ED91FC91048CF58DE02D0B
:1015C00041E050E0BE016F5F7F4F09951816190684
:1015D00034F4898190E00F90DF91CF9108958FEFDF
:1015E0009FEFF9CFCF93DF93EC018A89882379F0BD
:1015F0009A01AB016E857F850E945E0A2E853F852C
:10160000280F391F3F872E87DF91CF91089590E0F3
:1016100080E0FACFCF93DF931F92CDB7DEB7698317
:10162000DC01ED91FC910280F381E02D41E050E07E
:10163000BE016F5F7F4F09950F90DF91CF910895A5
:1016400080E00895CF93DF931F92CDB7DEB7698313
:10165000DC01ED91FC910280F381E02D41E050E04E
:10166000BE016F5F7F4F09950F90DF91CF91089575
:10167000762767277627DC0115967C936E9314975F
:10168000ED91FC910084F185E02D0994FB0141501E
:101690005109460F571FE417F50778F4208130E011
:1016A000322F22276181260F311D820F931F82174F
:1016B000930708F401963296EECFE417F50751F43C
:1016C000208130E0322F2227820F931F8217930749
:1016D00008F401960895CF92DF92EF92FF920F9354
:1016E0001F93CF93DF93C82FE0906702F12CFE2C5D
:1016F000EE24409168024451550BE40EF51E48E07B
:1017000050E061E772E0C7018C0F911D0E94460B0B
:1017100008E0C13129F000918502069506950C7309
:1017200010E0A80169E772E00E94460BEC010E157B
:101730001F0508F049C0A701401B510B8091BE0254
:1017400062E270E081FF02C063E270E0600F711F2F
:101750008091BF020E94CA0701977C0160E08AE085
:101760000E946E048AE30E947507D12CC12CCE140E
:10177000DF04B8F480E00E947507082F10E0102FF6
:10178000002780E00E947507800F912F911DC80FE0
:10179000D91FC817D90708F4219682E0C80ED11CBA
:1017A000E6CFEC14FD0461F480E00E94750790E040
:1017B000982F8827C80FD91FC817D90708F4219672
:1017C00061E08AE00E946E049C2F8D2FCD2B11F4D6
:1017D0008FEF9FEFDF91CF911F910F91FF90EF90CF
:1017E000DF90CF90089544E150E065E672E090E02C
:1017F00080E00E94460B009721F0982789279827C0
:1018000008958FEF9FEF0895CF93DF93EC01AC81A4
:10181000BD81EDECF2E08A819B8191838083B3836B
:10182000A283FA0184819581EFE4F2E0DA01129655
:101830004D915C915183408393838283E9018C8134
:101840009D81EBE4F2E02A813B8131832083938305
:101850008283FB0182819381A481B5818093EB0611
:101860009093EC06A093ED06B093EE06DF91CF9136
:101870000895FF920F931F93CF93DF93C091BE0201
:10188000C1FF66C02091550230E047E552E061E0BB
:1018900070E08091BF020E945E0ACD7FC093BE02BD
:1018A000F090BF028091CC02882309F444C085E007
:1018B000F89EF0011124ED54FB4F00811181C2818B
:1018C000D381C00FD11F60E0C8010E940809B80190
:1018D00084E00E94B407BE016850710986E00E944E
:1018E000B4071AE0249740E86FE180E80E947C0783
:1018F00040E86FE180EA0E947C074AE06CE180EA00
:101900000E947C0748E06FE180E80E947C078CE140
:101910000E946408082F8A70D1F348E06FE180EAE2
:101920000E947C0701FF2DC0CE010E941D0985FF8A
:1019300002C01150C1F6C0E08F2D0E943C071092EA
:10194000BF028C2FDF91CF911F910F91FF900895CF
:10195000C091C002D091C102CE01089621F410922C
:10196000BF02C0E0EECF0E948E098093BF028823A1
:10197000C1F39E0147E552E061E070E00E945E0A1B
:101980008FCFC1E0D9CF0F931F93CF93DF93EC019B
:101990008C010B5F1F4F89910E943C07FE0131971C
:1019A0001082C017D107B9F7DF91CF911F910F9126
:1019B0000895CF93DF93EC0188810E943C07FE01DC
:1019C000CE01049621812193E817F907D9F71C82EB
:1019D000DF91CF910895CF93DF93EC01E881F981F6
:1019E000008CF18DE02D0995882339F08C859D853B
:1019F0000296DF91CF910C94C30CDF91CF910895A3
:101A00000F931F93CF93DF931F92CDB7DEB78C0157
:101A1000DC01ED91FC91008CF18DE02D099588237E
:101A2000B1F0D8011C96ED91FC918281882379F068
:101A300041E050E0BE016F5F7F4F0E940008898146
:101A400090E00F90DF91CF911F910F9108958FEF4C
:101A50009FEFF7CFCF93DF931F92CDB7DEB7DC01B7
:101A6000ED91FC910288F389E02D41E050E0BE0148
:101A70006F5F7F4F09951816190634F4898190E03D
:101A80000F90DF91CF9108958FEF9FEFF9CF6F9275
:101A90007F928F929F92AF92BF92CF92DF92EF92FE
:101AA000FF920F931F93CF93DF938C014B01EA01B9
:101AB000DC01ED91FC91008CF18DE02D09958823DE
:101AC00009F47BC0D8011C96ED91FC91828188239A
:101AD00009F476C07E018EE1682EBE016E197F0981
:101AE000680D791DD8011C96ED91FC91A7018281AA
:101AF0000E9400086C01F801A484B584D5011296F7
:101B00007C90872D0E945C07C816D906E9F5EC1871
:101B1000FD08C50102960E94D90CF801A485B5857F
:101B2000EC916E9EF0011124EE5CFB4F818D84FFE1
:101B300009C011968C911197982F967019F48860AE
:101B400011968C93D8011C96ED91FC911D97828182
:101B500081112EC0818182FF05C011821D961C92C9
:101B60001E921C97CE018E199F09DF91CF911F9174
:101B70000F91FF90EF90DF90CF90BF90AF909F902C
:101B80008F907F906F900895B5E07B9EF0011124B7
:101B9000ED54FB4F808191818C0D9D1D918380833D
:101BA000828193818C199D0993838283CE01DDCF3D
:101BB000E114F10409F091CFF9CF8FEF9FEFD5CF6A
:101BC00090E080E0D2CFEF92FF920F931F93CF93DC
:101BD000DF93EC01E881F981008CF18DE02D09950E
:101BE0008823E1F00C851D85780182E0E80EF11C68
:101BF000095F1F4FD0E0C0E0F70181917F010E9493
:101C00005C07C80FD91FE016F106B1F7CE01DF91CE
:101C1000CF911F910F91FF90EF900895D0E0C0E019
:101C2000F5CFFC01448555854115510551F0FB0167
:101C3000248535852115310521F081E042175307B0
:101C400009F080E00895DC011C96ED91FC9130973D
:101C500031F08281811105C081818170089580E019
:101C6000089581E00895DC01ED91FC91028CF38DE3
:101C7000E02D099591E089270895DC01ED91FC9113
:101C8000048CF58DE02D0994EF92FF920F931F9332
:101C9000CF93DF93EC018B017A010E942F05688BB3
:101CA000798B8A8B9B8B8C819D81DC01ED91FC91E2
:101CB0000280F381E02DA701B801DF91CF911F9140
:101CC0000F91FF90EF9009941F93CF93DF93EC0156
:101CD000162F0E942F05688B798B8A8B9B8B8C81AA
:101CE0009D81DC01ED91FC910190F081E02D612F4F
:101CF000DF91CF911F910994089590E080E00895BD
:101D000090919B03992339F0E091D102F091D20296
:101D1000309709F009940895CF93DF93EC01FE0109
:101D200084912196882319F00E94800EF8CFDF91CC
:101D3000CF9108950E948C0E8DE093E00C948C0E50
:101D400080E990E00E949A0E80E890E00E949A0E4E
:101D500088E690E00E949A0E90E080E00895CF938C
:101D6000DF93EC018991811103C0DF91CF91089538
:101D70000E94800EF7CFEBE1F3E030E020E04081FD
:101D80005181452B21F442815381452B41F02F5F36
:101D90003F4F34962630310591F780E00895220FA9
:101DA000331F220F331FF901E55EFC4F91838083BF
:101DB0007383628381E008950E94B6088091CC020B
:101DC000882381F00E946D0892FD0FC082E090E0B0
:101DD0002091A9033091AA032817390711F00C9418
:101DE0000000089590E080E0F3CF81E090E0F0CF34
:101DF000682F8DEE95E00C949403CF93DF93EC0164
:101E00008DEE95E00E945203009739F08DEE95E03B
:101E10000E943003888381E090E0DF91CF910895A4
:101E2000CF93DF9300D0CDB7DEB781E190E00E9481
:101E3000F23A898382E190E00E94F23A8A838981B2
:101E40009A8101978E3F9F4F20F08BE597E09A8310
:101E5000898389819A810F900F90DF91CF910895A6
:101E60000C94F23AFF920F931F93CF93DF93EC0100
:101E70008CE090E00E94300F182F8BE090E00E94E1
:101E8000300F082F8AE090E00E94300FF82E89E092
:101E900090E00E94300F2AE931E0398328838A8359
:101EA000FB820C831D83CE01DF91CF911F910F9197
:101EB000FF900895FF920F931F93CF93DF93EC0150
:101EC00080E190E00E94300F182F8FE090E00E9498
:101ED000300F082F8EE090E00E94300FF82E8DE03A
:101EE00090E00E94300F2AE931E0398328838A8309
:101EF000FB820C831D83CE01DF91CF911F910F9147
:101F0000FF9008950F931F93CF93DF930DEC15E08F
:101F1000C3E1D0E0CE010E94300FC33131F48F3FD6
:101F200069F0882359F0843149F0F80181938F01D9
:101F3000882321F02196C333D10561F78091CD0527
:101F4000811106C06CE971E08DEC95E00E94C03D06
:101F50008DEC95E0DF91CF911F910F910895CF9275
:101F6000DF92EF92FF920F931F93CF93DF937C0149
:101F7000EB016091150770911607CE010E94A83AF7
:101F80008C010E946302882309F440C0C0901507A9
:101F9000D0901607B601C7010E94A83A9801295FA0
:101FA0003F4F820F931FC816D90680F16091130727
:101FB0007091140745E050E0C7010E9441027E0184
:101FC000E00EF11EFE01EC01CE1BDF0BAE014E0F49
:101FD0005F1F6091130770911407EE15FF0531F034
:101FE0002191640F751FDB012C93F0CF055011096F
:101FF000A801480F591F80E3DF91CF911F910F91E6
:10200000FF90EF90DF90CF900C943B0580E0DF9144
:10201000CF911F910F91FF90EF90DF90CF90089597
:102020000F931F93CF93DF93EC010091150710914D
:102030001607B8010E94A83A209709F441C00996F2
:1020400008171907E8F10E9463028823C9F18091FB
:102050001B0790911C07019681F190931C078093B8
:102060001B07E0911307F091140780911C078583EB
:10207000E0911307F091140780911B07868360910C
:1020800013077091140747E050E0CE010E9441020F
:10209000E0911307F0911407E80FF91F1082AC01CB
:1020A00044505109609113077091140782E8DF9141
:1020B000CF911F910F910C943B0581E090E0CDCF23
:1020C00080E0DF91CF911F910F9108958F929F92A1
:1020D000AF92BF92EF92FF920F931F93CF93DF9334
:1020E000CDB7DEB7A1970FB6F894DEBF0FBECDBF58
:1020F0007C01FA01CB0119A2223008F42AE08E01FA
:102100000F5D1F4F822E912CB12CA12CBF01A50178
:1021100094010E94713BF901CA016A3074F5605D57
:10212000D8016E938D01232B242B252B79F790E07A
:1021300080E0109789F0FD0101900020E9F73197C8
:10214000AF014A1B5B0BD701ED91FC910280F3813B
:10215000E02DB801C7010995A1960FB6F894DEBF2E
:102160000FBECDBFDF91CF911F910F91FF90EF90E8
:10217000BF90AF909F908F900895695CD1CF8F9260
:102180009F92AF92BF92CF92DF92EF92FF920F9306
:102190001F93CF93DF937C01EB016C0182E0C80EAB
:1021A000D11C4701E5E08E0E911C10E000E0F60125
:1021B00041916F0150E070E060E02AE0CE010E94A2
:1021C00066105C01E881F9810190F081E02D6EE2FA
:1021D000CE0109958A0D9B1D080F191FC814D9043B
:1021E00031F7F701458150E070E060E02AE0CE0170
:1021F0000E946610800F911FDF91CF911F910F9168
:10220000FF90EF90DF90CF90BF90AF909F908F9016
:10221000089542E050E067EA71E08DEE95E00C949D
:10222000C202CF93DF930E94E103EC010E940911E7
:102230008C0F9D1FDF91CF910895CF93DF930E9464
:102240002F0566507F4F8F4F9F4F6093C905709346
:10225000CA058093CB059093CC050E94B6081092D6
:10226000BF051092BE051092C1051092C005E3EBA8
:10227000F4E089E091E0DF019C011D9221503040A3
:10228000E1F781E098E09093B4048093B3044FEFBA
:1022900060E08FEF0E947C0762E070E080E090E0F9
:1022A0000E94F20462E370E080E090E00E94F20499
:1022B0001092BD051092BC05C0E1D0E06DE180E058
:1022C0000E944608811109C0219739F06AE070E048
:1022D00080E090E00E94F204F1CF70E060E088E0DE
:1022E0000E94B40770E060E08CE00E94B4076FEFDA
:1022F00077E08AE00E94B40761EB88E30E94390826
:102300006FE370E388E20E94B40769EF77EF80E340
:102310000E94B4076DE070E080EC0E94B40742E3D5
:1023200062EC80E80E947C0762E17CE086EC0E941F
:10233000B40762E184EC0E9439086CED75E08AEC28
:102340000E94B4076091010184EE0E9439086091F7
:10235000020185EE0E9439086091030182EE0E941D
:1023600039086091040183EE0E94390860910501EB
:1023700080EE0E9439086091060181EE0E943908C2
:1023800060E071E080E10E9499088FE10E9495076A
:1023900040EC6BE180E80E947C0744E06FE180E85C
:1023A0000E947C0766E774E084E10E9499088091AE
:1023B00001018093C305809102018093C40580913F
:1023C00003018093C505809104018093C605809127
:1023D00005018093C705809106018093C80510927E
:1023E000AB041092AA041092AD041092AC041092A7
:1023F000AF041092AE041092B1041092B004109287
:102400004B0410926904109287041092A50480E096
:1024100094E0909331048093300410920904109258
:102420000804109214041092130410921F041092C6
:102430001E0410922A041092290484E08093B204AE
:10244000109203049BE024E080910304883018F08C
:10245000DF91CF910895899FF0011124E555FC4F3C
:10246000DF01322F1D923A95E9F78F5F80930304C5
:10247000EBCFAF92BF92CF92DF92EF92FF920F938A
:102480001F93CF93DF93CDB7DEB768970FB6F8945D
:10249000DEBF0FBECDBF8C017B016A0159010E94D6
:1024A0001D118AE991E09A838983F5014281538164
:1024B000648175814B835C836D837E8398878F8372
:1024C000F601428153816481758149875A876B8700
:1024D0007C879E878D87F701428153816481758156
:1024E0004F87588B698B7A8B9C8B8B8BF801828101
:1024F0009381A481B5818D8B9E8BAF8BB88F9E010C
:102500002F5F3F4FAE01495F5F4FBE01635F7F4F5B
:10251000CE0143960E94040C68960FB6F894DEBF75
:102520000FBECDBFDF91CF911F910F91FF90EF9024
:10253000DF90CF90BF90AF900895CF93DF93DC01F1
:102540001C96ED91FC913097B1F0EC01158214824C
:10255000128611861D861C8689890E943C078889FF
:102560000E943C078A890E943C072E9686E0FE0165
:1025700011928A95E9F7DF91CF910895FC011382BA
:10258000128288EE93E0A0E0B0E084839583A68376
:10259000B78382E291E091838083158614863E960C
:1025A00086E0DF011D928A95E9F708950F931F9346
:1025B000CF93DF93DC0120913004309131042F5F01
:1025C0003F4F21158DE7380710F020E030E1522F02
:1025D000432FE4E0F4E0EF0180E08430A1F4309395
:1025E00031042093300430E020E02430310599F4A8
:1025F00084E08093B204F0E0E0E0CF01DF91CF917E
:102600001F910F9108950C811D818F5F2B960417E8
:10261000150719F7D4CFC481D581C90101963B961E
:10262000CD2B09F52093B2048BE0829FF001839FAC
:10263000F00D1124EC5FFB4F558344837783668351
:10264000109799F484E0DF011D928A95E9F78BE0F9
:10265000829FD001839FB00D1124AC5FBB4F80E4FB
:1026600018968C93CACF9C01C0CF8D919C911197E5
:102670009183808312968D919C9193838283E7CF7F
:102680000F931F93CF93DF93EC018B018C859D8576
:10269000892B41F470E060E090E080E00E94D61267
:1026A0009D878C87EC85FD8580E0309749F0102769
:1026B00001271027158304832E96D287C18781E0D6
:1026C000DF91CF911F910F9108950F931F93CF9397
:1026D000DF938C01EB01E8E0F2E08BE2DF011D9279
:1026E0008A95E9F70E94820FBC0188E092E00E947F
:1026F000C03D6AEA71E088E092E00E94C03DB80106
:1027000088E092E00E94C03D61EB71E088E092E0D9
:102710000E94C03DBE0188E092E00E94C03D88E07A
:1027200092E0DF91CF911F910F9108950F931F9326
:10273000CF93DF93C82FD62F6AEB71E08FEB91E038
:10274000C93091F06AEB71E081EC91E0C83061F042
:102750006AEB71E083EC91E0C73031F0C63039F4B8
:102760006AEB71E085EC91E00E9465138C0161E0F9
:10277000D13061F0D23011F460E008C0D33049F4B8
:102780008C2F0E94450461E0892BB1F78C2F0E94A9
:102790006E040E946302882361F08C2F0E9445041E
:1027A00066EB71E0019711F463EB71E0C8010E94E0
:1027B000AF0FDF91CF911F910F9108950F931F934A
:1027C000CF93FB0142305105D9F420812F34E1F53C
:1027D00021812E34C9F5C1E08C0167EC71E08FEBEB
:1027E00091E00E946513BC01C8010E94CB3D892B7A
:1027F00079F56C2F89E0CF911F910F910C9496136E
:102800004330510559F420812F34F1F421812634CD
:10281000D9F422812634C1F4C2E0DECF463051051E
:1028200099F42081243581F421812F3469F42281A7
:10283000273451F42381273439F424812C3421F4B2
:102840002581C3E0253441F2CF911F910F91089566
:1028500067EC71E081EC91E00E946513BC01C80156
:102860000E94CB3D892B19F46C2F88E0C4CF67EC14
:1028700071E083EC91E00E946513BC01C8010E94E5
:10288000CB3D892B19F46C2F87E0B5CF67EC71E055
:1028900085EC91E00E946513BC01C8010E94CB3D0C
:1028A000892B91F66C2F86E0A6CF0F931F93CF93C1
:1028B000DF938B01039709F040C0FB01C281D381F4
:1028C0006FEB71E0CE010E94CB3D892BD1F061EC22
:1028D00071E0CE010E94CB3D892B09F479C063ECF5
:1028E00071E0CE010E94CB3D892B09F473C065ECE9
:1028F00071E0CE010E94CB3DC6E0892B19F0C0E00B
:1029000001C0C9E0F8010481158163EB71E0C801E1
:102910000E94CB3D892B09F46BC066EB71E0C801C6
:102920000E94CB3D892B09F46BC06BEC71E0C801B0
:102930000E94CB3D892B09F465C085E093E00E949D
:102940008C0E82EE92E00E949A0E84ED92E00E943C
:102950009A0E87EC92E00E949A0E8BEB92E00E9416
:102960008C0E89E00E9445040197B1F188EA92E05B
:102970000E949A0E8FEA92E00E948C0E88E00E94DC
:102980004504019761F188EA92E00E949A0E8CE971
:1029900092E00E948C0E87E00E944504019711F19D
:1029A00088EA92E00E949A0E80E992E00E948C0EE2
:1029B00086E00E9445040197C1F088EA92E00E94F7
:1029C0009A0E90E080E0DF91CF911F910F910895D2
:1029D000C8E098CFC7E096CF8CEA92E0C9CF8CEAE6
:1029E00092E0D3CF8CEA92E0DDCF8CEA92E0E7CFA1
:1029F00061E0CC2309F4A1CF8C2F0E9496139DCFC8
:102A000062E0F7CF63E0F5CF0F931F93CF93DF938F
:102A100000D000D0CDB7DEB78C01FC0182814AE046
:102A2000BE016F5F7F4F90E00E94C83ACE010196D1
:102A30000E94AF0E82ED91E00E94AF0EF8018381FB
:102A40004AE0BE016F5F7F4F90E00E94C83ACE011E
:102A500001960E94AF0E82ED91E00E94AF0EF80148
:102A600084814AE0BE016F5F7F4F90E00E94C83AC8
:102A7000CE0101960E94AF0E82ED91E00E94AF0E52
:102A8000F80185814AE0BE016F5F7F4F90E00E94B0
:102A9000C83ACE0101960E94AF0E0F900F900F9092
:102AA0000F90DF91CF911F910F910895DC018AE97A
:102AB00091E08D939D9384E0FB0101900D928A95A6
:102AC000E1F70895EF92FF920F931F93CF93DF9357
:102AD000FC0110920304CBEAD3E0DE0130E020E0F9
:102AE0002830310569F490E0983009F042C0109226
:102AF000400210923F02109203042BEA33E044C0DC
:102B0000CD018B5A93400D911C9111970115110520
:102B100061F112964D915C9113974115510529F180
:102B2000E080F1800E151F0501F502811381401729
:102B30005107D9F420930304DC01A155BC4F86E072
:102B4000FB0101900D928A95E1F78BE0829FF001E5
:102B5000839FF00D1124E555FC4F1286DF91CF9134
:102B60001F910F91FF90EF9008952F5F3F4F1B969D
:102B7000B7CF9E0148815981452BB1F44A815B81D1
:102B8000452B91F49093030484E0D90101900D92B8
:102B90008A95E1F7D901149686E0FB0101900D9228
:102BA0008A95E1F7F901D9CF9F5F2B969DCFEF92E0
:102BB000FF920F931F93CF93DF9300D000D000D0EC
:102BC000CDB7DEB740917502509176024F3F540762
:102BD00031F48091770290917802019619F18091F9
:102BE000CD029091CE0260914B0270914C029B01FC
:102BF00020953095282B392B42175307A9F52091A2
:102C00004D0230914E0220953095E091CF02F09127
:102C1000D0022E2B3F2BE0917702F0917802E21741
:102C2000F30711F586E0E8E1F1E0A7E5B2E00190F5
:102C30000D928A95E1F786E0E3ECF5E0ADE5B2E0D0
:102C400001900D928A95E1F788E090E090936402FC
:102C5000809363028091C0029091C1020E9690937E
:102C6000C1028093C002A5C084279527862397239D
:102C7000892B99F420917702309178028091CF02CC
:102C80009091D0028227932760914D0270914E025D
:102C900086239723892B09F499C080914F02909144
:102CA0005002909342028093410280915102909190
:102CB00052029093440280934302E0904102F090CC
:102CC00042020091430210914402EBEAF3E080E0FB
:102CD000883009F084C08093030446E050E06FEF31
:102CE00070E087E592E00E94B93D86E0E7E7F2E018
:102CF000DF01282F1D922A95E9F7E3ECF5E0ADE519
:102D0000B2E0982F01900D929A95E1F7E3ECF5E08F
:102D1000ADE6B2E0982F01900D929A95E1F7F0920E
:102D20007E02E0927D021093800200937F02209148
:102D3000CD023091CE023093740220937302209121
:102D4000CF023091D002309376022093750220E0BA
:102D500031E030936C0220936B0230936602209333
:102D6000650228E030E03093680220936702809388
:102D7000690294E090936A0228E036E0309364029E
:102D8000209363022DE832E03093540220935302E3
:102D90002AE230E03093C1022093C002BE016F5F8F
:102DA0007F4FDB011D928A95E9F781E492E00E9452
:102DB000621526960FB6F894DEBF0FBECDBFDF9129
:102DC000CF911F910F91FF90EF9008955093420281
:102DD0004093410230934402209343026ECF2081FE
:102DE0003181E216F306E1F42281338102171307E1
:102DF000B9F49481911103C09581992329F08093AE
:102E00000304349686E011CF96819111F8CF978113
:102E10009111F5CF90859111F2CF91859111EFCF5E
:102E20008F5F3B9655CFCF93DF93EC010E94D71570
:102E30008091C0029091C1028A9759F41092BF020A
:102E40008091BE028D7F8093BE02DF91CF910C9462
:102E5000390C0E94390C1D821C82DF91CF9108959C
:102E60009C01AB0170933E0260933D02161617065B
:102E700054F480913B0290913C028217930719F021
:102E8000B9010C949E3D0895EF92FF920F931F930A
:102E9000CF93DF93E091BC02F091BD02C185D28552
:102EA000209709F456C0E090BB02E1FE1FC08A8162
:102EB00081111CC08091790290917A029783868358
:102EC000809171029091720291838083809173024C
:102ED000909174029383828380917D0290917E020F
:102EE000982789279827089709F51A82E3FE31C0A9
:102EF0008D81882371F18C818093BF028091BE0205
:102F000082608093BE028AE2809355026881798153
:102F10006B5271098091530290915402DF91CF91CD
:102F20001F910F91FF90EF900C9430170E948E0923
:102F3000F82E8A838823D1F20E945C078C012AE252
:102F400030E04091560270E060E08F2D0E942D0A23
:102F5000CDCFDF91CF911F910F91FF90EF9008950A
:102F6000AF92BF92CF92DF92EF92FF920F931F9397
:102F7000CF93DF93E0904902F0904A02F701C48DAD
:102F8000D58DD090BB02209781F5D6FC03C0F12CE3
:102F9000E12CC3C0E3EDF2E090E080E0218121115B
:102FA0007EC042E1489F9001499F300D1124E90104
:102FB000CD52DD4FC70182539440959587956FEEB2
:102FC0007EEE869FA001879F500D969F500D112485
:102FD000488381E089832B523D4F81E1F9011192B1
:102FE0008A95E9F7F701D58FC48FD1FE30C00091E3
:102FF000C0021091C1020115110549F18981867045
:1030000031F55E01F2E0AF0EB11CC12CF5018191EA
:103010005F0181114BC0C8010E948E09F5013197F3
:103020008083882309F442C02091530230915402D6
:10303000275532404091560270E060E00E942D0A10
:10304000F4E0CF1204C0F701818D8061818F898106
:1030500083FF0AC0877F89838D2D82608093BB02A6
:10306000F701818D8F7E818F8091BB0284FD04C02A
:1030700087FD02C085FF26C0CE0107960E94C30CC3
:103080008A818823E9F0F7018481958198878F836D
:10309000898184608983F701158E148E78CF01961B
:1030A00072968430910509F079CF71CFC394F5E021
:1030B000CF12ACCF8091BE028E7F8093BE02C3CF71
:1030C0001982E9CF80FF3FC0CE0107960E94D90C3C
:1030D0008F818823D1F19885911145C0EC84FD84BE
:1030E000E114F10409F453CF95E0899FF001112414
:1030F000ED54FB4FF382E28200915302109154028F
:1031000007551240009355021127C80108968E0DED
:103110009F1D009779F51092BF02B701809153026D
:10312000909154020E943017F092C102E092C002C6
:10313000DF91CF911F910F91FF90EF90DF90CF9093
:10314000BF90AF9008958C7019F6898181FF1FCFD1
:103150008F81811124C01982F701158E148E80E1B0
:103160008093BB0214CF0E945C077C01892B09F479
:103170000ECFC2CF0E948E098093BF02882369F2CE
:10318000B8016F5F7F4F870130E020E04F810E94E0
:103190002D0A8091BE0282608093BE02BECFF701ED
:1031A000818D8061818FF3CEAF92BF92CF92DF92FB
:1031B000EF92FF921F93CF93DF93843009F458C1AD
:1031C000C0914902D0914A022DE832E03093540276
:1031D0002093530230933C0220933B028330C9F486
:1031E000898D8F70833009F044C088899989892B33
:1031F00009F03FC088E08093BB020E94B017809125
:10320000BB0285FF13C610923E0210923D02198E3A
:1032100051C0823009F005C1809148028F5F8093D0
:103220004802811113C0809147028F5F809347024B
:1032300081110CC0809146028F5F809346028111FC
:1032400005C0809145028F5F809345021092C102B4
:103250001092C00210923E0210923D02898D982F6A
:103260009D7F953059F48A8D8F5F8A8F883709F456
:10327000198E1092C1021092C00231C28823C9F384
:1032800028893989232B09F4C7C09A8D2FEF290F7C
:103290002A8F9111EECF9B8D983031F02FEF280FB0
:1032A000223050F4953041F4198E80E88093BB02AF
:1032B0000E94B01784E184C0392F953008F034E0C3
:1032C00023E001C0220F3A95EAF72A8F9F5F9B8F78
:1032D0008F70833009F47DC008F06AC0813009F432
:1032E00006C4823031F61092860280918602826096
:1032F0008093860282E080938D0294E090938E0208
:1033000080938F02109290028CE290E09093C10221
:103310008093C00280E68093850288858093810235
:103320008985809382028A85809383028B8580932E
:1033300084028C8580937D028D8580937E028E85AC
:1033400080937F028F858093800286E080936E0257
:103350008C819D8190937A02809379028E819F81E6
:1033600090937C0280937B028091CD029091CE025B
:1033700090937202809371028091CF029091D0025B
:10338000909374028093730288819981909376025E
:10339000809375028A819B81909378028093770253
:1033A000898D84FFC9C51092880210928702D5C208
:1033B000863029F0883019F0843009F05ACF81E145
:1033C0008093860288E290E09093C1028093C002CD
:1033D00021C084E08093BB020E94B01780913B0221
:1033E00090913C02909354028093530280913D024D
:1033F00090913E02892B09F44AC5888999890097E2
:1034000009F445C588969093C1028093C00288E173
:103410008093860280E57FCF8F70833009F029CFBB
:10342000E9CE853009F0A9C0E091BC02F091BD025F
:1034300084819581892B09F41CCF10924A02109245
:10344000490281E892E09093540280935302909352
:103450003C0280933B0210923E0210923D02109279
:10346000C1021092C00288E08093BB020E94441700
:1034700080913D0290913E02009709F4FACE9C01A2
:10348000245E3F4F3093C1022093C0023093670205
:1034900020936802E091BC02F091BD022085209348
:1034A0006D0221E120936E020896982789279827BC
:1034B00090937E0280937D021092800210927F0290
:1034C0008481958190937A02809379028681978195
:1034D00090937C0280937B028091CD029091CE02EA
:1034E00090937202809371028091CF029091D002EA
:1034F00090937402809373028081918190937602FD
:1035000080937502828193819093780280937702F1
:103510008DE892E0909354028093530281E10E94DF
:103520006B0B80959095009709F45BC19093800296
:1035300080937F0285E48093650210926602109268
:103540006C0210926B0280913302909134020196CA
:1035500090933402809333029093690280936A02BD
:103560001092700210926F020E94F30B809590955A
:103570009093700280936F02B2C08091650285348F
:1035800009F077CEC0906702D12CDC2CCC2480913E
:103590006802C80ED11C8091C0029091C1028C15A6
:1035A0009D0508F466CED092C102C092C0028091FF
:1035B0006B028F7309F05DCE10916C02111159CE20
:1035C000A090CD02B090CE02A114B10439F4809144
:1035D000CF029091D002892B09F441C0209175024D
:1035E0003091760280916E02813149F52F3F32078A
:1035F00039F48091770290917802019609F47DC0A8
:1036000080914B0290914C02809590958A299B293C
:1036100082179307A1F480914D0290914E028095FC
:1036200090954091CF025091D002842B952B4091E0
:103630007702509178024817590709F45EC0A21624
:10364000B30609F016CE209177023091780280916E
:10365000CF029091D0022817390709F00ACE0E94B4
:10366000F30B019609F005CE80916E02863009F4C5
:10367000BBC0813109F441C0813009F0FACD80919D
:103680007902883009F0F5CD1092790280917B02A1
:1036900090917C02873F4FEF940768F109969093D1
:1036A0007C0280937B0280917102909172029093D0
:1036B00076028093750280917302909174029093C8
:1036C000780280937702B0927202A0927102809188
:1036D000CF029091D0029093740280937302109263
:1036E000BB02DF91CF911F91FF90EF90DF90CF90C1
:1036F000BF90AF9008950896D2CF8CE1C81AD10838
:10370000D092C102C092C00281E892E0909354022C
:103710008093530280917F0290918002892BE1F483
:1037200040917B0250917C026091790270917A0203
:10373000A0917102B0917202C0917302D091740293
:10374000E4E0F4E020E334E02E173F0761F4309327
:10375000BD022093BC028DCD81E10E946B0B0196CE
:1037600009F087CDDDCF848195810097C1F1841761
:103770009507A9F586819781009719F08617970715
:1037800071F5808191810097D1F4E280F380EF2878
:10379000F1F4F093BD02E093BC0210924A02109241
:1037A000490282E08093BB0281E892E090933C0260
:1037B00080933B0210923E0210923D0257CE8F3F03
:1037C000980729F4E280F380EF20E09411F38A1740
:1037D0009B0729F482819381C817D907D1F23B96C0
:1037E000B3CF8FEF9FEFA2CE86E00E946B0B0196C6
:1037F00009F03FCD40917B0250917C0260917902AB
:1038000070917A028091710290917202E09173023C
:10381000F0917402C2E3D4E0298D2223A9F0AC8197
:10382000BD814A175B0781F4AE81BF816A177B07B0
:1038300059F4A881B9818A179B0731F4AA81BB8109
:10384000EA17FB0709F45BC16E9624E0CC38D20777
:1038500019F310F3809186028F73823061F45093D4
:103860003A0240933902EAEAF4E080E0843009F059
:1038700091C08093B2048091860282FDFACC84E1EB
:103880008093860288E290E09093C1028093C00208
:1038900080E580938502309180028091840280933C
:1038A000800220917F028091830280937F02209387
:1038B000830290917E028091820280937E02909397
:1038C000820280917D028093B204409181024093F4
:1038D0007D02809381023F5F3093840231110DC0DD
:1038E0002F5F20938302211108C09F5F9093820273
:1038F000911103C08F5F8093810280917902909132
:103900007A0290933A028093390220917B0230919F
:103910007C0230937A022093790290937C02809308
:103920007B02809171029091720290937602809353
:103930007502809173029091740290937802809343
:103940007702B0927202A09271028091CF029091A0
:10395000D002909374028093730280E480936D028E
:103960008091C0029091C102909367028093680297
:1039700010928C0210928B0210928A02109289028D
:1039800086E00E946B0B8095909590938A028093BD
:103990008902D0CD219131918F5F4217530709F0F1
:1039A00065CF1092B204E2E3F4E090E080E0D0E072
:1039B000C0E08430910531F484E08093B204209714
:1039C00081F457CC3E2F2F2FA18DA11163C080937E
:1039D000B2042EE1289FE001299FD00D1124CE5C76
:1039E000DB4FD0934A02C093490283E08A8F888FCD
:1039F0001E8A84E08F8B1B8E5D834C837F836E8356
:103A000080917102909172029983888380917302F0
:103A1000909174029B838A8381E0898F8091450213
:103A20008C87809146028D87809147028E87809196
:103A300048028F8781E090E0998B888B809180028B
:103A40008B8780917F028A8780917E02898780910F
:103A50007D02888781E090E00E947330809185022A
:103A6000982F907F913508F442C082958F708550D1
:103A7000990B880F991F880F991FE12FF0E0E81725
:103A8000F9072CF4E95AFD4F36A9311112C01093F1
:103A9000B2042DC0A73031F4209731F0B28DAA8D39
:103AA000AB1710F03C2F2D2F01967E96C32FD22FEF
:103AB00080CF313011F41F5FE0CF27A93230D9F425
:103AC0002430C9F41093B20480AD91AD89279827B2
:103AD000892790933A0280933902813042E094071B
:103AE00010F080E092E09B8B8A8B9D8B8C8B80E129
:103AF00080938602FACB222351F2120FBECFD093CD
:103B00004A02C09349021092BB029091860292FF32
:103B100007C0198E80E28093BB020E94B017A9CB28
:103B20008091850282958F70880F880F8093B204F0
:103B3000C81AD108760184E1E81AF108F092C102AE
:103B4000E092C0022F70223021F4892F8F738231CE
:103B5000D1F0E114F10419F4892F8370A1F03985B3
:103B60002A858B8550917D0248855413C0C14091B0
:103B70007E024313BCC130917F023213B8C1209141
:103B800080022813B4C194FF49C0688979896115FE
:103B9000710509F443C0CE010C960E94403030916B
:103BA000810280913502381339C0209182028091C0
:103BB0003602281333C09091830280913702981304
:103BC0002DC08091840240913802841327C03C8725
:103BD0002D879E878F87988D8B8D811118C08E8938
:103BE0002A8D921B282F269526952695921B890FA4
:103BF0008E8B97FD91952F89322F36953695231B05
:103C0000920F9F8B869586958695890F888F81E088
:103C10008093BB02888D8A8F198A188A298DE22F9A
:103C2000EF70E150E83008F024CBF0E0E65EF14EB2
:103C30000C94A23B221E3B1EA51E5A1F831F941FDD
:103C4000771F531F8091BB0280FF13CB83E0898FC6
:103C500080E48093BB02198A188AE114F10431F0E0
:103C600082E48093BB02C7010E94733010923E022F
:103C700010923D02C2CA8091BB0280FF5FC080915A
:103C800086028F73823109F059C080918502982F86
:103C9000907F913598F182958F708550990B880FA0
:103CA000991F880F991FE12FF0E0E817F9072CF40E
:103CB000E95AFD4F36A9311103C01093B2041EC05A
:103CC000313011F41F5FEFCF27A9323099F524303E
:103CD00089F51093B20480AD91AD89279827892783
:103CE00090933A0280933902813012E0910710F0EC
:103CF00080E092E09B8B8A8B9D8B8C8B83E0898FFD
:103D000080917D02888780917E02898780917F02E1
:103D10008A87809180028B8781E090E00E947330D7
:103D200082E48093BB02198A188A1092C102109211
:103D3000C0029CCF222309F2120FB5CF80E28093FC
:103D4000BB020E94B017198E96CD8091860280FF2B
:103D500020C024FD1EC088899989892B09F089CA51
:103D6000C60143970E9473308091BB02982F9061E7
:103D70009093BB02EF2819F082618093BB020E94EE
:103D8000B01781E090E0998B888B88E0898F1B8E3B
:103D900016CB85FF14C080918B0290918C029827DE
:103DA00089279827AC0143575D4F509354024093A5
:103DB0005302E81AF90AF092C102E092C00240915F
:103DC000C0025091C1029091BB024115510541F0D2
:103DD00024FD06C092609093BB02CA010E9473301A
:103DE00080918702282F30E0322F2227809188028D
:103DF000820F932F911D90933A02809339022C8960
:103E00003D892817390710F0892B21F430933A02A5
:103E1000209339028091390290913A029B8B8A8BD0
:103E20008091BB02837009F424CA20CF84FF0AC0AA
:103E300010923E0210923D0281E090E0998B888BB7
:103E400084E0A4CF20913D0230913E02211531053E
:103E5000B9F080FF02C0198A188A88899989009769
:103E600089F48A899B898217930720F490933E02F4
:103E700080933D0280913D0290913E02998B888B08
:103E80001B8EACCA90933E0280933D02F9CF809185
:103E9000BB0281FFEEC988E290E09093C10280935B
:103EA000C00280E1B5CA8091BB0280FFE2C9198ED1
:103EB00080E131CEE114F10419F0C7010E947330A2
:103EC0008091BB0281709091860290FF15C088237B
:103ED00081F087E0898F1A8E198A188A81E090E034
:103EE0000E94733080E18093BB020E94B01780E192
:103EF00067CA86E0898FF2CF882399F085E0898FA1
:103F0000198A188AB6C9E114F10419F0C7010E9490
:103F100073308091860280FF04C087E0898F1A8EFB
:103F2000DDCFEF2821F7A5C98091BB0280FFA1C991
:103F300087E0898F1A8E9DC982E080938702109254
:103F400088020BCDCF93DF93EC012C853D852115A5
:103F5000310529F490E080E0DF91CF910895EA895E
:103F6000EE23C1F381E08B8B85E0E89FF001112403
:103F7000ED54FB4F8E859F85079693838283309304
:103F8000BD022093BC0285E00E94D4188091C0023B
:103F90009091C102892BF1F2CE010E960E94131767
:103FA00081E090E0D9CF8F929F92AF92BF92CF9253
:103FB000DF92EF92FF92CF93DF938091CC02882320
:103FC00009F41FC1D0915602D11151C089E30E945A
:103FD0006408882309F449C06091BC057091BD054F
:103FE0006B0126E0C20ED11CC11438E0D30628F0C4
:103FF0006B014AEFC41A47E0D40A80E00E94B4077C
:1040000060E08AE30E944608E82E60E08AE30E94AE
:104010004608F82EF092BD05E092BC0560E08AE308
:104020000E944608B82E60E08AE30E944608C82F26
:1040300060E08AE30E944608A82E40E46EE180E832
:104040000E947C07A7FEE8C0E11458E0F50608F0DE
:10405000E3C0D092BF05C092BE059C2F8B2D049764
:104060009093C1058093C005DFEFD0935602F09086
:104070005602FF2009F472C081E08093BE028F2DAA
:104080000E945C07EC019093C1028093C002892BCF
:1040900009F4EFC042E650E067E572E08F2D0E9420
:1040A0000008C0906302D090640288E0C816D10472
:1040B00009F0CDC0F092BF022E97D093C102C093F9
:1040C000C0022091710230917202E091CD02F09114
:1040D000CE02C9018E279F2740914B0250914C027E
:1040E00084239523892B49F54091730250917402E2
:1040F0006091CF027091D002CA0186279727A091C4
:104100004D02B0914E028A239B23892BB1F48091FA
:10411000750290917602E817F90709F080C0809146
:104120007702909178026817790709F078C06DE5F9
:1041300072E081E792E00E94621581E00E94D4184B
:104140008091C0029091C102892B21F00E94D71565
:104150000E94390C8091BE0280FD8BC00E942F0509
:104160006B017C018091C9059091CA05A091CB0596
:10417000B091CC0546015701881A990AAA0ABB0AD0
:10418000C2E3D4E0D0934A02C0934902B7FC08C10D
:1041900082E00E94D4188091C0029091C102892BC4
:1041A00021F00E94D7150E94390C6E9634E0CA3A6D
:1041B000D30741F7B7FC25C04AEFC40ED11CE11C60
:1041C000F11CC092C905D092CA05E092CB05F092CD
:1041D000CC05C4E0D4E0D093BD02C093BC0285E01E
:1041E0000E94D4188091C0029091C102892B21F0C5
:1041F00089859A850E9413172B9654E0C033D50702
:1042000051F7DF91CF91FF90EF90DF90CF90BF906B
:10421000AF909F908F9008950E942A0826CFEBEAD6
:10422000F3E080E0883019F48093030486CF608146
:1042300071812617370741F462817381461757074A
:1042400019F48093030473CF8F5F3B96EBCF28E084
:10425000C21626E0D20669F41092C1021092C00282
:10426000AA9760F48091C0029091C102892B09F055
:104270006FCF0E942A081092560270CF80916B0275
:1042800090916C02811531E0930701F18115924004
:1042900049F720917D0230917E028091CD0290916C
:1042A000CE0228173907F1F620917F023091800263
:1042B0008091CF029091D0022817390799F66DE6C8
:1042C00072E083E792E00E946215CCCFE0907D021D
:1042D000F0907E028091CD029091CE02E816F90610
:1042E00009F6C0917F02D09180028091CF02909117
:1042F000D002C817D90709F0B5CF6DE672E083E7A1
:1043000092E00E94621580E092E090936C028093AC
:104310006B0286E0EDE6F2E0A7E7B2E001900D92D5
:104320008A95E1F786E0E3ECF5E0ADE6B2E00190D6
:104330000D928A95E1F786E0E3ECF5E0ADE5B2E0B9
:1043400001900D928A95E1F786E0E7E7F2E0A7E5B4
:10435000B2E001900D928A95E1F7809173029091FD
:10436000740290937E0280937D02809175029091F9
:1043700076029093800280937F02F0927402E09222
:104380007302D0937602C0937502D0926402C092F9
:1043900063028AE290E09093C1028093C00262CFF0
:1043A000EC8DFD8D309709F400CF86859785A08927
:1043B000B189A7019601281B390B4A0B5B0BDA0167
:1043C000C901B7FDF2CE83E00E94D4180E942F05E8
:1043D000E0914902F0914A02048CF58DE02D665F70
:1043E0007F4F8F4F9F4F66877787808B918BD3CE80
:1043F000CF93DF93EC010E94D31F89890E943C0771
:10440000198ADF91CF9108950F931F93CF93DF9374
:104410001F92CDB7DEB78C010E94D31FF8018189AE
:10442000882389F041E050E0BE016F5F7F4F0E941A
:104430000008019741F4898190E00F90DF91CF91BE
:104440001F910F9108958FEF9FEFF7CFEF92FF929B
:104450000F931F93CF93DF937C018B01EA010E949E
:10446000D31FF7018189882369F1AE01B8010E9449
:1044700000088C01F701C1898C2F0E945C0780170E
:10448000910769F48C2F0E943C07F701118AC8013B
:10449000DF91CF911F910F91FF90EF90089585E0EC
:1044A000C89FF0011124ED54FB4F80819181800F52
:1044B000911F9183808382819381801B910B9383D1
:1044C0008283E5CF80E090E0E3CFCF93DF93EC01F0
:1044D0000E94D31F8989DF91CF910C945C07CF9301
:1044E000DF93EC010E94D31F898981110E943C0750
:1044F0008889898B188ADF91CF910C945C07CF92C1
:10450000DF92EF92FF920F931F93CF93DF9300D030
:1045100000D0CDB7DEB78C016B017A010E94D31FAA
:10452000F60182819381A481B581892B8A2B8B2B03
:10453000E9F0E114F104D1F0D8011C96ED91FC9161
:10454000D60112962D913C9113973A8329831496A4
:104550008D919C919C838B837E2D6F2D309779F16B
:10456000778366833183208393838283F8018485F4
:104570009585892BB1F18289811133C08EE096E057
:104580000E948E09D80152968C9352972BE230E00C
:104590001F963C932E931E9721E090E0811101C05D
:1045A00020E0822F0F900F900F900F90DF91CF910E
:1045B0001F910F91FF90EF90DF90CF900895CE0163
:1045C00001960E94D612F80195878487009749F0DA
:1045D0009801225F3F4FDC011A963C932E93199766
:1045E000C5CF80E090E0DECF4F925F926F927F92D6
:1045F0008F929F92AF92BF92CF92DF92EF92FF92F3
:104600000F931F93CF93DF93CDB7DEB763970FB6AA
:10461000F894DEBF0FBECDBF6C017B013A01FB01F8
:10462000DB018D91882309F444C08E32D1F380538D
:104630008A30B8F3F601428153816481758180919B
:10464000FD069091FE06A091FF06B0910007481765
:1046500059076A077B0709F455C28601085F1F4F97
:104660000E942F056F7077277C5FC8010E9440135E
:10467000813009F04CC28AE991E09A838983F6017E
:1046800082819381A481B5818B839C83AD83BE831A
:1046900045E350E0BE016F5F7F4FC8010E947F225B
:1046A000892B09F057C0F12CE12CC8010E949D1202
:1046B00039C030E020E090E080E05AE041914423AE
:1046C00009F1843091050CF0B5CF4E3271F42F3FD3
:1046D000310511F00CF0AECFD301A80FB91F12961F
:1046E0002C93019630E020E0E9CF529FB001539F18
:1046F000700D1124242F440F330B20533109260F42
:10470000371FDCCF2F3F310511F00CF093CF8430F1
:1047100091050CF08FCF680E791EF3012283EE24F1
:10472000E394F12CC70163960FB6F894DEBF0FBE79
:10473000CDBFDF91CF911F910F91FF90EF90DF9050
:10474000CF90BF90AF909F908F907F906F905F9031
:104750004F9008950E942F05F6017783668342E00B
:1047600050E0B6016A5F7F4FC8010E94F20A81E003
:1047700090E09A83898342E050E0BE016F5F7F4FF3
:10478000C8010E94F20A80E091E09A83898342E0A6
:1047900050E0BE016F5F7F4FC8010E94F20A1A828B
:1047A000198242E050E0BE016F5F7F4FC8010E9456
:1047B000F20A42E050E0BE016F5F7F4FC8010E94E5
:1047C000F20A42E050E0BE016F5F7F4FC8010E94D5
:1047D000F20A5701F7018081882301F17501F70181
:1047E00081912F01882311F08E32B1F447018A188C
:1047F0009B081814190474F48D8641E050E0BE0142
:10480000635F7F4FC8010E94F20AA401B501C8018D
:104810000E94F20A5201DECF7201E1CF1D8641E013
:1048200050E0BE01635F7F4FC8010E94F20AE12C95
:10483000FF24F394FA82E98242E050E0BE016F5F08
:104840007F4FC8010E94F20AFA82E98242E050E0FA
:10485000BE016F5F7F4FC8010E94F20AC8010E942B
:10486000A21F892B09F41FCFA3E0AA2EB12C23018C
:1048700022E0420E511C26C0F601628073808480C3
:104880009580B801CE0101960E94AF0A8B819C8170
:10489000AD81BE81681679068A069B0629F4C80197
:1048A0000E94A00AC59759F1FEEFEF2EFF24FA945B
:1048B000E1E0AE1AB10809F4F8CEFFEFEF16FF06FB
:1048C00009F0F3CE0E942F053B014C01C8010E9464
:1048D0006F221816190684F20E942F0566197709AF
:1048E00088099909693873418105910508F001C16A
:1048F00062E370E080E090E00E94F204E7CFC8013C
:104900000E9465220C970CF4F8C04CE050E0BE0108
:104910006F5F7F4FC8010E943D0E8B819C8198275D
:10492000892798279A8B898BF6014681578129819F
:104930003A814217530711F497FD08C0C8010E943D
:10494000F821ECEFEE2EFF24FA94B2CF8F70927024
:10495000892B41F0C8010E94F8217BEFE72EFF244C
:10496000FA94A6CF6F807884762467247624F12C7D
:10497000E12C61147104D1F4C8010E94F8216AEF9E
:10498000E62EFF24FA9494CF8D85811117C0C801BB
:104990000E94D50AC8010E94D50AC8010E94D50A02
:1049A000C8010E94D50AFFEFEF1AFF0A8D819E8190
:1049B000982789279827E816F906A8F441E050E0DF
:1049C000BE01635F7F4FC8010E943D0E8D85882325
:1049D000D9F28D859FEF980F9D878823A9F2C80192
:1049E0000E94D50AF6CF912C812C41E050E0BE0107
:1049F0006D5E7F4FC8010E943D0E8B89982F907C81
:104A000061F4882389F08B899FEF980F9B8B882313
:104A100041F0C8010E94D50AF6CFC8010E94D50A0C
:104A20001B8A8B898111E1CF42E050E0BE01615FBA
:104A30007F4FC8010E943D0E42E050E0BE01635F1F
:104A40007F4FC8010E943D0EC8010E94D50AC801CF
:104A50000E94D50AC8010E94D50AC8010E94D50A41
:104A600042E050E0BE016F5E7F4FC8010E943D0EE4
:104A70008F85988981159140E1F48D859E858115FA
:104A80009140B9F489899A898115944041F0C8010F
:104A90000E94F82157EFE52EFF24FA9409CF44E055
:104AA00050E0B201C8010E943D0EEE24E394F12CC7
:104AB000FFCEF12CE12C89899A899827892798279C
:104AC000E816F90638F4C8010E94D50A2FEFE21A59
:104AD000F20AF1CF8FEF881A980A8614970409F02A
:104AE00084CFC8010E94F82136EFE32EFF24FA9408
:104AF000DFCEEE24EA94FE2CDBCE9DEFE92EFF24E0
:104B0000FA94D6CE8EEFE82EFF24FA940BCEF12C39
:104B1000E12C08CEAF92BF92CF92DF92EF92FF923C
:104B20000F931F93CF93DF93CDB7DEB7A8970FB640
:104B3000F894DEBF0FBECDBF7C015B016A010AE9BC
:104B400011E01A8309831B821C821D821E82CE0102
:104B500009960E94BE121CA30BA31DA21EA21FA297
:104B600018A68091EB069091EC06A091ED06B0910D
:104B7000EE068F8F98A3A9A3BAA38B839C83AD83E2
:104B8000BE8318861F82AE014D5D5F4FB501CE0119
:104B900001960E94F42281309105B1F4D701ED9184
:104BA000FC910488F589E02D1E8F0D8F8DA19EA1AB
:104BB000AFA1B8A58F8F98A3A9A3BAA3A601BE01E0
:104BC000635E7F4FC7010995A8960FB6F894DEBFC4
:104BD0000FBECDBFDF91CF911F910F91FF90EF904E
:104BE000DF90CF90BF90AF900895AF92BF92CF92D9
:104BF000DF92EF92FF920F931F93CF93DF93CDB786
:104C0000DEB7A8970FB6F894DEBF0FBECDBF7C010C
:104C10005B016A010AE911E01A8309831B821C8285
:104C20001D821E82CE0109960E94BE121CA30BA3F8
:104C30001DA21EA21FA218A68091EB069091EC0661
:104C4000A091ED06B091EE068B839C83AD83BE836D
:104C500018861F82AE014D5D5F4FB501CE010196F2
:104C60000E94F42281309105B1F4D701ED91FC91BD
:104C70000684F785E02D1E8F0D8F8DA19EA1AFA11B
:104C8000B8A58F8F98A3A9A3BAA3A601BE01635E9E
:104C90007F4FC7010995A8960FB6F894DEBF0FBEE7
:104CA000CDBFDF91CF911F910F91FF90EF90DF90DB
:104CB000CF90BF90AF900895CF93DF93EC014C81DC
:104CC0005D81AAEAB4E090E080E0282F843091056D
:104CD00021F484E08093B2040EC0FC016D917D91BB
:104CE0000196672B91F72093B204EE0FFF1FE65554
:104CF000FB4F518340830E94D31F81E08E83DF915D
:104D0000CF910895CF93DF93EC010E94D31FEC85E0
:104D1000FD8587818823D9F0DF01189621E08D91E8
:104D2000811110C0215030E0322F2227330F8485AB
:104D30009585280F391F80E09AE0821B930BDF9145
:104D4000CF9108952F5F253051F724E0ECCF80E01C
:104D50009AE0F5CFAF92BF92CF92DF92EF92FF929F
:104D60000F931F93CF938C015B017A016A010E941C
:104D7000D31F0115110509F45DC0F8018181882355
:104D800009F458C0867009F055C03896C1E0819189
:104D9000811133C0C150F801EC0FF11D87818111E1
:104DA0000DC080E092E00E948E09F801EC0FF11D29
:104DB00087838823E1F2F80115861486A7014C1930
:104DC0005D094A0D5B1DF801648575859601EC0F40
:104DD000F11D87810E945E0AC81AD90AF80124854C
:104DE0003585820F931F958784871C141D0454F406
:104DF000C43009F4BCCFCF5FD4CFCF5FC53039F614
:104E0000C4E0C9CF0E942F05665F7F4F8F4F9F4F31
:104E1000F80166877787808B918BC7018C199D0974
:104E2000CF911F910F91FF90EF90DF90CF90BF90A7
:104E3000AF90089590E080E0F3CF9F92AF92BF9241
:104E4000CF92DF92EF92FF920F931F93CF93DF9356
:104E50008C017B016A01C3EDD2E0B12CA12C8EE163
:104E6000982E898180FF15C0E8819E9EF001112453
:104E7000EE5CFB4F24813581F801848195812817F0
:104E8000390739F4A601B701CE010E94AA26A80E5F
:104E9000B91E6296F3E0CB31DF0718F3C501DF914D
:104EA000CF911F910F91FF90EF90DF90CF90BF9027
:104EB000AF909F900895FC01848595850C94AA2657
:104EC000CF93DF931F92CDB7DEB7698341E050E007
:104ED000BE016F5F7F4FFC01848595850E94AA26E5
:104EE0000F90DF91CF910895CF93DF93EC010E9453
:104EF000D31FEC85FD85309739F0818182FF08C092
:104F000081E09281911101C080E0DF91CF910895FD
:104F100081E0FBCFCF93C82F84E497E00E947427F1
:104F2000882361F084E497E00E94230E882331F007
:104F30006C2F84E497E0CF910C946027CF91089573
:104F4000CF93DF93EC018C859D85009769F0FC0180
:104F50002181222349F002960E94C30CEC85FD8535
:104F6000818182FF07C011821D861C86DF91CF914F
:104F70000C94D31F82608183F7CFCF93DF93EC0132
:104F800084E497E00E9474278823A1F084E497E0EA
:104F90000E94230E882371F084E497E00E94E30DC1
:104FA000009771F084E497E00E942A0D888381E0E5
:104FB00090E006C084E497E00E94A02790E080E0A3
:104FC000DF91CF910895CF92DF92EF92FF920F93EE
:104FD0001F93CF93DF938C01EB016A01DC01ED910C
:104FE000FC910488F589E02D0995EA80FB806C81AD
:104FF0007D815C2D4D2D809130049091310401967E
:105000008115BDE79B0710F080E090E1382F292F34
:10501000E2E3F4E0DF01C0E0C430D1F49093310466
:10502000809330041092B20480E0D0E0C0E084307D
:10503000F1F48093B204209711F590E080E0DF91C5
:10504000CF911F910F91FF90EF90DF90CF90089537
:105050005996DC915997DD2339F01496CD90DC9068
:105060001597C216D30659F2CF5F5E96D5CFAE2FF5
:105070009F2FB18DB1113CC08093B204EF0182E04B
:10508000898F809145028C87809146028D8780911F
:1050900047028E87809148028F8780E092E09B8B49
:1050A0008A8B9D8B8C8B81E090E0998B888B1B8EFB
:1050B0008A8F83E0888F1E8A80E18F8B3D832C83CB
:1050C0005F834E83F982E8827B836A83898D8F7048
:1050D00009F4B3CF0E94D31F898D8F708330B1F74D
:1050E0008C8D9D8DF8019587848781E090E0A7CF16
:1050F000B73031F4209731F0D28CBA8DBD1510F055
:10510000AC2F9D2F8F5F7E96CA2FD92F90CF2F92D5
:105110003F924F925F926F927F928F929F92AF9247
:10512000BF92DF92EF92FF920F931F93CF93DF9383
:10513000CDB7DEB7C254D1090FB6F894DEBF0FBEAB
:10514000CDBF7C015B010E942F052B013C01870133
:10515000015C1F4FC8010E946F22181619069CF0AF
:105160000E942F056419750986099709613A7F40E5
:105170008105910508F0A5C162E370E080E090E050
:105180000E94F204E7CF42E250E0BE016F5F7F4F22
:10519000C8010E943D0E8981823009F08DC1C8018D
:1051A0000E94A00A8334910509F086C16D817E8139
:1051B0008F8198850E94A83B2B013C01F50140821C
:1051C00051826282738246E050E0B701685F7F4F90
:1051D000CE014D960E94913D892B99F4F701808173
:1051E0009181A281B381481659066A067B0648F070
:1051F00084819581A681B78184159505A605B7059B
:10520000F0F4C8010E94F821D12C8D2DCE5BDF4F28
:105210000FB6F894DEBF0FBECDBFDF91CF911F91C7
:105220000F91FF90EF90DF90BF90AF909F908F9085
:105230007F906F905F904F903F902F900895898955
:105240009A89AB89BC8986879787A08BB18B8EECB6
:10525000A82EB12CC8010E94D50AF1E0AF1AB108FE
:10526000C9F7D12CC70182969CAF8BAFF701B696D8
:10527000FEAFEDAF089621969FAF8EAF21975701F5
:105280009AE1A90EB11C74972396FFAFEEAF239756
:105290001701F6E12F0E311C27012EE1420E511CA1
:1052A000C8010E946522181619060CF006C1C80133
:1052B0000E94D50A8333910509F4E4C09CF581303E
:1052C000910509F480C074F4892B51F3C8010E9440
:1052D000D50A982E9A94FFEF9F1611F3C8010E94E9
:1052E000D50AF8CF8330910509F47AC0069771F793
:1052F000C8010E94D50A882E44E050E0B201C801DE
:105300000E943D0E712C612CE82DE450FF0B4F01E3
:10531000681479042CF6C8010E94D50AFFEF6F1AB1
:105320007F0AF6CF8A33910509F47EC0DCF5853318
:10533000910509F440C0C69749F6C8010E94D50AF4
:10534000982E1FAA18AE19AE1AAEB501CE018F96CF
:105350000E9456154FA958AD69AD7AAD89A99AA991
:10536000ABA9BCA9481759076A077B07B9F0B80170
:10537000CE0189960E94AF0AB501CE0183960E94A4
:1053800056154DA15EA16FA178A58BA59CA5ADA5D5
:10539000BEA5481759076A077B07E9F544E050E0C6
:1053A000B5011AC08B33910509F454C08F3F9105A4
:1053B00009F476CF8BCFC8010E94D50AC8010E949C
:1053C000D50AD82E6DCFC8010E94D50A44E050E01E
:1053D00023966EAD7FAD2397C8010E943D0E60CF2E
:1053E000C8010E94D50A882E44E050E0B101C801EE
:1053F0000E943D0E712C612C882D8450990B4C011C
:10540000681479040CF04CCFC8010E94D50A9FEFB4
:10541000691A790AF5CF9A942FEF921609F440CFC2
:10542000C8010E94D50AF7CFC8010E94D50A44E0FE
:1054300050E06DAD7EADC8010E943D0EF70166A142
:1054400077A180A591A50E94A83B66A377A380A71A
:1054500091A726CFC8010E94D50A44E050E02196CA
:105460006EAD7FAD2197C8010E943D0EF70162A588
:1054700073A584A595A50E94A83B62A773A784A7DE
:1054800095A70ECFC8010E94D50A44E050E06BAD4D
:105490007CADC8010E943D0EF70162A173A184A1F9
:1054A00095A10E94A83B62A373A384A395A366A7BA
:1054B00077A780AB91ABF4CED12CC8010E94F82124
:1054C000A4CEDD24DA94A1CE7F928F929F92AF92E8
:1054D000BF92CF92DF92EF92FF920F931F93CF93E1
:1054E000DF93CDB7DEB7A6970FB6F894DEBF0FBE39
:1054F000CDBF8C01762E942E852E20E2A22ECE01D9
:1055000001967C01DC01EA2D1D92EA95E9F768011C
:10551000FFE3CF0ED11C8AE991E09AA389A38FEF14
:105520008BA38CA38DA38EA343E450E0BE016F5DDB
:105530007F4FC6010E947F22019609F4BFC081E01F
:1055400089838A8386E0B82EBB821C82D801149698
:105550006D917D918D919C9117970E94A83B6D83D1
:105560007E838F83988789869A8680E890E09C87DF
:105570008B874CE150E0B701C6010E94F20AFE01A0
:1055800037968AE1DF011D928A95E9F74801B8E074
:105590008B0E911CF401D70101900D92BA94E1F7A2
:1055A00040E150E0B701C6010E94F20AF7011192F2
:1055B000AA94E9F796E0A92EB12C40E250E0B70199
:1055C000C6010E94F20AF1E0AF1AB108B1F783E612
:1055D000898392E89A8393E59B838C8385E38D830B
:1055E00081E08E837F829DE3988797E099878A8701
:1055F00086E0F401DE011B9601900D928A95E1F799
:105600008CE0898B8A8B64ED71E0CE0143960E9419
:10561000D43DD8011B966C91CE0149960E949B0205
:10562000F8016485CE014B960E949B02D8011D961D
:105630006C91CE014D960E949B024EE150E0B70165
:10564000C6010E94F20AB3E07B121EC082E3898386
:1056500084E08A83F80196859B8397859C83908953
:105660009D8391899E8396E39F838887828D898716
:10567000838D8A87848D8B87858D8C874CE050E065
:10568000B701C6010E94F20A87E3898386E08A8314
:1056900091E09B8393E09C838D838FE08E838AE3EC
:1056A0008F838BE388878FEF898749E050E0B701CC
:1056B000C6010E94F20AC6010E94A21FA6960FB65A
:1056C000F894DEBF0FBECDBFDF91CF911F910F9138
:1056D000FF90EF90DF90CF90BF90AF909F908F9012
:1056E0007F9008953F924F925F926F927F928F9238
:1056F0009F92AF92BF92CF92DF92EF92FF920F9361
:105700001F93CF93DF9300D000D000D0CDB7DEB78A
:105710008C010E94203A2FEC37E040E050E00E94DC
:10572000083BDC01CB010196A11DB11DF80184836A
:105730009583A683B78380839183A283B383C801B3
:10574000CF969E838D830E949D1264E470E08D81CC
:105750009E810E944013D12CC12C882309F458C08B
:105760000E942F052B013C0143E0342E58EE852E7C
:1057700053E0952EA12CB12C62E0E62ED12CC12C49
:10578000D801DE968C91DE97833091F1811159C05A
:1057900014968D919D910D90BC91A02D0196A11D07
:1057A000B11DF80184839583A683B7830E942F05DA
:1057B0006419750986099709A50194010E94713B36
:1057C000A90161E0C8010E94642A81E0D801DE9647
:1057D0008C93F1E0CF16D10499F20E942F05641941
:1057E00075098609970961327E448105910530F279
:1057F0008D819E810E949D12F80184819581A681F0
:10580000B7810196A11DB11D84839583A683B783BB
:10581000C60126960FB6F894DEBF0FBECDBFDF914E
:10582000CF911F910F91FF90EF90DF90CF90BF909D
:10583000AF909F908F907F906F905F904F903F9030
:1058400008958430F9F4F80184819581A681B781A7
:105850000196A11DB11D84839583A683B7830E9401
:105860002F056419750986099709A50194010E94FD
:10587000713BA90163E0C8010E94642AD801DE9649
:10588000EC92A7CF813031F5BE016F5F7F4FC80129
:105890000E948728F82EB2E08B137FC089819A81FD
:1058A000AB81BC81F80184839583A683B7830E9472
:1058B0002F056419750986099709A50194010E94AD
:1058C000713BA90163E0C8010E94642AD801DE96F9
:1058D000FC927FCF823009F07CCFBE016F5F7F4F9B
:1058E000C8010E948728F82EB5E08B134FC0F8013D
:1058F00036AE82A193A1A4A1B5A1892B8A2B8B2BB3
:1059000041F484E893E0A0E0B0E082A393A3A4A3D1
:10591000B5A3F80186A197A1A0A5B1A5892B8A2BD3
:105920008B2B61F482A193A1A4A1B5A1B695A795F3
:105930009795879586A397A3A0A7B1A7F80186A1FD
:1059400097A1A0A5B1A542A553A564A575A5452B12
:10595000462B472B51F4AC01BD01440F551F661F68
:10596000771F42A753A764A775A7F80186A797A733
:10597000A0ABB1AB82A593A5A4A5B5A582AB93AB13
:10598000A4ABB5ABCC24C394D12C23CFF6E08F13BA
:1059900004C0D801DE961C921CCFBFEFFB1219CFBA
:1059A000F80116AE16CF0C94FA3A7F928F929F921E
:1059B000AF92BF92CF92DF92EF92FF920F931F931D
:1059C000CF93DF9300D000D000D0CDB7DEB75C011D
:1059D0004B01712C9AE9C92E91E0D92E072D10E0C8
:1059E0000A151B050CF0A0C07720E9F0000F111F6D
:1059F000080D191DF801E080F1806BED71E0C70121
:105A00000E94CB3D892B89F46EED71E0F801828113
:105A100093810E94CB3D61E0892B09F060E090E02A
:105A200080E00E94D32C7394D9CF65EE71E0C7015A
:105A30000E94CB3D892B19F5DA82C9821B821C8218
:105A40001D821E82F80162817381CE0101960E943F
:105A5000EF02FC800D811E816B8181E090E00E944D
:105A6000D32C6F2D82E090E00E94D32C602F83E036
:105A700090E00E94D32C612F84E090E0D2CF68EEBA
:105A800071E0C7010E94CB3D892B19F5DA82C982EA
:105A90001B821C821D821E82F80162817381CE01ED
:105AA00001960E94EF02FC800D811E816B8185E0D2
:105AB00090E00E94D32C6F2D86E090E00E94D32CC2
:105AC000602F87E090E00E94D32C612F88E090E067
:105AD000A8CF6BEE71E0C7010E94CB3D892B09F086
